{
  "_format": "hh-sol-artifact-1",
  "contractName": "PUSD",
  "sourceName": "contracts/PUSD.sol",
  "abi": [
    {
      "inputs": [
        {
          "internalType": "address",
          "name": "_usdc",
          "type": "address"
        }
      ],
      "stateMutability": "nonpayable",
      "type": "constructor"
    },
    {
      "inputs": [
        {
          "internalType": "address",
          "name": "spender",
          "type": "address"
        },
        {
          "internalType": "uint256",
          "name": "allowance",
          "type": "uint256"
        },
        {
          "internalType": "uint256",
          "name": "needed",
          "type": "uint256"
        }
      ],
      "name": "ERC20InsufficientAllowance",
      "type": "error"
    },
    {
      "inputs": [
        {
          "internalType": "address",
          "name": "sender",
          "type": "address"
        },
        {
          "internalType": "uint256",
          "name": "balance",
          "type": "uint256"
        },
        {
          "internalType": "uint256",
          "name": "needed",
          "type": "uint256"
        }
      ],
      "name": "ERC20InsufficientBalance",
      "type": "error"
    },
    {
      "inputs": [
        {
          "internalType": "address",
          "name": "approver",
          "type": "address"
        }
      ],
      "name": "ERC20InvalidApprover",
      "type": "error"
    },
    {
      "inputs": [
        {
          "internalType": "address",
          "name": "receiver",
          "type": "address"
        }
      ],
      "name": "ERC20InvalidReceiver",
      "type": "error"
    },
    {
      "inputs": [
        {
          "internalType": "address",
          "name": "sender",
          "type": "address"
        }
      ],
      "name": "ERC20InvalidSender",
      "type": "error"
    },
    {
      "inputs": [
        {
          "internalType": "address",
          "name": "spender",
          "type": "address"
        }
      ],
      "name": "ERC20InvalidSpender",
      "type": "error"
    },
    {
      "inputs": [
        {
          "internalType": "address",
          "name": "owner",
          "type": "address"
        }
      ],
      "name": "OwnableInvalidOwner",
      "type": "error"
    },
    {
      "inputs": [
        {
          "internalType": "address",
          "name": "account",
          "type": "address"
        }
      ],
      "name": "OwnableUnauthorizedAccount",
      "type": "error"
    },
    {
      "anonymous": false,
      "inputs": [
        {
          "indexed": true,
          "internalType": "address",
          "name": "owner",
          "type": "address"
        },
        {
          "indexed": true,
          "internalType": "address",
          "name": "spender",
          "type": "address"
        },
        {
          "indexed": false,
          "internalType": "uint256",
          "name": "value",
          "type": "uint256"
        }
      ],
      "name": "Approval",
      "type": "event"
    },
    {
      "anonymous": false,
      "inputs": [
        {
          "indexed": true,
          "internalType": "address",
          "name": "user",
          "type": "address"
        },
        {
          "indexed": false,
          "internalType": "uint256",
          "name": "usdcAmount",
          "type": "uint256"
        },
        {
          "indexed": false,
          "internalType": "uint256",
          "name": "pusdAmount",
          "type": "uint256"
        }
      ],
      "name": "Deposit",
      "type": "event"
    },
    {
      "anonymous": false,
      "inputs": [
        {
          "indexed": true,
          "internalType": "address",
          "name": "user",
          "type": "address"
        },
        {
          "indexed": false,
          "internalType": "uint256",
          "name": "pusdAmount",
          "type": "uint256"
        }
      ],
      "name": "Mint",
      "type": "event"
    },
    {
      "anonymous": false,
      "inputs": [
        {
          "indexed": true,
          "internalType": "address",
          "name": "previousOwner",
          "type": "address"
        },
        {
          "indexed": true,
          "internalType": "address",
          "name": "newOwner",
          "type": "address"
        }
      ],
      "name": "OwnershipTransferred",
      "type": "event"
    },
    {
      "anonymous": false,
      "inputs": [
        {
          "indexed": true,
          "internalType": "address",
          "name": "from",
          "type": "address"
        },
        {
          "indexed": true,
          "internalType": "address",
          "name": "to",
          "type": "address"
        },
        {
          "indexed": false,
          "internalType": "uint256",
          "name": "value",
          "type": "uint256"
        }
      ],
      "name": "Transfer",
      "type": "event"
    },
    {
      "anonymous": false,
      "inputs": [
        {
          "indexed": true,
          "internalType": "address",
          "name": "user",
          "type": "address"
        },
        {
          "indexed": false,
          "internalType": "uint256",
          "name": "pusdAmount",
          "type": "uint256"
        },
        {
          "indexed": false,
          "internalType": "uint256",
          "name": "usdcAmount",
          "type": "uint256"
        }
      ],
      "name": "Withdraw",
      "type": "event"
    },
    {
      "inputs": [
        {
          "internalType": "address",
          "name": "owner",
          "type": "address"
        },
        {
          "internalType": "address",
          "name": "spender",
          "type": "address"
        }
      ],
      "name": "allowance",
      "outputs": [
        {
          "internalType": "uint256",
          "name": "",
          "type": "uint256"
        }
      ],
      "stateMutability": "view",
      "type": "function"
    },
    {
      "inputs": [
        {
          "internalType": "address",
          "name": "spender",
          "type": "address"
        },
        {
          "internalType": "uint256",
          "name": "value",
          "type": "uint256"
        }
      ],
      "name": "approve",
      "outputs": [
        {
          "internalType": "bool",
          "name": "",
          "type": "bool"
        }
      ],
      "stateMutability": "nonpayable",
      "type": "function"
    },
    {
      "inputs": [
        {
          "internalType": "address",
          "name": "account",
          "type": "address"
        }
      ],
      "name": "balanceOf",
      "outputs": [
        {
          "internalType": "uint256",
          "name": "",
          "type": "uint256"
        }
      ],
      "stateMutability": "view",
      "type": "function"
    },
    {
      "inputs": [],
      "name": "decimals",
      "outputs": [
        {
          "internalType": "uint8",
          "name": "",
          "type": "uint8"
        }
      ],
      "stateMutability": "view",
      "type": "function"
    },
    {
      "inputs": [
        {
          "internalType": "uint256",
          "name": "usdcAmount",
          "type": "uint256"
        }
      ],
      "name": "depositAndMint",
      "outputs": [],
      "stateMutability": "nonpayable",
      "type": "function"
    },
    {
      "inputs": [
        {
          "internalType": "address",
          "name": "user",
          "type": "address"
        }
      ],
      "name": "getPUSDBalance",
      "outputs": [
        {
          "internalType": "uint256",
          "name": "",
          "type": "uint256"
        }
      ],
      "stateMutability": "view",
      "type": "function"
    },
    {
      "inputs": [],
      "name": "getReserves",
      "outputs": [
        {
          "internalType": "uint256",
          "name": "",
          "type": "uint256"
        }
      ],
      "stateMutability": "view",
      "type": "function"
    },
    {
      "inputs": [
        {
          "internalType": "address",
          "name": "user",
          "type": "address"
        }
      ],
      "name": "getUSDCBalance",
      "outputs": [
        {
          "internalType": "uint256",
          "name": "",
          "type": "uint256"
        }
      ],
      "stateMutability": "view",
      "type": "function"
    },
    {
      "inputs": [
        {
          "internalType": "address",
          "name": "user",
          "type": "address"
        }
      ],
      "name": "getUserBalanceSummary",
      "outputs": [
        {
          "internalType": "uint256",
          "name": "pusdBalance",
          "type": "uint256"
        },
        {
          "internalType": "uint256",
          "name": "usdcBalance",
          "type": "uint256"
        },
        {
          "internalType": "uint256",
          "name": "totalDeposited",
          "type": "uint256"
        }
      ],
      "stateMutability": "view",
      "type": "function"
    },
    {
      "inputs": [
        {
          "internalType": "address",
          "name": "user",
          "type": "address"
        }
      ],
      "name": "getUserDeposits",
      "outputs": [
        {
          "internalType": "uint256",
          "name": "",
          "type": "uint256"
        }
      ],
      "stateMutability": "view",
      "type": "function"
    },
    {
      "inputs": [],
      "name": "loanManager",
      "outputs": [
        {
          "internalType": "contract LoanManager",
          "name": "",
          "type": "address"
        }
      ],
      "stateMutability": "view",
      "type": "function"
    },
    {
      "inputs": [],
      "name": "loanedUSDCAmount",
      "outputs": [
        {
          "internalType": "uint256",
          "name": "",
          "type": "uint256"
        }
      ],
      "stateMutability": "view",
      "type": "function"
    },
    {
      "inputs": [
        {
          "internalType": "uint256",
          "name": "pusdAmount",
          "type": "uint256"
        }
      ],
      "name": "mintPusdAndTransferToSPUSD",
      "outputs": [
        {
          "internalType": "bool",
          "name": "",
          "type": "bool"
        }
      ],
      "stateMutability": "nonpayable",
      "type": "function"
    },
    {
      "inputs": [
        {
          "internalType": "uint256",
          "name": "amount",
          "type": "uint256"
        }
      ],
      "name": "mintToOperator",
      "outputs": [],
      "stateMutability": "nonpayable",
      "type": "function"
    },
    {
      "inputs": [],
      "name": "name",
      "outputs": [
        {
          "internalType": "string",
          "name": "",
          "type": "string"
        }
      ],
      "stateMutability": "view",
      "type": "function"
    },
    {
      "inputs": [],
      "name": "operatorAddress",
      "outputs": [
        {
          "internalType": "address",
          "name": "",
          "type": "address"
        }
      ],
      "stateMutability": "view",
      "type": "function"
    },
    {
      "inputs": [],
      "name": "owner",
      "outputs": [
        {
          "internalType": "address",
          "name": "",
          "type": "address"
        }
      ],
      "stateMutability": "view",
      "type": "function"
    },
    {
      "inputs": [
        {
          "internalType": "address",
          "name": "token",
          "type": "address"
        },
        {
          "internalType": "uint256",
          "name": "amount",
          "type": "uint256"
        }
      ],
      "name": "recoverERC20",
      "outputs": [],
      "stateMutability": "nonpayable",
      "type": "function"
    },
    {
      "inputs": [],
      "name": "renounceOwnership",
      "outputs": [],
      "stateMutability": "nonpayable",
      "type": "function"
    },
    {
      "inputs": [],
      "name": "sPUSDAddress",
      "outputs": [
        {
          "internalType": "address",
          "name": "",
          "type": "address"
        }
      ],
      "stateMutability": "view",
      "type": "function"
    },
    {
      "inputs": [
        {
          "internalType": "address",
          "name": "_loanManager",
          "type": "address"
        }
      ],
      "name": "setLoanManager",
      "outputs": [],
      "stateMutability": "nonpayable",
      "type": "function"
    },
    {
      "inputs": [
        {
          "internalType": "address",
          "name": "_operatorAddress",
          "type": "address"
        }
      ],
      "name": "setOperatorAddress",
      "outputs": [],
      "stateMutability": "nonpayable",
      "type": "function"
    },
    {
      "inputs": [
        {
          "internalType": "address",
          "name": "_sPUSD",
          "type": "address"
        }
      ],
      "name": "setsPUSDAddress",
      "outputs": [],
      "stateMutability": "nonpayable",
      "type": "function"
    },
    {
      "inputs": [],
      "name": "symbol",
      "outputs": [
        {
          "internalType": "string",
          "name": "",
          "type": "string"
        }
      ],
      "stateMutability": "view",
      "type": "function"
    },
    {
      "inputs": [],
      "name": "totalSupply",
      "outputs": [
        {
          "internalType": "uint256",
          "name": "",
          "type": "uint256"
        }
      ],
      "stateMutability": "view",
      "type": "function"
    },
    {
      "inputs": [
        {
          "internalType": "address",
          "name": "to",
          "type": "address"
        },
        {
          "internalType": "uint256",
          "name": "value",
          "type": "uint256"
        }
      ],
      "name": "transfer",
      "outputs": [
        {
          "internalType": "bool",
          "name": "",
          "type": "bool"
        }
      ],
      "stateMutability": "nonpayable",
      "type": "function"
    },
    {
      "inputs": [
        {
          "internalType": "address",
          "name": "from",
          "type": "address"
        },
        {
          "internalType": "address",
          "name": "to",
          "type": "address"
        },
        {
          "internalType": "uint256",
          "name": "value",
          "type": "uint256"
        }
      ],
      "name": "transferFrom",
      "outputs": [
        {
          "internalType": "bool",
          "name": "",
          "type": "bool"
        }
      ],
      "stateMutability": "nonpayable",
      "type": "function"
    },
    {
      "inputs": [
        {
          "internalType": "uint256",
          "name": "pusdAmount",
          "type": "uint256"
        },
        {
          "internalType": "address",
          "name": "operator",
          "type": "address"
        },
        {
          "internalType": "address",
          "name": "to",
          "type": "address"
        }
      ],
      "name": "transferFromOperator",
      "outputs": [],
      "stateMutability": "nonpayable",
      "type": "function"
    },
    {
      "inputs": [
        {
          "internalType": "address",
          "name": "newOwner",
          "type": "address"
        }
      ],
      "name": "transferOwnership",
      "outputs": [],
      "stateMutability": "nonpayable",
      "type": "function"
    },
    {
      "inputs": [
        {
          "internalType": "address",
          "name": "from",
          "type": "address"
        },
        {
          "internalType": "uint256",
          "name": "pusdAmount",
          "type": "uint256"
        }
      ],
      "name": "transferToSPUSD",
      "outputs": [
        {
          "internalType": "bool",
          "name": "",
          "type": "bool"
        }
      ],
      "stateMutability": "nonpayable",
      "type": "function"
    },
    {
      "inputs": [],
      "name": "usdc",
      "outputs": [
        {
          "internalType": "contract USDC",
          "name": "",
          "type": "address"
        }
      ],
      "stateMutability": "view",
      "type": "function"
    },
    {
      "inputs": [
        {
          "internalType": "uint256",
          "name": "pusdAmount",
          "type": "uint256"
        }
      ],
      "name": "withdraw",
      "outputs": [],
      "stateMutability": "nonpayable",
      "type": "function"
    }
  ],
  "bytecode": "0x60806040526000600a553480156200001657600080fd5b506040516200348a3803806200348a83398181016040528101906200003c919062000340565b336040518060400160405280600f81526020017f5055534420537461626c65636f696e00000000000000000000000000000000008152506040518060400160405280600481526020017f50555344000000000000000000000000000000000000000000000000000000008152508160039081620000ba9190620005ec565b508060049081620000cc9190620005ec565b505050600073ffffffffffffffffffffffffffffffffffffffff168173ffffffffffffffffffffffffffffffffffffffff1603620001445760006040517f1e4fbdf70000000000000000000000000000000000000000000000000000000081526004016200013b9190620006e4565b60405180910390fd5b62000155816200021060201b60201c565b50600073ffffffffffffffffffffffffffffffffffffffff168173ffffffffffffffffffffffffffffffffffffffff1603620001c8576040517f08c379a0000000000000000000000000000000000000000000000000000000008152600401620001bf9062000762565b60405180910390fd5b80600660006101000a81548173ffffffffffffffffffffffffffffffffffffffff021916908373ffffffffffffffffffffffffffffffffffffffff1602179055505062000784565b6000600560009054906101000a900473ffffffffffffffffffffffffffffffffffffffff16905081600560006101000a81548173ffffffffffffffffffffffffffffffffffffffff021916908373ffffffffffffffffffffffffffffffffffffffff1602179055508173ffffffffffffffffffffffffffffffffffffffff168173ffffffffffffffffffffffffffffffffffffffff167f8be0079c531659141344cd1fd0a4f28419497f9722a3daafe3b4186f6b6457e060405160405180910390a35050565b600080fd5b600073ffffffffffffffffffffffffffffffffffffffff82169050919050565b60006200030882620002db565b9050919050565b6200031a81620002fb565b81146200032657600080fd5b50565b6000815190506200033a816200030f565b92915050565b600060208284031215620003595762000358620002d6565b5b6000620003698482850162000329565b91505092915050565b600081519050919050565b7f4e487b7100000000000000000000000000000000000000000000000000000000600052604160045260246000fd5b7f4e487b7100000000000000000000000000000000000000000000000000000000600052602260045260246000fd5b60006002820490506001821680620003f457607f821691505b6020821081036200040a5762000409620003ac565b5b50919050565b60008190508160005260206000209050919050565b60006020601f8301049050919050565b600082821b905092915050565b600060088302620004747fffffffffffffffffffffffffffffffffffffffffffffffffffffffffffffffff8262000435565b62000480868362000435565b95508019841693508086168417925050509392505050565b6000819050919050565b6000819050919050565b6000620004cd620004c7620004c18462000498565b620004a2565b62000498565b9050919050565b6000819050919050565b620004e983620004ac565b62000501620004f882620004d4565b84845462000442565b825550505050565b600090565b6200051862000509565b62000525818484620004de565b505050565b5b818110156200054d57620005416000826200050e565b6001810190506200052b565b5050565b601f8211156200059c57620005668162000410565b620005718462000425565b8101602085101562000581578190505b62000599620005908562000425565b8301826200052a565b50505b505050565b600082821c905092915050565b6000620005c160001984600802620005a1565b1980831691505092915050565b6000620005dc8383620005ae565b9150826002028217905092915050565b620005f78262000372565b67ffffffffffffffff8111156200061357620006126200037d565b5b6200061f8254620003db565b6200062c82828562000551565b600060209050601f8311600181146200066457600084156200064f578287015190505b6200065b8582620005ce565b865550620006cb565b601f198416620006748662000410565b60005b828110156200069e5784890151825560018201915060208501945060208101905062000677565b86831015620006be5784890151620006ba601f891682620005ae565b8355505b6001600288020188555050505b505050505050565b620006de81620002fb565b82525050565b6000602082019050620006fb6000830184620006d3565b92915050565b600082825260208201905092915050565b7f5553444320616464726573732063616e6e6f74206265207a65726f0000000000600082015250565b60006200074a601b8362000701565b9150620007578262000712565b602082019050919050565b600060208201905081810360008301526200077d816200073b565b9050919050565b612cf680620007946000396000f3fe608060405234801561001057600080fd5b50600436106101f05760003560e01c80635772ae701161010f5780638da5cb5b116100a2578063b3ccbcfe11610071578063b3ccbcfe146105cf578063cd22c1f3146105ed578063dd62ed3e1461060b578063f2fde38b1461063b576101f0565b80638da5cb5b1461054757806395d89b41146105655780639c01f80114610583578063a9059cbb1461059f576101f0565b80637e730007116100de5780637e730007146104ab5780637ee0a266146104db57806383d8cba51461050d5780638980f11f1461052b576101f0565b80635772ae7014610425578063680247171461044157806370a0823114610471578063715018a6146104a1576101f0565b80632e1a7d4d1161018757806338c077af1161015657806338c077af1461039f5780633e413bee146103cf57806345fd0465146103ed57806347e0e2fa14610409576101f0565b80632e1a7d4d146103195780632f1d5a6014610335578063313ce5671461035157806335d9fc4c1461036f576101f0565b8063127effb2116101c3578063127effb21461027d57806318160ddd1461029b57806323b872dd146102b95780632a5bf6d2146102e9576101f0565b806303bf6344146101f557806306fdde03146102115780630902f1ac1461022f578063095ea7b31461024d575b600080fd5b61020f600480360381019061020a9190612189565b610657565b005b6102196106f5565b604051610226919061226c565b60405180910390f35b610237610787565b604051610244919061229d565b60405180910390f35b610267600480360381019061026291906122b8565b61082a565b6040516102749190612313565b60405180910390f35b61028561084d565b604051610292919061233d565b60405180910390f35b6102a3610873565b6040516102b0919061229d565b60405180910390f35b6102d360048036038101906102ce9190612358565b61087d565b6040516102e09190612313565b60405180910390f35b61030360048036038101906102fe91906123ab565b6108ac565b604051610310919061229d565b60405180910390f35b610333600480360381019061032e91906123d8565b6108f5565b005b61034f600480360381019061034a91906123ab565b610bac565b005b610359610c67565b6040516103669190612421565b60405180910390f35b610389600480360381019061038491906123d8565b610c70565b6040516103969190612313565b60405180910390f35b6103b960048036038101906103b491906122b8565b610d76565b6040516103c69190612313565b60405180910390f35b6103d7610e3c565b6040516103e4919061249b565b60405180910390f35b610407600480360381019061040291906123d8565b610e62565b005b610423600480360381019061041e91906123d8565b611121565b005b61043f600480360381019061043a91906123ab565b611220565b005b61045b600480360381019061045691906123ab565b6112db565b604051610468919061229d565b60405180910390f35b61048b600480360381019061048691906123ab565b611380565b604051610498919061229d565b60405180910390f35b6104a96113c8565b005b6104c560048036038101906104c091906123ab565b6113dc565b6040516104d2919061229d565b60405180910390f35b6104f560048036038101906104f091906123ab565b6113ee565b604051610504939291906124b6565b60405180910390f35b6105156114e5565b604051610522919061233d565b60405180910390f35b610545600480360381019061054091906122b8565b61150b565b005b61054f61162d565b60405161055c919061233d565b60405180910390f35b61056d611657565b60405161057a919061226c565b60405180910390f35b61059d600480360381019061059891906123ab565b6116e9565b005b6105b960048036038101906105b491906122b8565b6117a4565b6040516105c69190612313565b60405180910390f35b6105d76117c7565b6040516105e4919061250e565b60405180910390f35b6105f56117ed565b604051610602919061229d565b60405180910390f35b61062560048036038101906106209190612529565b6117f3565b604051610632919061229d565b60405180910390f35b610655600480360381019061065091906123ab565b61187a565b005b6000831161069a576040517f08c379a0000000000000000000000000000000000000000000000000000000008152600401610691906125db565b60405180910390fd5b826106a483611380565b10156106e5576040517f08c379a00000000000000000000000000000000000000000000000000000000081526004016106dc90612647565b60405180910390fd5b6106f0828285611900565b505050565b60606003805461070490612696565b80601f016020809104026020016040519081016040528092919081815260200182805461073090612696565b801561077d5780601f106107525761010080835404028352916020019161077d565b820191906000526020600020905b81548152906001019060200180831161076057829003601f168201915b5050505050905090565b6000600660009054906101000a900473ffffffffffffffffffffffffffffffffffffffff1673ffffffffffffffffffffffffffffffffffffffff166370a08231306040518263ffffffff1660e01b81526004016107e4919061233d565b602060405180830381865afa158015610801573d6000803e3d6000fd5b505050506040513d601f19601f8201168201806040525081019061082591906126dc565b905090565b6000806108356119f4565b90506108428185856119fc565b600191505092915050565b600960009054906101000a900473ffffffffffffffffffffffffffffffffffffffff1681565b6000600254905090565b6000806108886119f4565b9050610895858285611a0e565b6108a0858585611900565b60019150509392505050565b6000600b60008373ffffffffffffffffffffffffffffffffffffffff1673ffffffffffffffffffffffffffffffffffffffff168152602001908152602001600020549050919050565b60008111610938576040517f08c379a000000000000000000000000000000000000000000000000000000000815260040161092f9061277b565b60405180910390fd5b8061094233611380565b1015610983576040517f08c379a000000000000000000000000000000000000000000000000000000000815260040161097a90612647565b60405180910390fd5b80600b60003373ffffffffffffffffffffffffffffffffffffffff1673ffffffffffffffffffffffffffffffffffffffff1681526020019081526020016000205410610a245780600b60003373ffffffffffffffffffffffffffffffffffffffff1673ffffffffffffffffffffffffffffffffffffffff1681526020019081526020016000206000828254610a1891906127ca565b92505081905550610a6a565b6000600b60003373ffffffffffffffffffffffffffffffffffffffff1673ffffffffffffffffffffffffffffffffffffffff168152602001908152602001600020819055505b610a743382611aa3565b6000600660009054906101000a900473ffffffffffffffffffffffffffffffffffffffff1673ffffffffffffffffffffffffffffffffffffffff1663a9059cbb33846040518363ffffffff1660e01b8152600401610ad39291906127fe565b6020604051808303816000875af1158015610af2573d6000803e3d6000fd5b505050506040513d601f19601f82011682018060405250810190610b169190612853565b905080610b58576040517f08c379a0000000000000000000000000000000000000000000000000000000008152600401610b4f906128cc565b60405180910390fd5b3373ffffffffffffffffffffffffffffffffffffffff167ff279e6a1f5e320cca91135676d9cb6e44ca8a08c0b88342bcdb1144f6511b5688384604051610ba09291906128ec565b60405180910390a25050565b610bb4611b25565b600073ffffffffffffffffffffffffffffffffffffffff168173ffffffffffffffffffffffffffffffffffffffff1603610c23576040517f08c379a0000000000000000000000000000000000000000000000000000000008152600401610c1a90612961565b60405180910390fd5b80600960006101000a81548173ffffffffffffffffffffffffffffffffffffffff021916908373ffffffffffffffffffffffffffffffffffffffff16021790555050565b60006012905090565b6000808211610cb4576040517f08c379a0000000000000000000000000000000000000000000000000000000008152600401610cab906125db565b60405180910390fd5b600660009054906101000a900473ffffffffffffffffffffffffffffffffffffffff1673ffffffffffffffffffffffffffffffffffffffff1663aa52b3d3836040518263ffffffff1660e01b8152600401610d0f919061229d565b600060405180830381600087803b158015610d2957600080fd5b505af1158015610d3d573d6000803e3d6000fd5b50505050610d6d600760009054906101000a900473ffffffffffffffffffffffffffffffffffffffff1683611bac565b60019050919050565b6000808211610dba576040517f08c379a0000000000000000000000000000000000000000000000000000000008152600401610db1906125db565b60405180910390fd5b81610dc484611380565b1015610e05576040517f08c379a0000000000000000000000000000000000000000000000000000000008152600401610dfc90612647565b60405180910390fd5b610e3283600760009054906101000a900473ffffffffffffffffffffffffffffffffffffffff1684611900565b6001905092915050565b600660009054906101000a900473ffffffffffffffffffffffffffffffffffffffff1681565b60008111610ea5576040517f08c379a0000000000000000000000000000000000000000000000000000000008152600401610e9c906129f3565b60405180910390fd5b6000600660009054906101000a900473ffffffffffffffffffffffffffffffffffffffff1673ffffffffffffffffffffffffffffffffffffffff166370a08231336040518263ffffffff1660e01b8152600401610f02919061233d565b602060405180830381865afa158015610f1f573d6000803e3d6000fd5b505050506040513d601f19601f82011682018060405250810190610f4391906126dc565b905081811015610f88576040517f08c379a0000000000000000000000000000000000000000000000000000000008152600401610f7f90612a5f565b60405180910390fd5b6000600660009054906101000a900473ffffffffffffffffffffffffffffffffffffffff1673ffffffffffffffffffffffffffffffffffffffff1663fff3e6d933856040518363ffffffff1660e01b8152600401610fe79291906127fe565b6020604051808303816000875af1158015611006573d6000803e3d6000fd5b505050506040513d601f19601f8201168201806040525081019061102a9190612853565b90508061106c576040517f08c379a0000000000000000000000000000000000000000000000000000000008152600401611063906128cc565b60405180910390fd5b82600b60003373ffffffffffffffffffffffffffffffffffffffff1673ffffffffffffffffffffffffffffffffffffffff16815260200190815260200160002060008282546110bb9190612a7f565b925050819055506110cc3384611bac565b3373ffffffffffffffffffffffffffffffffffffffff167f90890809c654f11d6e72a28fa60149770a0d11ec6c92319d6ceb2bb0a4ea1a1584856040516111149291906128ec565b60405180910390a2505050565b60008111611164576040517f08c379a000000000000000000000000000000000000000000000000000000000815260040161115b90612aff565b60405180910390fd5b600660009054906101000a900473ffffffffffffffffffffffffffffffffffffffff1673ffffffffffffffffffffffffffffffffffffffff1663aa52b3d3826040518263ffffffff1660e01b81526004016111bf919061229d565b600060405180830381600087803b1580156111d957600080fd5b505af11580156111ed573d6000803e3d6000fd5b5050505061121d600960009054906101000a900473ffffffffffffffffffffffffffffffffffffffff1682611bac565b50565b611228611b25565b600073ffffffffffffffffffffffffffffffffffffffff168173ffffffffffffffffffffffffffffffffffffffff1603611297576040517f08c379a000000000000000000000000000000000000000000000000000000000815260040161128e90612b91565b60405180910390fd5b80600860006101000a81548173ffffffffffffffffffffffffffffffffffffffff021916908373ffffffffffffffffffffffffffffffffffffffff16021790555050565b6000600660009054906101000a900473ffffffffffffffffffffffffffffffffffffffff1673ffffffffffffffffffffffffffffffffffffffff166370a08231836040518263ffffffff1660e01b8152600401611338919061233d565b602060405180830381865afa158015611355573d6000803e3d6000fd5b505050506040513d601f19601f8201168201806040525081019061137991906126dc565b9050919050565b60008060008373ffffffffffffffffffffffffffffffffffffffff1673ffffffffffffffffffffffffffffffffffffffff168152602001908152602001600020549050919050565b6113d0611b25565b6113da6000611c2e565b565b60006113e782611380565b9050919050565b60008060006113fc84611380565b600660009054906101000a900473ffffffffffffffffffffffffffffffffffffffff1673ffffffffffffffffffffffffffffffffffffffff166370a08231866040518263ffffffff1660e01b8152600401611457919061233d565b602060405180830381865afa158015611474573d6000803e3d6000fd5b505050506040513d601f19601f8201168201806040525081019061149891906126dc565b600b60008773ffffffffffffffffffffffffffffffffffffffff1673ffffffffffffffffffffffffffffffffffffffff168152602001908152602001600020549250925092509193909250565b600760009054906101000a900473ffffffffffffffffffffffffffffffffffffffff1681565b611513611b25565b600660009054906101000a900473ffffffffffffffffffffffffffffffffffffffff1673ffffffffffffffffffffffffffffffffffffffff168273ffffffffffffffffffffffffffffffffffffffff16036115a3576040517f08c379a000000000000000000000000000000000000000000000000000000000815260040161159a90612bfd565b60405180910390fd5b8173ffffffffffffffffffffffffffffffffffffffff1663a9059cbb6115c761162d565b836040518363ffffffff1660e01b81526004016115e59291906127fe565b6020604051808303816000875af1158015611604573d6000803e3d6000fd5b505050506040513d601f19601f820116820180604052508101906116289190612853565b505050565b6000600560009054906101000a900473ffffffffffffffffffffffffffffffffffffffff16905090565b60606004805461166690612696565b80601f016020809104026020016040519081016040528092919081815260200182805461169290612696565b80156116df5780601f106116b4576101008083540402835291602001916116df565b820191906000526020600020905b8154815290600101906020018083116116c257829003601f168201915b5050505050905090565b6116f1611b25565b600073ffffffffffffffffffffffffffffffffffffffff168173ffffffffffffffffffffffffffffffffffffffff1603611760576040517f08c379a000000000000000000000000000000000000000000000000000000000815260040161175790612c69565b60405180910390fd5b80600760006101000a81548173ffffffffffffffffffffffffffffffffffffffff021916908373ffffffffffffffffffffffffffffffffffffffff16021790555050565b6000806117af6119f4565b90506117bc818585611900565b600191505092915050565b600860009054906101000a900473ffffffffffffffffffffffffffffffffffffffff1681565b600a5481565b6000600160008473ffffffffffffffffffffffffffffffffffffffff1673ffffffffffffffffffffffffffffffffffffffff16815260200190815260200160002060008373ffffffffffffffffffffffffffffffffffffffff1673ffffffffffffffffffffffffffffffffffffffff16815260200190815260200160002054905092915050565b611882611b25565b600073ffffffffffffffffffffffffffffffffffffffff168173ffffffffffffffffffffffffffffffffffffffff16036118f45760006040517f1e4fbdf70000000000000000000000000000000000000000000000000000000081526004016118eb919061233d565b60405180910390fd5b6118fd81611c2e565b50565b600073ffffffffffffffffffffffffffffffffffffffff168373ffffffffffffffffffffffffffffffffffffffff16036119725760006040517f96c6fd1e000000000000000000000000000000000000000000000000000000008152600401611969919061233d565b60405180910390fd5b600073ffffffffffffffffffffffffffffffffffffffff168273ffffffffffffffffffffffffffffffffffffffff16036119e45760006040517fec442f050000000000000000000000000000000000000000000000000000000081526004016119db919061233d565b60405180910390fd5b6119ef838383611cf4565b505050565b600033905090565b611a098383836001611f19565b505050565b6000611a1a84846117f3565b90507fffffffffffffffffffffffffffffffffffffffffffffffffffffffffffffffff811015611a9d5781811015611a8d578281836040517ffb8f41b2000000000000000000000000000000000000000000000000000000008152600401611a8493929190612c89565b60405180910390fd5b611a9c84848484036000611f19565b5b50505050565b600073ffffffffffffffffffffffffffffffffffffffff168273ffffffffffffffffffffffffffffffffffffffff1603611b155760006040517f96c6fd1e000000000000000000000000000000000000000000000000000000008152600401611b0c919061233d565b60405180910390fd5b611b2182600083611cf4565b5050565b611b2d6119f4565b73ffffffffffffffffffffffffffffffffffffffff16611b4b61162d565b73ffffffffffffffffffffffffffffffffffffffff1614611baa57611b6e6119f4565b6040517f118cdaa7000000000000000000000000000000000000000000000000000000008152600401611ba1919061233d565b60405180910390fd5b565b600073ffffffffffffffffffffffffffffffffffffffff168273ffffffffffffffffffffffffffffffffffffffff1603611c1e5760006040517fec442f05000000000000000000000000000000000000000000000000000000008152600401611c15919061233d565b60405180910390fd5b611c2a60008383611cf4565b5050565b6000600560009054906101000a900473ffffffffffffffffffffffffffffffffffffffff16905081600560006101000a81548173ffffffffffffffffffffffffffffffffffffffff021916908373ffffffffffffffffffffffffffffffffffffffff1602179055508173ffffffffffffffffffffffffffffffffffffffff168173ffffffffffffffffffffffffffffffffffffffff167f8be0079c531659141344cd1fd0a4f28419497f9722a3daafe3b4186f6b6457e060405160405180910390a35050565b600073ffffffffffffffffffffffffffffffffffffffff168373ffffffffffffffffffffffffffffffffffffffff1603611d46578060026000828254611d3a9190612a7f565b92505081905550611e19565b60008060008573ffffffffffffffffffffffffffffffffffffffff1673ffffffffffffffffffffffffffffffffffffffff16815260200190815260200160002054905081811015611dd2578381836040517fe450d38c000000000000000000000000000000000000000000000000000000008152600401611dc993929190612c89565b60405180910390fd5b8181036000808673ffffffffffffffffffffffffffffffffffffffff1673ffffffffffffffffffffffffffffffffffffffff16815260200190815260200160002081905550505b600073ffffffffffffffffffffffffffffffffffffffff168273ffffffffffffffffffffffffffffffffffffffff1603611e625780600260008282540392505081905550611eaf565b806000808473ffffffffffffffffffffffffffffffffffffffff1673ffffffffffffffffffffffffffffffffffffffff168152602001908152602001600020600082825401925050819055505b8173ffffffffffffffffffffffffffffffffffffffff168373ffffffffffffffffffffffffffffffffffffffff167fddf252ad1be2c89b69c2b068fc378daa952ba7f163c4a11628f55a4df523b3ef83604051611f0c919061229d565b60405180910390a3505050565b600073ffffffffffffffffffffffffffffffffffffffff168473ffffffffffffffffffffffffffffffffffffffff1603611f8b5760006040517fe602df05000000000000000000000000000000000000000000000000000000008152600401611f82919061233d565b60405180910390fd5b600073ffffffffffffffffffffffffffffffffffffffff168373ffffffffffffffffffffffffffffffffffffffff1603611ffd5760006040517f94280d62000000000000000000000000000000000000000000000000000000008152600401611ff4919061233d565b60405180910390fd5b81600160008673ffffffffffffffffffffffffffffffffffffffff1673ffffffffffffffffffffffffffffffffffffffff16815260200190815260200160002060008573ffffffffffffffffffffffffffffffffffffffff1673ffffffffffffffffffffffffffffffffffffffff1681526020019081526020016000208190555080156120ea578273ffffffffffffffffffffffffffffffffffffffff168473ffffffffffffffffffffffffffffffffffffffff167f8c5be1e5ebec7d5bd14f71427d1e84f3dd0314c0f7b2291e5b200ac8c7c3b925846040516120e1919061229d565b60405180910390a35b50505050565b600080fd5b6000819050919050565b612108816120f5565b811461211357600080fd5b50565b600081359050612125816120ff565b92915050565b600073ffffffffffffffffffffffffffffffffffffffff82169050919050565b60006121568261212b565b9050919050565b6121668161214b565b811461217157600080fd5b50565b6000813590506121838161215d565b92915050565b6000806000606084860312156121a2576121a16120f0565b5b60006121b086828701612116565b93505060206121c186828701612174565b92505060406121d286828701612174565b9150509250925092565b600081519050919050565b600082825260208201905092915050565b60005b838110156122165780820151818401526020810190506121fb565b60008484015250505050565b6000601f19601f8301169050919050565b600061223e826121dc565b61224881856121e7565b93506122588185602086016121f8565b61226181612222565b840191505092915050565b600060208201905081810360008301526122868184612233565b905092915050565b612297816120f5565b82525050565b60006020820190506122b2600083018461228e565b92915050565b600080604083850312156122cf576122ce6120f0565b5b60006122dd85828601612174565b92505060206122ee85828601612116565b9150509250929050565b60008115159050919050565b61230d816122f8565b82525050565b60006020820190506123286000830184612304565b92915050565b6123378161214b565b82525050565b6000602082019050612352600083018461232e565b92915050565b600080600060608486031215612371576123706120f0565b5b600061237f86828701612174565b935050602061239086828701612174565b92505060406123a186828701612116565b9150509250925092565b6000602082840312156123c1576123c06120f0565b5b60006123cf84828501612174565b91505092915050565b6000602082840312156123ee576123ed6120f0565b5b60006123fc84828501612116565b91505092915050565b600060ff82169050919050565b61241b81612405565b82525050565b60006020820190506124366000830184612412565b92915050565b6000819050919050565b600061246161245c6124578461212b565b61243c565b61212b565b9050919050565b600061247382612446565b9050919050565b600061248582612468565b9050919050565b6124958161247a565b82525050565b60006020820190506124b0600083018461248c565b92915050565b60006060820190506124cb600083018661228e565b6124d8602083018561228e565b6124e5604083018461228e565b949350505050565b60006124f882612468565b9050919050565b612508816124ed565b82525050565b600060208201905061252360008301846124ff565b92915050565b600080604083850312156125405761253f6120f0565b5b600061254e85828601612174565b925050602061255f85828601612174565b9150509250929050565b7f5472616e7366657220616d6f756e74206d75737420626520677265617465722060008201527f7468616e207a65726f0000000000000000000000000000000000000000000000602082015250565b60006125c56029836121e7565b91506125d082612569565b604082019050919050565b600060208201905081810360008301526125f4816125b8565b9050919050565b7f496e73756666696369656e7420505553442062616c616e636500000000000000600082015250565b60006126316019836121e7565b915061263c826125fb565b602082019050919050565b6000602082019050818103600083015261266081612624565b9050919050565b7f4e487b7100000000000000000000000000000000000000000000000000000000600052602260045260246000fd5b600060028204905060018216806126ae57607f821691505b6020821081036126c1576126c0612667565b5b50919050565b6000815190506126d6816120ff565b92915050565b6000602082840312156126f2576126f16120f0565b5b6000612700848285016126c7565b91505092915050565b7f576974686472617720616d6f756e74206d75737420626520677265617465722060008201527f7468616e207a65726f0000000000000000000000000000000000000000000000602082015250565b60006127656029836121e7565b915061277082612709565b604082019050919050565b6000602082019050818103600083015261279481612758565b9050919050565b7f4e487b7100000000000000000000000000000000000000000000000000000000600052601160045260246000fd5b60006127d5826120f5565b91506127e0836120f5565b92508282039050818111156127f8576127f761279b565b5b92915050565b6000604082019050612813600083018561232e565b612820602083018461228e565b9392505050565b612830816122f8565b811461283b57600080fd5b50565b60008151905061284d81612827565b92915050565b600060208284031215612869576128686120f0565b5b60006128778482850161283e565b91505092915050565b7f55534443207472616e73666572206661696c6564000000000000000000000000600082015250565b60006128b66014836121e7565b91506128c182612880565b602082019050919050565b600060208201905081810360008301526128e5816128a9565b9050919050565b6000604082019050612901600083018561228e565b61290e602083018461228e565b9392505050565b7f4f70657261746f7220616464726573732063616e6e6f74206265207a65726f00600082015250565b600061294b601f836121e7565b915061295682612915565b602082019050919050565b6000602082019050818103600083015261297a8161293e565b9050919050565b7f4465706f73697420616d6f756e74206d7573742062652067726561746572207460008201527f68616e207a65726f000000000000000000000000000000000000000000000000602082015250565b60006129dd6028836121e7565b91506129e882612981565b604082019050919050565b60006020820190508181036000830152612a0c816129d0565b9050919050565b7f496e73756666696369656e7420555344432062616c616e636500000000000000600082015250565b6000612a496019836121e7565b9150612a5482612a13565b602082019050919050565b60006020820190508181036000830152612a7881612a3c565b9050919050565b6000612a8a826120f5565b9150612a95836120f5565b9250828201905080821115612aad57612aac61279b565b5b92915050565b7f416d6f756e74206d7573742062652067726561746572207468616e207a65726f600082015250565b6000612ae96020836121e7565b9150612af482612ab3565b602082019050919050565b60006020820190508181036000830152612b1881612adc565b9050919050565b7f4c6f616e206d616e6167657220616464726573732063616e6e6f74206265207a60008201527f65726f0000000000000000000000000000000000000000000000000000000000602082015250565b6000612b7b6023836121e7565b9150612b8682612b1f565b604082019050919050565b60006020820190508181036000830152612baa81612b6e565b9050919050565b7f43616e6e6f74207265636f76657220746865207265736572766520746f6b656e600082015250565b6000612be76020836121e7565b9150612bf282612bb1565b602082019050919050565b60006020820190508181036000830152612c1681612bda565b9050919050565b7f735055534420616464726573732063616e6e6f74206265207a65726f00000000600082015250565b6000612c53601c836121e7565b9150612c5e82612c1d565b602082019050919050565b60006020820190508181036000830152612c8281612c46565b9050919050565b6000606082019050612c9e600083018661232e565b612cab602083018561228e565b612cb8604083018461228e565b94935050505056fea26469706673582212209960cc0c4c9bfc161e907e42dbd4ac10b0436ebaaa1043b2c5bd4928e2ee2d7164736f6c63430008140033",
  "linkReferences": {},
  "deployedLinkReferences": {}
}