{
  "_format": "hh-sol-artifact-1",
  "contractName": "PUSD",
  "sourceName": "contracts/PUSD.sol",
  "abi": [
    {
      "inputs": [
        {
          "internalType": "address",
          "name": "_usdc",
          "type": "address"
        }
      ],
      "stateMutability": "nonpayable",
      "type": "constructor"
    },
    {
      "inputs": [
        {
          "internalType": "address",
          "name": "spender",
          "type": "address"
        },
        {
          "internalType": "uint256",
          "name": "allowance",
          "type": "uint256"
        },
        {
          "internalType": "uint256",
          "name": "needed",
          "type": "uint256"
        }
      ],
      "name": "ERC20InsufficientAllowance",
      "type": "error"
    },
    {
      "inputs": [
        {
          "internalType": "address",
          "name": "sender",
          "type": "address"
        },
        {
          "internalType": "uint256",
          "name": "balance",
          "type": "uint256"
        },
        {
          "internalType": "uint256",
          "name": "needed",
          "type": "uint256"
        }
      ],
      "name": "ERC20InsufficientBalance",
      "type": "error"
    },
    {
      "inputs": [
        {
          "internalType": "address",
          "name": "approver",
          "type": "address"
        }
      ],
      "name": "ERC20InvalidApprover",
      "type": "error"
    },
    {
      "inputs": [
        {
          "internalType": "address",
          "name": "receiver",
          "type": "address"
        }
      ],
      "name": "ERC20InvalidReceiver",
      "type": "error"
    },
    {
      "inputs": [
        {
          "internalType": "address",
          "name": "sender",
          "type": "address"
        }
      ],
      "name": "ERC20InvalidSender",
      "type": "error"
    },
    {
      "inputs": [
        {
          "internalType": "address",
          "name": "spender",
          "type": "address"
        }
      ],
      "name": "ERC20InvalidSpender",
      "type": "error"
    },
    {
      "inputs": [
        {
          "internalType": "address",
          "name": "owner",
          "type": "address"
        }
      ],
      "name": "OwnableInvalidOwner",
      "type": "error"
    },
    {
      "inputs": [
        {
          "internalType": "address",
          "name": "account",
          "type": "address"
        }
      ],
      "name": "OwnableUnauthorizedAccount",
      "type": "error"
    },
    {
      "anonymous": false,
      "inputs": [
        {
          "indexed": true,
          "internalType": "address",
          "name": "owner",
          "type": "address"
        },
        {
          "indexed": true,
          "internalType": "address",
          "name": "spender",
          "type": "address"
        },
        {
          "indexed": false,
          "internalType": "uint256",
          "name": "value",
          "type": "uint256"
        }
      ],
      "name": "Approval",
      "type": "event"
    },
    {
      "anonymous": false,
      "inputs": [
        {
          "indexed": true,
          "internalType": "address",
          "name": "user",
          "type": "address"
        },
        {
          "indexed": false,
          "internalType": "uint256",
          "name": "usdcAmount",
          "type": "uint256"
        },
        {
          "indexed": false,
          "internalType": "uint256",
          "name": "pusdAmount",
          "type": "uint256"
        }
      ],
      "name": "Deposit",
      "type": "event"
    },
    {
      "anonymous": false,
      "inputs": [
        {
          "indexed": true,
          "internalType": "address",
          "name": "user",
          "type": "address"
        },
        {
          "indexed": false,
          "internalType": "uint256",
          "name": "pusdAmount",
          "type": "uint256"
        }
      ],
      "name": "Mint",
      "type": "event"
    },
    {
      "anonymous": false,
      "inputs": [
        {
          "indexed": true,
          "internalType": "address",
          "name": "previousOwner",
          "type": "address"
        },
        {
          "indexed": true,
          "internalType": "address",
          "name": "newOwner",
          "type": "address"
        }
      ],
      "name": "OwnershipTransferred",
      "type": "event"
    },
    {
      "anonymous": false,
      "inputs": [
        {
          "indexed": true,
          "internalType": "address",
          "name": "from",
          "type": "address"
        },
        {
          "indexed": true,
          "internalType": "address",
          "name": "to",
          "type": "address"
        },
        {
          "indexed": false,
          "internalType": "uint256",
          "name": "value",
          "type": "uint256"
        }
      ],
      "name": "Transfer",
      "type": "event"
    },
    {
      "anonymous": false,
      "inputs": [
        {
          "indexed": true,
          "internalType": "address",
          "name": "user",
          "type": "address"
        },
        {
          "indexed": false,
          "internalType": "uint256",
          "name": "pusdAmount",
          "type": "uint256"
        },
        {
          "indexed": false,
          "internalType": "uint256",
          "name": "usdcAmount",
          "type": "uint256"
        }
      ],
      "name": "Withdraw",
      "type": "event"
    },
    {
      "inputs": [
        {
          "internalType": "address",
          "name": "owner",
          "type": "address"
        },
        {
          "internalType": "address",
          "name": "spender",
          "type": "address"
        }
      ],
      "name": "allowance",
      "outputs": [
        {
          "internalType": "uint256",
          "name": "",
          "type": "uint256"
        }
      ],
      "stateMutability": "view",
      "type": "function"
    },
    {
      "inputs": [
        {
          "internalType": "address",
          "name": "spender",
          "type": "address"
        },
        {
          "internalType": "uint256",
          "name": "value",
          "type": "uint256"
        }
      ],
      "name": "approve",
      "outputs": [
        {
          "internalType": "bool",
          "name": "",
          "type": "bool"
        }
      ],
      "stateMutability": "nonpayable",
      "type": "function"
    },
    {
      "inputs": [
        {
          "internalType": "address",
          "name": "account",
          "type": "address"
        }
      ],
      "name": "balanceOf",
      "outputs": [
        {
          "internalType": "uint256",
          "name": "",
          "type": "uint256"
        }
      ],
      "stateMutability": "view",
      "type": "function"
    },
    {
      "inputs": [],
      "name": "decimals",
      "outputs": [
        {
          "internalType": "uint8",
          "name": "",
          "type": "uint8"
        }
      ],
      "stateMutability": "view",
      "type": "function"
    },
    {
      "inputs": [
        {
          "internalType": "uint256",
          "name": "usdcAmount",
          "type": "uint256"
        }
      ],
      "name": "depositAndMint",
      "outputs": [],
      "stateMutability": "nonpayable",
      "type": "function"
    },
    {
      "inputs": [
        {
          "internalType": "address",
          "name": "user",
          "type": "address"
        }
      ],
      "name": "getPUSDBalance",
      "outputs": [
        {
          "internalType": "uint256",
          "name": "",
          "type": "uint256"
        }
      ],
      "stateMutability": "view",
      "type": "function"
    },
    {
      "inputs": [],
      "name": "getReserves",
      "outputs": [
        {
          "internalType": "uint256",
          "name": "",
          "type": "uint256"
        }
      ],
      "stateMutability": "view",
      "type": "function"
    },
    {
      "inputs": [
        {
          "internalType": "address",
          "name": "user",
          "type": "address"
        }
      ],
      "name": "getUSDCBalance",
      "outputs": [
        {
          "internalType": "uint256",
          "name": "",
          "type": "uint256"
        }
      ],
      "stateMutability": "view",
      "type": "function"
    },
    {
      "inputs": [
        {
          "internalType": "address",
          "name": "user",
          "type": "address"
        }
      ],
      "name": "getUserBalanceSummary",
      "outputs": [
        {
          "internalType": "uint256",
          "name": "pusdBalance",
          "type": "uint256"
        },
        {
          "internalType": "uint256",
          "name": "usdcBalance",
          "type": "uint256"
        },
        {
          "internalType": "uint256",
          "name": "totalDeposited",
          "type": "uint256"
        }
      ],
      "stateMutability": "view",
      "type": "function"
    },
    {
      "inputs": [
        {
          "internalType": "address",
          "name": "user",
          "type": "address"
        }
      ],
      "name": "getUserDeposits",
      "outputs": [
        {
          "internalType": "uint256",
          "name": "",
          "type": "uint256"
        }
      ],
      "stateMutability": "view",
      "type": "function"
    },
    {
      "inputs": [],
      "name": "loanManager",
      "outputs": [
        {
          "internalType": "contract LoanManager",
          "name": "",
          "type": "address"
        }
      ],
      "stateMutability": "view",
      "type": "function"
    },
    {
      "inputs": [],
      "name": "loanedUSDCAmount",
      "outputs": [
        {
          "internalType": "uint256",
          "name": "",
          "type": "uint256"
        }
      ],
      "stateMutability": "view",
      "type": "function"
    },
    {
      "inputs": [
        {
          "internalType": "address",
          "name": "to",
          "type": "address"
        },
        {
          "internalType": "uint256",
          "name": "pusdAmount",
          "type": "uint256"
        }
      ],
      "name": "mintPusdAndTransferToSPUSD",
      "outputs": [
        {
          "internalType": "bool",
          "name": "",
          "type": "bool"
        }
      ],
      "stateMutability": "nonpayable",
      "type": "function"
    },
    {
      "inputs": [],
      "name": "name",
      "outputs": [
        {
          "internalType": "string",
          "name": "",
          "type": "string"
        }
      ],
      "stateMutability": "view",
      "type": "function"
    },
    {
      "inputs": [],
      "name": "owner",
      "outputs": [
        {
          "internalType": "address",
          "name": "",
          "type": "address"
        }
      ],
      "stateMutability": "view",
      "type": "function"
    },
    {
      "inputs": [
        {
          "internalType": "address",
          "name": "token",
          "type": "address"
        },
        {
          "internalType": "uint256",
          "name": "amount",
          "type": "uint256"
        }
      ],
      "name": "recoverERC20",
      "outputs": [],
      "stateMutability": "nonpayable",
      "type": "function"
    },
    {
      "inputs": [],
      "name": "renounceOwnership",
      "outputs": [],
      "stateMutability": "nonpayable",
      "type": "function"
    },
    {
      "inputs": [],
      "name": "sPUSDAddress",
      "outputs": [
        {
          "internalType": "address",
          "name": "",
          "type": "address"
        }
      ],
      "stateMutability": "view",
      "type": "function"
    },
    {
      "inputs": [
        {
          "internalType": "address",
          "name": "_loanManager",
          "type": "address"
        }
      ],
      "name": "setLoanManager",
      "outputs": [],
      "stateMutability": "nonpayable",
      "type": "function"
    },
    {
      "inputs": [
        {
          "internalType": "address",
          "name": "_sPUSD",
          "type": "address"
        }
      ],
      "name": "setsPUSDAddress",
      "outputs": [],
      "stateMutability": "nonpayable",
      "type": "function"
    },
    {
      "inputs": [],
      "name": "symbol",
      "outputs": [
        {
          "internalType": "string",
          "name": "",
          "type": "string"
        }
      ],
      "stateMutability": "view",
      "type": "function"
    },
    {
      "inputs": [],
      "name": "totalSupply",
      "outputs": [
        {
          "internalType": "uint256",
          "name": "",
          "type": "uint256"
        }
      ],
      "stateMutability": "view",
      "type": "function"
    },
    {
      "inputs": [
        {
          "internalType": "address",
          "name": "to",
          "type": "address"
        },
        {
          "internalType": "uint256",
          "name": "value",
          "type": "uint256"
        }
      ],
      "name": "transfer",
      "outputs": [
        {
          "internalType": "bool",
          "name": "",
          "type": "bool"
        }
      ],
      "stateMutability": "nonpayable",
      "type": "function"
    },
    {
      "inputs": [
        {
          "internalType": "address",
          "name": "from",
          "type": "address"
        },
        {
          "internalType": "address",
          "name": "to",
          "type": "address"
        },
        {
          "internalType": "uint256",
          "name": "value",
          "type": "uint256"
        }
      ],
      "name": "transferFrom",
      "outputs": [
        {
          "internalType": "bool",
          "name": "",
          "type": "bool"
        }
      ],
      "stateMutability": "nonpayable",
      "type": "function"
    },
    {
      "inputs": [
        {
          "internalType": "address",
          "name": "newOwner",
          "type": "address"
        }
      ],
      "name": "transferOwnership",
      "outputs": [],
      "stateMutability": "nonpayable",
      "type": "function"
    },
    {
      "inputs": [
        {
          "internalType": "address",
          "name": "from",
          "type": "address"
        },
        {
          "internalType": "uint256",
          "name": "pusdAmount",
          "type": "uint256"
        }
      ],
      "name": "transferToSPUSD",
      "outputs": [
        {
          "internalType": "bool",
          "name": "",
          "type": "bool"
        }
      ],
      "stateMutability": "nonpayable",
      "type": "function"
    },
    {
      "inputs": [],
      "name": "usdc",
      "outputs": [
        {
          "internalType": "contract USDC",
          "name": "",
          "type": "address"
        }
      ],
      "stateMutability": "view",
      "type": "function"
    },
    {
      "inputs": [
        {
          "internalType": "uint256",
          "name": "pusdAmount",
          "type": "uint256"
        }
      ],
      "name": "withdraw",
      "outputs": [],
      "stateMutability": "nonpayable",
      "type": "function"
    }
  ],
  "bytecode": "0x608060405260006009553480156200001657600080fd5b506040516200304f3803806200304f83398181016040528101906200003c919062000340565b336040518060400160405280600f81526020017f5055534420537461626c65636f696e00000000000000000000000000000000008152506040518060400160405280600481526020017f50555344000000000000000000000000000000000000000000000000000000008152508160039081620000ba9190620005ec565b508060049081620000cc9190620005ec565b505050600073ffffffffffffffffffffffffffffffffffffffff168173ffffffffffffffffffffffffffffffffffffffff1603620001445760006040517f1e4fbdf70000000000000000000000000000000000000000000000000000000081526004016200013b9190620006e4565b60405180910390fd5b62000155816200021060201b60201c565b50600073ffffffffffffffffffffffffffffffffffffffff168173ffffffffffffffffffffffffffffffffffffffff1603620001c8576040517f08c379a0000000000000000000000000000000000000000000000000000000008152600401620001bf9062000762565b60405180910390fd5b80600660006101000a81548173ffffffffffffffffffffffffffffffffffffffff021916908373ffffffffffffffffffffffffffffffffffffffff1602179055505062000784565b6000600560009054906101000a900473ffffffffffffffffffffffffffffffffffffffff16905081600560006101000a81548173ffffffffffffffffffffffffffffffffffffffff021916908373ffffffffffffffffffffffffffffffffffffffff1602179055508173ffffffffffffffffffffffffffffffffffffffff168173ffffffffffffffffffffffffffffffffffffffff167f8be0079c531659141344cd1fd0a4f28419497f9722a3daafe3b4186f6b6457e060405160405180910390a35050565b600080fd5b600073ffffffffffffffffffffffffffffffffffffffff82169050919050565b60006200030882620002db565b9050919050565b6200031a81620002fb565b81146200032657600080fd5b50565b6000815190506200033a816200030f565b92915050565b600060208284031215620003595762000358620002d6565b5b6000620003698482850162000329565b91505092915050565b600081519050919050565b7f4e487b7100000000000000000000000000000000000000000000000000000000600052604160045260246000fd5b7f4e487b7100000000000000000000000000000000000000000000000000000000600052602260045260246000fd5b60006002820490506001821680620003f457607f821691505b6020821081036200040a5762000409620003ac565b5b50919050565b60008190508160005260206000209050919050565b60006020601f8301049050919050565b600082821b905092915050565b600060088302620004747fffffffffffffffffffffffffffffffffffffffffffffffffffffffffffffffff8262000435565b62000480868362000435565b95508019841693508086168417925050509392505050565b6000819050919050565b6000819050919050565b6000620004cd620004c7620004c18462000498565b620004a2565b62000498565b9050919050565b6000819050919050565b620004e983620004ac565b62000501620004f882620004d4565b84845462000442565b825550505050565b600090565b6200051862000509565b62000525818484620004de565b505050565b5b818110156200054d57620005416000826200050e565b6001810190506200052b565b5050565b601f8211156200059c57620005668162000410565b620005718462000425565b8101602085101562000581578190505b62000599620005908562000425565b8301826200052a565b50505b505050565b600082821c905092915050565b6000620005c160001984600802620005a1565b1980831691505092915050565b6000620005dc8383620005ae565b9150826002028217905092915050565b620005f78262000372565b67ffffffffffffffff8111156200061357620006126200037d565b5b6200061f8254620003db565b6200062c82828562000551565b600060209050601f8311600181146200066457600084156200064f578287015190505b6200065b8582620005ce565b865550620006cb565b601f198416620006748662000410565b60005b828110156200069e5784890151825560018201915060208501945060208101905062000677565b86831015620006be5784890151620006ba601f891682620005ae565b8355505b6001600288020188555050505b505050505050565b620006de81620002fb565b82525050565b6000602082019050620006fb6000830184620006d3565b92915050565b600082825260208201905092915050565b7f5553444320616464726573732063616e6e6f74206265207a65726f0000000000600082015250565b60006200074a601b8362000701565b9150620007578262000712565b602082019050919050565b600060208201905081810360008301526200077d816200073b565b9050919050565b6128bb80620007946000396000f3fe608060405234801561001057600080fd5b50600436106101c45760003560e01c806370a08231116100f957806395d89b4111610097578063b3ccbcfe11610071578063b3ccbcfe14610531578063cd22c1f31461054f578063dd62ed3e1461056d578063f2fde38b1461059d576101c4565b806395d89b41146104c75780639c01f801146104e5578063a9059cbb14610501576101c4565b80637ee0a266116100d35780637ee0a2661461043d57806383d8cba51461046f5780638980f11f1461048d5780638da5cb5b146104a9576101c4565b806370a08231146103d3578063715018a6146104035780637e7300071461040d576101c4565b8063313ce5671161016657806345fd04651161014057806345fd04651461033b5780634d0b82c2146103575780635772ae701461038757806368024717146103a3576101c4565b8063313ce567146102cf57806338c077af146102ed5780633e413bee1461031d576101c4565b806318160ddd116101a257806318160ddd1461023557806323b872dd146102535780632a5bf6d2146102835780632e1a7d4d146102b3576101c4565b806306fdde03146101c95780630902f1ac146101e7578063095ea7b314610205575b600080fd5b6101d16105b9565b6040516101de9190611e70565b60405180910390f35b6101ef61064b565b6040516101fc9190611eab565b60405180910390f35b61021f600480360381019061021a9190611f55565b6106ee565b60405161022c9190611fb0565b60405180910390f35b61023d610711565b60405161024a9190611eab565b60405180910390f35b61026d60048036038101906102689190611fcb565b61071b565b60405161027a9190611fb0565b60405180910390f35b61029d6004803603810190610298919061201e565b61074a565b6040516102aa9190611eab565b60405180910390f35b6102cd60048036038101906102c8919061204b565b610793565b005b6102d7610a4a565b6040516102e49190612094565b60405180910390f35b61030760048036038101906103029190611f55565b610a53565b6040516103149190611fb0565b60405180910390f35b610325610b19565b604051610332919061210e565b60405180910390f35b6103556004803603810190610350919061204b565b610b3f565b005b610371600480360381019061036c9190611f55565b610dfe565b60405161037e9190611fb0565b60405180910390f35b6103a1600480360381019061039c919061201e565b610f10565b005b6103bd60048036038101906103b8919061201e565b610fcb565b6040516103ca9190611eab565b60405180910390f35b6103ed60048036038101906103e8919061201e565b611070565b6040516103fa9190611eab565b60405180910390f35b61040b6110b8565b005b6104276004803603810190610422919061201e565b6110cc565b6040516104349190611eab565b60405180910390f35b6104576004803603810190610452919061201e565b6110de565b60405161046693929190612129565b60405180910390f35b6104776111d5565b604051610484919061216f565b60405180910390f35b6104a760048036038101906104a29190611f55565b6111fb565b005b6104b161131d565b6040516104be919061216f565b60405180910390f35b6104cf611347565b6040516104dc9190611e70565b60405180910390f35b6104ff60048036038101906104fa919061201e565b6113d9565b005b61051b60048036038101906105169190611f55565b611494565b6040516105289190611fb0565b60405180910390f35b6105396114b7565b60405161054691906121ab565b60405180910390f35b6105576114dd565b6040516105649190611eab565b60405180910390f35b610587600480360381019061058291906121c6565b6114e3565b6040516105949190611eab565b60405180910390f35b6105b760048036038101906105b2919061201e565b61156a565b005b6060600380546105c890612235565b80601f01602080910402602001604051908101604052809291908181526020018280546105f490612235565b80156106415780601f1061061657610100808354040283529160200191610641565b820191906000526020600020905b81548152906001019060200180831161062457829003601f168201915b5050505050905090565b6000600660009054906101000a900473ffffffffffffffffffffffffffffffffffffffff1673ffffffffffffffffffffffffffffffffffffffff166370a08231306040518263ffffffff1660e01b81526004016106a8919061216f565b602060405180830381865afa1580156106c5573d6000803e3d6000fd5b505050506040513d601f19601f820116820180604052508101906106e9919061227b565b905090565b6000806106f96115f0565b90506107068185856115f8565b600191505092915050565b6000600254905090565b6000806107266115f0565b905061073385828561160a565b61073e85858561169f565b60019150509392505050565b6000600a60008373ffffffffffffffffffffffffffffffffffffffff1673ffffffffffffffffffffffffffffffffffffffff168152602001908152602001600020549050919050565b600081116107d6576040517f08c379a00000000000000000000000000000000000000000000000000000000081526004016107cd9061231a565b60405180910390fd5b806107e033611070565b1015610821576040517f08c379a000000000000000000000000000000000000000000000000000000000815260040161081890612386565b60405180910390fd5b80600a60003373ffffffffffffffffffffffffffffffffffffffff1673ffffffffffffffffffffffffffffffffffffffff16815260200190815260200160002054106108c25780600a60003373ffffffffffffffffffffffffffffffffffffffff1673ffffffffffffffffffffffffffffffffffffffff16815260200190815260200160002060008282546108b691906123d5565b92505081905550610908565b6000600a60003373ffffffffffffffffffffffffffffffffffffffff1673ffffffffffffffffffffffffffffffffffffffff168152602001908152602001600020819055505b6109123382611793565b6000600660009054906101000a900473ffffffffffffffffffffffffffffffffffffffff1673ffffffffffffffffffffffffffffffffffffffff1663a9059cbb33846040518363ffffffff1660e01b8152600401610971929190612409565b6020604051808303816000875af1158015610990573d6000803e3d6000fd5b505050506040513d601f19601f820116820180604052508101906109b4919061245e565b9050806109f6576040517f08c379a00000000000000000000000000000000000000000000000000000000081526004016109ed906124d7565b60405180910390fd5b3373ffffffffffffffffffffffffffffffffffffffff167ff279e6a1f5e320cca91135676d9cb6e44ca8a08c0b88342bcdb1144f6511b5688384604051610a3e9291906124f7565b60405180910390a25050565b60006012905090565b6000808211610a97576040517f08c379a0000000000000000000000000000000000000000000000000000000008152600401610a8e90612592565b60405180910390fd5b81610aa184611070565b1015610ae2576040517f08c379a0000000000000000000000000000000000000000000000000000000008152600401610ad990612386565b60405180910390fd5b610b0f83600760009054906101000a900473ffffffffffffffffffffffffffffffffffffffff168461169f565b6001905092915050565b600660009054906101000a900473ffffffffffffffffffffffffffffffffffffffff1681565b60008111610b82576040517f08c379a0000000000000000000000000000000000000000000000000000000008152600401610b7990612624565b60405180910390fd5b6000600660009054906101000a900473ffffffffffffffffffffffffffffffffffffffff1673ffffffffffffffffffffffffffffffffffffffff166370a08231336040518263ffffffff1660e01b8152600401610bdf919061216f565b602060405180830381865afa158015610bfc573d6000803e3d6000fd5b505050506040513d601f19601f82011682018060405250810190610c20919061227b565b905081811015610c65576040517f08c379a0000000000000000000000000000000000000000000000000000000008152600401610c5c90612690565b60405180910390fd5b6000600660009054906101000a900473ffffffffffffffffffffffffffffffffffffffff1673ffffffffffffffffffffffffffffffffffffffff1663fff3e6d933856040518363ffffffff1660e01b8152600401610cc4929190612409565b6020604051808303816000875af1158015610ce3573d6000803e3d6000fd5b505050506040513d601f19601f82011682018060405250810190610d07919061245e565b905080610d49576040517f08c379a0000000000000000000000000000000000000000000000000000000008152600401610d40906124d7565b60405180910390fd5b82600a60003373ffffffffffffffffffffffffffffffffffffffff1673ffffffffffffffffffffffffffffffffffffffff1681526020019081526020016000206000828254610d9891906126b0565b92505081905550610da93384611815565b3373ffffffffffffffffffffffffffffffffffffffff167f90890809c654f11d6e72a28fa60149770a0d11ec6c92319d6ceb2bb0a4ea1a158485604051610df19291906124f7565b60405180910390a2505050565b6000808211610e42576040517f08c379a0000000000000000000000000000000000000000000000000000000008152600401610e3990612592565b60405180910390fd5b600660009054906101000a900473ffffffffffffffffffffffffffffffffffffffff1673ffffffffffffffffffffffffffffffffffffffff1663aa52b3d3836040518263ffffffff1660e01b8152600401610e9d9190611eab565b600060405180830381600087803b158015610eb757600080fd5b505af1158015610ecb573d6000803e3d6000fd5b50505050610ed98383611815565b610f0683600760009054906101000a900473ffffffffffffffffffffffffffffffffffffffff168461169f565b6001905092915050565b610f18611897565b600073ffffffffffffffffffffffffffffffffffffffff168173ffffffffffffffffffffffffffffffffffffffff1603610f87576040517f08c379a0000000000000000000000000000000000000000000000000000000008152600401610f7e90612756565b60405180910390fd5b80600860006101000a81548173ffffffffffffffffffffffffffffffffffffffff021916908373ffffffffffffffffffffffffffffffffffffffff16021790555050565b6000600660009054906101000a900473ffffffffffffffffffffffffffffffffffffffff1673ffffffffffffffffffffffffffffffffffffffff166370a08231836040518263ffffffff1660e01b8152600401611028919061216f565b602060405180830381865afa158015611045573d6000803e3d6000fd5b505050506040513d601f19601f82011682018060405250810190611069919061227b565b9050919050565b60008060008373ffffffffffffffffffffffffffffffffffffffff1673ffffffffffffffffffffffffffffffffffffffff168152602001908152602001600020549050919050565b6110c0611897565b6110ca600061191e565b565b60006110d782611070565b9050919050565b60008060006110ec84611070565b600660009054906101000a900473ffffffffffffffffffffffffffffffffffffffff1673ffffffffffffffffffffffffffffffffffffffff166370a08231866040518263ffffffff1660e01b8152600401611147919061216f565b602060405180830381865afa158015611164573d6000803e3d6000fd5b505050506040513d601f19601f82011682018060405250810190611188919061227b565b600a60008773ffffffffffffffffffffffffffffffffffffffff1673ffffffffffffffffffffffffffffffffffffffff168152602001908152602001600020549250925092509193909250565b600760009054906101000a900473ffffffffffffffffffffffffffffffffffffffff1681565b611203611897565b600660009054906101000a900473ffffffffffffffffffffffffffffffffffffffff1673ffffffffffffffffffffffffffffffffffffffff168273ffffffffffffffffffffffffffffffffffffffff1603611293576040517f08c379a000000000000000000000000000000000000000000000000000000000815260040161128a906127c2565b60405180910390fd5b8173ffffffffffffffffffffffffffffffffffffffff1663a9059cbb6112b761131d565b836040518363ffffffff1660e01b81526004016112d5929190612409565b6020604051808303816000875af11580156112f4573d6000803e3d6000fd5b505050506040513d601f19601f82011682018060405250810190611318919061245e565b505050565b6000600560009054906101000a900473ffffffffffffffffffffffffffffffffffffffff16905090565b60606004805461135690612235565b80601f016020809104026020016040519081016040528092919081815260200182805461138290612235565b80156113cf5780601f106113a4576101008083540402835291602001916113cf565b820191906000526020600020905b8154815290600101906020018083116113b257829003601f168201915b5050505050905090565b6113e1611897565b600073ffffffffffffffffffffffffffffffffffffffff168173ffffffffffffffffffffffffffffffffffffffff1603611450576040517f08c379a00000000000000000000000000000000000000000000000000000000081526004016114479061282e565b60405180910390fd5b80600760006101000a81548173ffffffffffffffffffffffffffffffffffffffff021916908373ffffffffffffffffffffffffffffffffffffffff16021790555050565b60008061149f6115f0565b90506114ac81858561169f565b600191505092915050565b600860009054906101000a900473ffffffffffffffffffffffffffffffffffffffff1681565b60095481565b6000600160008473ffffffffffffffffffffffffffffffffffffffff1673ffffffffffffffffffffffffffffffffffffffff16815260200190815260200160002060008373ffffffffffffffffffffffffffffffffffffffff1673ffffffffffffffffffffffffffffffffffffffff16815260200190815260200160002054905092915050565b611572611897565b600073ffffffffffffffffffffffffffffffffffffffff168173ffffffffffffffffffffffffffffffffffffffff16036115e45760006040517f1e4fbdf70000000000000000000000000000000000000000000000000000000081526004016115db919061216f565b60405180910390fd5b6115ed8161191e565b50565b600033905090565b61160583838360016119e4565b505050565b600061161684846114e3565b90507fffffffffffffffffffffffffffffffffffffffffffffffffffffffffffffffff8110156116995781811015611689578281836040517ffb8f41b20000000000000000000000000000000000000000000000000000000081526004016116809392919061284e565b60405180910390fd5b611698848484840360006119e4565b5b50505050565b600073ffffffffffffffffffffffffffffffffffffffff168373ffffffffffffffffffffffffffffffffffffffff16036117115760006040517f96c6fd1e000000000000000000000000000000000000000000000000000000008152600401611708919061216f565b60405180910390fd5b600073ffffffffffffffffffffffffffffffffffffffff168273ffffffffffffffffffffffffffffffffffffffff16036117835760006040517fec442f0500000000000000000000000000000000000000000000000000000000815260040161177a919061216f565b60405180910390fd5b61178e838383611bbb565b505050565b600073ffffffffffffffffffffffffffffffffffffffff168273ffffffffffffffffffffffffffffffffffffffff16036118055760006040517f96c6fd1e0000000000000000000000000000000000000000000000000000000081526004016117fc919061216f565b60405180910390fd5b61181182600083611bbb565b5050565b600073ffffffffffffffffffffffffffffffffffffffff168273ffffffffffffffffffffffffffffffffffffffff16036118875760006040517fec442f0500000000000000000000000000000000000000000000000000000000815260040161187e919061216f565b60405180910390fd5b61189360008383611bbb565b5050565b61189f6115f0565b73ffffffffffffffffffffffffffffffffffffffff166118bd61131d565b73ffffffffffffffffffffffffffffffffffffffff161461191c576118e06115f0565b6040517f118cdaa7000000000000000000000000000000000000000000000000000000008152600401611913919061216f565b60405180910390fd5b565b6000600560009054906101000a900473ffffffffffffffffffffffffffffffffffffffff16905081600560006101000a81548173ffffffffffffffffffffffffffffffffffffffff021916908373ffffffffffffffffffffffffffffffffffffffff1602179055508173ffffffffffffffffffffffffffffffffffffffff168173ffffffffffffffffffffffffffffffffffffffff167f8be0079c531659141344cd1fd0a4f28419497f9722a3daafe3b4186f6b6457e060405160405180910390a35050565b600073ffffffffffffffffffffffffffffffffffffffff168473ffffffffffffffffffffffffffffffffffffffff1603611a565760006040517fe602df05000000000000000000000000000000000000000000000000000000008152600401611a4d919061216f565b60405180910390fd5b600073ffffffffffffffffffffffffffffffffffffffff168373ffffffffffffffffffffffffffffffffffffffff1603611ac85760006040517f94280d62000000000000000000000000000000000000000000000000000000008152600401611abf919061216f565b60405180910390fd5b81600160008673ffffffffffffffffffffffffffffffffffffffff1673ffffffffffffffffffffffffffffffffffffffff16815260200190815260200160002060008573ffffffffffffffffffffffffffffffffffffffff1673ffffffffffffffffffffffffffffffffffffffff168152602001908152602001600020819055508015611bb5578273ffffffffffffffffffffffffffffffffffffffff168473ffffffffffffffffffffffffffffffffffffffff167f8c5be1e5ebec7d5bd14f71427d1e84f3dd0314c0f7b2291e5b200ac8c7c3b92584604051611bac9190611eab565b60405180910390a35b50505050565b600073ffffffffffffffffffffffffffffffffffffffff168373ffffffffffffffffffffffffffffffffffffffff1603611c0d578060026000828254611c0191906126b0565b92505081905550611ce0565b60008060008573ffffffffffffffffffffffffffffffffffffffff1673ffffffffffffffffffffffffffffffffffffffff16815260200190815260200160002054905081811015611c99578381836040517fe450d38c000000000000000000000000000000000000000000000000000000008152600401611c909392919061284e565b60405180910390fd5b8181036000808673ffffffffffffffffffffffffffffffffffffffff1673ffffffffffffffffffffffffffffffffffffffff16815260200190815260200160002081905550505b600073ffffffffffffffffffffffffffffffffffffffff168273ffffffffffffffffffffffffffffffffffffffff1603611d295780600260008282540392505081905550611d76565b806000808473ffffffffffffffffffffffffffffffffffffffff1673ffffffffffffffffffffffffffffffffffffffff168152602001908152602001600020600082825401925050819055505b8173ffffffffffffffffffffffffffffffffffffffff168373ffffffffffffffffffffffffffffffffffffffff167fddf252ad1be2c89b69c2b068fc378daa952ba7f163c4a11628f55a4df523b3ef83604051611dd39190611eab565b60405180910390a3505050565b600081519050919050565b600082825260208201905092915050565b60005b83811015611e1a578082015181840152602081019050611dff565b60008484015250505050565b6000601f19601f8301169050919050565b6000611e4282611de0565b611e4c8185611deb565b9350611e5c818560208601611dfc565b611e6581611e26565b840191505092915050565b60006020820190508181036000830152611e8a8184611e37565b905092915050565b6000819050919050565b611ea581611e92565b82525050565b6000602082019050611ec06000830184611e9c565b92915050565b600080fd5b600073ffffffffffffffffffffffffffffffffffffffff82169050919050565b6000611ef682611ecb565b9050919050565b611f0681611eeb565b8114611f1157600080fd5b50565b600081359050611f2381611efd565b92915050565b611f3281611e92565b8114611f3d57600080fd5b50565b600081359050611f4f81611f29565b92915050565b60008060408385031215611f6c57611f6b611ec6565b5b6000611f7a85828601611f14565b9250506020611f8b85828601611f40565b9150509250929050565b60008115159050919050565b611faa81611f95565b82525050565b6000602082019050611fc56000830184611fa1565b92915050565b600080600060608486031215611fe457611fe3611ec6565b5b6000611ff286828701611f14565b935050602061200386828701611f14565b925050604061201486828701611f40565b9150509250925092565b60006020828403121561203457612033611ec6565b5b600061204284828501611f14565b91505092915050565b60006020828403121561206157612060611ec6565b5b600061206f84828501611f40565b91505092915050565b600060ff82169050919050565b61208e81612078565b82525050565b60006020820190506120a96000830184612085565b92915050565b6000819050919050565b60006120d46120cf6120ca84611ecb565b6120af565b611ecb565b9050919050565b60006120e6826120b9565b9050919050565b60006120f8826120db565b9050919050565b612108816120ed565b82525050565b600060208201905061212360008301846120ff565b92915050565b600060608201905061213e6000830186611e9c565b61214b6020830185611e9c565b6121586040830184611e9c565b949350505050565b61216981611eeb565b82525050565b60006020820190506121846000830184612160565b92915050565b6000612195826120db565b9050919050565b6121a58161218a565b82525050565b60006020820190506121c0600083018461219c565b92915050565b600080604083850312156121dd576121dc611ec6565b5b60006121eb85828601611f14565b92505060206121fc85828601611f14565b9150509250929050565b7f4e487b7100000000000000000000000000000000000000000000000000000000600052602260045260246000fd5b6000600282049050600182168061224d57607f821691505b6020821081036122605761225f612206565b5b50919050565b60008151905061227581611f29565b92915050565b60006020828403121561229157612290611ec6565b5b600061229f84828501612266565b91505092915050565b7f576974686472617720616d6f756e74206d75737420626520677265617465722060008201527f7468616e207a65726f0000000000000000000000000000000000000000000000602082015250565b6000612304602983611deb565b915061230f826122a8565b604082019050919050565b60006020820190508181036000830152612333816122f7565b9050919050565b7f496e73756666696369656e7420505553442062616c616e636500000000000000600082015250565b6000612370601983611deb565b915061237b8261233a565b602082019050919050565b6000602082019050818103600083015261239f81612363565b9050919050565b7f4e487b7100000000000000000000000000000000000000000000000000000000600052601160045260246000fd5b60006123e082611e92565b91506123eb83611e92565b9250828203905081811115612403576124026123a6565b5b92915050565b600060408201905061241e6000830185612160565b61242b6020830184611e9c565b9392505050565b61243b81611f95565b811461244657600080fd5b50565b60008151905061245881612432565b92915050565b60006020828403121561247457612473611ec6565b5b600061248284828501612449565b91505092915050565b7f55534443207472616e73666572206661696c6564000000000000000000000000600082015250565b60006124c1601483611deb565b91506124cc8261248b565b602082019050919050565b600060208201905081810360008301526124f0816124b4565b9050919050565b600060408201905061250c6000830185611e9c565b6125196020830184611e9c565b9392505050565b7f5472616e7366657220616d6f756e74206d75737420626520677265617465722060008201527f7468616e207a65726f0000000000000000000000000000000000000000000000602082015250565b600061257c602983611deb565b915061258782612520565b604082019050919050565b600060208201905081810360008301526125ab8161256f565b9050919050565b7f4465706f73697420616d6f756e74206d7573742062652067726561746572207460008201527f68616e207a65726f000000000000000000000000000000000000000000000000602082015250565b600061260e602883611deb565b9150612619826125b2565b604082019050919050565b6000602082019050818103600083015261263d81612601565b9050919050565b7f496e73756666696369656e7420555344432062616c616e636500000000000000600082015250565b600061267a601983611deb565b915061268582612644565b602082019050919050565b600060208201905081810360008301526126a98161266d565b9050919050565b60006126bb82611e92565b91506126c683611e92565b92508282019050808211156126de576126dd6123a6565b5b92915050565b7f4c6f616e206d616e6167657220616464726573732063616e6e6f74206265207a60008201527f65726f0000000000000000000000000000000000000000000000000000000000602082015250565b6000612740602383611deb565b915061274b826126e4565b604082019050919050565b6000602082019050818103600083015261276f81612733565b9050919050565b7f43616e6e6f74207265636f76657220746865207265736572766520746f6b656e600082015250565b60006127ac602083611deb565b91506127b782612776565b602082019050919050565b600060208201905081810360008301526127db8161279f565b9050919050565b7f735055534420616464726573732063616e6e6f74206265207a65726f00000000600082015250565b6000612818601c83611deb565b9150612823826127e2565b602082019050919050565b600060208201905081810360008301526128478161280b565b9050919050565b60006060820190506128636000830186612160565b6128706020830185611e9c565b61287d6040830184611e9c565b94935050505056fea26469706673582212208e9b89f403da1db970517b57662af09c037d63e21e9b6950584634ff922124ed64736f6c63430008140033",
  "linkReferences": {},
  "deployedLinkReferences": {}
}