{
  "_format": "hh-sol-artifact-1",
  "contractName": "LoanManager",
  "sourceName": "contracts/LoanManager.sol",
  "abi": [
    {
      "inputs": [
        {
          "internalType": "address",
          "name": "_eigen",
          "type": "address"
        },
        {
          "internalType": "address",
          "name": "_pusdToken",
          "type": "address"
        },
        {
          "internalType": "address",
          "name": "_operator",
          "type": "address"
        }
      ],
      "stateMutability": "nonpayable",
      "type": "constructor"
    },
    {
      "inputs": [
        {
          "internalType": "address",
          "name": "owner",
          "type": "address"
        }
      ],
      "name": "OwnableInvalidOwner",
      "type": "error"
    },
    {
      "inputs": [
        {
          "internalType": "address",
          "name": "account",
          "type": "address"
        }
      ],
      "name": "OwnableUnauthorizedAccount",
      "type": "error"
    },
    {
      "anonymous": false,
      "inputs": [
        {
          "indexed": false,
          "internalType": "uint256",
          "name": "newRate",
          "type": "uint256"
        }
      ],
      "name": "BaseRateUpdated",
      "type": "event"
    },
    {
      "anonymous": false,
      "inputs": [
        {
          "indexed": false,
          "internalType": "uint256",
          "name": "newRatio",
          "type": "uint256"
        }
      ],
      "name": "LTVRatioUpdated",
      "type": "event"
    },
    {
      "anonymous": false,
      "inputs": [
        {
          "indexed": true,
          "internalType": "address",
          "name": "operator",
          "type": "address"
        },
        {
          "indexed": false,
          "internalType": "uint256",
          "name": "amount",
          "type": "uint256"
        },
        {
          "indexed": false,
          "internalType": "uint256",
          "name": "interestRate",
          "type": "uint256"
        },
        {
          "indexed": false,
          "internalType": "uint256",
          "name": "dueTime",
          "type": "uint256"
        }
      ],
      "name": "LoanCreated",
      "type": "event"
    },
    {
      "anonymous": false,
      "inputs": [
        {
          "indexed": true,
          "internalType": "address",
          "name": "operator",
          "type": "address"
        },
        {
          "indexed": false,
          "internalType": "uint256",
          "name": "amount",
          "type": "uint256"
        },
        {
          "indexed": false,
          "internalType": "uint256",
          "name": "interest",
          "type": "uint256"
        }
      ],
      "name": "LoanRepaid",
      "type": "event"
    },
    {
      "anonymous": false,
      "inputs": [
        {
          "indexed": true,
          "internalType": "address",
          "name": "previousOwner",
          "type": "address"
        },
        {
          "indexed": true,
          "internalType": "address",
          "name": "newOwner",
          "type": "address"
        }
      ],
      "name": "OwnershipTransferred",
      "type": "event"
    },
    {
      "inputs": [],
      "name": "baseInterestRate",
      "outputs": [
        {
          "internalType": "uint256",
          "name": "",
          "type": "uint256"
        }
      ],
      "stateMutability": "view",
      "type": "function"
    },
    {
      "inputs": [],
      "name": "calculateRepaymentAmount",
      "outputs": [
        {
          "internalType": "uint256",
          "name": "",
          "type": "uint256"
        }
      ],
      "stateMutability": "view",
      "type": "function"
    },
    {
      "inputs": [
        {
          "internalType": "uint256",
          "name": "amount",
          "type": "uint256"
        }
      ],
      "name": "createLoan",
      "outputs": [],
      "stateMutability": "nonpayable",
      "type": "function"
    },
    {
      "inputs": [],
      "name": "eigen",
      "outputs": [
        {
          "internalType": "contract Eigen",
          "name": "",
          "type": "address"
        }
      ],
      "stateMutability": "view",
      "type": "function"
    },
    {
      "inputs": [],
      "name": "getLoanDetails",
      "outputs": [
        {
          "internalType": "uint256",
          "name": "amount",
          "type": "uint256"
        },
        {
          "internalType": "uint256",
          "name": "interestRate",
          "type": "uint256"
        },
        {
          "internalType": "uint256",
          "name": "startTime",
          "type": "uint256"
        },
        {
          "internalType": "uint256",
          "name": "dueTime",
          "type": "uint256"
        },
        {
          "internalType": "bool",
          "name": "isRepaid",
          "type": "bool"
        },
        {
          "internalType": "uint256",
          "name": "collateralAmount",
          "type": "uint256"
        },
        {
          "internalType": "uint256",
          "name": "loanedUSDCAmount",
          "type": "uint256"
        }
      ],
      "stateMutability": "view",
      "type": "function"
    },
    {
      "inputs": [],
      "name": "loan",
      "outputs": [
        {
          "internalType": "uint256",
          "name": "amount",
          "type": "uint256"
        },
        {
          "internalType": "uint256",
          "name": "interestRate",
          "type": "uint256"
        },
        {
          "internalType": "uint256",
          "name": "startTime",
          "type": "uint256"
        },
        {
          "internalType": "uint256",
          "name": "dueTime",
          "type": "uint256"
        },
        {
          "internalType": "bool",
          "name": "isRepaid",
          "type": "bool"
        },
        {
          "internalType": "uint256",
          "name": "collateralAmount",
          "type": "uint256"
        },
        {
          "internalType": "uint256",
          "name": "loanedUSDCAmount",
          "type": "uint256"
        }
      ],
      "stateMutability": "view",
      "type": "function"
    },
    {
      "inputs": [],
      "name": "loanDuration",
      "outputs": [
        {
          "internalType": "uint256",
          "name": "",
          "type": "uint256"
        }
      ],
      "stateMutability": "view",
      "type": "function"
    },
    {
      "inputs": [],
      "name": "ltvRatio",
      "outputs": [
        {
          "internalType": "uint256",
          "name": "",
          "type": "uint256"
        }
      ],
      "stateMutability": "view",
      "type": "function"
    },
    {
      "inputs": [],
      "name": "operator",
      "outputs": [
        {
          "internalType": "contract IOperator",
          "name": "",
          "type": "address"
        }
      ],
      "stateMutability": "view",
      "type": "function"
    },
    {
      "inputs": [],
      "name": "owner",
      "outputs": [
        {
          "internalType": "address",
          "name": "",
          "type": "address"
        }
      ],
      "stateMutability": "view",
      "type": "function"
    },
    {
      "inputs": [],
      "name": "pusdToken",
      "outputs": [
        {
          "internalType": "contract PUSD",
          "name": "",
          "type": "address"
        }
      ],
      "stateMutability": "view",
      "type": "function"
    },
    {
      "inputs": [],
      "name": "renounceOwnership",
      "outputs": [],
      "stateMutability": "nonpayable",
      "type": "function"
    },
    {
      "inputs": [],
      "name": "repayLoan",
      "outputs": [],
      "stateMutability": "nonpayable",
      "type": "function"
    },
    {
      "inputs": [
        {
          "internalType": "address",
          "name": "newOwner",
          "type": "address"
        }
      ],
      "name": "transferOwnership",
      "outputs": [],
      "stateMutability": "nonpayable",
      "type": "function"
    },
    {
      "inputs": [
        {
          "internalType": "uint256",
          "name": "newRate",
          "type": "uint256"
        }
      ],
      "name": "updateBaseRate",
      "outputs": [],
      "stateMutability": "nonpayable",
      "type": "function"
    },
    {
      "inputs": [
        {
          "internalType": "uint256",
          "name": "newRatio",
          "type": "uint256"
        }
      ],
      "name": "updateLTVRatio",
      "outputs": [],
      "stateMutability": "nonpayable",
      "type": "function"
    }
  ],
  "bytecode": "0x608060405261012c600455603260055562278d006006553480156200002357600080fd5b5060405162001b9e38038062001b9e833981810160405281019062000049919062000421565b33600073ffffffffffffffffffffffffffffffffffffffff168173ffffffffffffffffffffffffffffffffffffffff1603620000bf5760006040517f1e4fbdf7000000000000000000000000000000000000000000000000000000008152600401620000b691906200048e565b60405180910390fd5b620000d081620002f360201b60201c565b50600073ffffffffffffffffffffffffffffffffffffffff168373ffffffffffffffffffffffffffffffffffffffff160362000143576040517f08c379a00000000000000000000000000000000000000000000000000000000081526004016200013a906200050c565b60405180910390fd5b600073ffffffffffffffffffffffffffffffffffffffff168273ffffffffffffffffffffffffffffffffffffffff1603620001b5576040517f08c379a0000000000000000000000000000000000000000000000000000000008152600401620001ac906200057e565b60405180910390fd5b600073ffffffffffffffffffffffffffffffffffffffff168173ffffffffffffffffffffffffffffffffffffffff160362000227576040517f08c379a00000000000000000000000000000000000000000000000000000000081526004016200021e90620005f0565b60405180910390fd5b82600160006101000a81548173ffffffffffffffffffffffffffffffffffffffff021916908373ffffffffffffffffffffffffffffffffffffffff16021790555081600260006101000a81548173ffffffffffffffffffffffffffffffffffffffff021916908373ffffffffffffffffffffffffffffffffffffffff16021790555080600360006101000a81548173ffffffffffffffffffffffffffffffffffffffff021916908373ffffffffffffffffffffffffffffffffffffffff16021790555050505062000612565b60008060009054906101000a900473ffffffffffffffffffffffffffffffffffffffff169050816000806101000a81548173ffffffffffffffffffffffffffffffffffffffff021916908373ffffffffffffffffffffffffffffffffffffffff1602179055508173ffffffffffffffffffffffffffffffffffffffff168173ffffffffffffffffffffffffffffffffffffffff167f8be0079c531659141344cd1fd0a4f28419497f9722a3daafe3b4186f6b6457e060405160405180910390a35050565b600080fd5b600073ffffffffffffffffffffffffffffffffffffffff82169050919050565b6000620003e982620003bc565b9050919050565b620003fb81620003dc565b81146200040757600080fd5b50565b6000815190506200041b81620003f0565b92915050565b6000806000606084860312156200043d576200043c620003b7565b5b60006200044d868287016200040a565b935050602062000460868287016200040a565b925050604062000473868287016200040a565b9150509250925092565b6200048881620003dc565b82525050565b6000602082019050620004a560008301846200047d565b92915050565b600082825260208201905092915050565b7f496e76616c696420656967656e20616464726573730000000000000000000000600082015250565b6000620004f4601583620004ab565b91506200050182620004bc565b602082019050919050565b600060208201905081810360008301526200052781620004e5565b9050919050565b7f496e76616c6964205055534420746f6b656e2061646472657373000000000000600082015250565b600062000566601a83620004ab565b915062000573826200052e565b602082019050919050565b60006020820190508181036000830152620005998162000557565b9050919050565b7f496e76616c6964206f70657261746f7220616464726573730000000000000000600082015250565b6000620005d8601883620004ab565b9150620005e582620005a0565b602082019050919050565b600060208201905081810360008301526200060b81620005c9565b9050919050565b61157c80620006226000396000f3fe608060405234801561001057600080fd5b50600436106101005760003560e01c80639a4e8ecf11610097578063d285b7b411610066578063d285b7b414610259578063f2fde38b1461027d578063f5521bf114610299578063f966ade7146102b757610100565b80639a4e8ecf146101df578063a3b9e39d146101fb578063afd927621461021f578063b36f8faf1461023d57610100565b80637de614f0116100d35780637de614f0146101675780637f7614b4146101855780638da5cb5b146101a35780638fbcd32f146101c157610100565b8063330283aa14610105578063570ca73514610121578063677c0c671461013f578063715018a61461015d575b600080fd5b61011f600480360381019061011a9190610d7c565b6102c1565b005b61012961030a565b6040516101369190610e28565b60405180910390f35b610147610330565b6040516101549190610e64565b60405180910390f35b610165610356565b005b61016f61036a565b60405161017c9190610e8e565b60405180910390f35b61018d6103f9565b60405161019a9190610eca565b60405180910390f35b6101ab61041f565b6040516101b89190610f06565b60405180910390f35b6101c9610448565b6040516101d69190610e8e565b60405180910390f35b6101f960048036038101906101f49190610d7c565b61044e565b005b6102036107fd565b6040516102169796959493929190610f3c565b60405180910390f35b610227610856565b6040516102349190610e8e565b60405180910390f35b61025760048036038101906102529190610d7c565b61085c565b005b6102616108e9565b6040516102749796959493929190610f3c565b60405180910390f35b61029760048036038101906102929190610fd7565b610926565b005b6102a16109ac565b6040516102ae9190610e8e565b60405180910390f35b6102bf6109b2565b005b6102c9610bee565b806004819055507fc454ee9b76c52f782a256af821b857ca6e125d1e3333bcede402fec2bed9600c816040516102ff9190610e8e565b60405180910390a150565b600360009054906101000a900473ffffffffffffffffffffffffffffffffffffffff1681565b600160009054906101000a900473ffffffffffffffffffffffffffffffffffffffff1681565b61035e610bee565b6103686000610c75565b565b600080600760000154148061038e5750600760040160009054906101000a900460ff165b1561039c57600090506103f6565b600064496cebb800600760020154426103b59190611033565b6007600101546007600001546103cb9190611067565b6103d59190611067565b6103df91906110d8565b9050806007600001546103f29190611109565b9150505b90565b600260009054906101000a900473ffffffffffffffffffffffffffffffffffffffff1681565b60008060009054906101000a900473ffffffffffffffffffffffffffffffffffffffff16905090565b60055481565b60008111610491576040517f08c379a0000000000000000000000000000000000000000000000000000000008152600401610488906111c0565b60405180910390fd5b600060076000015414806104b45750600760040160009054906101000a900460ff165b6104f3576040517f08c379a00000000000000000000000000000000000000000000000000000000081526004016104ea9061122c565b60405180910390fd5b6000600160009054906101000a900473ffffffffffffffffffffffffffffffffffffffff1673ffffffffffffffffffffffffffffffffffffffff1663f29768716040518163ffffffff1660e01b8152600401602060405180830381865afa158015610562573d6000803e3d6000fd5b505050506040513d601f19601f820116820180604052508101906105869190611261565b9050600060646005548361059a9190611067565b6105a491906110d8565b9050808311156105e9576040517f08c379a00000000000000000000000000000000000000000000000000000000081526004016105e090611300565b60405180910390fd5b6040518060e001604052808481526020016004548152602001428152602001600654426106169190611109565b8152602001600015158152602001838152602001600081525060076000820151816000015560208201518160010155604082015181600201556060820151816003015560808201518160040160006101000a81548160ff02191690831515021790555060a0820151816005015560c082015181600601559050506000600260009054906101000a900473ffffffffffffffffffffffffffffffffffffffff1673ffffffffffffffffffffffffffffffffffffffff16630f9facbe85600360009054906101000a900473ffffffffffffffffffffffffffffffffffffffff166040518363ffffffff1660e01b8152600401610711929190611320565b6020604051808303816000875af1158015610730573d6000803e3d6000fd5b505050506040513d601f19601f820116820180604052508101906107549190611375565b905080610796576040517f08c379a000000000000000000000000000000000000000000000000000000000815260040161078d906113ee565b60405180910390fd5b3373ffffffffffffffffffffffffffffffffffffffff167f1804eb76dc9809be7ef188388aa1aeb765881fd848377be891234e5c584345fe85600454600654426107e09190611109565b6040516107ef9392919061140e565b60405180910390a250505050565b6000806000806000806000600760000154600760010154600760020154600760030154600760040160009054906101000a900460ff16600760050154600760060154965096509650965096509650965090919293949596565b60045481565b610864610bee565b60508111156108a8576040517f08c379a000000000000000000000000000000000000000000000000000000000815260040161089f90611491565b60405180910390fd5b806005819055507f38b6cc930563309bee808bf6909492708ec475960b01ffa9791b5ffca27c1f98816040516108de9190610e8e565b60405180910390a150565b60078060000154908060010154908060020154908060030154908060040160009054906101000a900460ff16908060050154908060060154905087565b61092e610bee565b600073ffffffffffffffffffffffffffffffffffffffff168173ffffffffffffffffffffffffffffffffffffffff16036109a05760006040517f1e4fbdf70000000000000000000000000000000000000000000000000000000081526004016109979190610f06565b60405180910390fd5b6109a981610c75565b50565b60065481565b60006007600001541180156109d75750600760040160009054906101000a900460ff16155b610a16576040517f08c379a0000000000000000000000000000000000000000000000000000000008152600401610a0d906114fd565b60405180910390fd5b600064496cebb80060076002015442610a2f9190611033565b600760010154600760000154610a459190611067565b610a4f9190611067565b610a5991906110d8565b9050600081600760000154610a6e9190611109565b90506000600260009054906101000a900473ffffffffffffffffffffffffffffffffffffffff1673ffffffffffffffffffffffffffffffffffffffff1663dc57225b83600360009054906101000a900473ffffffffffffffffffffffffffffffffffffffff166040518363ffffffff1660e01b8152600401610af1929190611320565b6020604051808303816000875af1158015610b10573d6000803e3d6000fd5b505050506040513d601f19601f82011682018060405250810190610b349190611375565b905080610b76576040517f08c379a0000000000000000000000000000000000000000000000000000000008152600401610b6d906113ee565b60405180910390fd5b6001600760040160006101000a81548160ff0219169083151502179055503373ffffffffffffffffffffffffffffffffffffffff167fc7ce0a35f17b490de2a317e7fecb2cae86b1abffb03800b2f49282352138269860076000015485604051610be192919061151d565b60405180910390a2505050565b610bf6610d39565b73ffffffffffffffffffffffffffffffffffffffff16610c1461041f565b73ffffffffffffffffffffffffffffffffffffffff1614610c7357610c37610d39565b6040517f118cdaa7000000000000000000000000000000000000000000000000000000008152600401610c6a9190610f06565b60405180910390fd5b565b60008060009054906101000a900473ffffffffffffffffffffffffffffffffffffffff169050816000806101000a81548173ffffffffffffffffffffffffffffffffffffffff021916908373ffffffffffffffffffffffffffffffffffffffff1602179055508173ffffffffffffffffffffffffffffffffffffffff168173ffffffffffffffffffffffffffffffffffffffff167f8be0079c531659141344cd1fd0a4f28419497f9722a3daafe3b4186f6b6457e060405160405180910390a35050565b600033905090565b600080fd5b6000819050919050565b610d5981610d46565b8114610d6457600080fd5b50565b600081359050610d7681610d50565b92915050565b600060208284031215610d9257610d91610d41565b5b6000610da084828501610d67565b91505092915050565b600073ffffffffffffffffffffffffffffffffffffffff82169050919050565b6000819050919050565b6000610dee610de9610de484610da9565b610dc9565b610da9565b9050919050565b6000610e0082610dd3565b9050919050565b6000610e1282610df5565b9050919050565b610e2281610e07565b82525050565b6000602082019050610e3d6000830184610e19565b92915050565b6000610e4e82610df5565b9050919050565b610e5e81610e43565b82525050565b6000602082019050610e796000830184610e55565b92915050565b610e8881610d46565b82525050565b6000602082019050610ea36000830184610e7f565b92915050565b6000610eb482610df5565b9050919050565b610ec481610ea9565b82525050565b6000602082019050610edf6000830184610ebb565b92915050565b6000610ef082610da9565b9050919050565b610f0081610ee5565b82525050565b6000602082019050610f1b6000830184610ef7565b92915050565b60008115159050919050565b610f3681610f21565b82525050565b600060e082019050610f51600083018a610e7f565b610f5e6020830189610e7f565b610f6b6040830188610e7f565b610f786060830187610e7f565b610f856080830186610f2d565b610f9260a0830185610e7f565b610f9f60c0830184610e7f565b98975050505050505050565b610fb481610ee5565b8114610fbf57600080fd5b50565b600081359050610fd181610fab565b92915050565b600060208284031215610fed57610fec610d41565b5b6000610ffb84828501610fc2565b91505092915050565b7f4e487b7100000000000000000000000000000000000000000000000000000000600052601160045260246000fd5b600061103e82610d46565b915061104983610d46565b925082820390508181111561106157611060611004565b5b92915050565b600061107282610d46565b915061107d83610d46565b925082820261108b81610d46565b915082820484148315176110a2576110a1611004565b5b5092915050565b7f4e487b7100000000000000000000000000000000000000000000000000000000600052601260045260246000fd5b60006110e382610d46565b91506110ee83610d46565b9250826110fe576110fd6110a9565b5b828204905092915050565b600061111482610d46565b915061111f83610d46565b925082820190508082111561113757611136611004565b5b92915050565b600082825260208201905092915050565b7f4c6f616e20616d6f756e74206d7573742062652067726561746572207468616e60008201527f207a65726f000000000000000000000000000000000000000000000000000000602082015250565b60006111aa60258361113d565b91506111b58261114e565b604082019050919050565b600060208201905081810360008301526111d98161119d565b9050919050565b7f4578697374696e67206c6f616e206e6f74207265706169640000000000000000600082015250565b600061121660188361113d565b9150611221826111e0565b602082019050919050565b6000602082019050818103600083015261124581611209565b9050919050565b60008151905061125b81610d50565b92915050565b60006020828403121561127757611276610d41565b5b60006112858482850161124c565b91505092915050565b7f4c6f616e20616d6f756e742065786365656473206d6178696d756d20616c6c6f60008201527f7765640000000000000000000000000000000000000000000000000000000000602082015250565b60006112ea60238361113d565b91506112f58261128e565b604082019050919050565b60006020820190508181036000830152611319816112dd565b9050919050565b60006040820190506113356000830185610e7f565b6113426020830184610ef7565b9392505050565b61135281610f21565b811461135d57600080fd5b50565b60008151905061136f81611349565b92915050565b60006020828403121561138b5761138a610d41565b5b600061139984828501611360565b91505092915050565b7f50555344207472616e73666572206661696c6564000000000000000000000000600082015250565b60006113d860148361113d565b91506113e3826113a2565b602082019050919050565b60006020820190508181036000830152611407816113cb565b9050919050565b60006060820190506114236000830186610e7f565b6114306020830185610e7f565b61143d6040830184610e7f565b949350505050565b7f4c545620726174696f20746f6f20686967680000000000000000000000000000600082015250565b600061147b60128361113d565b915061148682611445565b602082019050919050565b600060208201905081810360008301526114aa8161146e565b9050919050565b7f4e6f20616374697665206c6f616e20746f207265706179000000000000000000600082015250565b60006114e760178361113d565b91506114f2826114b1565b602082019050919050565b60006020820190508181036000830152611516816114da565b9050919050565b60006040820190506115326000830185610e7f565b61153f6020830184610e7f565b939250505056fea264697066735822122028a3950388c719ab262e01b14b47052dc747584b6775a07d7f14f942097c462464736f6c63430008140033",
  "linkReferences": {},
  "deployedLinkReferences": {}
}