{
  "_format": "hh-sol-artifact-1",
  "contractName": "LoanManager",
  "sourceName": "contracts/LoanManager.sol",
  "abi": [
    {
      "inputs": [
        {
          "internalType": "address",
          "name": "_eigen",
          "type": "address"
        },
        {
          "internalType": "address",
          "name": "_pusdToken",
          "type": "address"
        },
        {
          "internalType": "address",
          "name": "_operator",
          "type": "address"
        }
      ],
      "stateMutability": "nonpayable",
      "type": "constructor"
    },
    {
      "inputs": [
        {
          "internalType": "address",
          "name": "owner",
          "type": "address"
        }
      ],
      "name": "OwnableInvalidOwner",
      "type": "error"
    },
    {
      "inputs": [
        {
          "internalType": "address",
          "name": "account",
          "type": "address"
        }
      ],
      "name": "OwnableUnauthorizedAccount",
      "type": "error"
    },
    {
      "anonymous": false,
      "inputs": [
        {
          "indexed": false,
          "internalType": "uint256",
          "name": "newRate",
          "type": "uint256"
        }
      ],
      "name": "BaseRateUpdated",
      "type": "event"
    },
    {
      "anonymous": false,
      "inputs": [
        {
          "indexed": false,
          "internalType": "uint256",
          "name": "newRatio",
          "type": "uint256"
        }
      ],
      "name": "LTVRatioUpdated",
      "type": "event"
    },
    {
      "anonymous": false,
      "inputs": [
        {
          "indexed": true,
          "internalType": "address",
          "name": "operator",
          "type": "address"
        },
        {
          "indexed": false,
          "internalType": "uint256",
          "name": "amount",
          "type": "uint256"
        },
        {
          "indexed": false,
          "internalType": "uint256",
          "name": "interestRate",
          "type": "uint256"
        },
        {
          "indexed": false,
          "internalType": "uint256",
          "name": "dueTime",
          "type": "uint256"
        }
      ],
      "name": "LoanCreated",
      "type": "event"
    },
    {
      "anonymous": false,
      "inputs": [
        {
          "indexed": true,
          "internalType": "address",
          "name": "operator",
          "type": "address"
        },
        {
          "indexed": false,
          "internalType": "uint256",
          "name": "amount",
          "type": "uint256"
        },
        {
          "indexed": false,
          "internalType": "uint256",
          "name": "interest",
          "type": "uint256"
        }
      ],
      "name": "LoanRepaid",
      "type": "event"
    },
    {
      "anonymous": false,
      "inputs": [
        {
          "indexed": true,
          "internalType": "address",
          "name": "operator",
          "type": "address"
        },
        {
          "indexed": false,
          "internalType": "uint256",
          "name": "amount",
          "type": "uint256"
        }
      ],
      "name": "LoanSlashed",
      "type": "event"
    },
    {
      "anonymous": false,
      "inputs": [
        {
          "indexed": true,
          "internalType": "address",
          "name": "previousOwner",
          "type": "address"
        },
        {
          "indexed": true,
          "internalType": "address",
          "name": "newOwner",
          "type": "address"
        }
      ],
      "name": "OwnershipTransferred",
      "type": "event"
    },
    {
      "inputs": [],
      "name": "baseInterestRate",
      "outputs": [
        {
          "internalType": "uint256",
          "name": "",
          "type": "uint256"
        }
      ],
      "stateMutability": "view",
      "type": "function"
    },
    {
      "inputs": [],
      "name": "calculateRepaymentAmount",
      "outputs": [
        {
          "internalType": "uint256",
          "name": "",
          "type": "uint256"
        }
      ],
      "stateMutability": "view",
      "type": "function"
    },
    {
      "inputs": [
        {
          "internalType": "uint256",
          "name": "amount",
          "type": "uint256"
        }
      ],
      "name": "createLoan",
      "outputs": [],
      "stateMutability": "nonpayable",
      "type": "function"
    },
    {
      "inputs": [],
      "name": "eigen",
      "outputs": [
        {
          "internalType": "contract Eigen",
          "name": "",
          "type": "address"
        }
      ],
      "stateMutability": "view",
      "type": "function"
    },
    {
      "inputs": [],
      "name": "getLoanDetails",
      "outputs": [
        {
          "internalType": "uint256",
          "name": "amount",
          "type": "uint256"
        },
        {
          "internalType": "uint256",
          "name": "interestRate",
          "type": "uint256"
        },
        {
          "internalType": "uint256",
          "name": "startTime",
          "type": "uint256"
        },
        {
          "internalType": "uint256",
          "name": "dueTime",
          "type": "uint256"
        },
        {
          "internalType": "bool",
          "name": "isRepaid",
          "type": "bool"
        },
        {
          "internalType": "uint256",
          "name": "collateralAmount",
          "type": "uint256"
        },
        {
          "internalType": "uint256",
          "name": "loanedUSDCAmount",
          "type": "uint256"
        },
        {
          "internalType": "bool",
          "name": "isSlashed",
          "type": "bool"
        }
      ],
      "stateMutability": "view",
      "type": "function"
    },
    {
      "inputs": [],
      "name": "loan",
      "outputs": [
        {
          "internalType": "uint256",
          "name": "amount",
          "type": "uint256"
        },
        {
          "internalType": "uint256",
          "name": "interestRate",
          "type": "uint256"
        },
        {
          "internalType": "uint256",
          "name": "startTime",
          "type": "uint256"
        },
        {
          "internalType": "uint256",
          "name": "dueTime",
          "type": "uint256"
        },
        {
          "internalType": "bool",
          "name": "isRepaid",
          "type": "bool"
        },
        {
          "internalType": "uint256",
          "name": "collateralAmount",
          "type": "uint256"
        },
        {
          "internalType": "uint256",
          "name": "loanedUSDCAmount",
          "type": "uint256"
        },
        {
          "internalType": "bool",
          "name": "isSlashed",
          "type": "bool"
        }
      ],
      "stateMutability": "view",
      "type": "function"
    },
    {
      "inputs": [],
      "name": "loanDuration",
      "outputs": [
        {
          "internalType": "uint256",
          "name": "",
          "type": "uint256"
        }
      ],
      "stateMutability": "view",
      "type": "function"
    },
    {
      "inputs": [],
      "name": "ltvRatio",
      "outputs": [
        {
          "internalType": "uint256",
          "name": "",
          "type": "uint256"
        }
      ],
      "stateMutability": "view",
      "type": "function"
    },
    {
      "inputs": [],
      "name": "operator",
      "outputs": [
        {
          "internalType": "contract IOperator",
          "name": "",
          "type": "address"
        }
      ],
      "stateMutability": "view",
      "type": "function"
    },
    {
      "inputs": [],
      "name": "owner",
      "outputs": [
        {
          "internalType": "address",
          "name": "",
          "type": "address"
        }
      ],
      "stateMutability": "view",
      "type": "function"
    },
    {
      "inputs": [],
      "name": "pusdToken",
      "outputs": [
        {
          "internalType": "contract PUSD",
          "name": "",
          "type": "address"
        }
      ],
      "stateMutability": "view",
      "type": "function"
    },
    {
      "inputs": [],
      "name": "renounceOwnership",
      "outputs": [],
      "stateMutability": "nonpayable",
      "type": "function"
    },
    {
      "inputs": [],
      "name": "repayLoan",
      "outputs": [],
      "stateMutability": "nonpayable",
      "type": "function"
    },
    {
      "inputs": [],
      "name": "slashLoan",
      "outputs": [],
      "stateMutability": "nonpayable",
      "type": "function"
    },
    {
      "inputs": [
        {
          "internalType": "address",
          "name": "newOwner",
          "type": "address"
        }
      ],
      "name": "transferOwnership",
      "outputs": [],
      "stateMutability": "nonpayable",
      "type": "function"
    },
    {
      "inputs": [
        {
          "internalType": "uint256",
          "name": "newRate",
          "type": "uint256"
        }
      ],
      "name": "updateBaseRate",
      "outputs": [],
      "stateMutability": "nonpayable",
      "type": "function"
    },
    {
      "inputs": [
        {
          "internalType": "uint256",
          "name": "newRatio",
          "type": "uint256"
        }
      ],
      "name": "updateLTVRatio",
      "outputs": [],
      "stateMutability": "nonpayable",
      "type": "function"
    }
  ],
  "bytecode": "0x608060405261012c6004556032600555620151806006553480156200002357600080fd5b5060405162001df938038062001df9833981810160405281019062000049919062000421565b33600073ffffffffffffffffffffffffffffffffffffffff168173ffffffffffffffffffffffffffffffffffffffff1603620000bf5760006040517f1e4fbdf7000000000000000000000000000000000000000000000000000000008152600401620000b691906200048e565b60405180910390fd5b620000d081620002f360201b60201c565b50600073ffffffffffffffffffffffffffffffffffffffff168373ffffffffffffffffffffffffffffffffffffffff160362000143576040517f08c379a00000000000000000000000000000000000000000000000000000000081526004016200013a906200050c565b60405180910390fd5b600073ffffffffffffffffffffffffffffffffffffffff168273ffffffffffffffffffffffffffffffffffffffff1603620001b5576040517f08c379a0000000000000000000000000000000000000000000000000000000008152600401620001ac906200057e565b60405180910390fd5b600073ffffffffffffffffffffffffffffffffffffffff168173ffffffffffffffffffffffffffffffffffffffff160362000227576040517f08c379a00000000000000000000000000000000000000000000000000000000081526004016200021e90620005f0565b60405180910390fd5b82600160006101000a81548173ffffffffffffffffffffffffffffffffffffffff021916908373ffffffffffffffffffffffffffffffffffffffff16021790555081600260006101000a81548173ffffffffffffffffffffffffffffffffffffffff021916908373ffffffffffffffffffffffffffffffffffffffff16021790555080600360006101000a81548173ffffffffffffffffffffffffffffffffffffffff021916908373ffffffffffffffffffffffffffffffffffffffff16021790555050505062000612565b60008060009054906101000a900473ffffffffffffffffffffffffffffffffffffffff169050816000806101000a81548173ffffffffffffffffffffffffffffffffffffffff021916908373ffffffffffffffffffffffffffffffffffffffff1602179055508173ffffffffffffffffffffffffffffffffffffffff168173ffffffffffffffffffffffffffffffffffffffff167f8be0079c531659141344cd1fd0a4f28419497f9722a3daafe3b4186f6b6457e060405160405180910390a35050565b600080fd5b600073ffffffffffffffffffffffffffffffffffffffff82169050919050565b6000620003e982620003bc565b9050919050565b620003fb81620003dc565b81146200040757600080fd5b50565b6000815190506200041b81620003f0565b92915050565b6000806000606084860312156200043d576200043c620003b7565b5b60006200044d868287016200040a565b935050602062000460868287016200040a565b925050604062000473868287016200040a565b9150509250925092565b6200048881620003dc565b82525050565b6000602082019050620004a560008301846200047d565b92915050565b600082825260208201905092915050565b7f496e76616c696420656967656e20616464726573730000000000000000000000600082015250565b6000620004f4601583620004ab565b91506200050182620004bc565b602082019050919050565b600060208201905081810360008301526200052781620004e5565b9050919050565b7f496e76616c6964205055534420746f6b656e2061646472657373000000000000600082015250565b600062000566601a83620004ab565b915062000573826200052e565b602082019050919050565b60006020820190508181036000830152620005998162000557565b9050919050565b7f496e76616c6964206f70657261746f7220616464726573730000000000000000600082015250565b6000620005d8601883620004ab565b9150620005e582620005a0565b602082019050919050565b600060208201905081810360008301526200060b81620005c9565b9050919050565b6117d780620006226000396000f3fe608060405234801561001057600080fd5b506004361061010b5760003560e01c80638fbcd32f116100a2578063b36f8faf11610071578063b36f8faf14610253578063d285b7b41461026f578063f2fde38b14610294578063f5521bf1146102b0578063f966ade7146102ce5761010b565b80638fbcd32f146101d65780639a4e8ecf146101f4578063a3b9e39d14610210578063afd92762146102355761010b565b8063772c0ff9116100de578063772c0ff9146101725780637de614f01461017c5780637f7614b41461019a5780638da5cb5b146101b85761010b565b8063330283aa14610110578063570ca7351461012c578063677c0c671461014a578063715018a614610168575b600080fd5b61012a60048036038101906101259190610f5c565b6102d8565b005b610134610321565b6040516101419190611008565b60405180910390f35b610152610347565b60405161015f9190611044565b60405180910390f35b61017061036d565b005b61017a610381565b005b6101846104f7565b604051610191919061106e565b60405180910390f35b6101a2610586565b6040516101af91906110aa565b60405180910390f35b6101c06105ac565b6040516101cd91906110e6565b60405180910390f35b6101de6105d5565b6040516101eb919061106e565b60405180910390f35b61020e60048036038101906102099190610f5c565b6105db565b005b6102186109b4565b60405161022c98979695949392919061111c565b60405180910390f35b61023d610a23565b60405161024a919061106e565b60405180910390f35b61026d60048036038101906102689190610f5c565b610a29565b005b610277610ab6565b60405161028b98979695949392919061111c565b60405180910390f35b6102ae60048036038101906102a991906111c6565b610b06565b005b6102b8610b8c565b6040516102c5919061106e565b60405180910390f35b6102d6610b92565b005b6102e0610dce565b806004819055507fc454ee9b76c52f782a256af821b857ca6e125d1e3333bcede402fec2bed9600c81604051610316919061106e565b60405180910390a150565b600360009054906101000a900473ffffffffffffffffffffffffffffffffffffffff1681565b600160009054906101000a900473ffffffffffffffffffffffffffffffffffffffff1681565b610375610dce565b61037f6000610e55565b565b60006007600001541180156103a65750600760040160009054906101000a900460ff16155b6103e5576040517f08c379a00000000000000000000000000000000000000000000000000000000081526004016103dc90611250565b60405180910390fd5b600160009054906101000a900473ffffffffffffffffffffffffffffffffffffffff1673ffffffffffffffffffffffffffffffffffffffff16632da25de36040518163ffffffff1660e01b8152600401600060405180830381600087803b15801561044f57600080fd5b505af1158015610463573d6000803e3d6000fd5b505050506001600760040160006101000a81548160ff02191690831515021790555060016007800160006101000a81548160ff0219169083151502179055503373ffffffffffffffffffffffffffffffffffffffff167fa1f8d27ed8298107a9eb5cecd81c05419b1bde3c035a21236d9c9c82015dbcfa6007600001546040516104ed919061106e565b60405180910390a2565b600080600760000154148061051b5750600760040160009054906101000a900460ff165b156105295760009050610583565b600064496cebb80060076002015442610542919061129f565b60076001015460076000015461055891906112d3565b61056291906112d3565b61056c9190611344565b90508060076000015461057f9190611375565b9150505b90565b600260009054906101000a900473ffffffffffffffffffffffffffffffffffffffff1681565b60008060009054906101000a900473ffffffffffffffffffffffffffffffffffffffff16905090565b60055481565b6000811161061e576040517f08c379a00000000000000000000000000000000000000000000000000000000081526004016106159061141b565b60405180910390fd5b600060076000015414806106415750600760040160009054906101000a900460ff165b610680576040517f08c379a000000000000000000000000000000000000000000000000000000000815260040161067790611487565b60405180910390fd5b6000600160009054906101000a900473ffffffffffffffffffffffffffffffffffffffff1673ffffffffffffffffffffffffffffffffffffffff1663f29768716040518163ffffffff1660e01b8152600401602060405180830381865afa1580156106ef573d6000803e3d6000fd5b505050506040513d601f19601f8201168201806040525081019061071391906114bc565b9050600060646005548361072791906112d3565b6107319190611344565b905080831115610776576040517f08c379a000000000000000000000000000000000000000000000000000000000815260040161076d9061155b565b60405180910390fd5b6040518061010001604052808481526020016004548152602001428152602001600654426107a49190611375565b8152602001600015158152602001838152602001600081526020016000151581525060076000820151816000015560208201518160010155604082015181600201556060820151816003015560808201518160040160006101000a81548160ff02191690831515021790555060a0820151816005015560c0820151816006015560e08201518160070160006101000a81548160ff0219169083151502179055509050506000600260009054906101000a900473ffffffffffffffffffffffffffffffffffffffff1673ffffffffffffffffffffffffffffffffffffffff16630f9facbe85600360009054906101000a900473ffffffffffffffffffffffffffffffffffffffff166040518363ffffffff1660e01b81526004016108c892919061157b565b6020604051808303816000875af11580156108e7573d6000803e3d6000fd5b505050506040513d601f19601f8201168201806040525081019061090b91906115d0565b90508061094d576040517f08c379a000000000000000000000000000000000000000000000000000000000815260040161094490611649565b60405180910390fd5b3373ffffffffffffffffffffffffffffffffffffffff167f1804eb76dc9809be7ef188388aa1aeb765881fd848377be891234e5c584345fe85600454600654426109979190611375565b6040516109a693929190611669565b60405180910390a250505050565b600080600080600080600080600760000154600760010154600760020154600760030154600760040160009054906101000a900460ff166007600501546007600601546007800160009054906101000a900460ff16975097509750975097509750975097509091929394959697565b60045481565b610a31610dce565b6050811115610a75576040517f08c379a0000000000000000000000000000000000000000000000000000000008152600401610a6c906116ec565b60405180910390fd5b806005819055507f38b6cc930563309bee808bf6909492708ec475960b01ffa9791b5ffca27c1f9881604051610aab919061106e565b60405180910390a150565b60078060000154908060010154908060020154908060030154908060040160009054906101000a900460ff16908060050154908060060154908060070160009054906101000a900460ff16905088565b610b0e610dce565b600073ffffffffffffffffffffffffffffffffffffffff168173ffffffffffffffffffffffffffffffffffffffff1603610b805760006040517f1e4fbdf7000000000000000000000000000000000000000000000000000000008152600401610b7791906110e6565b60405180910390fd5b610b8981610e55565b50565b60065481565b6000600760000154118015610bb75750600760040160009054906101000a900460ff16155b610bf6576040517f08c379a0000000000000000000000000000000000000000000000000000000008152600401610bed90611758565b60405180910390fd5b600064496cebb80060076002015442610c0f919061129f565b600760010154600760000154610c2591906112d3565b610c2f91906112d3565b610c399190611344565b9050600081600760000154610c4e9190611375565b90506000600260009054906101000a900473ffffffffffffffffffffffffffffffffffffffff1673ffffffffffffffffffffffffffffffffffffffff1663dc57225b83600360009054906101000a900473ffffffffffffffffffffffffffffffffffffffff166040518363ffffffff1660e01b8152600401610cd192919061157b565b6020604051808303816000875af1158015610cf0573d6000803e3d6000fd5b505050506040513d601f19601f82011682018060405250810190610d1491906115d0565b905080610d56576040517f08c379a0000000000000000000000000000000000000000000000000000000008152600401610d4d90611649565b60405180910390fd5b6001600760040160006101000a81548160ff0219169083151502179055503373ffffffffffffffffffffffffffffffffffffffff167fc7ce0a35f17b490de2a317e7fecb2cae86b1abffb03800b2f49282352138269860076000015485604051610dc1929190611778565b60405180910390a2505050565b610dd6610f19565b73ffffffffffffffffffffffffffffffffffffffff16610df46105ac565b73ffffffffffffffffffffffffffffffffffffffff1614610e5357610e17610f19565b6040517f118cdaa7000000000000000000000000000000000000000000000000000000008152600401610e4a91906110e6565b60405180910390fd5b565b60008060009054906101000a900473ffffffffffffffffffffffffffffffffffffffff169050816000806101000a81548173ffffffffffffffffffffffffffffffffffffffff021916908373ffffffffffffffffffffffffffffffffffffffff1602179055508173ffffffffffffffffffffffffffffffffffffffff168173ffffffffffffffffffffffffffffffffffffffff167f8be0079c531659141344cd1fd0a4f28419497f9722a3daafe3b4186f6b6457e060405160405180910390a35050565b600033905090565b600080fd5b6000819050919050565b610f3981610f26565b8114610f4457600080fd5b50565b600081359050610f5681610f30565b92915050565b600060208284031215610f7257610f71610f21565b5b6000610f8084828501610f47565b91505092915050565b600073ffffffffffffffffffffffffffffffffffffffff82169050919050565b6000819050919050565b6000610fce610fc9610fc484610f89565b610fa9565b610f89565b9050919050565b6000610fe082610fb3565b9050919050565b6000610ff282610fd5565b9050919050565b61100281610fe7565b82525050565b600060208201905061101d6000830184610ff9565b92915050565b600061102e82610fd5565b9050919050565b61103e81611023565b82525050565b60006020820190506110596000830184611035565b92915050565b61106881610f26565b82525050565b6000602082019050611083600083018461105f565b92915050565b600061109482610fd5565b9050919050565b6110a481611089565b82525050565b60006020820190506110bf600083018461109b565b92915050565b60006110d082610f89565b9050919050565b6110e0816110c5565b82525050565b60006020820190506110fb60008301846110d7565b92915050565b60008115159050919050565b61111681611101565b82525050565b600061010082019050611132600083018b61105f565b61113f602083018a61105f565b61114c604083018961105f565b611159606083018861105f565b611166608083018761110d565b61117360a083018661105f565b61118060c083018561105f565b61118d60e083018461110d565b9998505050505050505050565b6111a3816110c5565b81146111ae57600080fd5b50565b6000813590506111c08161119a565b92915050565b6000602082840312156111dc576111db610f21565b5b60006111ea848285016111b1565b91505092915050565b600082825260208201905092915050565b7f4e6f20616374697665206c6f616e20746f20736c617368000000000000000000600082015250565b600061123a6017836111f3565b915061124582611204565b602082019050919050565b600060208201905081810360008301526112698161122d565b9050919050565b7f4e487b7100000000000000000000000000000000000000000000000000000000600052601160045260246000fd5b60006112aa82610f26565b91506112b583610f26565b92508282039050818111156112cd576112cc611270565b5b92915050565b60006112de82610f26565b91506112e983610f26565b92508282026112f781610f26565b9150828204841483151761130e5761130d611270565b5b5092915050565b7f4e487b7100000000000000000000000000000000000000000000000000000000600052601260045260246000fd5b600061134f82610f26565b915061135a83610f26565b92508261136a57611369611315565b5b828204905092915050565b600061138082610f26565b915061138b83610f26565b92508282019050808211156113a3576113a2611270565b5b92915050565b7f4c6f616e20616d6f756e74206d7573742062652067726561746572207468616e60008201527f207a65726f000000000000000000000000000000000000000000000000000000602082015250565b60006114056025836111f3565b9150611410826113a9565b604082019050919050565b60006020820190508181036000830152611434816113f8565b9050919050565b7f4578697374696e67206c6f616e206e6f74207265706169640000000000000000600082015250565b60006114716018836111f3565b915061147c8261143b565b602082019050919050565b600060208201905081810360008301526114a081611464565b9050919050565b6000815190506114b681610f30565b92915050565b6000602082840312156114d2576114d1610f21565b5b60006114e0848285016114a7565b91505092915050565b7f4c6f616e20616d6f756e742065786365656473206d6178696d756d20616c6c6f60008201527f7765640000000000000000000000000000000000000000000000000000000000602082015250565b60006115456023836111f3565b9150611550826114e9565b604082019050919050565b6000602082019050818103600083015261157481611538565b9050919050565b6000604082019050611590600083018561105f565b61159d60208301846110d7565b9392505050565b6115ad81611101565b81146115b857600080fd5b50565b6000815190506115ca816115a4565b92915050565b6000602082840312156115e6576115e5610f21565b5b60006115f4848285016115bb565b91505092915050565b7f50555344207472616e73666572206661696c6564000000000000000000000000600082015250565b60006116336014836111f3565b915061163e826115fd565b602082019050919050565b6000602082019050818103600083015261166281611626565b9050919050565b600060608201905061167e600083018661105f565b61168b602083018561105f565b611698604083018461105f565b949350505050565b7f4c545620726174696f20746f6f20686967680000000000000000000000000000600082015250565b60006116d66012836111f3565b91506116e1826116a0565b602082019050919050565b60006020820190508181036000830152611705816116c9565b9050919050565b7f4e6f20616374697665206c6f616e20746f207265706179000000000000000000600082015250565b60006117426017836111f3565b915061174d8261170c565b602082019050919050565b6000602082019050818103600083015261177181611735565b9050919050565b600060408201905061178d600083018561105f565b61179a602083018461105f565b939250505056fea2646970667358221220202f1dc27c16b9635cccf2453632a438283d0fba04bbf941d24cbe6f4de98cb964736f6c63430008140033",
  "linkReferences": {},
  "deployedLinkReferences": {}
}