{
  "_format": "hh-sol-artifact-1",
  "contractName": "LoanManager",
  "sourceName": "contracts/LoanManager.sol",
  "abi": [
    {
      "inputs": [
        {
          "internalType": "address",
          "name": "_eigen",
          "type": "address"
        },
        {
          "internalType": "address",
          "name": "_spusdToken",
          "type": "address"
        },
        {
          "internalType": "address",
          "name": "_operator",
          "type": "address"
        }
      ],
      "stateMutability": "nonpayable",
      "type": "constructor"
    },
    {
      "inputs": [
        {
          "internalType": "address",
          "name": "owner",
          "type": "address"
        }
      ],
      "name": "OwnableInvalidOwner",
      "type": "error"
    },
    {
      "inputs": [
        {
          "internalType": "address",
          "name": "account",
          "type": "address"
        }
      ],
      "name": "OwnableUnauthorizedAccount",
      "type": "error"
    },
    {
      "anonymous": false,
      "inputs": [
        {
          "indexed": false,
          "internalType": "uint256",
          "name": "newRate",
          "type": "uint256"
        }
      ],
      "name": "BaseRateUpdated",
      "type": "event"
    },
    {
      "anonymous": false,
      "inputs": [
        {
          "indexed": false,
          "internalType": "uint256",
          "name": "newRatio",
          "type": "uint256"
        }
      ],
      "name": "LTVRatioUpdated",
      "type": "event"
    },
    {
      "anonymous": false,
      "inputs": [
        {
          "indexed": true,
          "internalType": "address",
          "name": "operator",
          "type": "address"
        },
        {
          "indexed": false,
          "internalType": "uint256",
          "name": "amount",
          "type": "uint256"
        },
        {
          "indexed": false,
          "internalType": "uint256",
          "name": "interestRate",
          "type": "uint256"
        },
        {
          "indexed": false,
          "internalType": "uint256",
          "name": "dueTime",
          "type": "uint256"
        }
      ],
      "name": "LoanCreated",
      "type": "event"
    },
    {
      "anonymous": false,
      "inputs": [
        {
          "indexed": true,
          "internalType": "address",
          "name": "operator",
          "type": "address"
        },
        {
          "indexed": false,
          "internalType": "uint256",
          "name": "amount",
          "type": "uint256"
        },
        {
          "indexed": false,
          "internalType": "uint256",
          "name": "interest",
          "type": "uint256"
        }
      ],
      "name": "LoanRepaid",
      "type": "event"
    },
    {
      "anonymous": false,
      "inputs": [
        {
          "indexed": true,
          "internalType": "address",
          "name": "operator",
          "type": "address"
        },
        {
          "indexed": false,
          "internalType": "uint256",
          "name": "amount",
          "type": "uint256"
        }
      ],
      "name": "LoanSlashed",
      "type": "event"
    },
    {
      "anonymous": false,
      "inputs": [
        {
          "indexed": true,
          "internalType": "address",
          "name": "previousOwner",
          "type": "address"
        },
        {
          "indexed": true,
          "internalType": "address",
          "name": "newOwner",
          "type": "address"
        }
      ],
      "name": "OwnershipTransferred",
      "type": "event"
    },
    {
      "inputs": [],
      "name": "baseInterestRate",
      "outputs": [
        {
          "internalType": "uint256",
          "name": "",
          "type": "uint256"
        }
      ],
      "stateMutability": "view",
      "type": "function"
    },
    {
      "inputs": [],
      "name": "calculateRepaymentAmount",
      "outputs": [
        {
          "internalType": "uint256",
          "name": "",
          "type": "uint256"
        }
      ],
      "stateMutability": "view",
      "type": "function"
    },
    {
      "inputs": [
        {
          "internalType": "uint256",
          "name": "amount",
          "type": "uint256"
        }
      ],
      "name": "createLoan",
      "outputs": [],
      "stateMutability": "nonpayable",
      "type": "function"
    },
    {
      "inputs": [],
      "name": "eigen",
      "outputs": [
        {
          "internalType": "contract Eigen",
          "name": "",
          "type": "address"
        }
      ],
      "stateMutability": "view",
      "type": "function"
    },
    {
      "inputs": [],
      "name": "getLoanDetails",
      "outputs": [
        {
          "internalType": "uint256",
          "name": "amount",
          "type": "uint256"
        },
        {
          "internalType": "uint256",
          "name": "interestRate",
          "type": "uint256"
        },
        {
          "internalType": "uint256",
          "name": "startTime",
          "type": "uint256"
        },
        {
          "internalType": "uint256",
          "name": "dueTime",
          "type": "uint256"
        },
        {
          "internalType": "bool",
          "name": "isRepaid",
          "type": "bool"
        },
        {
          "internalType": "uint256",
          "name": "collateralAmount",
          "type": "uint256"
        },
        {
          "internalType": "uint256",
          "name": "loanedUSDCAmount",
          "type": "uint256"
        },
        {
          "internalType": "bool",
          "name": "isSlashed",
          "type": "bool"
        }
      ],
      "stateMutability": "view",
      "type": "function"
    },
    {
      "inputs": [],
      "name": "loan",
      "outputs": [
        {
          "internalType": "uint256",
          "name": "amount",
          "type": "uint256"
        },
        {
          "internalType": "uint256",
          "name": "interestRate",
          "type": "uint256"
        },
        {
          "internalType": "uint256",
          "name": "startTime",
          "type": "uint256"
        },
        {
          "internalType": "uint256",
          "name": "dueTime",
          "type": "uint256"
        },
        {
          "internalType": "bool",
          "name": "isRepaid",
          "type": "bool"
        },
        {
          "internalType": "uint256",
          "name": "collateralAmount",
          "type": "uint256"
        },
        {
          "internalType": "uint256",
          "name": "loanedUSDCAmount",
          "type": "uint256"
        },
        {
          "internalType": "bool",
          "name": "isSlashed",
          "type": "bool"
        }
      ],
      "stateMutability": "view",
      "type": "function"
    },
    {
      "inputs": [],
      "name": "loanDuration",
      "outputs": [
        {
          "internalType": "uint256",
          "name": "",
          "type": "uint256"
        }
      ],
      "stateMutability": "view",
      "type": "function"
    },
    {
      "inputs": [],
      "name": "ltvRatio",
      "outputs": [
        {
          "internalType": "uint256",
          "name": "",
          "type": "uint256"
        }
      ],
      "stateMutability": "view",
      "type": "function"
    },
    {
      "inputs": [],
      "name": "operator",
      "outputs": [
        {
          "internalType": "contract IOperator",
          "name": "",
          "type": "address"
        }
      ],
      "stateMutability": "view",
      "type": "function"
    },
    {
      "inputs": [],
      "name": "owner",
      "outputs": [
        {
          "internalType": "address",
          "name": "",
          "type": "address"
        }
      ],
      "stateMutability": "view",
      "type": "function"
    },
    {
      "inputs": [],
      "name": "renounceOwnership",
      "outputs": [],
      "stateMutability": "nonpayable",
      "type": "function"
    },
    {
      "inputs": [],
      "name": "repayLoan",
      "outputs": [],
      "stateMutability": "nonpayable",
      "type": "function"
    },
    {
      "inputs": [],
      "name": "slashLoan",
      "outputs": [
        {
          "internalType": "bool",
          "name": "",
          "type": "bool"
        }
      ],
      "stateMutability": "nonpayable",
      "type": "function"
    },
    {
      "inputs": [],
      "name": "spusdToken",
      "outputs": [
        {
          "internalType": "contract sPUSD",
          "name": "",
          "type": "address"
        }
      ],
      "stateMutability": "view",
      "type": "function"
    },
    {
      "inputs": [
        {
          "internalType": "address",
          "name": "newOwner",
          "type": "address"
        }
      ],
      "name": "transferOwnership",
      "outputs": [],
      "stateMutability": "nonpayable",
      "type": "function"
    },
    {
      "inputs": [
        {
          "internalType": "uint256",
          "name": "newRate",
          "type": "uint256"
        }
      ],
      "name": "updateBaseRate",
      "outputs": [],
      "stateMutability": "nonpayable",
      "type": "function"
    },
    {
      "inputs": [
        {
          "internalType": "uint256",
          "name": "newRatio",
          "type": "uint256"
        }
      ],
      "name": "updateLTVRatio",
      "outputs": [],
      "stateMutability": "nonpayable",
      "type": "function"
    }
  ],
  "bytecode": "0x608060405261012c6004556032600555620151806006553480156200002357600080fd5b5060405162001efd38038062001efd833981810160405281019062000049919062000421565b33600073ffffffffffffffffffffffffffffffffffffffff168173ffffffffffffffffffffffffffffffffffffffff1603620000bf5760006040517f1e4fbdf7000000000000000000000000000000000000000000000000000000008152600401620000b691906200048e565b60405180910390fd5b620000d081620002f360201b60201c565b50600073ffffffffffffffffffffffffffffffffffffffff168373ffffffffffffffffffffffffffffffffffffffff160362000143576040517f08c379a00000000000000000000000000000000000000000000000000000000081526004016200013a906200050c565b60405180910390fd5b600073ffffffffffffffffffffffffffffffffffffffff168273ffffffffffffffffffffffffffffffffffffffff1603620001b5576040517f08c379a0000000000000000000000000000000000000000000000000000000008152600401620001ac906200057e565b60405180910390fd5b600073ffffffffffffffffffffffffffffffffffffffff168173ffffffffffffffffffffffffffffffffffffffff160362000227576040517f08c379a00000000000000000000000000000000000000000000000000000000081526004016200021e90620005f0565b60405180910390fd5b82600160006101000a81548173ffffffffffffffffffffffffffffffffffffffff021916908373ffffffffffffffffffffffffffffffffffffffff16021790555081600260006101000a81548173ffffffffffffffffffffffffffffffffffffffff021916908373ffffffffffffffffffffffffffffffffffffffff16021790555080600360006101000a81548173ffffffffffffffffffffffffffffffffffffffff021916908373ffffffffffffffffffffffffffffffffffffffff16021790555050505062000612565b60008060009054906101000a900473ffffffffffffffffffffffffffffffffffffffff169050816000806101000a81548173ffffffffffffffffffffffffffffffffffffffff021916908373ffffffffffffffffffffffffffffffffffffffff1602179055508173ffffffffffffffffffffffffffffffffffffffff168173ffffffffffffffffffffffffffffffffffffffff167f8be0079c531659141344cd1fd0a4f28419497f9722a3daafe3b4186f6b6457e060405160405180910390a35050565b600080fd5b600073ffffffffffffffffffffffffffffffffffffffff82169050919050565b6000620003e982620003bc565b9050919050565b620003fb81620003dc565b81146200040757600080fd5b50565b6000815190506200041b81620003f0565b92915050565b6000806000606084860312156200043d576200043c620003b7565b5b60006200044d868287016200040a565b935050602062000460868287016200040a565b925050604062000473868287016200040a565b9150509250925092565b6200048881620003dc565b82525050565b6000602082019050620004a560008301846200047d565b92915050565b600082825260208201905092915050565b7f496e76616c696420656967656e20616464726573730000000000000000000000600082015250565b6000620004f4601583620004ab565b91506200050182620004bc565b602082019050919050565b600060208201905081810360008301526200052781620004e5565b9050919050565b7f496e76616c696420735055534420746f6b656e20616464726573730000000000600082015250565b600062000566601b83620004ab565b915062000573826200052e565b602082019050919050565b60006020820190508181036000830152620005998162000557565b9050919050565b7f496e76616c6964206f70657261746f7220616464726573730000000000000000600082015250565b6000620005d8601883620004ab565b9150620005e582620005a0565b602082019050919050565b600060208201905081810360008301526200060b81620005c9565b9050919050565b6118db80620006226000396000f3fe608060405234801561001057600080fd5b506004361061010b5760003560e01c80639a4e8ecf116100a2578063d285b7b411610071578063d285b7b414610265578063d9d4701d1461028a578063f2fde38b146102a8578063f5521bf1146102c4578063f966ade7146102e25761010b565b80639a4e8ecf146101ea578063a3b9e39d14610206578063afd927621461022b578063b36f8faf146102495761010b565b8063772c0ff9116100de578063772c0ff9146101725780637de614f0146101905780638da5cb5b146101ae5780638fbcd32f146101cc5761010b565b8063330283aa14610110578063570ca7351461012c578063677c0c671461014a578063715018a614610168575b600080fd5b61012a60048036038101906101259190610fd9565b6102ec565b005b610134610335565b6040516101419190611085565b60405180910390f35b61015261035b565b60405161015f91906110c1565b60405180910390f35b610170610381565b005b61017a610395565b60405161018791906110f7565b60405180910390f35b610198610574565b6040516101a59190611121565b60405180910390f35b6101b6610603565b6040516101c3919061115d565b60405180910390f35b6101d461062c565b6040516101e19190611121565b60405180910390f35b61020460048036038101906101ff9190610fd9565b610632565b005b61020e610a0b565b604051610222989796959493929190611178565b60405180910390f35b610233610a7a565b6040516102409190611121565b60405180910390f35b610263600480360381019061025e9190610fd9565b610a80565b005b61026d610b0d565b604051610281989796959493929190611178565b60405180910390f35b610292610b5d565b60405161029f9190611217565b60405180910390f35b6102c260048036038101906102bd919061125e565b610b83565b005b6102cc610c09565b6040516102d99190611121565b60405180910390f35b6102ea610c0f565b005b6102f4610e4b565b806004819055507fc454ee9b76c52f782a256af821b857ca6e125d1e3333bcede402fec2bed9600c8160405161032a9190611121565b60405180910390a150565b600360009054906101000a900473ffffffffffffffffffffffffffffffffffffffff1681565b600160009054906101000a900473ffffffffffffffffffffffffffffffffffffffff1681565b610389610e4b565b6103936000610ed2565b565b6000806007600001541180156103bb5750600760040160009054906101000a900460ff16155b6103fa576040517f08c379a00000000000000000000000000000000000000000000000000000000081526004016103f1906112e8565b60405180910390fd5b6007800160009054906101000a900460ff161561044c576040517f08c379a000000000000000000000000000000000000000000000000000000000815260040161044390611354565b60405180910390fd5b60006007600001549050600160009054906101000a900473ffffffffffffffffffffffffffffffffffffffff1673ffffffffffffffffffffffffffffffffffffffff16632da25de36040518163ffffffff1660e01b8152600401600060405180830381600087803b1580156104c057600080fd5b505af11580156104d4573d6000803e3d6000fd5b505050506001600760040160006101000a81548160ff02191690831515021790555060016007800160006101000a81548160ff02191690831515021790555060006007600001819055503373ffffffffffffffffffffffffffffffffffffffff167fa1f8d27ed8298107a9eb5cecd81c05419b1bde3c035a21236d9c9c82015dbcfa826040516105649190611121565b60405180910390a2600191505090565b60008060076000015414806105985750600760040160009054906101000a900460ff165b156105a65760009050610600565b600064496cebb800600760020154426105bf91906113a3565b6007600101546007600001546105d591906113d7565b6105df91906113d7565b6105e99190611448565b9050806007600001546105fc9190611479565b9150505b90565b60008060009054906101000a900473ffffffffffffffffffffffffffffffffffffffff16905090565b60055481565b60008111610675576040517f08c379a000000000000000000000000000000000000000000000000000000000815260040161066c9061151f565b60405180910390fd5b600060076000015414806106985750600760040160009054906101000a900460ff165b6106d7576040517f08c379a00000000000000000000000000000000000000000000000000000000081526004016106ce9061158b565b60405180910390fd5b6000600160009054906101000a900473ffffffffffffffffffffffffffffffffffffffff1673ffffffffffffffffffffffffffffffffffffffff1663f29768716040518163ffffffff1660e01b8152600401602060405180830381865afa158015610746573d6000803e3d6000fd5b505050506040513d601f19601f8201168201806040525081019061076a91906115c0565b9050600060646005548361077e91906113d7565b6107889190611448565b9050808311156107cd576040517f08c379a00000000000000000000000000000000000000000000000000000000081526004016107c49061165f565b60405180910390fd5b6040518061010001604052808481526020016004548152602001428152602001600654426107fb9190611479565b8152602001600015158152602001838152602001600081526020016000151581525060076000820151816000015560208201518160010155604082015181600201556060820151816003015560808201518160040160006101000a81548160ff02191690831515021790555060a0820151816005015560c0820151816006015560e08201518160070160006101000a81548160ff0219169083151502179055509050506000600260009054906101000a900473ffffffffffffffffffffffffffffffffffffffff1673ffffffffffffffffffffffffffffffffffffffff16630f9facbe85600360009054906101000a900473ffffffffffffffffffffffffffffffffffffffff166040518363ffffffff1660e01b815260040161091f92919061167f565b6020604051808303816000875af115801561093e573d6000803e3d6000fd5b505050506040513d601f19601f8201168201806040525081019061096291906116d4565b9050806109a4576040517f08c379a000000000000000000000000000000000000000000000000000000000815260040161099b9061174d565b60405180910390fd5b3373ffffffffffffffffffffffffffffffffffffffff167f1804eb76dc9809be7ef188388aa1aeb765881fd848377be891234e5c584345fe85600454600654426109ee9190611479565b6040516109fd9392919061176d565b60405180910390a250505050565b600080600080600080600080600760000154600760010154600760020154600760030154600760040160009054906101000a900460ff166007600501546007600601546007800160009054906101000a900460ff16975097509750975097509750975097509091929394959697565b60045481565b610a88610e4b565b6050811115610acc576040517f08c379a0000000000000000000000000000000000000000000000000000000008152600401610ac3906117f0565b60405180910390fd5b806005819055507f38b6cc930563309bee808bf6909492708ec475960b01ffa9791b5ffca27c1f9881604051610b029190611121565b60405180910390a150565b60078060000154908060010154908060020154908060030154908060040160009054906101000a900460ff16908060050154908060060154908060070160009054906101000a900460ff16905088565b600260009054906101000a900473ffffffffffffffffffffffffffffffffffffffff1681565b610b8b610e4b565b600073ffffffffffffffffffffffffffffffffffffffff168173ffffffffffffffffffffffffffffffffffffffff1603610bfd5760006040517f1e4fbdf7000000000000000000000000000000000000000000000000000000008152600401610bf4919061115d565b60405180910390fd5b610c0681610ed2565b50565b60065481565b6000600760000154118015610c345750600760040160009054906101000a900460ff16155b610c73576040517f08c379a0000000000000000000000000000000000000000000000000000000008152600401610c6a9061185c565b60405180910390fd5b600064496cebb80060076002015442610c8c91906113a3565b600760010154600760000154610ca291906113d7565b610cac91906113d7565b610cb69190611448565b9050600081600760000154610ccb9190611479565b90506000600260009054906101000a900473ffffffffffffffffffffffffffffffffffffffff1673ffffffffffffffffffffffffffffffffffffffff1663dc57225b83600360009054906101000a900473ffffffffffffffffffffffffffffffffffffffff166040518363ffffffff1660e01b8152600401610d4e92919061167f565b6020604051808303816000875af1158015610d6d573d6000803e3d6000fd5b505050506040513d601f19601f82011682018060405250810190610d9191906116d4565b905080610dd3576040517f08c379a0000000000000000000000000000000000000000000000000000000008152600401610dca9061174d565b60405180910390fd5b6001600760040160006101000a81548160ff0219169083151502179055503373ffffffffffffffffffffffffffffffffffffffff167fc7ce0a35f17b490de2a317e7fecb2cae86b1abffb03800b2f49282352138269860076000015485604051610e3e92919061187c565b60405180910390a2505050565b610e53610f96565b73ffffffffffffffffffffffffffffffffffffffff16610e71610603565b73ffffffffffffffffffffffffffffffffffffffff1614610ed057610e94610f96565b6040517f118cdaa7000000000000000000000000000000000000000000000000000000008152600401610ec7919061115d565b60405180910390fd5b565b60008060009054906101000a900473ffffffffffffffffffffffffffffffffffffffff169050816000806101000a81548173ffffffffffffffffffffffffffffffffffffffff021916908373ffffffffffffffffffffffffffffffffffffffff1602179055508173ffffffffffffffffffffffffffffffffffffffff168173ffffffffffffffffffffffffffffffffffffffff167f8be0079c531659141344cd1fd0a4f28419497f9722a3daafe3b4186f6b6457e060405160405180910390a35050565b600033905090565b600080fd5b6000819050919050565b610fb681610fa3565b8114610fc157600080fd5b50565b600081359050610fd381610fad565b92915050565b600060208284031215610fef57610fee610f9e565b5b6000610ffd84828501610fc4565b91505092915050565b600073ffffffffffffffffffffffffffffffffffffffff82169050919050565b6000819050919050565b600061104b61104661104184611006565b611026565b611006565b9050919050565b600061105d82611030565b9050919050565b600061106f82611052565b9050919050565b61107f81611064565b82525050565b600060208201905061109a6000830184611076565b92915050565b60006110ab82611052565b9050919050565b6110bb816110a0565b82525050565b60006020820190506110d660008301846110b2565b92915050565b60008115159050919050565b6110f1816110dc565b82525050565b600060208201905061110c60008301846110e8565b92915050565b61111b81610fa3565b82525050565b60006020820190506111366000830184611112565b92915050565b600061114782611006565b9050919050565b6111578161113c565b82525050565b6000602082019050611172600083018461114e565b92915050565b60006101008201905061118e600083018b611112565b61119b602083018a611112565b6111a86040830189611112565b6111b56060830188611112565b6111c260808301876110e8565b6111cf60a0830186611112565b6111dc60c0830185611112565b6111e960e08301846110e8565b9998505050505050505050565b600061120182611052565b9050919050565b611211816111f6565b82525050565b600060208201905061122c6000830184611208565b92915050565b61123b8161113c565b811461124657600080fd5b50565b60008135905061125881611232565b92915050565b60006020828403121561127457611273610f9e565b5b600061128284828501611249565b91505092915050565b600082825260208201905092915050565b7f4e6f20616374697665206c6f616e20746f20736c617368000000000000000000600082015250565b60006112d260178361128b565b91506112dd8261129c565b602082019050919050565b60006020820190508181036000830152611301816112c5565b9050919050565b7f4c6f616e20616c726561647920736c6173686564000000000000000000000000600082015250565b600061133e60148361128b565b915061134982611308565b602082019050919050565b6000602082019050818103600083015261136d81611331565b9050919050565b7f4e487b7100000000000000000000000000000000000000000000000000000000600052601160045260246000fd5b60006113ae82610fa3565b91506113b983610fa3565b92508282039050818111156113d1576113d0611374565b5b92915050565b60006113e282610fa3565b91506113ed83610fa3565b92508282026113fb81610fa3565b9150828204841483151761141257611411611374565b5b5092915050565b7f4e487b7100000000000000000000000000000000000000000000000000000000600052601260045260246000fd5b600061145382610fa3565b915061145e83610fa3565b92508261146e5761146d611419565b5b828204905092915050565b600061148482610fa3565b915061148f83610fa3565b92508282019050808211156114a7576114a6611374565b5b92915050565b7f4c6f616e20616d6f756e74206d7573742062652067726561746572207468616e60008201527f207a65726f000000000000000000000000000000000000000000000000000000602082015250565b600061150960258361128b565b9150611514826114ad565b604082019050919050565b60006020820190508181036000830152611538816114fc565b9050919050565b7f4578697374696e67206c6f616e206e6f74207265706169640000000000000000600082015250565b600061157560188361128b565b91506115808261153f565b602082019050919050565b600060208201905081810360008301526115a481611568565b9050919050565b6000815190506115ba81610fad565b92915050565b6000602082840312156115d6576115d5610f9e565b5b60006115e4848285016115ab565b91505092915050565b7f4c6f616e20616d6f756e742065786365656473206d6178696d756d20616c6c6f60008201527f7765640000000000000000000000000000000000000000000000000000000000602082015250565b600061164960238361128b565b9150611654826115ed565b604082019050919050565b600060208201905081810360008301526116788161163c565b9050919050565b60006040820190506116946000830185611112565b6116a1602083018461114e565b9392505050565b6116b1816110dc565b81146116bc57600080fd5b50565b6000815190506116ce816116a8565b92915050565b6000602082840312156116ea576116e9610f9e565b5b60006116f8848285016116bf565b91505092915050565b7f50555344207472616e73666572206661696c6564000000000000000000000000600082015250565b600061173760148361128b565b915061174282611701565b602082019050919050565b600060208201905081810360008301526117668161172a565b9050919050565b60006060820190506117826000830186611112565b61178f6020830185611112565b61179c6040830184611112565b949350505050565b7f4c545620726174696f20746f6f20686967680000000000000000000000000000600082015250565b60006117da60128361128b565b91506117e5826117a4565b602082019050919050565b60006020820190508181036000830152611809816117cd565b9050919050565b7f4e6f20616374697665206c6f616e20746f207265706179000000000000000000600082015250565b600061184660178361128b565b915061185182611810565b602082019050919050565b6000602082019050818103600083015261187581611839565b9050919050565b60006040820190506118916000830185611112565b61189e6020830184611112565b939250505056fea2646970667358221220260645747efeabb486d6792ca36b85c403954b7da310535e9ac0b91657410ed064736f6c63430008140033",
  "linkReferences": {},
  "deployedLinkReferences": {}
}