{
  "_format": "hh-sol-artifact-1",
  "contractName": "LoanManager",
  "sourceName": "contracts/LoanManager.sol",
  "abi": [
    {
      "inputs": [
        {
          "internalType": "address",
          "name": "_eigen",
          "type": "address"
        },
        {
          "internalType": "address",
          "name": "_spusdToken",
          "type": "address"
        },
        {
          "internalType": "address",
          "name": "_operator",
          "type": "address"
        }
      ],
      "stateMutability": "nonpayable",
      "type": "constructor"
    },
    {
      "inputs": [
        {
          "internalType": "address",
          "name": "owner",
          "type": "address"
        }
      ],
      "name": "OwnableInvalidOwner",
      "type": "error"
    },
    {
      "inputs": [
        {
          "internalType": "address",
          "name": "account",
          "type": "address"
        }
      ],
      "name": "OwnableUnauthorizedAccount",
      "type": "error"
    },
    {
      "anonymous": false,
      "inputs": [
        {
          "indexed": false,
          "internalType": "uint256",
          "name": "newRate",
          "type": "uint256"
        }
      ],
      "name": "BaseRateUpdated",
      "type": "event"
    },
    {
      "anonymous": false,
      "inputs": [
        {
          "indexed": false,
          "internalType": "uint256",
          "name": "newRatio",
          "type": "uint256"
        }
      ],
      "name": "LTVRatioUpdated",
      "type": "event"
    },
    {
      "anonymous": false,
      "inputs": [
        {
          "indexed": true,
          "internalType": "address",
          "name": "operator",
          "type": "address"
        },
        {
          "indexed": false,
          "internalType": "uint256",
          "name": "amount",
          "type": "uint256"
        },
        {
          "indexed": false,
          "internalType": "uint256",
          "name": "interestRate",
          "type": "uint256"
        },
        {
          "indexed": false,
          "internalType": "uint256",
          "name": "dueTime",
          "type": "uint256"
        }
      ],
      "name": "LoanCreated",
      "type": "event"
    },
    {
      "anonymous": false,
      "inputs": [
        {
          "indexed": true,
          "internalType": "address",
          "name": "operator",
          "type": "address"
        },
        {
          "indexed": false,
          "internalType": "uint256",
          "name": "amount",
          "type": "uint256"
        },
        {
          "indexed": false,
          "internalType": "uint256",
          "name": "interest",
          "type": "uint256"
        }
      ],
      "name": "LoanRepaid",
      "type": "event"
    },
    {
      "anonymous": false,
      "inputs": [
        {
          "indexed": true,
          "internalType": "address",
          "name": "operator",
          "type": "address"
        },
        {
          "indexed": false,
          "internalType": "uint256",
          "name": "amount",
          "type": "uint256"
        }
      ],
      "name": "LoanSlashed",
      "type": "event"
    },
    {
      "anonymous": false,
      "inputs": [
        {
          "indexed": true,
          "internalType": "address",
          "name": "previousOwner",
          "type": "address"
        },
        {
          "indexed": true,
          "internalType": "address",
          "name": "newOwner",
          "type": "address"
        }
      ],
      "name": "OwnershipTransferred",
      "type": "event"
    },
    {
      "inputs": [],
      "name": "baseInterestRate",
      "outputs": [
        {
          "internalType": "uint256",
          "name": "",
          "type": "uint256"
        }
      ],
      "stateMutability": "view",
      "type": "function"
    },
    {
      "inputs": [],
      "name": "calculateRepaymentAmount",
      "outputs": [
        {
          "internalType": "uint256",
          "name": "",
          "type": "uint256"
        }
      ],
      "stateMutability": "view",
      "type": "function"
    },
    {
      "inputs": [
        {
          "internalType": "uint256",
          "name": "amount",
          "type": "uint256"
        }
      ],
      "name": "createLoan",
      "outputs": [],
      "stateMutability": "nonpayable",
      "type": "function"
    },
    {
      "inputs": [],
      "name": "eigen",
      "outputs": [
        {
          "internalType": "contract Eigen",
          "name": "",
          "type": "address"
        }
      ],
      "stateMutability": "view",
      "type": "function"
    },
    {
      "inputs": [],
      "name": "getLoanDetails",
      "outputs": [
        {
          "internalType": "uint256",
          "name": "amount",
          "type": "uint256"
        },
        {
          "internalType": "uint256",
          "name": "interestRate",
          "type": "uint256"
        },
        {
          "internalType": "uint256",
          "name": "startTime",
          "type": "uint256"
        },
        {
          "internalType": "uint256",
          "name": "dueTime",
          "type": "uint256"
        },
        {
          "internalType": "bool",
          "name": "isRepaid",
          "type": "bool"
        },
        {
          "internalType": "uint256",
          "name": "collateralAmount",
          "type": "uint256"
        },
        {
          "internalType": "uint256",
          "name": "loanedUSDCAmount",
          "type": "uint256"
        },
        {
          "internalType": "bool",
          "name": "isSlashed",
          "type": "bool"
        }
      ],
      "stateMutability": "view",
      "type": "function"
    },
    {
      "inputs": [],
      "name": "loan",
      "outputs": [
        {
          "internalType": "uint256",
          "name": "amount",
          "type": "uint256"
        },
        {
          "internalType": "uint256",
          "name": "interestRate",
          "type": "uint256"
        },
        {
          "internalType": "uint256",
          "name": "startTime",
          "type": "uint256"
        },
        {
          "internalType": "uint256",
          "name": "dueTime",
          "type": "uint256"
        },
        {
          "internalType": "bool",
          "name": "isRepaid",
          "type": "bool"
        },
        {
          "internalType": "uint256",
          "name": "collateralAmount",
          "type": "uint256"
        },
        {
          "internalType": "uint256",
          "name": "loanedUSDCAmount",
          "type": "uint256"
        },
        {
          "internalType": "bool",
          "name": "isSlashed",
          "type": "bool"
        }
      ],
      "stateMutability": "view",
      "type": "function"
    },
    {
      "inputs": [],
      "name": "loanDuration",
      "outputs": [
        {
          "internalType": "uint256",
          "name": "",
          "type": "uint256"
        }
      ],
      "stateMutability": "view",
      "type": "function"
    },
    {
      "inputs": [],
      "name": "ltvRatio",
      "outputs": [
        {
          "internalType": "uint256",
          "name": "",
          "type": "uint256"
        }
      ],
      "stateMutability": "view",
      "type": "function"
    },
    {
      "inputs": [],
      "name": "operator",
      "outputs": [
        {
          "internalType": "contract IOperator",
          "name": "",
          "type": "address"
        }
      ],
      "stateMutability": "view",
      "type": "function"
    },
    {
      "inputs": [],
      "name": "owner",
      "outputs": [
        {
          "internalType": "address",
          "name": "",
          "type": "address"
        }
      ],
      "stateMutability": "view",
      "type": "function"
    },
    {
      "inputs": [],
      "name": "pusdToken",
      "outputs": [
        {
          "internalType": "contract PUSD",
          "name": "",
          "type": "address"
        }
      ],
      "stateMutability": "view",
      "type": "function"
    },
    {
      "inputs": [],
      "name": "renounceOwnership",
      "outputs": [],
      "stateMutability": "nonpayable",
      "type": "function"
    },
    {
      "inputs": [],
      "name": "repayLoan",
      "outputs": [],
      "stateMutability": "nonpayable",
      "type": "function"
    },
    {
      "inputs": [
        {
          "internalType": "address",
          "name": "_pusdToken",
          "type": "address"
        }
      ],
      "name": "setPUSDToken",
      "outputs": [],
      "stateMutability": "nonpayable",
      "type": "function"
    },
    {
      "inputs": [],
      "name": "slashLoan",
      "outputs": [
        {
          "internalType": "bool",
          "name": "",
          "type": "bool"
        }
      ],
      "stateMutability": "nonpayable",
      "type": "function"
    },
    {
      "inputs": [],
      "name": "spusdToken",
      "outputs": [
        {
          "internalType": "contract sPUSD",
          "name": "",
          "type": "address"
        }
      ],
      "stateMutability": "view",
      "type": "function"
    },
    {
      "inputs": [
        {
          "internalType": "address",
          "name": "newOwner",
          "type": "address"
        }
      ],
      "name": "transferOwnership",
      "outputs": [],
      "stateMutability": "nonpayable",
      "type": "function"
    },
    {
      "inputs": [
        {
          "internalType": "uint256",
          "name": "newRate",
          "type": "uint256"
        }
      ],
      "name": "updateBaseRate",
      "outputs": [],
      "stateMutability": "nonpayable",
      "type": "function"
    },
    {
      "inputs": [
        {
          "internalType": "uint256",
          "name": "newRatio",
          "type": "uint256"
        }
      ],
      "name": "updateLTVRatio",
      "outputs": [],
      "stateMutability": "nonpayable",
      "type": "function"
    }
  ],
  "bytecode": "0x60806040526103e86005556032600655620151806007553480156200002357600080fd5b50604051620021be380380620021be833981810160405281019062000049919062000421565b33600073ffffffffffffffffffffffffffffffffffffffff168173ffffffffffffffffffffffffffffffffffffffff1603620000bf5760006040517f1e4fbdf7000000000000000000000000000000000000000000000000000000008152600401620000b691906200048e565b60405180910390fd5b620000d081620002f360201b60201c565b50600073ffffffffffffffffffffffffffffffffffffffff168373ffffffffffffffffffffffffffffffffffffffff160362000143576040517f08c379a00000000000000000000000000000000000000000000000000000000081526004016200013a906200050c565b60405180910390fd5b600073ffffffffffffffffffffffffffffffffffffffff168273ffffffffffffffffffffffffffffffffffffffff1603620001b5576040517f08c379a0000000000000000000000000000000000000000000000000000000008152600401620001ac906200057e565b60405180910390fd5b600073ffffffffffffffffffffffffffffffffffffffff168173ffffffffffffffffffffffffffffffffffffffff160362000227576040517f08c379a00000000000000000000000000000000000000000000000000000000081526004016200021e90620005f0565b60405180910390fd5b82600160006101000a81548173ffffffffffffffffffffffffffffffffffffffff021916908373ffffffffffffffffffffffffffffffffffffffff16021790555081600260006101000a81548173ffffffffffffffffffffffffffffffffffffffff021916908373ffffffffffffffffffffffffffffffffffffffff16021790555080600360006101000a81548173ffffffffffffffffffffffffffffffffffffffff021916908373ffffffffffffffffffffffffffffffffffffffff16021790555050505062000612565b60008060009054906101000a900473ffffffffffffffffffffffffffffffffffffffff169050816000806101000a81548173ffffffffffffffffffffffffffffffffffffffff021916908373ffffffffffffffffffffffffffffffffffffffff1602179055508173ffffffffffffffffffffffffffffffffffffffff168173ffffffffffffffffffffffffffffffffffffffff167f8be0079c531659141344cd1fd0a4f28419497f9722a3daafe3b4186f6b6457e060405160405180910390a35050565b600080fd5b600073ffffffffffffffffffffffffffffffffffffffff82169050919050565b6000620003e982620003bc565b9050919050565b620003fb81620003dc565b81146200040757600080fd5b50565b6000815190506200041b81620003f0565b92915050565b6000806000606084860312156200043d576200043c620003b7565b5b60006200044d868287016200040a565b935050602062000460868287016200040a565b925050604062000473868287016200040a565b9150509250925092565b6200048881620003dc565b82525050565b6000602082019050620004a560008301846200047d565b92915050565b600082825260208201905092915050565b7f496e76616c696420656967656e20616464726573730000000000000000000000600082015250565b6000620004f4601583620004ab565b91506200050182620004bc565b602082019050919050565b600060208201905081810360008301526200052781620004e5565b9050919050565b7f496e76616c696420735055534420746f6b656e20616464726573730000000000600082015250565b600062000566601b83620004ab565b915062000573826200052e565b602082019050919050565b60006020820190508181036000830152620005998162000557565b9050919050565b7f496e76616c6964206f70657261746f7220616464726573730000000000000000600082015250565b6000620005d8601883620004ab565b9150620005e582620005a0565b602082019050919050565b600060208201905081810360008301526200060b81620005c9565b9050919050565b611b9c80620006226000396000f3fe608060405234801561001057600080fd5b50600436106101215760003560e01c80639a4e8ecf116100ad578063d9d4701d11610071578063d9d4701d146102be578063f2fde38b146102dc578063f5521bf1146102f8578063f966ade714610316578063fb8658ff1461032057610121565b80639a4e8ecf1461021e578063a3b9e39d1461023a578063afd927621461025f578063b36f8faf1461027d578063d285b7b41461029957610121565b8063772c0ff9116100f4578063772c0ff9146101885780637de614f0146101a65780637f7614b4146101c45780638da5cb5b146101e25780638fbcd32f1461020057610121565b8063330283aa14610126578063570ca73514610142578063677c0c6714610160578063715018a61461017e575b600080fd5b610140600480360381019061013b9190611194565b61033c565b005b61014a610385565b6040516101579190611240565b60405180910390f35b6101686103ab565b604051610175919061127c565b60405180910390f35b6101866103d1565b005b6101906103e5565b60405161019d91906112b2565b60405180910390f35b6101ae6105c6565b6040516101bb91906112dc565b60405180910390f35b6101cc610604565b6040516101d99190611318565b60405180910390f35b6101ea61062a565b6040516101f79190611354565b60405180910390f35b610208610653565b60405161021591906112dc565b60405180910390f35b61023860048036038101906102339190611194565b610659565b005b610242610a32565b60405161025698979695949392919061136f565b60405180910390f35b610267610aa2565b60405161027491906112dc565b60405180910390f35b61029760048036038101906102929190611194565b610aa8565b005b6102a1610b35565b6040516102b598979695949392919061136f565b60405180910390f35b6102c6610b85565b6040516102d3919061140e565b60405180910390f35b6102f660048036038101906102f19190611455565b610bab565b005b610300610c31565b60405161030d91906112dc565b60405180910390f35b61031e610c37565b005b61033a60048036038101906103359190611455565b610f4b565b005b610344611006565b806005819055507fc454ee9b76c52f782a256af821b857ca6e125d1e3333bcede402fec2bed9600c8160405161037a91906112dc565b60405180910390a150565b600360009054906101000a900473ffffffffffffffffffffffffffffffffffffffff1681565b600160009054906101000a900473ffffffffffffffffffffffffffffffffffffffff1681565b6103d9611006565b6103e3600061108d565b565b60008060086000015411801561040b5750600860040160009054906101000a900460ff16155b61044a576040517f08c379a0000000000000000000000000000000000000000000000000000000008152600401610441906114df565b60405180910390fd5b600860070160009054906101000a900460ff161561049d576040517f08c379a00000000000000000000000000000000000000000000000000000000081526004016104949061154b565b60405180910390fd5b60006008600001549050600160009054906101000a900473ffffffffffffffffffffffffffffffffffffffff1673ffffffffffffffffffffffffffffffffffffffff16632da25de36040518163ffffffff1660e01b8152600401600060405180830381600087803b15801561051157600080fd5b505af1158015610525573d6000803e3d6000fd5b505050506001600860040160006101000a81548160ff0219169083151502179055506001600860070160006101000a81548160ff02191690831515021790555060006008600001819055503373ffffffffffffffffffffffffffffffffffffffff167fa1f8d27ed8298107a9eb5cecd81c05419b1bde3c035a21236d9c9c82015dbcfa826040516105b691906112dc565b60405180910390a2600191505090565b60008060086000015414806105ea5750600860040160009054906101000a900460ff165b156105f85760009050610601565b60086000015490505b90565b600460009054906101000a900473ffffffffffffffffffffffffffffffffffffffff1681565b60008060009054906101000a900473ffffffffffffffffffffffffffffffffffffffff16905090565b60065481565b6000811161069c576040517f08c379a0000000000000000000000000000000000000000000000000000000008152600401610693906115dd565b60405180910390fd5b600060086000015414806106bf5750600860040160009054906101000a900460ff165b6106fe576040517f08c379a00000000000000000000000000000000000000000000000000000000081526004016106f590611649565b60405180910390fd5b6000600160009054906101000a900473ffffffffffffffffffffffffffffffffffffffff1673ffffffffffffffffffffffffffffffffffffffff1663f29768716040518163ffffffff1660e01b8152600401602060405180830381865afa15801561076d573d6000803e3d6000fd5b505050506040513d601f19601f82011682018060405250810190610791919061167e565b905060006064600654836107a591906116da565b6107af919061174b565b9050808311156107f4576040517f08c379a00000000000000000000000000000000000000000000000000000000081526004016107eb906117ee565b60405180910390fd5b604051806101000160405280848152602001600554815260200142815260200160075442610822919061180e565b8152602001600015158152602001838152602001600081526020016000151581525060086000820151816000015560208201518160010155604082015181600201556060820151816003015560808201518160040160006101000a81548160ff02191690831515021790555060a0820151816005015560c0820151816006015560e08201518160070160006101000a81548160ff0219169083151502179055509050506000600260009054906101000a900473ffffffffffffffffffffffffffffffffffffffff1673ffffffffffffffffffffffffffffffffffffffff16630f9facbe85600360009054906101000a900473ffffffffffffffffffffffffffffffffffffffff166040518363ffffffff1660e01b8152600401610946929190611842565b6020604051808303816000875af1158015610965573d6000803e3d6000fd5b505050506040513d601f19601f820116820180604052508101906109899190611897565b9050806109cb576040517f08c379a00000000000000000000000000000000000000000000000000000000081526004016109c290611910565b60405180910390fd5b3373ffffffffffffffffffffffffffffffffffffffff167f1804eb76dc9809be7ef188388aa1aeb765881fd848377be891234e5c584345fe8560055460075442610a15919061180e565b604051610a2493929190611930565b60405180910390a250505050565b600080600080600080600080600860000154600860010154600860020154600860030154600860040160009054906101000a900460ff16600860050154600860060154600860070160009054906101000a900460ff16975097509750975097509750975097509091929394959697565b60055481565b610ab0611006565b6050811115610af4576040517f08c379a0000000000000000000000000000000000000000000000000000000008152600401610aeb906119b3565b60405180910390fd5b806006819055507f38b6cc930563309bee808bf6909492708ec475960b01ffa9791b5ffca27c1f9881604051610b2a91906112dc565b60405180910390a150565b60088060000154908060010154908060020154908060030154908060040160009054906101000a900460ff16908060050154908060060154908060070160009054906101000a900460ff16905088565b600260009054906101000a900473ffffffffffffffffffffffffffffffffffffffff1681565b610bb3611006565b600073ffffffffffffffffffffffffffffffffffffffff168173ffffffffffffffffffffffffffffffffffffffff1603610c255760006040517f1e4fbdf7000000000000000000000000000000000000000000000000000000008152600401610c1c9190611354565b60405180910390fd5b610c2e8161108d565b50565b60075481565b6000600860000154118015610c5c5750600860040160009054906101000a900460ff16155b610c9b576040517f08c379a0000000000000000000000000000000000000000000000000000000008152600401610c9290611a1f565b60405180910390fd5b600060086000015490506000600860000154905080600460009054906101000a900473ffffffffffffffffffffffffffffffffffffffff1673ffffffffffffffffffffffffffffffffffffffff166370a08231600360009054906101000a900473ffffffffffffffffffffffffffffffffffffffff166040518263ffffffff1660e01b8152600401610d2d9190611354565b602060405180830381865afa158015610d4a573d6000803e3d6000fd5b505050506040513d601f19601f82011682018060405250810190610d6e919061167e565b1015610daf576040517f08c379a0000000000000000000000000000000000000000000000000000000008152600401610da690611ab1565b60405180910390fd5b6000600260009054906101000a900473ffffffffffffffffffffffffffffffffffffffff1673ffffffffffffffffffffffffffffffffffffffff1663dc57225b83600360009054906101000a900473ffffffffffffffffffffffffffffffffffffffff166040518363ffffffff1660e01b8152600401610e30929190611842565b6020604051808303816000875af1158015610e4f573d6000803e3d6000fd5b505050506040513d601f19601f82011682018060405250810190610e739190611897565b905080610eb5576040517f08c379a0000000000000000000000000000000000000000000000000000000008152600401610eac90611910565b60405180910390fd5b6001600860040160006101000a81548160ff0219169083151502179055506000600860070160006101000a81548160ff0219169083151502179055503373ffffffffffffffffffffffffffffffffffffffff167fc7ce0a35f17b490de2a317e7fecb2cae86b1abffb03800b2f49282352138269860086000015485604051610f3e929190611ad1565b60405180910390a2505050565b610f53611006565b600073ffffffffffffffffffffffffffffffffffffffff168173ffffffffffffffffffffffffffffffffffffffff1603610fc2576040517f08c379a0000000000000000000000000000000000000000000000000000000008152600401610fb990611b46565b60405180910390fd5b80600460006101000a81548173ffffffffffffffffffffffffffffffffffffffff021916908373ffffffffffffffffffffffffffffffffffffffff16021790555050565b61100e611151565b73ffffffffffffffffffffffffffffffffffffffff1661102c61062a565b73ffffffffffffffffffffffffffffffffffffffff161461108b5761104f611151565b6040517f118cdaa70000000000000000000000000000000000000000000000000000000081526004016110829190611354565b60405180910390fd5b565b60008060009054906101000a900473ffffffffffffffffffffffffffffffffffffffff169050816000806101000a81548173ffffffffffffffffffffffffffffffffffffffff021916908373ffffffffffffffffffffffffffffffffffffffff1602179055508173ffffffffffffffffffffffffffffffffffffffff168173ffffffffffffffffffffffffffffffffffffffff167f8be0079c531659141344cd1fd0a4f28419497f9722a3daafe3b4186f6b6457e060405160405180910390a35050565b600033905090565b600080fd5b6000819050919050565b6111718161115e565b811461117c57600080fd5b50565b60008135905061118e81611168565b92915050565b6000602082840312156111aa576111a9611159565b5b60006111b88482850161117f565b91505092915050565b600073ffffffffffffffffffffffffffffffffffffffff82169050919050565b6000819050919050565b60006112066112016111fc846111c1565b6111e1565b6111c1565b9050919050565b6000611218826111eb565b9050919050565b600061122a8261120d565b9050919050565b61123a8161121f565b82525050565b60006020820190506112556000830184611231565b92915050565b60006112668261120d565b9050919050565b6112768161125b565b82525050565b6000602082019050611291600083018461126d565b92915050565b60008115159050919050565b6112ac81611297565b82525050565b60006020820190506112c760008301846112a3565b92915050565b6112d68161115e565b82525050565b60006020820190506112f160008301846112cd565b92915050565b60006113028261120d565b9050919050565b611312816112f7565b82525050565b600060208201905061132d6000830184611309565b92915050565b600061133e826111c1565b9050919050565b61134e81611333565b82525050565b60006020820190506113696000830184611345565b92915050565b600061010082019050611385600083018b6112cd565b611392602083018a6112cd565b61139f60408301896112cd565b6113ac60608301886112cd565b6113b960808301876112a3565b6113c660a08301866112cd565b6113d360c08301856112cd565b6113e060e08301846112a3565b9998505050505050505050565b60006113f88261120d565b9050919050565b611408816113ed565b82525050565b600060208201905061142360008301846113ff565b92915050565b61143281611333565b811461143d57600080fd5b50565b60008135905061144f81611429565b92915050565b60006020828403121561146b5761146a611159565b5b600061147984828501611440565b91505092915050565b600082825260208201905092915050565b7f4e6f20616374697665206c6f616e20746f20736c617368000000000000000000600082015250565b60006114c9601783611482565b91506114d482611493565b602082019050919050565b600060208201905081810360008301526114f8816114bc565b9050919050565b7f4c6f616e20616c726561647920736c6173686564000000000000000000000000600082015250565b6000611535601483611482565b9150611540826114ff565b602082019050919050565b6000602082019050818103600083015261156481611528565b9050919050565b7f4c6f616e20616d6f756e74206d7573742062652067726561746572207468616e60008201527f207a65726f000000000000000000000000000000000000000000000000000000602082015250565b60006115c7602583611482565b91506115d28261156b565b604082019050919050565b600060208201905081810360008301526115f6816115ba565b9050919050565b7f4578697374696e67206c6f616e206e6f74207265706169640000000000000000600082015250565b6000611633601883611482565b915061163e826115fd565b602082019050919050565b6000602082019050818103600083015261166281611626565b9050919050565b60008151905061167881611168565b92915050565b60006020828403121561169457611693611159565b5b60006116a284828501611669565b91505092915050565b7f4e487b7100000000000000000000000000000000000000000000000000000000600052601160045260246000fd5b60006116e58261115e565b91506116f08361115e565b92508282026116fe8161115e565b91508282048414831517611715576117146116ab565b5b5092915050565b7f4e487b7100000000000000000000000000000000000000000000000000000000600052601260045260246000fd5b60006117568261115e565b91506117618361115e565b9250826117715761177061171c565b5b828204905092915050565b7f4c6f616e20616d6f756e742065786365656473206d6178696d756d20616c6c6f60008201527f7765640000000000000000000000000000000000000000000000000000000000602082015250565b60006117d8602383611482565b91506117e38261177c565b604082019050919050565b60006020820190508181036000830152611807816117cb565b9050919050565b60006118198261115e565b91506118248361115e565b925082820190508082111561183c5761183b6116ab565b5b92915050565b600060408201905061185760008301856112cd565b6118646020830184611345565b9392505050565b61187481611297565b811461187f57600080fd5b50565b6000815190506118918161186b565b92915050565b6000602082840312156118ad576118ac611159565b5b60006118bb84828501611882565b91505092915050565b7f50555344207472616e73666572206661696c6564000000000000000000000000600082015250565b60006118fa601483611482565b9150611905826118c4565b602082019050919050565b60006020820190508181036000830152611929816118ed565b9050919050565b600060608201905061194560008301866112cd565b61195260208301856112cd565b61195f60408301846112cd565b949350505050565b7f4c545620726174696f20746f6f20686967680000000000000000000000000000600082015250565b600061199d601283611482565b91506119a882611967565b602082019050919050565b600060208201905081810360008301526119cc81611990565b9050919050565b7f4e6f20616374697665206c6f616e20746f207265706179000000000000000000600082015250565b6000611a09601783611482565b9150611a14826119d3565b602082019050919050565b60006020820190508181036000830152611a38816119fc565b9050919050565b7f4f70657261746f7220646f6573206e6f74206861766520656e6f75676820505560008201527f534420746f6b656e730000000000000000000000000000000000000000000000602082015250565b6000611a9b602983611482565b9150611aa682611a3f565b604082019050919050565b60006020820190508181036000830152611aca81611a8e565b9050919050565b6000604082019050611ae660008301856112cd565b611af360208301846112cd565b9392505050565b7f496e76616c6964205055534420746f6b656e2061646472657373000000000000600082015250565b6000611b30601a83611482565b9150611b3b82611afa565b602082019050919050565b60006020820190508181036000830152611b5f81611b23565b905091905056fea2646970667358221220d5b4b0c4ced582c3924da4af6cb5228360d68f5b7d06ec11d6c5c19436d7462864736f6c63430008140033",
  "linkReferences": {},
  "deployedLinkReferences": {}
}