{
  "_format": "hh-sol-artifact-1",
  "contractName": "LST",
  "sourceName": "contracts/LST.sol",
  "abi": [
    {
      "inputs": [
        {
          "internalType": "string",
          "name": "name",
          "type": "string"
        },
        {
          "internalType": "string",
          "name": "symbol",
          "type": "string"
        }
      ],
      "stateMutability": "nonpayable",
      "type": "constructor"
    },
    {
      "inputs": [
        {
          "internalType": "address",
          "name": "spender",
          "type": "address"
        },
        {
          "internalType": "uint256",
          "name": "allowance",
          "type": "uint256"
        },
        {
          "internalType": "uint256",
          "name": "needed",
          "type": "uint256"
        }
      ],
      "name": "ERC20InsufficientAllowance",
      "type": "error"
    },
    {
      "inputs": [
        {
          "internalType": "address",
          "name": "sender",
          "type": "address"
        },
        {
          "internalType": "uint256",
          "name": "balance",
          "type": "uint256"
        },
        {
          "internalType": "uint256",
          "name": "needed",
          "type": "uint256"
        }
      ],
      "name": "ERC20InsufficientBalance",
      "type": "error"
    },
    {
      "inputs": [
        {
          "internalType": "address",
          "name": "approver",
          "type": "address"
        }
      ],
      "name": "ERC20InvalidApprover",
      "type": "error"
    },
    {
      "inputs": [
        {
          "internalType": "address",
          "name": "receiver",
          "type": "address"
        }
      ],
      "name": "ERC20InvalidReceiver",
      "type": "error"
    },
    {
      "inputs": [
        {
          "internalType": "address",
          "name": "sender",
          "type": "address"
        }
      ],
      "name": "ERC20InvalidSender",
      "type": "error"
    },
    {
      "inputs": [
        {
          "internalType": "address",
          "name": "spender",
          "type": "address"
        }
      ],
      "name": "ERC20InvalidSpender",
      "type": "error"
    },
    {
      "inputs": [
        {
          "internalType": "address",
          "name": "owner",
          "type": "address"
        }
      ],
      "name": "OwnableInvalidOwner",
      "type": "error"
    },
    {
      "inputs": [
        {
          "internalType": "address",
          "name": "account",
          "type": "address"
        }
      ],
      "name": "OwnableUnauthorizedAccount",
      "type": "error"
    },
    {
      "anonymous": false,
      "inputs": [
        {
          "indexed": true,
          "internalType": "address",
          "name": "owner",
          "type": "address"
        },
        {
          "indexed": true,
          "internalType": "address",
          "name": "spender",
          "type": "address"
        },
        {
          "indexed": false,
          "internalType": "uint256",
          "name": "value",
          "type": "uint256"
        }
      ],
      "name": "Approval",
      "type": "event"
    },
    {
      "anonymous": false,
      "inputs": [
        {
          "indexed": true,
          "internalType": "address",
          "name": "previousOwner",
          "type": "address"
        },
        {
          "indexed": true,
          "internalType": "address",
          "name": "newOwner",
          "type": "address"
        }
      ],
      "name": "OwnershipTransferred",
      "type": "event"
    },
    {
      "anonymous": false,
      "inputs": [
        {
          "indexed": true,
          "internalType": "address",
          "name": "from",
          "type": "address"
        },
        {
          "indexed": false,
          "internalType": "uint256",
          "name": "amount",
          "type": "uint256"
        }
      ],
      "name": "TokensBurned",
      "type": "event"
    },
    {
      "anonymous": false,
      "inputs": [
        {
          "indexed": true,
          "internalType": "address",
          "name": "to",
          "type": "address"
        },
        {
          "indexed": false,
          "internalType": "uint256",
          "name": "amount",
          "type": "uint256"
        }
      ],
      "name": "TokensMinted",
      "type": "event"
    },
    {
      "anonymous": false,
      "inputs": [
        {
          "indexed": true,
          "internalType": "address",
          "name": "from",
          "type": "address"
        },
        {
          "indexed": true,
          "internalType": "address",
          "name": "to",
          "type": "address"
        },
        {
          "indexed": false,
          "internalType": "uint256",
          "name": "value",
          "type": "uint256"
        }
      ],
      "name": "Transfer",
      "type": "event"
    },
    {
      "inputs": [
        {
          "internalType": "address",
          "name": "owner",
          "type": "address"
        },
        {
          "internalType": "address",
          "name": "spender",
          "type": "address"
        }
      ],
      "name": "allowance",
      "outputs": [
        {
          "internalType": "uint256",
          "name": "",
          "type": "uint256"
        }
      ],
      "stateMutability": "view",
      "type": "function"
    },
    {
      "inputs": [
        {
          "internalType": "address",
          "name": "spender",
          "type": "address"
        },
        {
          "internalType": "uint256",
          "name": "value",
          "type": "uint256"
        }
      ],
      "name": "approve",
      "outputs": [
        {
          "internalType": "bool",
          "name": "",
          "type": "bool"
        }
      ],
      "stateMutability": "nonpayable",
      "type": "function"
    },
    {
      "inputs": [
        {
          "internalType": "address",
          "name": "account",
          "type": "address"
        }
      ],
      "name": "balanceOf",
      "outputs": [
        {
          "internalType": "uint256",
          "name": "",
          "type": "uint256"
        }
      ],
      "stateMutability": "view",
      "type": "function"
    },
    {
      "inputs": [
        {
          "internalType": "uint256",
          "name": "amount",
          "type": "uint256"
        }
      ],
      "name": "burn",
      "outputs": [],
      "stateMutability": "nonpayable",
      "type": "function"
    },
    {
      "inputs": [
        {
          "internalType": "uint256",
          "name": "amount",
          "type": "uint256"
        }
      ],
      "name": "convertToUSDCAndSendToPUSD",
      "outputs": [],
      "stateMutability": "nonpayable",
      "type": "function"
    },
    {
      "inputs": [],
      "name": "decimals",
      "outputs": [
        {
          "internalType": "uint8",
          "name": "",
          "type": "uint8"
        }
      ],
      "stateMutability": "pure",
      "type": "function"
    },
    {
      "inputs": [],
      "name": "eigen",
      "outputs": [
        {
          "internalType": "contract Eigen",
          "name": "",
          "type": "address"
        }
      ],
      "stateMutability": "view",
      "type": "function"
    },
    {
      "inputs": [
        {
          "internalType": "uint256",
          "name": "amount",
          "type": "uint256"
        }
      ],
      "name": "mint",
      "outputs": [],
      "stateMutability": "nonpayable",
      "type": "function"
    },
    {
      "inputs": [],
      "name": "name",
      "outputs": [
        {
          "internalType": "string",
          "name": "",
          "type": "string"
        }
      ],
      "stateMutability": "view",
      "type": "function"
    },
    {
      "inputs": [],
      "name": "owner",
      "outputs": [
        {
          "internalType": "address",
          "name": "",
          "type": "address"
        }
      ],
      "stateMutability": "view",
      "type": "function"
    },
    {
      "inputs": [],
      "name": "pusd",
      "outputs": [
        {
          "internalType": "contract PUSD",
          "name": "",
          "type": "address"
        }
      ],
      "stateMutability": "view",
      "type": "function"
    },
    {
      "inputs": [],
      "name": "renounceOwnership",
      "outputs": [],
      "stateMutability": "nonpayable",
      "type": "function"
    },
    {
      "inputs": [
        {
          "internalType": "address",
          "name": "_eigenAddress",
          "type": "address"
        }
      ],
      "name": "setEigenAddress",
      "outputs": [],
      "stateMutability": "nonpayable",
      "type": "function"
    },
    {
      "inputs": [
        {
          "internalType": "address",
          "name": "_pusdAddress",
          "type": "address"
        }
      ],
      "name": "setPUSDAddress",
      "outputs": [],
      "stateMutability": "nonpayable",
      "type": "function"
    },
    {
      "inputs": [
        {
          "internalType": "address",
          "name": "_usdcAddress",
          "type": "address"
        }
      ],
      "name": "setUSDCAddress",
      "outputs": [],
      "stateMutability": "nonpayable",
      "type": "function"
    },
    {
      "inputs": [],
      "name": "symbol",
      "outputs": [
        {
          "internalType": "string",
          "name": "",
          "type": "string"
        }
      ],
      "stateMutability": "view",
      "type": "function"
    },
    {
      "inputs": [],
      "name": "totalSupply",
      "outputs": [
        {
          "internalType": "uint256",
          "name": "",
          "type": "uint256"
        }
      ],
      "stateMutability": "view",
      "type": "function"
    },
    {
      "inputs": [
        {
          "internalType": "address",
          "name": "to",
          "type": "address"
        },
        {
          "internalType": "uint256",
          "name": "value",
          "type": "uint256"
        }
      ],
      "name": "transfer",
      "outputs": [
        {
          "internalType": "bool",
          "name": "",
          "type": "bool"
        }
      ],
      "stateMutability": "nonpayable",
      "type": "function"
    },
    {
      "inputs": [
        {
          "internalType": "address",
          "name": "from",
          "type": "address"
        },
        {
          "internalType": "address",
          "name": "to",
          "type": "address"
        },
        {
          "internalType": "uint256",
          "name": "value",
          "type": "uint256"
        }
      ],
      "name": "transferFrom",
      "outputs": [
        {
          "internalType": "bool",
          "name": "",
          "type": "bool"
        }
      ],
      "stateMutability": "nonpayable",
      "type": "function"
    },
    {
      "inputs": [
        {
          "internalType": "address",
          "name": "newOwner",
          "type": "address"
        }
      ],
      "name": "transferOwnership",
      "outputs": [],
      "stateMutability": "nonpayable",
      "type": "function"
    },
    {
      "inputs": [
        {
          "internalType": "address",
          "name": "account",
          "type": "address"
        },
        {
          "internalType": "uint256",
          "name": "amount",
          "type": "uint256"
        }
      ],
      "name": "transferToEigen",
      "outputs": [],
      "stateMutability": "nonpayable",
      "type": "function"
    },
    {
      "inputs": [],
      "name": "usdc",
      "outputs": [
        {
          "internalType": "contract USDC",
          "name": "",
          "type": "address"
        }
      ],
      "stateMutability": "view",
      "type": "function"
    }
  ],
  "bytecode": "0x60806040523480156200001157600080fd5b506040516200245a3803806200245a8339818101604052810190620000379190620003b2565b336040518060400160405280601481526020017f4c6971756964205374616b696e6720546f6b656e0000000000000000000000008152506040518060400160405280600381526020017f4c535400000000000000000000000000000000000000000000000000000000008152508160039081620000b5919062000682565b508060049081620000c7919062000682565b505050600073ffffffffffffffffffffffffffffffffffffffff168173ffffffffffffffffffffffffffffffffffffffff16036200013f5760006040517f1e4fbdf7000000000000000000000000000000000000000000000000000000008152600401620001369190620007ae565b60405180910390fd5b62000150816200015960201b60201c565b505050620007cb565b6000600560009054906101000a900473ffffffffffffffffffffffffffffffffffffffff16905081600560006101000a81548173ffffffffffffffffffffffffffffffffffffffff021916908373ffffffffffffffffffffffffffffffffffffffff1602179055508173ffffffffffffffffffffffffffffffffffffffff168173ffffffffffffffffffffffffffffffffffffffff167f8be0079c531659141344cd1fd0a4f28419497f9722a3daafe3b4186f6b6457e060405160405180910390a35050565b6000604051905090565b600080fd5b600080fd5b600080fd5b600080fd5b6000601f19601f8301169050919050565b7f4e487b7100000000000000000000000000000000000000000000000000000000600052604160045260246000fd5b62000288826200023d565b810181811067ffffffffffffffff82111715620002aa57620002a96200024e565b5b80604052505050565b6000620002bf6200021f565b9050620002cd82826200027d565b919050565b600067ffffffffffffffff821115620002f057620002ef6200024e565b5b620002fb826200023d565b9050602081019050919050565b60005b83811015620003285780820151818401526020810190506200030b565b60008484015250505050565b60006200034b6200034584620002d2565b620002b3565b9050828152602081018484840111156200036a576200036962000238565b5b6200037784828562000308565b509392505050565b600082601f83011262000397576200039662000233565b5b8151620003a984826020860162000334565b91505092915050565b60008060408385031215620003cc57620003cb62000229565b5b600083015167ffffffffffffffff811115620003ed57620003ec6200022e565b5b620003fb858286016200037f565b925050602083015167ffffffffffffffff8111156200041f576200041e6200022e565b5b6200042d858286016200037f565b9150509250929050565b600081519050919050565b7f4e487b7100000000000000000000000000000000000000000000000000000000600052602260045260246000fd5b600060028204905060018216806200048a57607f821691505b602082108103620004a0576200049f62000442565b5b50919050565b60008190508160005260206000209050919050565b60006020601f8301049050919050565b600082821b905092915050565b6000600883026200050a7fffffffffffffffffffffffffffffffffffffffffffffffffffffffffffffffff82620004cb565b620005168683620004cb565b95508019841693508086168417925050509392505050565b6000819050919050565b6000819050919050565b6000620005636200055d62000557846200052e565b62000538565b6200052e565b9050919050565b6000819050919050565b6200057f8362000542565b620005976200058e826200056a565b848454620004d8565b825550505050565b600090565b620005ae6200059f565b620005bb81848462000574565b505050565b5b81811015620005e357620005d7600082620005a4565b600181019050620005c1565b5050565b601f8211156200063257620005fc81620004a6565b6200060784620004bb565b8101602085101562000617578190505b6200062f6200062685620004bb565b830182620005c0565b50505b505050565b600082821c905092915050565b6000620006576000198460080262000637565b1980831691505092915050565b600062000672838362000644565b9150826002028217905092915050565b6200068d8262000437565b67ffffffffffffffff811115620006a957620006a86200024e565b5b620006b5825462000471565b620006c2828285620005e7565b600060209050601f831160018114620006fa5760008415620006e5578287015190505b620006f1858262000664565b86555062000761565b601f1984166200070a86620004a6565b60005b8281101562000734578489015182556001820191506020850194506020810190506200070d565b8683101562000754578489015162000750601f89168262000644565b8355505b6001600288020188555050505b505050505050565b600073ffffffffffffffffffffffffffffffffffffffff82169050919050565b6000620007968262000769565b9050919050565b620007a88162000789565b82525050565b6000602082019050620007c560008301846200079d565b92915050565b611c7f80620007db6000396000f3fe608060405234801561001057600080fd5b50600436106101425760003560e01c8063715018a6116100b8578063aaf5bfc31161007c578063aaf5bfc314610353578063b211ad9b1461036f578063bdc99b631461038d578063dd62ed3e146103a9578063f2fde38b146103d9578063f5dbe1a8146103f557610142565b8063715018a6146102c15780638da5cb5b146102cb57806395d89b41146102e9578063a0712d6814610307578063a9059cbb1461032357610142565b8063313ce5671161010a578063313ce567146101ff5780633e413bee1461021d57806342966c681461023b578063661a081e14610257578063677c0c671461027357806370a082311461029157610142565b806306fdde0314610147578063095ea7b31461016557806318160ddd1461019557806323b872dd146101b357806324156d22146101e3575b600080fd5b61014f610411565b60405161015c91906115c8565b60405180910390f35b61017f600480360381019061017a9190611683565b6104a3565b60405161018c91906116de565b60405180910390f35b61019d6104c6565b6040516101aa9190611708565b60405180910390f35b6101cd60048036038101906101c89190611723565b6104d0565b6040516101da91906116de565b60405180910390f35b6101fd60048036038101906101f89190611776565b6104ff565b005b6102076106cb565b60405161021491906117bf565b60405180910390f35b6102256106d4565b6040516102329190611839565b60405180910390f35b61025560048036038101906102509190611776565b6106fa565b005b610271600480360381019061026c9190611683565b6107e3565b005b61027b610932565b6040516102889190611875565b60405180910390f35b6102ab60048036038101906102a69190611890565b610958565b6040516102b89190611708565b60405180910390f35b6102c96109a0565b005b6102d36109b4565b6040516102e091906118cc565b60405180910390f35b6102f16109de565b6040516102fe91906115c8565b60405180910390f35b610321600480360381019061031c9190611776565b610a70565b005b61033d60048036038101906103389190611683565b610b0e565b60405161034a91906116de565b60405180910390f35b61036d60048036038101906103689190611890565b610b31565b005b610377610b7d565b6040516103849190611908565b60405180910390f35b6103a760048036038101906103a29190611890565b610ba3565b005b6103c360048036038101906103be9190611923565b610bef565b6040516103d09190611708565b60405180910390f35b6103f360048036038101906103ee9190611890565b610c76565b005b61040f600480360381019061040a9190611890565b610cfc565b005b60606003805461042090611992565b80601f016020809104026020016040519081016040528092919081815260200182805461044c90611992565b80156104995780601f1061046e57610100808354040283529160200191610499565b820191906000526020600020905b81548152906001019060200180831161047c57829003601f168201915b5050505050905090565b6000806104ae610d48565b90506104bb818585610d50565b600191505092915050565b6000600254905090565b6000806104db610d48565b90506104e8858285610d62565b6104f3858585610df7565b60019150509392505050565b600660009054906101000a900473ffffffffffffffffffffffffffffffffffffffff1673ffffffffffffffffffffffffffffffffffffffff163373ffffffffffffffffffffffffffffffffffffffff161461058f576040517f08c379a000000000000000000000000000000000000000000000000000000000815260040161058690611a35565b60405180910390fd5b600081116105d2576040517f08c379a00000000000000000000000000000000000000000000000000000000081526004016105c990611aa1565b60405180910390fd5b806105dc33610958565b101561061d576040517f08c379a000000000000000000000000000000000000000000000000000000000815260040161061490611b0d565b60405180910390fd5b600860009054906101000a900473ffffffffffffffffffffffffffffffffffffffff1673ffffffffffffffffffffffffffffffffffffffff16634d0b82c233836040518363ffffffff1660e01b815260040161067a929190611b2d565b6020604051808303816000875af1158015610699573d6000803e3d6000fd5b505050506040513d601f19601f820116820180604052508101906106bd9190611b82565b506106c83382610eeb565b50565b60006012905090565b600760009054906101000a900473ffffffffffffffffffffffffffffffffffffffff1681565b6000811161073d576040517f08c379a000000000000000000000000000000000000000000000000000000000815260040161073490611aa1565b60405180910390fd5b8061074733610958565b1015610788576040517f08c379a000000000000000000000000000000000000000000000000000000000815260040161077f90611b0d565b60405180910390fd5b6107923382610eeb565b3373ffffffffffffffffffffffffffffffffffffffff167ffd38818f5291bf0bb3a2a48aadc06ba8757865d1dabd804585338aab3009dcb6826040516107d89190611708565b60405180910390a250565b600660009054906101000a900473ffffffffffffffffffffffffffffffffffffffff1673ffffffffffffffffffffffffffffffffffffffff163373ffffffffffffffffffffffffffffffffffffffff1614610873576040517f08c379a000000000000000000000000000000000000000000000000000000000815260040161086a90611a35565b60405180910390fd5b600081116108b6576040517f08c379a00000000000000000000000000000000000000000000000000000000081526004016108ad90611aa1565b60405180910390fd5b806108c083610958565b1015610901576040517f08c379a00000000000000000000000000000000000000000000000000000000081526004016108f890611b0d565b60405180910390fd5b61092e82600660009054906101000a900473ffffffffffffffffffffffffffffffffffffffff1683610df7565b5050565b600660009054906101000a900473ffffffffffffffffffffffffffffffffffffffff1681565b60008060008373ffffffffffffffffffffffffffffffffffffffff1673ffffffffffffffffffffffffffffffffffffffff168152602001908152602001600020549050919050565b6109a8610f6d565b6109b26000610ff4565b565b6000600560009054906101000a900473ffffffffffffffffffffffffffffffffffffffff16905090565b6060600480546109ed90611992565b80601f0160208091040260200160405190810160405280929190818152602001828054610a1990611992565b8015610a665780601f10610a3b57610100808354040283529160200191610a66565b820191906000526020600020905b815481529060010190602001808311610a4957829003601f168201915b5050505050905090565b60008111610ab3576040517f08c379a0000000000000000000000000000000000000000000000000000000008152600401610aaa90611aa1565b60405180910390fd5b610abd33826110ba565b3373ffffffffffffffffffffffffffffffffffffffff167f3f2c9d57c068687834f0de942a9babb9e5acab57d516d3480a3c16ee165a427382604051610b039190611708565b60405180910390a250565b600080610b19610d48565b9050610b26818585610df7565b600191505092915050565b610b39610f6d565b80600760006101000a81548173ffffffffffffffffffffffffffffffffffffffff021916908373ffffffffffffffffffffffffffffffffffffffff16021790555050565b600860009054906101000a900473ffffffffffffffffffffffffffffffffffffffff1681565b610bab610f6d565b80600660006101000a81548173ffffffffffffffffffffffffffffffffffffffff021916908373ffffffffffffffffffffffffffffffffffffffff16021790555050565b6000600160008473ffffffffffffffffffffffffffffffffffffffff1673ffffffffffffffffffffffffffffffffffffffff16815260200190815260200160002060008373ffffffffffffffffffffffffffffffffffffffff1673ffffffffffffffffffffffffffffffffffffffff16815260200190815260200160002054905092915050565b610c7e610f6d565b600073ffffffffffffffffffffffffffffffffffffffff168173ffffffffffffffffffffffffffffffffffffffff1603610cf05760006040517f1e4fbdf7000000000000000000000000000000000000000000000000000000008152600401610ce791906118cc565b60405180910390fd5b610cf981610ff4565b50565b610d04610f6d565b80600860006101000a81548173ffffffffffffffffffffffffffffffffffffffff021916908373ffffffffffffffffffffffffffffffffffffffff16021790555050565b600033905090565b610d5d838383600161113c565b505050565b6000610d6e8484610bef565b90507fffffffffffffffffffffffffffffffffffffffffffffffffffffffffffffffff811015610df15781811015610de1578281836040517ffb8f41b2000000000000000000000000000000000000000000000000000000008152600401610dd893929190611baf565b60405180910390fd5b610df08484848403600061113c565b5b50505050565b600073ffffffffffffffffffffffffffffffffffffffff168373ffffffffffffffffffffffffffffffffffffffff1603610e695760006040517f96c6fd1e000000000000000000000000000000000000000000000000000000008152600401610e6091906118cc565b60405180910390fd5b600073ffffffffffffffffffffffffffffffffffffffff168273ffffffffffffffffffffffffffffffffffffffff1603610edb5760006040517fec442f05000000000000000000000000000000000000000000000000000000008152600401610ed291906118cc565b60405180910390fd5b610ee6838383611313565b505050565b600073ffffffffffffffffffffffffffffffffffffffff168273ffffffffffffffffffffffffffffffffffffffff1603610f5d5760006040517f96c6fd1e000000000000000000000000000000000000000000000000000000008152600401610f5491906118cc565b60405180910390fd5b610f6982600083611313565b5050565b610f75610d48565b73ffffffffffffffffffffffffffffffffffffffff16610f936109b4565b73ffffffffffffffffffffffffffffffffffffffff1614610ff257610fb6610d48565b6040517f118cdaa7000000000000000000000000000000000000000000000000000000008152600401610fe991906118cc565b60405180910390fd5b565b6000600560009054906101000a900473ffffffffffffffffffffffffffffffffffffffff16905081600560006101000a81548173ffffffffffffffffffffffffffffffffffffffff021916908373ffffffffffffffffffffffffffffffffffffffff1602179055508173ffffffffffffffffffffffffffffffffffffffff168173ffffffffffffffffffffffffffffffffffffffff167f8be0079c531659141344cd1fd0a4f28419497f9722a3daafe3b4186f6b6457e060405160405180910390a35050565b600073ffffffffffffffffffffffffffffffffffffffff168273ffffffffffffffffffffffffffffffffffffffff160361112c5760006040517fec442f0500000000000000000000000000000000000000000000000000000000815260040161112391906118cc565b60405180910390fd5b61113860008383611313565b5050565b600073ffffffffffffffffffffffffffffffffffffffff168473ffffffffffffffffffffffffffffffffffffffff16036111ae5760006040517fe602df050000000000000000000000000000000000000000000000000000000081526004016111a591906118cc565b60405180910390fd5b600073ffffffffffffffffffffffffffffffffffffffff168373ffffffffffffffffffffffffffffffffffffffff16036112205760006040517f94280d6200000000000000000000000000000000000000000000000000000000815260040161121791906118cc565b60405180910390fd5b81600160008673ffffffffffffffffffffffffffffffffffffffff1673ffffffffffffffffffffffffffffffffffffffff16815260200190815260200160002060008573ffffffffffffffffffffffffffffffffffffffff1673ffffffffffffffffffffffffffffffffffffffff16815260200190815260200160002081905550801561130d578273ffffffffffffffffffffffffffffffffffffffff168473ffffffffffffffffffffffffffffffffffffffff167f8c5be1e5ebec7d5bd14f71427d1e84f3dd0314c0f7b2291e5b200ac8c7c3b925846040516113049190611708565b60405180910390a35b50505050565b600073ffffffffffffffffffffffffffffffffffffffff168373ffffffffffffffffffffffffffffffffffffffff16036113655780600260008282546113599190611c15565b92505081905550611438565b60008060008573ffffffffffffffffffffffffffffffffffffffff1673ffffffffffffffffffffffffffffffffffffffff168152602001908152602001600020549050818110156113f1578381836040517fe450d38c0000000000000000000000000000000000000000000000000000000081526004016113e893929190611baf565b60405180910390fd5b8181036000808673ffffffffffffffffffffffffffffffffffffffff1673ffffffffffffffffffffffffffffffffffffffff16815260200190815260200160002081905550505b600073ffffffffffffffffffffffffffffffffffffffff168273ffffffffffffffffffffffffffffffffffffffff160361148157806002600082825403925050819055506114ce565b806000808473ffffffffffffffffffffffffffffffffffffffff1673ffffffffffffffffffffffffffffffffffffffff168152602001908152602001600020600082825401925050819055505b8173ffffffffffffffffffffffffffffffffffffffff168373ffffffffffffffffffffffffffffffffffffffff167fddf252ad1be2c89b69c2b068fc378daa952ba7f163c4a11628f55a4df523b3ef8360405161152b9190611708565b60405180910390a3505050565b600081519050919050565b600082825260208201905092915050565b60005b83811015611572578082015181840152602081019050611557565b60008484015250505050565b6000601f19601f8301169050919050565b600061159a82611538565b6115a48185611543565b93506115b4818560208601611554565b6115bd8161157e565b840191505092915050565b600060208201905081810360008301526115e2818461158f565b905092915050565b600080fd5b600073ffffffffffffffffffffffffffffffffffffffff82169050919050565b600061161a826115ef565b9050919050565b61162a8161160f565b811461163557600080fd5b50565b60008135905061164781611621565b92915050565b6000819050919050565b6116608161164d565b811461166b57600080fd5b50565b60008135905061167d81611657565b92915050565b6000806040838503121561169a576116996115ea565b5b60006116a885828601611638565b92505060206116b98582860161166e565b9150509250929050565b60008115159050919050565b6116d8816116c3565b82525050565b60006020820190506116f360008301846116cf565b92915050565b6117028161164d565b82525050565b600060208201905061171d60008301846116f9565b92915050565b60008060006060848603121561173c5761173b6115ea565b5b600061174a86828701611638565b935050602061175b86828701611638565b925050604061176c8682870161166e565b9150509250925092565b60006020828403121561178c5761178b6115ea565b5b600061179a8482850161166e565b91505092915050565b600060ff82169050919050565b6117b9816117a3565b82525050565b60006020820190506117d460008301846117b0565b92915050565b6000819050919050565b60006117ff6117fa6117f5846115ef565b6117da565b6115ef565b9050919050565b6000611811826117e4565b9050919050565b600061182382611806565b9050919050565b61183381611818565b82525050565b600060208201905061184e600083018461182a565b92915050565b600061185f82611806565b9050919050565b61186f81611854565b82525050565b600060208201905061188a6000830184611866565b92915050565b6000602082840312156118a6576118a56115ea565b5b60006118b484828501611638565b91505092915050565b6118c68161160f565b82525050565b60006020820190506118e160008301846118bd565b92915050565b60006118f282611806565b9050919050565b611902816118e7565b82525050565b600060208201905061191d60008301846118f9565b92915050565b6000806040838503121561193a576119396115ea565b5b600061194885828601611638565b925050602061195985828601611638565b9150509250929050565b7f4e487b7100000000000000000000000000000000000000000000000000000000600052602260045260246000fd5b600060028204905060018216806119aa57607f821691505b6020821081036119bd576119bc611963565b5b50919050565b7f4f6e6c7920656967656e20636f6e74726163742063616e2063616c6c2074686960008201527f732066756e6374696f6e00000000000000000000000000000000000000000000602082015250565b6000611a1f602a83611543565b9150611a2a826119c3565b604082019050919050565b60006020820190508181036000830152611a4e81611a12565b9050919050565b7f416d6f756e74206d7573742062652067726561746572207468616e207a65726f600082015250565b6000611a8b602083611543565b9150611a9682611a55565b602082019050919050565b60006020820190508181036000830152611aba81611a7e565b9050919050565b7f496e73756666696369656e742062616c616e6365000000000000000000000000600082015250565b6000611af7601483611543565b9150611b0282611ac1565b602082019050919050565b60006020820190508181036000830152611b2681611aea565b9050919050565b6000604082019050611b4260008301856118bd565b611b4f60208301846116f9565b9392505050565b611b5f816116c3565b8114611b6a57600080fd5b50565b600081519050611b7c81611b56565b92915050565b600060208284031215611b9857611b976115ea565b5b6000611ba684828501611b6d565b91505092915050565b6000606082019050611bc460008301866118bd565b611bd160208301856116f9565b611bde60408301846116f9565b949350505050565b7f4e487b7100000000000000000000000000000000000000000000000000000000600052601160045260246000fd5b6000611c208261164d565b9150611c2b8361164d565b9250828201905080821115611c4357611c42611be6565b5b9291505056fea2646970667358221220372e1804db8cfb009b55d65e81f0bdd2c7b685268e9ef6dde165e4c80f344f7964736f6c63430008140033",
  "linkReferences": {},
  "deployedLinkReferences": {}
}