{
  "_format": "hh-sol-artifact-1",
  "contractName": "LST",
  "sourceName": "contracts/LST.sol",
  "abi": [
    {
      "inputs": [
        {
          "internalType": "string",
          "name": "name",
          "type": "string"
        },
        {
          "internalType": "string",
          "name": "symbol",
          "type": "string"
        }
      ],
      "stateMutability": "nonpayable",
      "type": "constructor"
    },
    {
      "inputs": [
        {
          "internalType": "address",
          "name": "spender",
          "type": "address"
        },
        {
          "internalType": "uint256",
          "name": "allowance",
          "type": "uint256"
        },
        {
          "internalType": "uint256",
          "name": "needed",
          "type": "uint256"
        }
      ],
      "name": "ERC20InsufficientAllowance",
      "type": "error"
    },
    {
      "inputs": [
        {
          "internalType": "address",
          "name": "sender",
          "type": "address"
        },
        {
          "internalType": "uint256",
          "name": "balance",
          "type": "uint256"
        },
        {
          "internalType": "uint256",
          "name": "needed",
          "type": "uint256"
        }
      ],
      "name": "ERC20InsufficientBalance",
      "type": "error"
    },
    {
      "inputs": [
        {
          "internalType": "address",
          "name": "approver",
          "type": "address"
        }
      ],
      "name": "ERC20InvalidApprover",
      "type": "error"
    },
    {
      "inputs": [
        {
          "internalType": "address",
          "name": "receiver",
          "type": "address"
        }
      ],
      "name": "ERC20InvalidReceiver",
      "type": "error"
    },
    {
      "inputs": [
        {
          "internalType": "address",
          "name": "sender",
          "type": "address"
        }
      ],
      "name": "ERC20InvalidSender",
      "type": "error"
    },
    {
      "inputs": [
        {
          "internalType": "address",
          "name": "spender",
          "type": "address"
        }
      ],
      "name": "ERC20InvalidSpender",
      "type": "error"
    },
    {
      "inputs": [
        {
          "internalType": "address",
          "name": "owner",
          "type": "address"
        }
      ],
      "name": "OwnableInvalidOwner",
      "type": "error"
    },
    {
      "inputs": [
        {
          "internalType": "address",
          "name": "account",
          "type": "address"
        }
      ],
      "name": "OwnableUnauthorizedAccount",
      "type": "error"
    },
    {
      "anonymous": false,
      "inputs": [
        {
          "indexed": true,
          "internalType": "address",
          "name": "owner",
          "type": "address"
        },
        {
          "indexed": true,
          "internalType": "address",
          "name": "spender",
          "type": "address"
        },
        {
          "indexed": false,
          "internalType": "uint256",
          "name": "value",
          "type": "uint256"
        }
      ],
      "name": "Approval",
      "type": "event"
    },
    {
      "anonymous": false,
      "inputs": [
        {
          "indexed": true,
          "internalType": "address",
          "name": "previousOwner",
          "type": "address"
        },
        {
          "indexed": true,
          "internalType": "address",
          "name": "newOwner",
          "type": "address"
        }
      ],
      "name": "OwnershipTransferred",
      "type": "event"
    },
    {
      "anonymous": false,
      "inputs": [
        {
          "indexed": true,
          "internalType": "address",
          "name": "from",
          "type": "address"
        },
        {
          "indexed": false,
          "internalType": "uint256",
          "name": "amount",
          "type": "uint256"
        }
      ],
      "name": "TokensBurned",
      "type": "event"
    },
    {
      "anonymous": false,
      "inputs": [
        {
          "indexed": true,
          "internalType": "address",
          "name": "to",
          "type": "address"
        },
        {
          "indexed": false,
          "internalType": "uint256",
          "name": "amount",
          "type": "uint256"
        }
      ],
      "name": "TokensMinted",
      "type": "event"
    },
    {
      "anonymous": false,
      "inputs": [
        {
          "indexed": true,
          "internalType": "address",
          "name": "from",
          "type": "address"
        },
        {
          "indexed": true,
          "internalType": "address",
          "name": "to",
          "type": "address"
        },
        {
          "indexed": false,
          "internalType": "uint256",
          "name": "value",
          "type": "uint256"
        }
      ],
      "name": "Transfer",
      "type": "event"
    },
    {
      "inputs": [
        {
          "internalType": "address",
          "name": "owner",
          "type": "address"
        },
        {
          "internalType": "address",
          "name": "spender",
          "type": "address"
        }
      ],
      "name": "allowance",
      "outputs": [
        {
          "internalType": "uint256",
          "name": "",
          "type": "uint256"
        }
      ],
      "stateMutability": "view",
      "type": "function"
    },
    {
      "inputs": [
        {
          "internalType": "address",
          "name": "spender",
          "type": "address"
        },
        {
          "internalType": "uint256",
          "name": "value",
          "type": "uint256"
        }
      ],
      "name": "approve",
      "outputs": [
        {
          "internalType": "bool",
          "name": "",
          "type": "bool"
        }
      ],
      "stateMutability": "nonpayable",
      "type": "function"
    },
    {
      "inputs": [
        {
          "internalType": "address",
          "name": "account",
          "type": "address"
        }
      ],
      "name": "balanceOf",
      "outputs": [
        {
          "internalType": "uint256",
          "name": "",
          "type": "uint256"
        }
      ],
      "stateMutability": "view",
      "type": "function"
    },
    {
      "inputs": [
        {
          "internalType": "uint256",
          "name": "amount",
          "type": "uint256"
        }
      ],
      "name": "burn",
      "outputs": [],
      "stateMutability": "nonpayable",
      "type": "function"
    },
    {
      "inputs": [],
      "name": "decimals",
      "outputs": [
        {
          "internalType": "uint8",
          "name": "",
          "type": "uint8"
        }
      ],
      "stateMutability": "pure",
      "type": "function"
    },
    {
      "inputs": [],
      "name": "eigen",
      "outputs": [
        {
          "internalType": "contract Eigen",
          "name": "",
          "type": "address"
        }
      ],
      "stateMutability": "view",
      "type": "function"
    },
    {
      "inputs": [
        {
          "internalType": "uint256",
          "name": "amount",
          "type": "uint256"
        }
      ],
      "name": "mint",
      "outputs": [],
      "stateMutability": "nonpayable",
      "type": "function"
    },
    {
      "inputs": [],
      "name": "name",
      "outputs": [
        {
          "internalType": "string",
          "name": "",
          "type": "string"
        }
      ],
      "stateMutability": "view",
      "type": "function"
    },
    {
      "inputs": [],
      "name": "owner",
      "outputs": [
        {
          "internalType": "address",
          "name": "",
          "type": "address"
        }
      ],
      "stateMutability": "view",
      "type": "function"
    },
    {
      "inputs": [],
      "name": "renounceOwnership",
      "outputs": [],
      "stateMutability": "nonpayable",
      "type": "function"
    },
    {
      "inputs": [
        {
          "internalType": "address",
          "name": "_eigenAddress",
          "type": "address"
        }
      ],
      "name": "setEigenAddress",
      "outputs": [],
      "stateMutability": "nonpayable",
      "type": "function"
    },
    {
      "inputs": [],
      "name": "symbol",
      "outputs": [
        {
          "internalType": "string",
          "name": "",
          "type": "string"
        }
      ],
      "stateMutability": "view",
      "type": "function"
    },
    {
      "inputs": [],
      "name": "totalSupply",
      "outputs": [
        {
          "internalType": "uint256",
          "name": "",
          "type": "uint256"
        }
      ],
      "stateMutability": "view",
      "type": "function"
    },
    {
      "inputs": [
        {
          "internalType": "address",
          "name": "to",
          "type": "address"
        },
        {
          "internalType": "uint256",
          "name": "value",
          "type": "uint256"
        }
      ],
      "name": "transfer",
      "outputs": [
        {
          "internalType": "bool",
          "name": "",
          "type": "bool"
        }
      ],
      "stateMutability": "nonpayable",
      "type": "function"
    },
    {
      "inputs": [
        {
          "internalType": "address",
          "name": "from",
          "type": "address"
        },
        {
          "internalType": "address",
          "name": "to",
          "type": "address"
        },
        {
          "internalType": "uint256",
          "name": "value",
          "type": "uint256"
        }
      ],
      "name": "transferFrom",
      "outputs": [
        {
          "internalType": "bool",
          "name": "",
          "type": "bool"
        }
      ],
      "stateMutability": "nonpayable",
      "type": "function"
    },
    {
      "inputs": [
        {
          "internalType": "address",
          "name": "newOwner",
          "type": "address"
        }
      ],
      "name": "transferOwnership",
      "outputs": [],
      "stateMutability": "nonpayable",
      "type": "function"
    },
    {
      "inputs": [
        {
          "internalType": "address",
          "name": "account",
          "type": "address"
        },
        {
          "internalType": "uint256",
          "name": "amount",
          "type": "uint256"
        }
      ],
      "name": "transferToEigen",
      "outputs": [],
      "stateMutability": "nonpayable",
      "type": "function"
    }
  ],
  "bytecode": "0x60806040523480156200001157600080fd5b5060405162001fe938038062001fe98339818101604052810190620000379190620003b2565b336040518060400160405280601481526020017f4c6971756964205374616b696e6720546f6b656e0000000000000000000000008152506040518060400160405280600381526020017f4c535400000000000000000000000000000000000000000000000000000000008152508160039081620000b5919062000682565b508060049081620000c7919062000682565b505050600073ffffffffffffffffffffffffffffffffffffffff168173ffffffffffffffffffffffffffffffffffffffff16036200013f5760006040517f1e4fbdf7000000000000000000000000000000000000000000000000000000008152600401620001369190620007ae565b60405180910390fd5b62000150816200015960201b60201c565b505050620007cb565b6000600560009054906101000a900473ffffffffffffffffffffffffffffffffffffffff16905081600560006101000a81548173ffffffffffffffffffffffffffffffffffffffff021916908373ffffffffffffffffffffffffffffffffffffffff1602179055508173ffffffffffffffffffffffffffffffffffffffff168173ffffffffffffffffffffffffffffffffffffffff167f8be0079c531659141344cd1fd0a4f28419497f9722a3daafe3b4186f6b6457e060405160405180910390a35050565b6000604051905090565b600080fd5b600080fd5b600080fd5b600080fd5b6000601f19601f8301169050919050565b7f4e487b7100000000000000000000000000000000000000000000000000000000600052604160045260246000fd5b62000288826200023d565b810181811067ffffffffffffffff82111715620002aa57620002a96200024e565b5b80604052505050565b6000620002bf6200021f565b9050620002cd82826200027d565b919050565b600067ffffffffffffffff821115620002f057620002ef6200024e565b5b620002fb826200023d565b9050602081019050919050565b60005b83811015620003285780820151818401526020810190506200030b565b60008484015250505050565b60006200034b6200034584620002d2565b620002b3565b9050828152602081018484840111156200036a576200036962000238565b5b6200037784828562000308565b509392505050565b600082601f83011262000397576200039662000233565b5b8151620003a984826020860162000334565b91505092915050565b60008060408385031215620003cc57620003cb62000229565b5b600083015167ffffffffffffffff811115620003ed57620003ec6200022e565b5b620003fb858286016200037f565b925050602083015167ffffffffffffffff8111156200041f576200041e6200022e565b5b6200042d858286016200037f565b9150509250929050565b600081519050919050565b7f4e487b7100000000000000000000000000000000000000000000000000000000600052602260045260246000fd5b600060028204905060018216806200048a57607f821691505b602082108103620004a0576200049f62000442565b5b50919050565b60008190508160005260206000209050919050565b60006020601f8301049050919050565b600082821b905092915050565b6000600883026200050a7fffffffffffffffffffffffffffffffffffffffffffffffffffffffffffffffff82620004cb565b620005168683620004cb565b95508019841693508086168417925050509392505050565b6000819050919050565b6000819050919050565b6000620005636200055d62000557846200052e565b62000538565b6200052e565b9050919050565b6000819050919050565b6200057f8362000542565b620005976200058e826200056a565b848454620004d8565b825550505050565b600090565b620005ae6200059f565b620005bb81848462000574565b505050565b5b81811015620005e357620005d7600082620005a4565b600181019050620005c1565b5050565b601f8211156200063257620005fc81620004a6565b6200060784620004bb565b8101602085101562000617578190505b6200062f6200062685620004bb565b830182620005c0565b50505b505050565b600082821c905092915050565b6000620006576000198460080262000637565b1980831691505092915050565b600062000672838362000644565b9150826002028217905092915050565b6200068d8262000437565b67ffffffffffffffff811115620006a957620006a86200024e565b5b620006b5825462000471565b620006c2828285620005e7565b600060209050601f831160018114620006fa5760008415620006e5578287015190505b620006f1858262000664565b86555062000761565b601f1984166200070a86620004a6565b60005b8281101562000734578489015182556001820191506020850194506020810190506200070d565b8683101562000754578489015162000750601f89168262000644565b8355505b6001600288020188555050505b505050505050565b600073ffffffffffffffffffffffffffffffffffffffff82169050919050565b6000620007968262000769565b9050919050565b620007a88162000789565b82525050565b6000602082019050620007c560008301846200079d565b92915050565b61180e80620007db6000396000f3fe608060405234801561001057600080fd5b506004361061010b5760003560e01c806370a08231116100a2578063a0712d6811610071578063a0712d6814610296578063a9059cbb146102b2578063bdc99b63146102e2578063dd62ed3e146102fe578063f2fde38b1461032e5761010b565b806370a0823114610220578063715018a6146102505780638da5cb5b1461025a57806395d89b41146102785761010b565b8063313ce567116100de578063313ce567146101ac57806342966c68146101ca578063661a081e146101e6578063677c0c67146102025761010b565b806306fdde0314610110578063095ea7b31461012e57806318160ddd1461015e57806323b872dd1461017c575b600080fd5b61011861034a565b6040516101259190611251565b60405180910390f35b6101486004803603810190610143919061130c565b6103dc565b6040516101559190611367565b60405180910390f35b6101666103ff565b6040516101739190611391565b60405180910390f35b610196600480360381019061019191906113ac565b610409565b6040516101a39190611367565b60405180910390f35b6101b4610438565b6040516101c1919061141b565b60405180910390f35b6101e460048036038101906101df9190611436565b610441565b005b61020060048036038101906101fb919061130c565b61052a565b005b61020a610679565b60405161021791906114c2565b60405180910390f35b61023a600480360381019061023591906114dd565b61069f565b6040516102479190611391565b60405180910390f35b6102586106e7565b005b6102626106fb565b60405161026f9190611519565b60405180910390f35b610280610725565b60405161028d9190611251565b60405180910390f35b6102b060048036038101906102ab9190611436565b6107b7565b005b6102cc60048036038101906102c7919061130c565b610855565b6040516102d99190611367565b60405180910390f35b6102fc60048036038101906102f791906114dd565b610878565b005b61031860048036038101906103139190611534565b6108c4565b6040516103259190611391565b60405180910390f35b610348600480360381019061034391906114dd565b61094b565b005b606060038054610359906115a3565b80601f0160208091040260200160405190810160405280929190818152602001828054610385906115a3565b80156103d25780601f106103a7576101008083540402835291602001916103d2565b820191906000526020600020905b8154815290600101906020018083116103b557829003601f168201915b5050505050905090565b6000806103e76109d1565b90506103f48185856109d9565b600191505092915050565b6000600254905090565b6000806104146109d1565b90506104218582856109eb565b61042c858585610a80565b60019150509392505050565b60006012905090565b60008111610484576040517f08c379a000000000000000000000000000000000000000000000000000000000815260040161047b90611620565b60405180910390fd5b8061048e3361069f565b10156104cf576040517f08c379a00000000000000000000000000000000000000000000000000000000081526004016104c69061168c565b60405180910390fd5b6104d93382610b74565b3373ffffffffffffffffffffffffffffffffffffffff167ffd38818f5291bf0bb3a2a48aadc06ba8757865d1dabd804585338aab3009dcb68260405161051f9190611391565b60405180910390a250565b600660009054906101000a900473ffffffffffffffffffffffffffffffffffffffff1673ffffffffffffffffffffffffffffffffffffffff163373ffffffffffffffffffffffffffffffffffffffff16146105ba576040517f08c379a00000000000000000000000000000000000000000000000000000000081526004016105b19061171e565b60405180910390fd5b600081116105fd576040517f08c379a00000000000000000000000000000000000000000000000000000000081526004016105f490611620565b60405180910390fd5b806106078361069f565b1015610648576040517f08c379a000000000000000000000000000000000000000000000000000000000815260040161063f9061168c565b60405180910390fd5b61067582600660009054906101000a900473ffffffffffffffffffffffffffffffffffffffff1683610a80565b5050565b600660009054906101000a900473ffffffffffffffffffffffffffffffffffffffff1681565b60008060008373ffffffffffffffffffffffffffffffffffffffff1673ffffffffffffffffffffffffffffffffffffffff168152602001908152602001600020549050919050565b6106ef610bf6565b6106f96000610c7d565b565b6000600560009054906101000a900473ffffffffffffffffffffffffffffffffffffffff16905090565b606060048054610734906115a3565b80601f0160208091040260200160405190810160405280929190818152602001828054610760906115a3565b80156107ad5780601f10610782576101008083540402835291602001916107ad565b820191906000526020600020905b81548152906001019060200180831161079057829003601f168201915b5050505050905090565b600081116107fa576040517f08c379a00000000000000000000000000000000000000000000000000000000081526004016107f190611620565b60405180910390fd5b6108043382610d43565b3373ffffffffffffffffffffffffffffffffffffffff167f3f2c9d57c068687834f0de942a9babb9e5acab57d516d3480a3c16ee165a42738260405161084a9190611391565b60405180910390a250565b6000806108606109d1565b905061086d818585610a80565b600191505092915050565b610880610bf6565b80600660006101000a81548173ffffffffffffffffffffffffffffffffffffffff021916908373ffffffffffffffffffffffffffffffffffffffff16021790555050565b6000600160008473ffffffffffffffffffffffffffffffffffffffff1673ffffffffffffffffffffffffffffffffffffffff16815260200190815260200160002060008373ffffffffffffffffffffffffffffffffffffffff1673ffffffffffffffffffffffffffffffffffffffff16815260200190815260200160002054905092915050565b610953610bf6565b600073ffffffffffffffffffffffffffffffffffffffff168173ffffffffffffffffffffffffffffffffffffffff16036109c55760006040517f1e4fbdf70000000000000000000000000000000000000000000000000000000081526004016109bc9190611519565b60405180910390fd5b6109ce81610c7d565b50565b600033905090565b6109e68383836001610dc5565b505050565b60006109f784846108c4565b90507fffffffffffffffffffffffffffffffffffffffffffffffffffffffffffffffff811015610a7a5781811015610a6a578281836040517ffb8f41b2000000000000000000000000000000000000000000000000000000008152600401610a619392919061173e565b60405180910390fd5b610a7984848484036000610dc5565b5b50505050565b600073ffffffffffffffffffffffffffffffffffffffff168373ffffffffffffffffffffffffffffffffffffffff1603610af25760006040517f96c6fd1e000000000000000000000000000000000000000000000000000000008152600401610ae99190611519565b60405180910390fd5b600073ffffffffffffffffffffffffffffffffffffffff168273ffffffffffffffffffffffffffffffffffffffff1603610b645760006040517fec442f05000000000000000000000000000000000000000000000000000000008152600401610b5b9190611519565b60405180910390fd5b610b6f838383610f9c565b505050565b600073ffffffffffffffffffffffffffffffffffffffff168273ffffffffffffffffffffffffffffffffffffffff1603610be65760006040517f96c6fd1e000000000000000000000000000000000000000000000000000000008152600401610bdd9190611519565b60405180910390fd5b610bf282600083610f9c565b5050565b610bfe6109d1565b73ffffffffffffffffffffffffffffffffffffffff16610c1c6106fb565b73ffffffffffffffffffffffffffffffffffffffff1614610c7b57610c3f6109d1565b6040517f118cdaa7000000000000000000000000000000000000000000000000000000008152600401610c729190611519565b60405180910390fd5b565b6000600560009054906101000a900473ffffffffffffffffffffffffffffffffffffffff16905081600560006101000a81548173ffffffffffffffffffffffffffffffffffffffff021916908373ffffffffffffffffffffffffffffffffffffffff1602179055508173ffffffffffffffffffffffffffffffffffffffff168173ffffffffffffffffffffffffffffffffffffffff167f8be0079c531659141344cd1fd0a4f28419497f9722a3daafe3b4186f6b6457e060405160405180910390a35050565b600073ffffffffffffffffffffffffffffffffffffffff168273ffffffffffffffffffffffffffffffffffffffff1603610db55760006040517fec442f05000000000000000000000000000000000000000000000000000000008152600401610dac9190611519565b60405180910390fd5b610dc160008383610f9c565b5050565b600073ffffffffffffffffffffffffffffffffffffffff168473ffffffffffffffffffffffffffffffffffffffff1603610e375760006040517fe602df05000000000000000000000000000000000000000000000000000000008152600401610e2e9190611519565b60405180910390fd5b600073ffffffffffffffffffffffffffffffffffffffff168373ffffffffffffffffffffffffffffffffffffffff1603610ea95760006040517f94280d62000000000000000000000000000000000000000000000000000000008152600401610ea09190611519565b60405180910390fd5b81600160008673ffffffffffffffffffffffffffffffffffffffff1673ffffffffffffffffffffffffffffffffffffffff16815260200190815260200160002060008573ffffffffffffffffffffffffffffffffffffffff1673ffffffffffffffffffffffffffffffffffffffff168152602001908152602001600020819055508015610f96578273ffffffffffffffffffffffffffffffffffffffff168473ffffffffffffffffffffffffffffffffffffffff167f8c5be1e5ebec7d5bd14f71427d1e84f3dd0314c0f7b2291e5b200ac8c7c3b92584604051610f8d9190611391565b60405180910390a35b50505050565b600073ffffffffffffffffffffffffffffffffffffffff168373ffffffffffffffffffffffffffffffffffffffff1603610fee578060026000828254610fe291906117a4565b925050819055506110c1565b60008060008573ffffffffffffffffffffffffffffffffffffffff1673ffffffffffffffffffffffffffffffffffffffff1681526020019081526020016000205490508181101561107a578381836040517fe450d38c0000000000000000000000000000000000000000000000000000000081526004016110719392919061173e565b60405180910390fd5b8181036000808673ffffffffffffffffffffffffffffffffffffffff1673ffffffffffffffffffffffffffffffffffffffff16815260200190815260200160002081905550505b600073ffffffffffffffffffffffffffffffffffffffff168273ffffffffffffffffffffffffffffffffffffffff160361110a5780600260008282540392505081905550611157565b806000808473ffffffffffffffffffffffffffffffffffffffff1673ffffffffffffffffffffffffffffffffffffffff168152602001908152602001600020600082825401925050819055505b8173ffffffffffffffffffffffffffffffffffffffff168373ffffffffffffffffffffffffffffffffffffffff167fddf252ad1be2c89b69c2b068fc378daa952ba7f163c4a11628f55a4df523b3ef836040516111b49190611391565b60405180910390a3505050565b600081519050919050565b600082825260208201905092915050565b60005b838110156111fb5780820151818401526020810190506111e0565b60008484015250505050565b6000601f19601f8301169050919050565b6000611223826111c1565b61122d81856111cc565b935061123d8185602086016111dd565b61124681611207565b840191505092915050565b6000602082019050818103600083015261126b8184611218565b905092915050565b600080fd5b600073ffffffffffffffffffffffffffffffffffffffff82169050919050565b60006112a382611278565b9050919050565b6112b381611298565b81146112be57600080fd5b50565b6000813590506112d0816112aa565b92915050565b6000819050919050565b6112e9816112d6565b81146112f457600080fd5b50565b600081359050611306816112e0565b92915050565b6000806040838503121561132357611322611273565b5b6000611331858286016112c1565b9250506020611342858286016112f7565b9150509250929050565b60008115159050919050565b6113618161134c565b82525050565b600060208201905061137c6000830184611358565b92915050565b61138b816112d6565b82525050565b60006020820190506113a66000830184611382565b92915050565b6000806000606084860312156113c5576113c4611273565b5b60006113d3868287016112c1565b93505060206113e4868287016112c1565b92505060406113f5868287016112f7565b9150509250925092565b600060ff82169050919050565b611415816113ff565b82525050565b6000602082019050611430600083018461140c565b92915050565b60006020828403121561144c5761144b611273565b5b600061145a848285016112f7565b91505092915050565b6000819050919050565b600061148861148361147e84611278565b611463565b611278565b9050919050565b600061149a8261146d565b9050919050565b60006114ac8261148f565b9050919050565b6114bc816114a1565b82525050565b60006020820190506114d760008301846114b3565b92915050565b6000602082840312156114f3576114f2611273565b5b6000611501848285016112c1565b91505092915050565b61151381611298565b82525050565b600060208201905061152e600083018461150a565b92915050565b6000806040838503121561154b5761154a611273565b5b6000611559858286016112c1565b925050602061156a858286016112c1565b9150509250929050565b7f4e487b7100000000000000000000000000000000000000000000000000000000600052602260045260246000fd5b600060028204905060018216806115bb57607f821691505b6020821081036115ce576115cd611574565b5b50919050565b7f416d6f756e74206d7573742062652067726561746572207468616e207a65726f600082015250565b600061160a6020836111cc565b9150611615826115d4565b602082019050919050565b60006020820190508181036000830152611639816115fd565b9050919050565b7f496e73756666696369656e742062616c616e6365000000000000000000000000600082015250565b60006116766014836111cc565b915061168182611640565b602082019050919050565b600060208201905081810360008301526116a581611669565b9050919050565b7f4f6e6c7920656967656e20636f6e74726163742063616e2063616c6c2074686960008201527f732066756e6374696f6e00000000000000000000000000000000000000000000602082015250565b6000611708602a836111cc565b9150611713826116ac565b604082019050919050565b60006020820190508181036000830152611737816116fb565b9050919050565b6000606082019050611753600083018661150a565b6117606020830185611382565b61176d6040830184611382565b949350505050565b7f4e487b7100000000000000000000000000000000000000000000000000000000600052601160045260246000fd5b60006117af826112d6565b91506117ba836112d6565b92508282019050808211156117d2576117d1611775565b5b9291505056fea2646970667358221220ecdbba2225f8a7c0be3a67165fd3bbad9807ea447e94237a7b6bed0461a111cd64736f6c63430008140033",
  "linkReferences": {},
  "deployedLinkReferences": {}
}