{
  "_format": "hh-sol-artifact-1",
  "contractName": "LST",
  "sourceName": "contracts/LST.sol",
  "abi": [
    {
      "inputs": [
        {
          "internalType": "string",
          "name": "name",
          "type": "string"
        },
        {
          "internalType": "string",
          "name": "symbol",
          "type": "string"
        }
      ],
      "stateMutability": "nonpayable",
      "type": "constructor"
    },
    {
      "inputs": [
        {
          "internalType": "address",
          "name": "spender",
          "type": "address"
        },
        {
          "internalType": "uint256",
          "name": "allowance",
          "type": "uint256"
        },
        {
          "internalType": "uint256",
          "name": "needed",
          "type": "uint256"
        }
      ],
      "name": "ERC20InsufficientAllowance",
      "type": "error"
    },
    {
      "inputs": [
        {
          "internalType": "address",
          "name": "sender",
          "type": "address"
        },
        {
          "internalType": "uint256",
          "name": "balance",
          "type": "uint256"
        },
        {
          "internalType": "uint256",
          "name": "needed",
          "type": "uint256"
        }
      ],
      "name": "ERC20InsufficientBalance",
      "type": "error"
    },
    {
      "inputs": [
        {
          "internalType": "address",
          "name": "approver",
          "type": "address"
        }
      ],
      "name": "ERC20InvalidApprover",
      "type": "error"
    },
    {
      "inputs": [
        {
          "internalType": "address",
          "name": "receiver",
          "type": "address"
        }
      ],
      "name": "ERC20InvalidReceiver",
      "type": "error"
    },
    {
      "inputs": [
        {
          "internalType": "address",
          "name": "sender",
          "type": "address"
        }
      ],
      "name": "ERC20InvalidSender",
      "type": "error"
    },
    {
      "inputs": [
        {
          "internalType": "address",
          "name": "spender",
          "type": "address"
        }
      ],
      "name": "ERC20InvalidSpender",
      "type": "error"
    },
    {
      "inputs": [
        {
          "internalType": "address",
          "name": "owner",
          "type": "address"
        }
      ],
      "name": "OwnableInvalidOwner",
      "type": "error"
    },
    {
      "inputs": [
        {
          "internalType": "address",
          "name": "account",
          "type": "address"
        }
      ],
      "name": "OwnableUnauthorizedAccount",
      "type": "error"
    },
    {
      "anonymous": false,
      "inputs": [
        {
          "indexed": true,
          "internalType": "address",
          "name": "owner",
          "type": "address"
        },
        {
          "indexed": true,
          "internalType": "address",
          "name": "spender",
          "type": "address"
        },
        {
          "indexed": false,
          "internalType": "uint256",
          "name": "value",
          "type": "uint256"
        }
      ],
      "name": "Approval",
      "type": "event"
    },
    {
      "anonymous": false,
      "inputs": [
        {
          "indexed": true,
          "internalType": "address",
          "name": "previousOwner",
          "type": "address"
        },
        {
          "indexed": true,
          "internalType": "address",
          "name": "newOwner",
          "type": "address"
        }
      ],
      "name": "OwnershipTransferred",
      "type": "event"
    },
    {
      "anonymous": false,
      "inputs": [
        {
          "indexed": true,
          "internalType": "address",
          "name": "from",
          "type": "address"
        },
        {
          "indexed": false,
          "internalType": "uint256",
          "name": "amount",
          "type": "uint256"
        }
      ],
      "name": "TokensBurned",
      "type": "event"
    },
    {
      "anonymous": false,
      "inputs": [
        {
          "indexed": true,
          "internalType": "address",
          "name": "to",
          "type": "address"
        },
        {
          "indexed": false,
          "internalType": "uint256",
          "name": "amount",
          "type": "uint256"
        }
      ],
      "name": "TokensMinted",
      "type": "event"
    },
    {
      "anonymous": false,
      "inputs": [
        {
          "indexed": true,
          "internalType": "address",
          "name": "from",
          "type": "address"
        },
        {
          "indexed": true,
          "internalType": "address",
          "name": "to",
          "type": "address"
        },
        {
          "indexed": false,
          "internalType": "uint256",
          "name": "value",
          "type": "uint256"
        }
      ],
      "name": "Transfer",
      "type": "event"
    },
    {
      "inputs": [
        {
          "internalType": "address",
          "name": "owner",
          "type": "address"
        },
        {
          "internalType": "address",
          "name": "spender",
          "type": "address"
        }
      ],
      "name": "allowance",
      "outputs": [
        {
          "internalType": "uint256",
          "name": "",
          "type": "uint256"
        }
      ],
      "stateMutability": "view",
      "type": "function"
    },
    {
      "inputs": [
        {
          "internalType": "address",
          "name": "spender",
          "type": "address"
        },
        {
          "internalType": "uint256",
          "name": "value",
          "type": "uint256"
        }
      ],
      "name": "approve",
      "outputs": [
        {
          "internalType": "bool",
          "name": "",
          "type": "bool"
        }
      ],
      "stateMutability": "nonpayable",
      "type": "function"
    },
    {
      "inputs": [
        {
          "internalType": "address",
          "name": "account",
          "type": "address"
        }
      ],
      "name": "balanceOf",
      "outputs": [
        {
          "internalType": "uint256",
          "name": "",
          "type": "uint256"
        }
      ],
      "stateMutability": "view",
      "type": "function"
    },
    {
      "inputs": [
        {
          "internalType": "uint256",
          "name": "amount",
          "type": "uint256"
        }
      ],
      "name": "burn",
      "outputs": [],
      "stateMutability": "nonpayable",
      "type": "function"
    },
    {
      "inputs": [
        {
          "internalType": "uint256",
          "name": "amount",
          "type": "uint256"
        }
      ],
      "name": "convertToUSDCAndSendToPUSD",
      "outputs": [],
      "stateMutability": "nonpayable",
      "type": "function"
    },
    {
      "inputs": [],
      "name": "decimals",
      "outputs": [
        {
          "internalType": "uint8",
          "name": "",
          "type": "uint8"
        }
      ],
      "stateMutability": "pure",
      "type": "function"
    },
    {
      "inputs": [],
      "name": "eigen",
      "outputs": [
        {
          "internalType": "contract Eigen",
          "name": "",
          "type": "address"
        }
      ],
      "stateMutability": "view",
      "type": "function"
    },
    {
      "inputs": [
        {
          "internalType": "uint256",
          "name": "amount",
          "type": "uint256"
        }
      ],
      "name": "mint",
      "outputs": [],
      "stateMutability": "nonpayable",
      "type": "function"
    },
    {
      "inputs": [],
      "name": "name",
      "outputs": [
        {
          "internalType": "string",
          "name": "",
          "type": "string"
        }
      ],
      "stateMutability": "view",
      "type": "function"
    },
    {
      "inputs": [],
      "name": "owner",
      "outputs": [
        {
          "internalType": "address",
          "name": "",
          "type": "address"
        }
      ],
      "stateMutability": "view",
      "type": "function"
    },
    {
      "inputs": [],
      "name": "pusd",
      "outputs": [
        {
          "internalType": "contract PUSD",
          "name": "",
          "type": "address"
        }
      ],
      "stateMutability": "view",
      "type": "function"
    },
    {
      "inputs": [],
      "name": "renounceOwnership",
      "outputs": [],
      "stateMutability": "nonpayable",
      "type": "function"
    },
    {
      "inputs": [
        {
          "internalType": "address",
          "name": "_eigenAddress",
          "type": "address"
        }
      ],
      "name": "setEigenAddress",
      "outputs": [],
      "stateMutability": "nonpayable",
      "type": "function"
    },
    {
      "inputs": [
        {
          "internalType": "address",
          "name": "_pusdAddress",
          "type": "address"
        }
      ],
      "name": "setPUSDAddress",
      "outputs": [],
      "stateMutability": "nonpayable",
      "type": "function"
    },
    {
      "inputs": [
        {
          "internalType": "address",
          "name": "_usdcAddress",
          "type": "address"
        }
      ],
      "name": "setUSDCAddress",
      "outputs": [],
      "stateMutability": "nonpayable",
      "type": "function"
    },
    {
      "inputs": [],
      "name": "symbol",
      "outputs": [
        {
          "internalType": "string",
          "name": "",
          "type": "string"
        }
      ],
      "stateMutability": "view",
      "type": "function"
    },
    {
      "inputs": [],
      "name": "totalSupply",
      "outputs": [
        {
          "internalType": "uint256",
          "name": "",
          "type": "uint256"
        }
      ],
      "stateMutability": "view",
      "type": "function"
    },
    {
      "inputs": [
        {
          "internalType": "address",
          "name": "to",
          "type": "address"
        },
        {
          "internalType": "uint256",
          "name": "value",
          "type": "uint256"
        }
      ],
      "name": "transfer",
      "outputs": [
        {
          "internalType": "bool",
          "name": "",
          "type": "bool"
        }
      ],
      "stateMutability": "nonpayable",
      "type": "function"
    },
    {
      "inputs": [
        {
          "internalType": "address",
          "name": "from",
          "type": "address"
        },
        {
          "internalType": "address",
          "name": "to",
          "type": "address"
        },
        {
          "internalType": "uint256",
          "name": "value",
          "type": "uint256"
        }
      ],
      "name": "transferFrom",
      "outputs": [
        {
          "internalType": "bool",
          "name": "",
          "type": "bool"
        }
      ],
      "stateMutability": "nonpayable",
      "type": "function"
    },
    {
      "inputs": [
        {
          "internalType": "address",
          "name": "newOwner",
          "type": "address"
        }
      ],
      "name": "transferOwnership",
      "outputs": [],
      "stateMutability": "nonpayable",
      "type": "function"
    },
    {
      "inputs": [
        {
          "internalType": "address",
          "name": "account",
          "type": "address"
        },
        {
          "internalType": "uint256",
          "name": "amount",
          "type": "uint256"
        }
      ],
      "name": "transferToEigen",
      "outputs": [],
      "stateMutability": "nonpayable",
      "type": "function"
    },
    {
      "inputs": [],
      "name": "usdc",
      "outputs": [
        {
          "internalType": "contract USDC",
          "name": "",
          "type": "address"
        }
      ],
      "stateMutability": "view",
      "type": "function"
    }
  ],
  "bytecode": "0x60806040523480156200001157600080fd5b50604051620026d9380380620026d98339818101604052810190620000379190620003b2565b336040518060400160405280601481526020017f4c6971756964205374616b696e6720546f6b656e0000000000000000000000008152506040518060400160405280600381526020017f4c535400000000000000000000000000000000000000000000000000000000008152508160039081620000b5919062000682565b508060049081620000c7919062000682565b505050600073ffffffffffffffffffffffffffffffffffffffff168173ffffffffffffffffffffffffffffffffffffffff16036200013f5760006040517f1e4fbdf7000000000000000000000000000000000000000000000000000000008152600401620001369190620007ae565b60405180910390fd5b62000150816200015960201b60201c565b505050620007cb565b6000600560009054906101000a900473ffffffffffffffffffffffffffffffffffffffff16905081600560006101000a81548173ffffffffffffffffffffffffffffffffffffffff021916908373ffffffffffffffffffffffffffffffffffffffff1602179055508173ffffffffffffffffffffffffffffffffffffffff168173ffffffffffffffffffffffffffffffffffffffff167f8be0079c531659141344cd1fd0a4f28419497f9722a3daafe3b4186f6b6457e060405160405180910390a35050565b6000604051905090565b600080fd5b600080fd5b600080fd5b600080fd5b6000601f19601f8301169050919050565b7f4e487b7100000000000000000000000000000000000000000000000000000000600052604160045260246000fd5b62000288826200023d565b810181811067ffffffffffffffff82111715620002aa57620002a96200024e565b5b80604052505050565b6000620002bf6200021f565b9050620002cd82826200027d565b919050565b600067ffffffffffffffff821115620002f057620002ef6200024e565b5b620002fb826200023d565b9050602081019050919050565b60005b83811015620003285780820151818401526020810190506200030b565b60008484015250505050565b60006200034b6200034584620002d2565b620002b3565b9050828152602081018484840111156200036a576200036962000238565b5b6200037784828562000308565b509392505050565b600082601f83011262000397576200039662000233565b5b8151620003a984826020860162000334565b91505092915050565b60008060408385031215620003cc57620003cb62000229565b5b600083015167ffffffffffffffff811115620003ed57620003ec6200022e565b5b620003fb858286016200037f565b925050602083015167ffffffffffffffff8111156200041f576200041e6200022e565b5b6200042d858286016200037f565b9150509250929050565b600081519050919050565b7f4e487b7100000000000000000000000000000000000000000000000000000000600052602260045260246000fd5b600060028204905060018216806200048a57607f821691505b602082108103620004a0576200049f62000442565b5b50919050565b60008190508160005260206000209050919050565b60006020601f8301049050919050565b600082821b905092915050565b6000600883026200050a7fffffffffffffffffffffffffffffffffffffffffffffffffffffffffffffffff82620004cb565b620005168683620004cb565b95508019841693508086168417925050509392505050565b6000819050919050565b6000819050919050565b6000620005636200055d62000557846200052e565b62000538565b6200052e565b9050919050565b6000819050919050565b6200057f8362000542565b620005976200058e826200056a565b848454620004d8565b825550505050565b600090565b620005ae6200059f565b620005bb81848462000574565b505050565b5b81811015620005e357620005d7600082620005a4565b600181019050620005c1565b5050565b601f8211156200063257620005fc81620004a6565b6200060784620004bb565b8101602085101562000617578190505b6200062f6200062685620004bb565b830182620005c0565b50505b505050565b600082821c905092915050565b6000620006576000198460080262000637565b1980831691505092915050565b600062000672838362000644565b9150826002028217905092915050565b6200068d8262000437565b67ffffffffffffffff811115620006a957620006a86200024e565b5b620006b5825462000471565b620006c2828285620005e7565b600060209050601f831160018114620006fa5760008415620006e5578287015190505b620006f1858262000664565b86555062000761565b601f1984166200070a86620004a6565b60005b8281101562000734578489015182556001820191506020850194506020810190506200070d565b8683101562000754578489015162000750601f89168262000644565b8355505b6001600288020188555050505b505050505050565b600073ffffffffffffffffffffffffffffffffffffffff82169050919050565b6000620007968262000769565b9050919050565b620007a88162000789565b82525050565b6000602082019050620007c560008301846200079d565b92915050565b611efe80620007db6000396000f3fe608060405234801561001057600080fd5b50600436106101425760003560e01c8063715018a6116100b8578063aaf5bfc31161007c578063aaf5bfc314610353578063b211ad9b1461036f578063bdc99b631461038d578063dd62ed3e146103a9578063f2fde38b146103d9578063f5dbe1a8146103f557610142565b8063715018a6146102c15780638da5cb5b146102cb57806395d89b41146102e9578063a0712d6814610307578063a9059cbb1461032357610142565b8063313ce5671161010a578063313ce567146101ff5780633e413bee1461021d57806342966c681461023b578063661a081e14610257578063677c0c671461027357806370a082311461029157610142565b806306fdde0314610147578063095ea7b31461016557806318160ddd1461019557806323b872dd146101b357806324156d22146101e3575b600080fd5b61014f610411565b60405161015c919061172c565b60405180910390f35b61017f600480360381019061017a91906117e7565b6104a3565b60405161018c9190611842565b60405180910390f35b61019d6104c6565b6040516101aa919061186c565b60405180910390f35b6101cd60048036038101906101c89190611887565b6104d0565b6040516101da9190611842565b60405180910390f35b6101fd60048036038101906101f891906118da565b6104ff565b005b61020761082f565b6040516102149190611923565b60405180910390f35b610225610838565b604051610232919061199d565b60405180910390f35b610255600480360381019061025091906118da565b61085e565b005b610271600480360381019061026c91906117e7565b610947565b005b61027b610a96565b60405161028891906119d9565b60405180910390f35b6102ab60048036038101906102a691906119f4565b610abc565b6040516102b8919061186c565b60405180910390f35b6102c9610b04565b005b6102d3610b18565b6040516102e09190611a30565b60405180910390f35b6102f1610b42565b6040516102fe919061172c565b60405180910390f35b610321600480360381019061031c91906118da565b610bd4565b005b61033d600480360381019061033891906117e7565b610c72565b60405161034a9190611842565b60405180910390f35b61036d600480360381019061036891906119f4565b610c95565b005b610377610ce1565b6040516103849190611a6c565b60405180910390f35b6103a760048036038101906103a291906119f4565b610d07565b005b6103c360048036038101906103be9190611a87565b610d53565b6040516103d0919061186c565b60405180910390f35b6103f360048036038101906103ee91906119f4565b610dda565b005b61040f600480360381019061040a91906119f4565b610e60565b005b60606003805461042090611af6565b80601f016020809104026020016040519081016040528092919081815260200182805461044c90611af6565b80156104995780601f1061046e57610100808354040283529160200191610499565b820191906000526020600020905b81548152906001019060200180831161047c57829003601f168201915b5050505050905090565b6000806104ae610eac565b90506104bb818585610eb4565b600191505092915050565b6000600254905090565b6000806104db610eac565b90506104e8858285610ec6565b6104f3858585610f5b565b60019150509392505050565b600660009054906101000a900473ffffffffffffffffffffffffffffffffffffffff1673ffffffffffffffffffffffffffffffffffffffff163373ffffffffffffffffffffffffffffffffffffffff161461058f576040517f08c379a000000000000000000000000000000000000000000000000000000000815260040161058690611b99565b60405180910390fd5b600081116105d2576040517f08c379a00000000000000000000000000000000000000000000000000000000081526004016105c990611c05565b60405180910390fd5b806105dc33610abc565b101561061d576040517f08c379a000000000000000000000000000000000000000000000000000000000815260040161061490611c71565b60405180910390fd5b600073ffffffffffffffffffffffffffffffffffffffff16600860009054906101000a900473ffffffffffffffffffffffffffffffffffffffff1673ffffffffffffffffffffffffffffffffffffffff16036106ae576040517f08c379a00000000000000000000000000000000000000000000000000000000081526004016106a590611cdd565b60405180910390fd5b600073ffffffffffffffffffffffffffffffffffffffff16600760009054906101000a900473ffffffffffffffffffffffffffffffffffffffff1673ffffffffffffffffffffffffffffffffffffffff160361073f576040517f08c379a000000000000000000000000000000000000000000000000000000000815260040161073690611d49565b60405180910390fd5b610749338261104f565b6000600860009054906101000a900473ffffffffffffffffffffffffffffffffffffffff1673ffffffffffffffffffffffffffffffffffffffff166335d9fc4c836040518263ffffffff1660e01b81526004016107a6919061186c565b6020604051808303816000875af11580156107c5573d6000803e3d6000fd5b505050506040513d601f19601f820116820180604052508101906107e99190611d95565b90508061082b576040517f08c379a000000000000000000000000000000000000000000000000000000000815260040161082290611e0e565b60405180910390fd5b5050565b60006012905090565b600760009054906101000a900473ffffffffffffffffffffffffffffffffffffffff1681565b600081116108a1576040517f08c379a000000000000000000000000000000000000000000000000000000000815260040161089890611c05565b60405180910390fd5b806108ab33610abc565b10156108ec576040517f08c379a00000000000000000000000000000000000000000000000000000000081526004016108e390611c71565b60405180910390fd5b6108f6338261104f565b3373ffffffffffffffffffffffffffffffffffffffff167ffd38818f5291bf0bb3a2a48aadc06ba8757865d1dabd804585338aab3009dcb68260405161093c919061186c565b60405180910390a250565b600660009054906101000a900473ffffffffffffffffffffffffffffffffffffffff1673ffffffffffffffffffffffffffffffffffffffff163373ffffffffffffffffffffffffffffffffffffffff16146109d7576040517f08c379a00000000000000000000000000000000000000000000000000000000081526004016109ce90611b99565b60405180910390fd5b60008111610a1a576040517f08c379a0000000000000000000000000000000000000000000000000000000008152600401610a1190611c05565b60405180910390fd5b80610a2483610abc565b1015610a65576040517f08c379a0000000000000000000000000000000000000000000000000000000008152600401610a5c90611c71565b60405180910390fd5b610a9282600660009054906101000a900473ffffffffffffffffffffffffffffffffffffffff1683610f5b565b5050565b600660009054906101000a900473ffffffffffffffffffffffffffffffffffffffff1681565b60008060008373ffffffffffffffffffffffffffffffffffffffff1673ffffffffffffffffffffffffffffffffffffffff168152602001908152602001600020549050919050565b610b0c6110d1565b610b166000611158565b565b6000600560009054906101000a900473ffffffffffffffffffffffffffffffffffffffff16905090565b606060048054610b5190611af6565b80601f0160208091040260200160405190810160405280929190818152602001828054610b7d90611af6565b8015610bca5780601f10610b9f57610100808354040283529160200191610bca565b820191906000526020600020905b815481529060010190602001808311610bad57829003601f168201915b5050505050905090565b60008111610c17576040517f08c379a0000000000000000000000000000000000000000000000000000000008152600401610c0e90611c05565b60405180910390fd5b610c21338261121e565b3373ffffffffffffffffffffffffffffffffffffffff167f3f2c9d57c068687834f0de942a9babb9e5acab57d516d3480a3c16ee165a427382604051610c67919061186c565b60405180910390a250565b600080610c7d610eac565b9050610c8a818585610f5b565b600191505092915050565b610c9d6110d1565b80600760006101000a81548173ffffffffffffffffffffffffffffffffffffffff021916908373ffffffffffffffffffffffffffffffffffffffff16021790555050565b600860009054906101000a900473ffffffffffffffffffffffffffffffffffffffff1681565b610d0f6110d1565b80600660006101000a81548173ffffffffffffffffffffffffffffffffffffffff021916908373ffffffffffffffffffffffffffffffffffffffff16021790555050565b6000600160008473ffffffffffffffffffffffffffffffffffffffff1673ffffffffffffffffffffffffffffffffffffffff16815260200190815260200160002060008373ffffffffffffffffffffffffffffffffffffffff1673ffffffffffffffffffffffffffffffffffffffff16815260200190815260200160002054905092915050565b610de26110d1565b600073ffffffffffffffffffffffffffffffffffffffff168173ffffffffffffffffffffffffffffffffffffffff1603610e545760006040517f1e4fbdf7000000000000000000000000000000000000000000000000000000008152600401610e4b9190611a30565b60405180910390fd5b610e5d81611158565b50565b610e686110d1565b80600860006101000a81548173ffffffffffffffffffffffffffffffffffffffff021916908373ffffffffffffffffffffffffffffffffffffffff16021790555050565b600033905090565b610ec183838360016112a0565b505050565b6000610ed28484610d53565b90507fffffffffffffffffffffffffffffffffffffffffffffffffffffffffffffffff811015610f555781811015610f45578281836040517ffb8f41b2000000000000000000000000000000000000000000000000000000008152600401610f3c93929190611e2e565b60405180910390fd5b610f54848484840360006112a0565b5b50505050565b600073ffffffffffffffffffffffffffffffffffffffff168373ffffffffffffffffffffffffffffffffffffffff1603610fcd5760006040517f96c6fd1e000000000000000000000000000000000000000000000000000000008152600401610fc49190611a30565b60405180910390fd5b600073ffffffffffffffffffffffffffffffffffffffff168273ffffffffffffffffffffffffffffffffffffffff160361103f5760006040517fec442f050000000000000000000000000000000000000000000000000000000081526004016110369190611a30565b60405180910390fd5b61104a838383611477565b505050565b600073ffffffffffffffffffffffffffffffffffffffff168273ffffffffffffffffffffffffffffffffffffffff16036110c15760006040517f96c6fd1e0000000000000000000000000000000000000000000000000000000081526004016110b89190611a30565b60405180910390fd5b6110cd82600083611477565b5050565b6110d9610eac565b73ffffffffffffffffffffffffffffffffffffffff166110f7610b18565b73ffffffffffffffffffffffffffffffffffffffff16146111565761111a610eac565b6040517f118cdaa700000000000000000000000000000000000000000000000000000000815260040161114d9190611a30565b60405180910390fd5b565b6000600560009054906101000a900473ffffffffffffffffffffffffffffffffffffffff16905081600560006101000a81548173ffffffffffffffffffffffffffffffffffffffff021916908373ffffffffffffffffffffffffffffffffffffffff1602179055508173ffffffffffffffffffffffffffffffffffffffff168173ffffffffffffffffffffffffffffffffffffffff167f8be0079c531659141344cd1fd0a4f28419497f9722a3daafe3b4186f6b6457e060405160405180910390a35050565b600073ffffffffffffffffffffffffffffffffffffffff168273ffffffffffffffffffffffffffffffffffffffff16036112905760006040517fec442f050000000000000000000000000000000000000000000000000000000081526004016112879190611a30565b60405180910390fd5b61129c60008383611477565b5050565b600073ffffffffffffffffffffffffffffffffffffffff168473ffffffffffffffffffffffffffffffffffffffff16036113125760006040517fe602df050000000000000000000000000000000000000000000000000000000081526004016113099190611a30565b60405180910390fd5b600073ffffffffffffffffffffffffffffffffffffffff168373ffffffffffffffffffffffffffffffffffffffff16036113845760006040517f94280d6200000000000000000000000000000000000000000000000000000000815260040161137b9190611a30565b60405180910390fd5b81600160008673ffffffffffffffffffffffffffffffffffffffff1673ffffffffffffffffffffffffffffffffffffffff16815260200190815260200160002060008573ffffffffffffffffffffffffffffffffffffffff1673ffffffffffffffffffffffffffffffffffffffff168152602001908152602001600020819055508015611471578273ffffffffffffffffffffffffffffffffffffffff168473ffffffffffffffffffffffffffffffffffffffff167f8c5be1e5ebec7d5bd14f71427d1e84f3dd0314c0f7b2291e5b200ac8c7c3b92584604051611468919061186c565b60405180910390a35b50505050565b600073ffffffffffffffffffffffffffffffffffffffff168373ffffffffffffffffffffffffffffffffffffffff16036114c95780600260008282546114bd9190611e94565b9250508190555061159c565b60008060008573ffffffffffffffffffffffffffffffffffffffff1673ffffffffffffffffffffffffffffffffffffffff16815260200190815260200160002054905081811015611555578381836040517fe450d38c00000000000000000000000000000000000000000000000000000000815260040161154c93929190611e2e565b60405180910390fd5b8181036000808673ffffffffffffffffffffffffffffffffffffffff1673ffffffffffffffffffffffffffffffffffffffff16815260200190815260200160002081905550505b600073ffffffffffffffffffffffffffffffffffffffff168273ffffffffffffffffffffffffffffffffffffffff16036115e55780600260008282540392505081905550611632565b806000808473ffffffffffffffffffffffffffffffffffffffff1673ffffffffffffffffffffffffffffffffffffffff168152602001908152602001600020600082825401925050819055505b8173ffffffffffffffffffffffffffffffffffffffff168373ffffffffffffffffffffffffffffffffffffffff167fddf252ad1be2c89b69c2b068fc378daa952ba7f163c4a11628f55a4df523b3ef8360405161168f919061186c565b60405180910390a3505050565b600081519050919050565b600082825260208201905092915050565b60005b838110156116d65780820151818401526020810190506116bb565b60008484015250505050565b6000601f19601f8301169050919050565b60006116fe8261169c565b61170881856116a7565b93506117188185602086016116b8565b611721816116e2565b840191505092915050565b6000602082019050818103600083015261174681846116f3565b905092915050565b600080fd5b600073ffffffffffffffffffffffffffffffffffffffff82169050919050565b600061177e82611753565b9050919050565b61178e81611773565b811461179957600080fd5b50565b6000813590506117ab81611785565b92915050565b6000819050919050565b6117c4816117b1565b81146117cf57600080fd5b50565b6000813590506117e1816117bb565b92915050565b600080604083850312156117fe576117fd61174e565b5b600061180c8582860161179c565b925050602061181d858286016117d2565b9150509250929050565b60008115159050919050565b61183c81611827565b82525050565b60006020820190506118576000830184611833565b92915050565b611866816117b1565b82525050565b6000602082019050611881600083018461185d565b92915050565b6000806000606084860312156118a05761189f61174e565b5b60006118ae8682870161179c565b93505060206118bf8682870161179c565b92505060406118d0868287016117d2565b9150509250925092565b6000602082840312156118f0576118ef61174e565b5b60006118fe848285016117d2565b91505092915050565b600060ff82169050919050565b61191d81611907565b82525050565b60006020820190506119386000830184611914565b92915050565b6000819050919050565b600061196361195e61195984611753565b61193e565b611753565b9050919050565b600061197582611948565b9050919050565b60006119878261196a565b9050919050565b6119978161197c565b82525050565b60006020820190506119b2600083018461198e565b92915050565b60006119c38261196a565b9050919050565b6119d3816119b8565b82525050565b60006020820190506119ee60008301846119ca565b92915050565b600060208284031215611a0a57611a0961174e565b5b6000611a188482850161179c565b91505092915050565b611a2a81611773565b82525050565b6000602082019050611a456000830184611a21565b92915050565b6000611a568261196a565b9050919050565b611a6681611a4b565b82525050565b6000602082019050611a816000830184611a5d565b92915050565b60008060408385031215611a9e57611a9d61174e565b5b6000611aac8582860161179c565b9250506020611abd8582860161179c565b9150509250929050565b7f4e487b7100000000000000000000000000000000000000000000000000000000600052602260045260246000fd5b60006002820490506001821680611b0e57607f821691505b602082108103611b2157611b20611ac7565b5b50919050565b7f4f6e6c7920656967656e20636f6e74726163742063616e2063616c6c2074686960008201527f732066756e6374696f6e00000000000000000000000000000000000000000000602082015250565b6000611b83602a836116a7565b9150611b8e82611b27565b604082019050919050565b60006020820190508181036000830152611bb281611b76565b9050919050565b7f416d6f756e74206d7573742062652067726561746572207468616e207a65726f600082015250565b6000611bef6020836116a7565b9150611bfa82611bb9565b602082019050919050565b60006020820190508181036000830152611c1e81611be2565b9050919050565b7f496e73756666696369656e742062616c616e6365000000000000000000000000600082015250565b6000611c5b6014836116a7565b9150611c6682611c25565b602082019050919050565b60006020820190508181036000830152611c8a81611c4e565b9050919050565b7f5055534420636f6e7472616374206e6f74207365740000000000000000000000600082015250565b6000611cc76015836116a7565b9150611cd282611c91565b602082019050919050565b60006020820190508181036000830152611cf681611cba565b9050919050565b7f5553444320636f6e7472616374206e6f74207365740000000000000000000000600082015250565b6000611d336015836116a7565b9150611d3e82611cfd565b602082019050919050565b60006020820190508181036000830152611d6281611d26565b9050919050565b611d7281611827565b8114611d7d57600080fd5b50565b600081519050611d8f81611d69565b92915050565b600060208284031215611dab57611daa61174e565b5b6000611db984828501611d80565b91505092915050565b7f5055534420636f6e76657273696f6e206661696c656400000000000000000000600082015250565b6000611df86016836116a7565b9150611e0382611dc2565b602082019050919050565b60006020820190508181036000830152611e2781611deb565b9050919050565b6000606082019050611e436000830186611a21565b611e50602083018561185d565b611e5d604083018461185d565b949350505050565b7f4e487b7100000000000000000000000000000000000000000000000000000000600052601160045260246000fd5b6000611e9f826117b1565b9150611eaa836117b1565b9250828201905080821115611ec257611ec1611e65565b5b9291505056fea2646970667358221220ad7c444b2ed53d11fc213e2214cd9e4b2d21ee03b8f4488218b1e56ada18347664736f6c63430008140033",
  "linkReferences": {},
  "deployedLinkReferences": {}
}