{
  "_format": "hh-sol-artifact-1",
  "contractName": "LST",
  "sourceName": "contracts/LST.sol",
  "abi": [
    {
      "inputs": [
        {
          "internalType": "string",
          "name": "name",
          "type": "string"
        },
        {
          "internalType": "string",
          "name": "symbol",
          "type": "string"
        }
      ],
      "stateMutability": "nonpayable",
      "type": "constructor"
    },
    {
      "inputs": [
        {
          "internalType": "address",
          "name": "spender",
          "type": "address"
        },
        {
          "internalType": "uint256",
          "name": "allowance",
          "type": "uint256"
        },
        {
          "internalType": "uint256",
          "name": "needed",
          "type": "uint256"
        }
      ],
      "name": "ERC20InsufficientAllowance",
      "type": "error"
    },
    {
      "inputs": [
        {
          "internalType": "address",
          "name": "sender",
          "type": "address"
        },
        {
          "internalType": "uint256",
          "name": "balance",
          "type": "uint256"
        },
        {
          "internalType": "uint256",
          "name": "needed",
          "type": "uint256"
        }
      ],
      "name": "ERC20InsufficientBalance",
      "type": "error"
    },
    {
      "inputs": [
        {
          "internalType": "address",
          "name": "approver",
          "type": "address"
        }
      ],
      "name": "ERC20InvalidApprover",
      "type": "error"
    },
    {
      "inputs": [
        {
          "internalType": "address",
          "name": "receiver",
          "type": "address"
        }
      ],
      "name": "ERC20InvalidReceiver",
      "type": "error"
    },
    {
      "inputs": [
        {
          "internalType": "address",
          "name": "sender",
          "type": "address"
        }
      ],
      "name": "ERC20InvalidSender",
      "type": "error"
    },
    {
      "inputs": [
        {
          "internalType": "address",
          "name": "spender",
          "type": "address"
        }
      ],
      "name": "ERC20InvalidSpender",
      "type": "error"
    },
    {
      "inputs": [
        {
          "internalType": "address",
          "name": "owner",
          "type": "address"
        }
      ],
      "name": "OwnableInvalidOwner",
      "type": "error"
    },
    {
      "inputs": [
        {
          "internalType": "address",
          "name": "account",
          "type": "address"
        }
      ],
      "name": "OwnableUnauthorizedAccount",
      "type": "error"
    },
    {
      "anonymous": false,
      "inputs": [
        {
          "indexed": true,
          "internalType": "address",
          "name": "owner",
          "type": "address"
        },
        {
          "indexed": true,
          "internalType": "address",
          "name": "spender",
          "type": "address"
        },
        {
          "indexed": false,
          "internalType": "uint256",
          "name": "value",
          "type": "uint256"
        }
      ],
      "name": "Approval",
      "type": "event"
    },
    {
      "anonymous": false,
      "inputs": [
        {
          "indexed": true,
          "internalType": "address",
          "name": "previousOwner",
          "type": "address"
        },
        {
          "indexed": true,
          "internalType": "address",
          "name": "newOwner",
          "type": "address"
        }
      ],
      "name": "OwnershipTransferred",
      "type": "event"
    },
    {
      "anonymous": false,
      "inputs": [
        {
          "indexed": true,
          "internalType": "address",
          "name": "from",
          "type": "address"
        },
        {
          "indexed": false,
          "internalType": "uint256",
          "name": "amount",
          "type": "uint256"
        }
      ],
      "name": "TokensBurned",
      "type": "event"
    },
    {
      "anonymous": false,
      "inputs": [
        {
          "indexed": true,
          "internalType": "address",
          "name": "to",
          "type": "address"
        },
        {
          "indexed": false,
          "internalType": "uint256",
          "name": "amount",
          "type": "uint256"
        }
      ],
      "name": "TokensMinted",
      "type": "event"
    },
    {
      "anonymous": false,
      "inputs": [
        {
          "indexed": true,
          "internalType": "address",
          "name": "from",
          "type": "address"
        },
        {
          "indexed": true,
          "internalType": "address",
          "name": "to",
          "type": "address"
        },
        {
          "indexed": false,
          "internalType": "uint256",
          "name": "value",
          "type": "uint256"
        }
      ],
      "name": "Transfer",
      "type": "event"
    },
    {
      "inputs": [
        {
          "internalType": "address",
          "name": "owner",
          "type": "address"
        },
        {
          "internalType": "address",
          "name": "spender",
          "type": "address"
        }
      ],
      "name": "allowance",
      "outputs": [
        {
          "internalType": "uint256",
          "name": "",
          "type": "uint256"
        }
      ],
      "stateMutability": "view",
      "type": "function"
    },
    {
      "inputs": [
        {
          "internalType": "address",
          "name": "spender",
          "type": "address"
        },
        {
          "internalType": "uint256",
          "name": "value",
          "type": "uint256"
        }
      ],
      "name": "approve",
      "outputs": [
        {
          "internalType": "bool",
          "name": "",
          "type": "bool"
        }
      ],
      "stateMutability": "nonpayable",
      "type": "function"
    },
    {
      "inputs": [
        {
          "internalType": "address",
          "name": "account",
          "type": "address"
        }
      ],
      "name": "balanceOf",
      "outputs": [
        {
          "internalType": "uint256",
          "name": "",
          "type": "uint256"
        }
      ],
      "stateMutability": "view",
      "type": "function"
    },
    {
      "inputs": [
        {
          "internalType": "uint256",
          "name": "amount",
          "type": "uint256"
        }
      ],
      "name": "burn",
      "outputs": [],
      "stateMutability": "nonpayable",
      "type": "function"
    },
    {
      "inputs": [
        {
          "internalType": "uint256",
          "name": "amount",
          "type": "uint256"
        }
      ],
      "name": "convertToUSDCAndSendToPUSD",
      "outputs": [],
      "stateMutability": "nonpayable",
      "type": "function"
    },
    {
      "inputs": [],
      "name": "decimals",
      "outputs": [
        {
          "internalType": "uint8",
          "name": "",
          "type": "uint8"
        }
      ],
      "stateMutability": "pure",
      "type": "function"
    },
    {
      "inputs": [],
      "name": "eigen",
      "outputs": [
        {
          "internalType": "contract Eigen",
          "name": "",
          "type": "address"
        }
      ],
      "stateMutability": "view",
      "type": "function"
    },
    {
      "inputs": [
        {
          "internalType": "uint256",
          "name": "amount",
          "type": "uint256"
        }
      ],
      "name": "mint",
      "outputs": [],
      "stateMutability": "nonpayable",
      "type": "function"
    },
    {
      "inputs": [],
      "name": "name",
      "outputs": [
        {
          "internalType": "string",
          "name": "",
          "type": "string"
        }
      ],
      "stateMutability": "view",
      "type": "function"
    },
    {
      "inputs": [],
      "name": "owner",
      "outputs": [
        {
          "internalType": "address",
          "name": "",
          "type": "address"
        }
      ],
      "stateMutability": "view",
      "type": "function"
    },
    {
      "inputs": [],
      "name": "renounceOwnership",
      "outputs": [],
      "stateMutability": "nonpayable",
      "type": "function"
    },
    {
      "inputs": [
        {
          "internalType": "address",
          "name": "_eigenAddress",
          "type": "address"
        }
      ],
      "name": "setEigenAddress",
      "outputs": [],
      "stateMutability": "nonpayable",
      "type": "function"
    },
    {
      "inputs": [
        {
          "internalType": "address",
          "name": "_usdcAddress",
          "type": "address"
        }
      ],
      "name": "setUSDCAddress",
      "outputs": [],
      "stateMutability": "nonpayable",
      "type": "function"
    },
    {
      "inputs": [],
      "name": "symbol",
      "outputs": [
        {
          "internalType": "string",
          "name": "",
          "type": "string"
        }
      ],
      "stateMutability": "view",
      "type": "function"
    },
    {
      "inputs": [],
      "name": "totalSupply",
      "outputs": [
        {
          "internalType": "uint256",
          "name": "",
          "type": "uint256"
        }
      ],
      "stateMutability": "view",
      "type": "function"
    },
    {
      "inputs": [
        {
          "internalType": "address",
          "name": "to",
          "type": "address"
        },
        {
          "internalType": "uint256",
          "name": "value",
          "type": "uint256"
        }
      ],
      "name": "transfer",
      "outputs": [
        {
          "internalType": "bool",
          "name": "",
          "type": "bool"
        }
      ],
      "stateMutability": "nonpayable",
      "type": "function"
    },
    {
      "inputs": [
        {
          "internalType": "address",
          "name": "from",
          "type": "address"
        },
        {
          "internalType": "address",
          "name": "to",
          "type": "address"
        },
        {
          "internalType": "uint256",
          "name": "value",
          "type": "uint256"
        }
      ],
      "name": "transferFrom",
      "outputs": [
        {
          "internalType": "bool",
          "name": "",
          "type": "bool"
        }
      ],
      "stateMutability": "nonpayable",
      "type": "function"
    },
    {
      "inputs": [
        {
          "internalType": "address",
          "name": "newOwner",
          "type": "address"
        }
      ],
      "name": "transferOwnership",
      "outputs": [],
      "stateMutability": "nonpayable",
      "type": "function"
    },
    {
      "inputs": [
        {
          "internalType": "address",
          "name": "account",
          "type": "address"
        },
        {
          "internalType": "uint256",
          "name": "amount",
          "type": "uint256"
        }
      ],
      "name": "transferToEigen",
      "outputs": [],
      "stateMutability": "nonpayable",
      "type": "function"
    },
    {
      "inputs": [],
      "name": "usdc",
      "outputs": [
        {
          "internalType": "contract USDC",
          "name": "",
          "type": "address"
        }
      ],
      "stateMutability": "view",
      "type": "function"
    }
  ],
  "bytecode": "0x60806040523480156200001157600080fd5b5060405162002236380380620022368339818101604052810190620000379190620003b2565b336040518060400160405280601481526020017f4c6971756964205374616b696e6720546f6b656e0000000000000000000000008152506040518060400160405280600381526020017f4c535400000000000000000000000000000000000000000000000000000000008152508160039081620000b5919062000682565b508060049081620000c7919062000682565b505050600073ffffffffffffffffffffffffffffffffffffffff168173ffffffffffffffffffffffffffffffffffffffff16036200013f5760006040517f1e4fbdf7000000000000000000000000000000000000000000000000000000008152600401620001369190620007ae565b60405180910390fd5b62000150816200015960201b60201c565b505050620007cb565b6000600560009054906101000a900473ffffffffffffffffffffffffffffffffffffffff16905081600560006101000a81548173ffffffffffffffffffffffffffffffffffffffff021916908373ffffffffffffffffffffffffffffffffffffffff1602179055508173ffffffffffffffffffffffffffffffffffffffff168173ffffffffffffffffffffffffffffffffffffffff167f8be0079c531659141344cd1fd0a4f28419497f9722a3daafe3b4186f6b6457e060405160405180910390a35050565b6000604051905090565b600080fd5b600080fd5b600080fd5b600080fd5b6000601f19601f8301169050919050565b7f4e487b7100000000000000000000000000000000000000000000000000000000600052604160045260246000fd5b62000288826200023d565b810181811067ffffffffffffffff82111715620002aa57620002a96200024e565b5b80604052505050565b6000620002bf6200021f565b9050620002cd82826200027d565b919050565b600067ffffffffffffffff821115620002f057620002ef6200024e565b5b620002fb826200023d565b9050602081019050919050565b60005b83811015620003285780820151818401526020810190506200030b565b60008484015250505050565b60006200034b6200034584620002d2565b620002b3565b9050828152602081018484840111156200036a576200036962000238565b5b6200037784828562000308565b509392505050565b600082601f83011262000397576200039662000233565b5b8151620003a984826020860162000334565b91505092915050565b60008060408385031215620003cc57620003cb62000229565b5b600083015167ffffffffffffffff811115620003ed57620003ec6200022e565b5b620003fb858286016200037f565b925050602083015167ffffffffffffffff8111156200041f576200041e6200022e565b5b6200042d858286016200037f565b9150509250929050565b600081519050919050565b7f4e487b7100000000000000000000000000000000000000000000000000000000600052602260045260246000fd5b600060028204905060018216806200048a57607f821691505b602082108103620004a0576200049f62000442565b5b50919050565b60008190508160005260206000209050919050565b60006020601f8301049050919050565b600082821b905092915050565b6000600883026200050a7fffffffffffffffffffffffffffffffffffffffffffffffffffffffffffffffff82620004cb565b620005168683620004cb565b95508019841693508086168417925050509392505050565b6000819050919050565b6000819050919050565b6000620005636200055d62000557846200052e565b62000538565b6200052e565b9050919050565b6000819050919050565b6200057f8362000542565b620005976200058e826200056a565b848454620004d8565b825550505050565b600090565b620005ae6200059f565b620005bb81848462000574565b505050565b5b81811015620005e357620005d7600082620005a4565b600181019050620005c1565b5050565b601f8211156200063257620005fc81620004a6565b6200060784620004bb565b8101602085101562000617578190505b6200062f6200062685620004bb565b830182620005c0565b50505b505050565b600082821c905092915050565b6000620006576000198460080262000637565b1980831691505092915050565b600062000672838362000644565b9150826002028217905092915050565b6200068d8262000437565b67ffffffffffffffff811115620006a957620006a86200024e565b5b620006b5825462000471565b620006c2828285620005e7565b600060209050601f831160018114620006fa5760008415620006e5578287015190505b620006f1858262000664565b86555062000761565b601f1984166200070a86620004a6565b60005b8281101562000734578489015182556001820191506020850194506020810190506200070d565b8683101562000754578489015162000750601f89168262000644565b8355505b6001600288020188555050505b505050505050565b600073ffffffffffffffffffffffffffffffffffffffff82169050919050565b6000620007968262000769565b9050919050565b620007a88162000789565b82525050565b6000602082019050620007c560008301846200079d565b92915050565b611a5b80620007db6000396000f3fe608060405234801561001057600080fd5b506004361061012c5760003560e01c806370a08231116100ad578063a9059cbb11610071578063a9059cbb1461030d578063aaf5bfc31461033d578063bdc99b6314610359578063dd62ed3e14610375578063f2fde38b146103a55761012c565b806370a082311461027b578063715018a6146102ab5780638da5cb5b146102b557806395d89b41146102d3578063a0712d68146102f15761012c565b8063313ce567116100f4578063313ce567146101e95780633e413bee1461020757806342966c6814610225578063661a081e14610241578063677c0c671461025d5761012c565b806306fdde0314610131578063095ea7b31461014f57806318160ddd1461017f57806323b872dd1461019d57806324156d22146101cd575b600080fd5b6101396103c1565b6040516101469190611462565b60405180910390f35b6101696004803603810190610164919061151d565b610453565b6040516101769190611578565b60405180910390f35b610187610476565b60405161019491906115a2565b60405180910390f35b6101b760048036038101906101b291906115bd565b610480565b6040516101c49190611578565b60405180910390f35b6101e760048036038101906101e29190611610565b6104af565b005b6101f16105d7565b6040516101fe9190611659565b60405180910390f35b61020f6105e0565b60405161021c91906116d3565b60405180910390f35b61023f600480360381019061023a9190611610565b610606565b005b61025b6004803603810190610256919061151d565b6106ef565b005b61026561083e565b604051610272919061170f565b60405180910390f35b6102956004803603810190610290919061172a565b610864565b6040516102a291906115a2565b60405180910390f35b6102b36108ac565b005b6102bd6108c0565b6040516102ca9190611766565b60405180910390f35b6102db6108ea565b6040516102e89190611462565b60405180910390f35b61030b60048036038101906103069190611610565b61097c565b005b6103276004803603810190610322919061151d565b610a1a565b6040516103349190611578565b60405180910390f35b6103576004803603810190610352919061172a565b610a3d565b005b610373600480360381019061036e919061172a565b610a89565b005b61038f600480360381019061038a9190611781565b610ad5565b60405161039c91906115a2565b60405180910390f35b6103bf60048036038101906103ba919061172a565b610b5c565b005b6060600380546103d0906117f0565b80601f01602080910402602001604051908101604052809291908181526020018280546103fc906117f0565b80156104495780601f1061041e57610100808354040283529160200191610449565b820191906000526020600020905b81548152906001019060200180831161042c57829003601f168201915b5050505050905090565b60008061045e610be2565b905061046b818585610bea565b600191505092915050565b6000600254905090565b60008061048b610be2565b9050610498858285610bfc565b6104a3858585610c91565b60019150509392505050565b600081116104f2576040517f08c379a00000000000000000000000000000000000000000000000000000000081526004016104e99061186d565b60405180910390fd5b806104fc33610864565b101561053d576040517f08c379a0000000000000000000000000000000000000000000000000000000008152600401610534906118d9565b60405180910390fd5b6105473382610d85565b600760009054906101000a900473ffffffffffffffffffffffffffffffffffffffff1673ffffffffffffffffffffffffffffffffffffffff1663aa52b3d3826040518263ffffffff1660e01b81526004016105a291906115a2565b600060405180830381600087803b1580156105bc57600080fd5b505af11580156105d0573d6000803e3d6000fd5b5050505050565b60006012905090565b600760009054906101000a900473ffffffffffffffffffffffffffffffffffffffff1681565b60008111610649576040517f08c379a00000000000000000000000000000000000000000000000000000000081526004016106409061186d565b60405180910390fd5b8061065333610864565b1015610694576040517f08c379a000000000000000000000000000000000000000000000000000000000815260040161068b906118d9565b60405180910390fd5b61069e3382610d85565b3373ffffffffffffffffffffffffffffffffffffffff167ffd38818f5291bf0bb3a2a48aadc06ba8757865d1dabd804585338aab3009dcb6826040516106e491906115a2565b60405180910390a250565b600660009054906101000a900473ffffffffffffffffffffffffffffffffffffffff1673ffffffffffffffffffffffffffffffffffffffff163373ffffffffffffffffffffffffffffffffffffffff161461077f576040517f08c379a00000000000000000000000000000000000000000000000000000000081526004016107769061196b565b60405180910390fd5b600081116107c2576040517f08c379a00000000000000000000000000000000000000000000000000000000081526004016107b99061186d565b60405180910390fd5b806107cc83610864565b101561080d576040517f08c379a0000000000000000000000000000000000000000000000000000000008152600401610804906118d9565b60405180910390fd5b61083a82600660009054906101000a900473ffffffffffffffffffffffffffffffffffffffff1683610c91565b5050565b600660009054906101000a900473ffffffffffffffffffffffffffffffffffffffff1681565b60008060008373ffffffffffffffffffffffffffffffffffffffff1673ffffffffffffffffffffffffffffffffffffffff168152602001908152602001600020549050919050565b6108b4610e07565b6108be6000610e8e565b565b6000600560009054906101000a900473ffffffffffffffffffffffffffffffffffffffff16905090565b6060600480546108f9906117f0565b80601f0160208091040260200160405190810160405280929190818152602001828054610925906117f0565b80156109725780601f1061094757610100808354040283529160200191610972565b820191906000526020600020905b81548152906001019060200180831161095557829003601f168201915b5050505050905090565b600081116109bf576040517f08c379a00000000000000000000000000000000000000000000000000000000081526004016109b69061186d565b60405180910390fd5b6109c93382610f54565b3373ffffffffffffffffffffffffffffffffffffffff167f3f2c9d57c068687834f0de942a9babb9e5acab57d516d3480a3c16ee165a427382604051610a0f91906115a2565b60405180910390a250565b600080610a25610be2565b9050610a32818585610c91565b600191505092915050565b610a45610e07565b80600760006101000a81548173ffffffffffffffffffffffffffffffffffffffff021916908373ffffffffffffffffffffffffffffffffffffffff16021790555050565b610a91610e07565b80600660006101000a81548173ffffffffffffffffffffffffffffffffffffffff021916908373ffffffffffffffffffffffffffffffffffffffff16021790555050565b6000600160008473ffffffffffffffffffffffffffffffffffffffff1673ffffffffffffffffffffffffffffffffffffffff16815260200190815260200160002060008373ffffffffffffffffffffffffffffffffffffffff1673ffffffffffffffffffffffffffffffffffffffff16815260200190815260200160002054905092915050565b610b64610e07565b600073ffffffffffffffffffffffffffffffffffffffff168173ffffffffffffffffffffffffffffffffffffffff1603610bd65760006040517f1e4fbdf7000000000000000000000000000000000000000000000000000000008152600401610bcd9190611766565b60405180910390fd5b610bdf81610e8e565b50565b600033905090565b610bf78383836001610fd6565b505050565b6000610c088484610ad5565b90507fffffffffffffffffffffffffffffffffffffffffffffffffffffffffffffffff811015610c8b5781811015610c7b578281836040517ffb8f41b2000000000000000000000000000000000000000000000000000000008152600401610c729392919061198b565b60405180910390fd5b610c8a84848484036000610fd6565b5b50505050565b600073ffffffffffffffffffffffffffffffffffffffff168373ffffffffffffffffffffffffffffffffffffffff1603610d035760006040517f96c6fd1e000000000000000000000000000000000000000000000000000000008152600401610cfa9190611766565b60405180910390fd5b600073ffffffffffffffffffffffffffffffffffffffff168273ffffffffffffffffffffffffffffffffffffffff1603610d755760006040517fec442f05000000000000000000000000000000000000000000000000000000008152600401610d6c9190611766565b60405180910390fd5b610d808383836111ad565b505050565b600073ffffffffffffffffffffffffffffffffffffffff168273ffffffffffffffffffffffffffffffffffffffff1603610df75760006040517f96c6fd1e000000000000000000000000000000000000000000000000000000008152600401610dee9190611766565b60405180910390fd5b610e03826000836111ad565b5050565b610e0f610be2565b73ffffffffffffffffffffffffffffffffffffffff16610e2d6108c0565b73ffffffffffffffffffffffffffffffffffffffff1614610e8c57610e50610be2565b6040517f118cdaa7000000000000000000000000000000000000000000000000000000008152600401610e839190611766565b60405180910390fd5b565b6000600560009054906101000a900473ffffffffffffffffffffffffffffffffffffffff16905081600560006101000a81548173ffffffffffffffffffffffffffffffffffffffff021916908373ffffffffffffffffffffffffffffffffffffffff1602179055508173ffffffffffffffffffffffffffffffffffffffff168173ffffffffffffffffffffffffffffffffffffffff167f8be0079c531659141344cd1fd0a4f28419497f9722a3daafe3b4186f6b6457e060405160405180910390a35050565b600073ffffffffffffffffffffffffffffffffffffffff168273ffffffffffffffffffffffffffffffffffffffff1603610fc65760006040517fec442f05000000000000000000000000000000000000000000000000000000008152600401610fbd9190611766565b60405180910390fd5b610fd2600083836111ad565b5050565b600073ffffffffffffffffffffffffffffffffffffffff168473ffffffffffffffffffffffffffffffffffffffff16036110485760006040517fe602df0500000000000000000000000000000000000000000000000000000000815260040161103f9190611766565b60405180910390fd5b600073ffffffffffffffffffffffffffffffffffffffff168373ffffffffffffffffffffffffffffffffffffffff16036110ba5760006040517f94280d620000000000000000000000000000000000000000000000000000000081526004016110b19190611766565b60405180910390fd5b81600160008673ffffffffffffffffffffffffffffffffffffffff1673ffffffffffffffffffffffffffffffffffffffff16815260200190815260200160002060008573ffffffffffffffffffffffffffffffffffffffff1673ffffffffffffffffffffffffffffffffffffffff1681526020019081526020016000208190555080156111a7578273ffffffffffffffffffffffffffffffffffffffff168473ffffffffffffffffffffffffffffffffffffffff167f8c5be1e5ebec7d5bd14f71427d1e84f3dd0314c0f7b2291e5b200ac8c7c3b9258460405161119e91906115a2565b60405180910390a35b50505050565b600073ffffffffffffffffffffffffffffffffffffffff168373ffffffffffffffffffffffffffffffffffffffff16036111ff5780600260008282546111f391906119f1565b925050819055506112d2565b60008060008573ffffffffffffffffffffffffffffffffffffffff1673ffffffffffffffffffffffffffffffffffffffff1681526020019081526020016000205490508181101561128b578381836040517fe450d38c0000000000000000000000000000000000000000000000000000000081526004016112829392919061198b565b60405180910390fd5b8181036000808673ffffffffffffffffffffffffffffffffffffffff1673ffffffffffffffffffffffffffffffffffffffff16815260200190815260200160002081905550505b600073ffffffffffffffffffffffffffffffffffffffff168273ffffffffffffffffffffffffffffffffffffffff160361131b5780600260008282540392505081905550611368565b806000808473ffffffffffffffffffffffffffffffffffffffff1673ffffffffffffffffffffffffffffffffffffffff168152602001908152602001600020600082825401925050819055505b8173ffffffffffffffffffffffffffffffffffffffff168373ffffffffffffffffffffffffffffffffffffffff167fddf252ad1be2c89b69c2b068fc378daa952ba7f163c4a11628f55a4df523b3ef836040516113c591906115a2565b60405180910390a3505050565b600081519050919050565b600082825260208201905092915050565b60005b8381101561140c5780820151818401526020810190506113f1565b60008484015250505050565b6000601f19601f8301169050919050565b6000611434826113d2565b61143e81856113dd565b935061144e8185602086016113ee565b61145781611418565b840191505092915050565b6000602082019050818103600083015261147c8184611429565b905092915050565b600080fd5b600073ffffffffffffffffffffffffffffffffffffffff82169050919050565b60006114b482611489565b9050919050565b6114c4816114a9565b81146114cf57600080fd5b50565b6000813590506114e1816114bb565b92915050565b6000819050919050565b6114fa816114e7565b811461150557600080fd5b50565b600081359050611517816114f1565b92915050565b6000806040838503121561153457611533611484565b5b6000611542858286016114d2565b925050602061155385828601611508565b9150509250929050565b60008115159050919050565b6115728161155d565b82525050565b600060208201905061158d6000830184611569565b92915050565b61159c816114e7565b82525050565b60006020820190506115b76000830184611593565b92915050565b6000806000606084860312156115d6576115d5611484565b5b60006115e4868287016114d2565b93505060206115f5868287016114d2565b925050604061160686828701611508565b9150509250925092565b60006020828403121561162657611625611484565b5b600061163484828501611508565b91505092915050565b600060ff82169050919050565b6116538161163d565b82525050565b600060208201905061166e600083018461164a565b92915050565b6000819050919050565b600061169961169461168f84611489565b611674565b611489565b9050919050565b60006116ab8261167e565b9050919050565b60006116bd826116a0565b9050919050565b6116cd816116b2565b82525050565b60006020820190506116e860008301846116c4565b92915050565b60006116f9826116a0565b9050919050565b611709816116ee565b82525050565b60006020820190506117246000830184611700565b92915050565b6000602082840312156117405761173f611484565b5b600061174e848285016114d2565b91505092915050565b611760816114a9565b82525050565b600060208201905061177b6000830184611757565b92915050565b6000806040838503121561179857611797611484565b5b60006117a6858286016114d2565b92505060206117b7858286016114d2565b9150509250929050565b7f4e487b7100000000000000000000000000000000000000000000000000000000600052602260045260246000fd5b6000600282049050600182168061180857607f821691505b60208210810361181b5761181a6117c1565b5b50919050565b7f416d6f756e74206d7573742062652067726561746572207468616e207a65726f600082015250565b60006118576020836113dd565b915061186282611821565b602082019050919050565b600060208201905081810360008301526118868161184a565b9050919050565b7f496e73756666696369656e742062616c616e6365000000000000000000000000600082015250565b60006118c36014836113dd565b91506118ce8261188d565b602082019050919050565b600060208201905081810360008301526118f2816118b6565b9050919050565b7f4f6e6c7920656967656e20636f6e74726163742063616e2063616c6c2074686960008201527f732066756e6374696f6e00000000000000000000000000000000000000000000602082015250565b6000611955602a836113dd565b9150611960826118f9565b604082019050919050565b6000602082019050818103600083015261198481611948565b9050919050565b60006060820190506119a06000830186611757565b6119ad6020830185611593565b6119ba6040830184611593565b949350505050565b7f4e487b7100000000000000000000000000000000000000000000000000000000600052601160045260246000fd5b60006119fc826114e7565b9150611a07836114e7565b9250828201905080821115611a1f57611a1e6119c2565b5b9291505056fea264697066735822122074a4ba5444b612b7f94be4e36810f45086b1a60556d39d319c54fd43572334d164736f6c63430008140033",
  "linkReferences": {},
  "deployedLinkReferences": {}
}