{
  "_format": "hh-sol-artifact-1",
  "contractName": "Eigen",
  "sourceName": "contracts/Eigen.sol",
  "abi": [
    {
      "inputs": [
        {
          "internalType": "address",
          "name": "_lstToken",
          "type": "address"
        },
        {
          "internalType": "address",
          "name": "_operator",
          "type": "address"
        }
      ],
      "stateMutability": "nonpayable",
      "type": "constructor"
    },
    {
      "inputs": [
        {
          "internalType": "address",
          "name": "owner",
          "type": "address"
        }
      ],
      "name": "OwnableInvalidOwner",
      "type": "error"
    },
    {
      "inputs": [
        {
          "internalType": "address",
          "name": "account",
          "type": "address"
        }
      ],
      "name": "OwnableUnauthorizedAccount",
      "type": "error"
    },
    {
      "anonymous": false,
      "inputs": [
        {
          "indexed": true,
          "internalType": "address",
          "name": "restaker",
          "type": "address"
        },
        {
          "indexed": false,
          "internalType": "uint256",
          "name": "amount",
          "type": "uint256"
        }
      ],
      "name": "DelegationAdded",
      "type": "event"
    },
    {
      "anonymous": false,
      "inputs": [
        {
          "indexed": true,
          "internalType": "address",
          "name": "restaker",
          "type": "address"
        },
        {
          "indexed": false,
          "internalType": "uint256",
          "name": "amount",
          "type": "uint256"
        }
      ],
      "name": "DelegationRemoved",
      "type": "event"
    },
    {
      "anonymous": false,
      "inputs": [
        {
          "indexed": true,
          "internalType": "address",
          "name": "previousOwner",
          "type": "address"
        },
        {
          "indexed": true,
          "internalType": "address",
          "name": "newOwner",
          "type": "address"
        }
      ],
      "name": "OwnershipTransferred",
      "type": "event"
    },
    {
      "inputs": [
        {
          "internalType": "uint256",
          "name": "amount",
          "type": "uint256"
        }
      ],
      "name": "addDelegation",
      "outputs": [],
      "stateMutability": "nonpayable",
      "type": "function"
    },
    {
      "inputs": [
        {
          "internalType": "address",
          "name": "",
          "type": "address"
        }
      ],
      "name": "delegations",
      "outputs": [
        {
          "internalType": "uint256",
          "name": "",
          "type": "uint256"
        }
      ],
      "stateMutability": "view",
      "type": "function"
    },
    {
      "inputs": [
        {
          "internalType": "uint256",
          "name": "",
          "type": "uint256"
        }
      ],
      "name": "delegators",
      "outputs": [
        {
          "internalType": "address",
          "name": "",
          "type": "address"
        }
      ],
      "stateMutability": "view",
      "type": "function"
    },
    {
      "inputs": [
        {
          "internalType": "address",
          "name": "restaker",
          "type": "address"
        }
      ],
      "name": "getDelegatedAmount",
      "outputs": [
        {
          "internalType": "uint256",
          "name": "",
          "type": "uint256"
        }
      ],
      "stateMutability": "view",
      "type": "function"
    },
    {
      "inputs": [
        {
          "internalType": "address[]",
          "name": "restakerAddresses",
          "type": "address[]"
        }
      ],
      "name": "getOperatorDelegations",
      "outputs": [
        {
          "internalType": "address[]",
          "name": "restakers",
          "type": "address[]"
        },
        {
          "internalType": "uint256[]",
          "name": "amounts",
          "type": "uint256[]"
        }
      ],
      "stateMutability": "view",
      "type": "function"
    },
    {
      "inputs": [],
      "name": "getTotalDelegated",
      "outputs": [
        {
          "internalType": "uint256",
          "name": "",
          "type": "uint256"
        }
      ],
      "stateMutability": "view",
      "type": "function"
    },
    {
      "inputs": [
        {
          "internalType": "address",
          "name": "restaker",
          "type": "address"
        }
      ],
      "name": "getTotalDelegatedByRestaker",
      "outputs": [
        {
          "internalType": "uint256",
          "name": "",
          "type": "uint256"
        }
      ],
      "stateMutability": "view",
      "type": "function"
    },
    {
      "inputs": [
        {
          "internalType": "address",
          "name": "",
          "type": "address"
        }
      ],
      "name": "isDelegator",
      "outputs": [
        {
          "internalType": "bool",
          "name": "",
          "type": "bool"
        }
      ],
      "stateMutability": "view",
      "type": "function"
    },
    {
      "inputs": [],
      "name": "lst",
      "outputs": [
        {
          "internalType": "contract LST",
          "name": "",
          "type": "address"
        }
      ],
      "stateMutability": "view",
      "type": "function"
    },
    {
      "inputs": [],
      "name": "operator",
      "outputs": [
        {
          "internalType": "contract IOperator",
          "name": "",
          "type": "address"
        }
      ],
      "stateMutability": "view",
      "type": "function"
    },
    {
      "inputs": [],
      "name": "owner",
      "outputs": [
        {
          "internalType": "address",
          "name": "",
          "type": "address"
        }
      ],
      "stateMutability": "view",
      "type": "function"
    },
    {
      "inputs": [
        {
          "internalType": "uint256",
          "name": "amount",
          "type": "uint256"
        }
      ],
      "name": "removeDelegation",
      "outputs": [],
      "stateMutability": "nonpayable",
      "type": "function"
    },
    {
      "inputs": [],
      "name": "renounceOwnership",
      "outputs": [],
      "stateMutability": "nonpayable",
      "type": "function"
    },
    {
      "inputs": [],
      "name": "slash",
      "outputs": [],
      "stateMutability": "nonpayable",
      "type": "function"
    },
    {
      "inputs": [],
      "name": "totalDelegatedTokens",
      "outputs": [
        {
          "internalType": "uint256",
          "name": "",
          "type": "uint256"
        }
      ],
      "stateMutability": "view",
      "type": "function"
    },
    {
      "inputs": [
        {
          "internalType": "address",
          "name": "newOwner",
          "type": "address"
        }
      ],
      "name": "transferOwnership",
      "outputs": [],
      "stateMutability": "nonpayable",
      "type": "function"
    }
  ],
  "bytecode": "0x60806040523480156200001157600080fd5b50604051620021493803806200214983398181016040528101906200003791906200035b565b33600073ffffffffffffffffffffffffffffffffffffffff168173ffffffffffffffffffffffffffffffffffffffff1603620000ad5760006040517f1e4fbdf7000000000000000000000000000000000000000000000000000000008152600401620000a49190620003b3565b60405180910390fd5b620000be816200022d60201b60201c565b50600073ffffffffffffffffffffffffffffffffffffffff168273ffffffffffffffffffffffffffffffffffffffff160362000131576040517f08c379a0000000000000000000000000000000000000000000000000000000008152600401620001289062000431565b60405180910390fd5b600073ffffffffffffffffffffffffffffffffffffffff168173ffffffffffffffffffffffffffffffffffffffff1603620001a3576040517f08c379a00000000000000000000000000000000000000000000000000000000081526004016200019a90620004a3565b60405180910390fd5b81600160006101000a81548173ffffffffffffffffffffffffffffffffffffffff021916908373ffffffffffffffffffffffffffffffffffffffff16021790555080600260006101000a81548173ffffffffffffffffffffffffffffffffffffffff021916908373ffffffffffffffffffffffffffffffffffffffff1602179055505050620004c5565b60008060009054906101000a900473ffffffffffffffffffffffffffffffffffffffff169050816000806101000a81548173ffffffffffffffffffffffffffffffffffffffff021916908373ffffffffffffffffffffffffffffffffffffffff1602179055508173ffffffffffffffffffffffffffffffffffffffff168173ffffffffffffffffffffffffffffffffffffffff167f8be0079c531659141344cd1fd0a4f28419497f9722a3daafe3b4186f6b6457e060405160405180910390a35050565b600080fd5b600073ffffffffffffffffffffffffffffffffffffffff82169050919050565b60006200032382620002f6565b9050919050565b620003358162000316565b81146200034157600080fd5b50565b60008151905062000355816200032a565b92915050565b60008060408385031215620003755762000374620002f1565b5b6000620003858582860162000344565b9250506020620003988582860162000344565b9150509250929050565b620003ad8162000316565b82525050565b6000602082019050620003ca6000830184620003a2565b92915050565b600082825260208201905092915050565b7f4c535420746f6b656e20616464726573732063616e6e6f74206265207a65726f600082015250565b600062000419602083620003d0565b91506200042682620003e1565b602082019050919050565b600060208201905081810360008301526200044c816200040a565b9050919050565b7f4f70657261746f7220616464726573732063616e6e6f74206265207a65726f00600082015250565b60006200048b601f83620003d0565b9150620004988262000453565b602082019050919050565b60006020820190508181036000830152620004be816200047c565b9050919050565b611c7480620004d56000396000f3fe608060405234801561001057600080fd5b50600436106101005760003560e01c80638096d9a211610097578063bffe348611610066578063bffe34861461028a578063f2976871146102ba578063f2fde38b146102d8578063fd8ab482146102f457610100565b80638096d9a2146102025780638da5cb5b14610220578063ab9e5f4c1461023e578063afdf859d1461026e57610100565b8063570ca735116100d3578063570ca7351461018e5780635be612c7146101ac578063715018a6146101dc57806378bc9f83146101e657610100565b8063073ea6ae1461010557806313960c8c1461013557806318e8cb96146101665780632da25de314610184575b600080fd5b61011f600480360381019061011a91906113db565b610324565b60405161012c9190611421565b60405180910390f35b61014f600480360381019061014a91906114a1565b61036d565b60405161015d92919061166a565b60405180910390f35b61016e6105ec565b60405161017b9190611700565b60405180910390f35b61018c610612565b005b610196610935565b6040516101a3919061173c565b60405180910390f35b6101c660048036038101906101c19190611783565b61095b565b6040516101d391906117bf565b60405180910390f35b6101e461099a565b005b61020060048036038101906101fb9190611783565b6109ae565b005b61020a610c74565b6040516102179190611421565b60405180910390f35b610228610c7a565b60405161023591906117bf565b60405180910390f35b610258600480360381019061025391906113db565b610ca3565b6040516102659190611421565b60405180910390f35b61028860048036038101906102839190611783565b610cec565b005b6102a4600480360381019061029f91906113db565b6110b1565b6040516102b19190611421565b60405180910390f35b6102c26110c9565b6040516102cf9190611421565b60405180910390f35b6102f260048036038101906102ed91906113db565b6110d3565b005b61030e600480360381019061030991906113db565b611159565b60405161031b91906117f5565b60405180910390f35b6000600360008373ffffffffffffffffffffffffffffffffffffffff1673ffffffffffffffffffffffffffffffffffffffff168152602001908152602001600020549050919050565b6060806000805b858590508110156104105760006003600088888581811061039857610397611810565b5b90506020020160208101906103ad91906113db565b73ffffffffffffffffffffffffffffffffffffffff1673ffffffffffffffffffffffffffffffffffffffff1681526020019081526020016000205411156103fd5781806103f99061186e565b9250505b80806104089061186e565b915050610374565b508067ffffffffffffffff81111561042b5761042a6118b6565b5b6040519080825280602002602001820160405280156104595781602001602082028036833780820191505090505b5092508067ffffffffffffffff811115610476576104756118b6565b5b6040519080825280602002602001820160405280156104a45781602001602082028036833780820191505090505b5091506000805b868690508110156105e2576000600360008989858181106104cf576104ce611810565b5b90506020020160208101906104e491906113db565b73ffffffffffffffffffffffffffffffffffffffff1673ffffffffffffffffffffffffffffffffffffffff16815260200190815260200160002054905060008111156105ce5787878381811061053d5761053c611810565b5b905060200201602081019061055291906113db565b86848151811061056557610564611810565b5b602002602001019073ffffffffffffffffffffffffffffffffffffffff16908173ffffffffffffffffffffffffffffffffffffffff1681525050808584815181106105b3576105b2611810565b5b60200260200101818152505082806105ca9061186e565b9350505b5080806105da9061186e565b9150506104ab565b5050509250929050565b600160009054906101000a900473ffffffffffffffffffffffffffffffffffffffff1681565b600060065411610657576040517f08c379a000000000000000000000000000000000000000000000000000000000815260040161064e90611942565b60405180910390fd5b6000600654905060005b6004805490508110156107ab5760006004828154811061068457610683611810565b5b9060005260206000200160009054906101000a900473ffffffffffffffffffffffffffffffffffffffff1690506000600360008373ffffffffffffffffffffffffffffffffffffffff1673ffffffffffffffffffffffffffffffffffffffff168152602001908152602001600020541115610797576000600360008373ffffffffffffffffffffffffffffffffffffffff1673ffffffffffffffffffffffffffffffffffffffff168152602001908152602001600020819055506000600560008373ffffffffffffffffffffffffffffffffffffffff1673ffffffffffffffffffffffffffffffffffffffff16815260200190815260200160002060006101000a81548160ff0219169083151502179055505b5080806107a39061186e565b915050610661565b50600067ffffffffffffffff8111156107c7576107c66118b6565b5b6040519080825280602002602001820160405280156107f55781602001602082028036833780820191505090505b506004908051906020019061080b9291906112cc565b506000600681905550600073ffffffffffffffffffffffffffffffffffffffff16600160009054906101000a900473ffffffffffffffffffffffffffffffffffffffff1673ffffffffffffffffffffffffffffffffffffffff16036108a5576040517f08c379a000000000000000000000000000000000000000000000000000000000815260040161089c906119ae565b60405180910390fd5b600160009054906101000a900473ffffffffffffffffffffffffffffffffffffffff1673ffffffffffffffffffffffffffffffffffffffff166324156d22826040518263ffffffff1660e01b81526004016109009190611421565b600060405180830381600087803b15801561091a57600080fd5b505af115801561092e573d6000803e3d6000fd5b5050505050565b600260009054906101000a900473ffffffffffffffffffffffffffffffffffffffff1681565b6004818154811061096b57600080fd5b906000526020600020016000915054906101000a900473ffffffffffffffffffffffffffffffffffffffff1681565b6109a2611179565b6109ac6000611200565b565b600081116109f1576040517f08c379a00000000000000000000000000000000000000000000000000000000081526004016109e890611a1a565b60405180910390fd5b80600360003373ffffffffffffffffffffffffffffffffffffffff1673ffffffffffffffffffffffffffffffffffffffff168152602001908152602001600020541015610a73576040517f08c379a0000000000000000000000000000000000000000000000000000000008152600401610a6a90611a86565b60405180910390fd5b600160009054906101000a900473ffffffffffffffffffffffffffffffffffffffff1673ffffffffffffffffffffffffffffffffffffffff1663a9059cbb33836040518363ffffffff1660e01b8152600401610ad0929190611aa6565b6020604051808303816000875af1158015610aef573d6000803e3d6000fd5b505050506040513d601f19601f82011682018060405250810190610b139190611afb565b5080600360003373ffffffffffffffffffffffffffffffffffffffff1673ffffffffffffffffffffffffffffffffffffffff1681526020019081526020016000206000828254610b639190611b28565b925050819055508060066000828254610b7c9190611b28565b925050819055506000600360003373ffffffffffffffffffffffffffffffffffffffff1673ffffffffffffffffffffffffffffffffffffffff1681526020019081526020016000205403610c23576000600560003373ffffffffffffffffffffffffffffffffffffffff1673ffffffffffffffffffffffffffffffffffffffff16815260200190815260200160002060006101000a81548160ff0219169083151502179055505b3373ffffffffffffffffffffffffffffffffffffffff167fad28378a6f9566422e99a504c7f68e2f3f347a12e173a2103e5bdac5ace86f9982604051610c699190611421565b60405180910390a250565b60065481565b60008060009054906101000a900473ffffffffffffffffffffffffffffffffffffffff16905090565b6000600360008373ffffffffffffffffffffffffffffffffffffffff1673ffffffffffffffffffffffffffffffffffffffff168152602001908152602001600020549050919050565b60008111610d2f576040517f08c379a0000000000000000000000000000000000000000000000000000000008152600401610d2690611a1a565b60405180910390fd5b80600160009054906101000a900473ffffffffffffffffffffffffffffffffffffffff1673ffffffffffffffffffffffffffffffffffffffff166370a08231336040518263ffffffff1660e01b8152600401610d8b91906117bf565b602060405180830381865afa158015610da8573d6000803e3d6000fd5b505050506040513d601f19601f82011682018060405250810190610dcc9190611b71565b1015610e0d576040517f08c379a0000000000000000000000000000000000000000000000000000000008152600401610e0490611bea565b60405180910390fd5b600160009054906101000a900473ffffffffffffffffffffffffffffffffffffffff1673ffffffffffffffffffffffffffffffffffffffff1663661a081e33836040518363ffffffff1660e01b8152600401610e6a929190611aa6565b600060405180830381600087803b158015610e8457600080fd5b505af1158015610e98573d6000803e3d6000fd5b505050506000600360003373ffffffffffffffffffffffffffffffffffffffff1673ffffffffffffffffffffffffffffffffffffffff1681526020019081526020016000205403610ff157600560003373ffffffffffffffffffffffffffffffffffffffff1673ffffffffffffffffffffffffffffffffffffffff16815260200190815260200160002060009054906101000a900460ff16610ff0576004339080600181540180825580915050600190039060005260206000200160009091909190916101000a81548173ffffffffffffffffffffffffffffffffffffffff021916908373ffffffffffffffffffffffffffffffffffffffff1602179055506001600560003373ffffffffffffffffffffffffffffffffffffffff1673ffffffffffffffffffffffffffffffffffffffff16815260200190815260200160002060006101000a81548160ff0219169083151502179055505b5b80600360003373ffffffffffffffffffffffffffffffffffffffff1673ffffffffffffffffffffffffffffffffffffffff16815260200190815260200160002060008282546110409190611c0a565b9250508190555080600660008282546110599190611c0a565b925050819055503373ffffffffffffffffffffffffffffffffffffffff167fb309f5f6c634e921b972bb441eab02c4bc405c6879dc0955aadf180fbe3dc45d826040516110a69190611421565b60405180910390a250565b60036020528060005260406000206000915090505481565b6000600654905090565b6110db611179565b600073ffffffffffffffffffffffffffffffffffffffff168173ffffffffffffffffffffffffffffffffffffffff160361114d5760006040517f1e4fbdf700000000000000000000000000000000000000000000000000000000815260040161114491906117bf565b60405180910390fd5b61115681611200565b50565b60056020528060005260406000206000915054906101000a900460ff1681565b6111816112c4565b73ffffffffffffffffffffffffffffffffffffffff1661119f610c7a565b73ffffffffffffffffffffffffffffffffffffffff16146111fe576111c26112c4565b6040517f118cdaa70000000000000000000000000000000000000000000000000000000081526004016111f591906117bf565b60405180910390fd5b565b60008060009054906101000a900473ffffffffffffffffffffffffffffffffffffffff169050816000806101000a81548173ffffffffffffffffffffffffffffffffffffffff021916908373ffffffffffffffffffffffffffffffffffffffff1602179055508173ffffffffffffffffffffffffffffffffffffffff168173ffffffffffffffffffffffffffffffffffffffff167f8be0079c531659141344cd1fd0a4f28419497f9722a3daafe3b4186f6b6457e060405160405180910390a35050565b600033905090565b828054828255906000526020600020908101928215611345579160200282015b828111156113445782518260006101000a81548173ffffffffffffffffffffffffffffffffffffffff021916908373ffffffffffffffffffffffffffffffffffffffff160217905550916020019190600101906112ec565b5b5090506113529190611356565b5090565b5b8082111561136f576000816000905550600101611357565b5090565b600080fd5b600080fd5b600073ffffffffffffffffffffffffffffffffffffffff82169050919050565b60006113a88261137d565b9050919050565b6113b88161139d565b81146113c357600080fd5b50565b6000813590506113d5816113af565b92915050565b6000602082840312156113f1576113f0611373565b5b60006113ff848285016113c6565b91505092915050565b6000819050919050565b61141b81611408565b82525050565b60006020820190506114366000830184611412565b92915050565b600080fd5b600080fd5b600080fd5b60008083601f8401126114615761146061143c565b5b8235905067ffffffffffffffff81111561147e5761147d611441565b5b60208301915083602082028301111561149a57611499611446565b5b9250929050565b600080602083850312156114b8576114b7611373565b5b600083013567ffffffffffffffff8111156114d6576114d5611378565b5b6114e28582860161144b565b92509250509250929050565b600081519050919050565b600082825260208201905092915050565b6000819050602082019050919050565b6115238161139d565b82525050565b6000611535838361151a565b60208301905092915050565b6000602082019050919050565b6000611559826114ee565b61156381856114f9565b935061156e8361150a565b8060005b8381101561159f5781516115868882611529565b975061159183611541565b925050600181019050611572565b5085935050505092915050565b600081519050919050565b600082825260208201905092915050565b6000819050602082019050919050565b6115e181611408565b82525050565b60006115f383836115d8565b60208301905092915050565b6000602082019050919050565b6000611617826115ac565b61162181856115b7565b935061162c836115c8565b8060005b8381101561165d57815161164488826115e7565b975061164f836115ff565b925050600181019050611630565b5085935050505092915050565b60006040820190508181036000830152611684818561154e565b90508181036020830152611698818461160c565b90509392505050565b6000819050919050565b60006116c66116c16116bc8461137d565b6116a1565b61137d565b9050919050565b60006116d8826116ab565b9050919050565b60006116ea826116cd565b9050919050565b6116fa816116df565b82525050565b600060208201905061171560008301846116f1565b92915050565b6000611726826116cd565b9050919050565b6117368161171b565b82525050565b6000602082019050611751600083018461172d565b92915050565b61176081611408565b811461176b57600080fd5b50565b60008135905061177d81611757565b92915050565b60006020828403121561179957611798611373565b5b60006117a78482850161176e565b91505092915050565b6117b98161139d565b82525050565b60006020820190506117d460008301846117b0565b92915050565b60008115159050919050565b6117ef816117da565b82525050565b600060208201905061180a60008301846117e6565b92915050565b7f4e487b7100000000000000000000000000000000000000000000000000000000600052603260045260246000fd5b7f4e487b7100000000000000000000000000000000000000000000000000000000600052601160045260246000fd5b600061187982611408565b91507fffffffffffffffffffffffffffffffffffffffffffffffffffffffffffffffff82036118ab576118aa61183f565b5b600182019050919050565b7f4e487b7100000000000000000000000000000000000000000000000000000000600052604160045260246000fd5b600082825260208201905092915050565b7f4e6f20746f6b656e7320746f20736c6173680000000000000000000000000000600082015250565b600061192c6012836118e5565b9150611937826118f6565b602082019050919050565b6000602082019050818103600083015261195b8161191f565b9050919050565b7f4c535420636f6e7472616374206e6f7420736574000000000000000000000000600082015250565b60006119986014836118e5565b91506119a382611962565b602082019050919050565b600060208201905081810360008301526119c78161198b565b9050919050565b7f416d6f756e74206d7573742062652067726561746572207468616e207a65726f600082015250565b6000611a046020836118e5565b9150611a0f826119ce565b602082019050919050565b60006020820190508181036000830152611a33816119f7565b9050919050565b7f496e73756666696369656e742064656c65676174656420616d6f756e74000000600082015250565b6000611a70601d836118e5565b9150611a7b82611a3a565b602082019050919050565b60006020820190508181036000830152611a9f81611a63565b9050919050565b6000604082019050611abb60008301856117b0565b611ac86020830184611412565b9392505050565b611ad8816117da565b8114611ae357600080fd5b50565b600081519050611af581611acf565b92915050565b600060208284031215611b1157611b10611373565b5b6000611b1f84828501611ae6565b91505092915050565b6000611b3382611408565b9150611b3e83611408565b9250828203905081811115611b5657611b5561183f565b5b92915050565b600081519050611b6b81611757565b92915050565b600060208284031215611b8757611b86611373565b5b6000611b9584828501611b5c565b91505092915050565b7f496e73756666696369656e742062616c616e6365000000000000000000000000600082015250565b6000611bd46014836118e5565b9150611bdf82611b9e565b602082019050919050565b60006020820190508181036000830152611c0381611bc7565b9050919050565b6000611c1582611408565b9150611c2083611408565b9250828201905080821115611c3857611c3761183f565b5b9291505056fea264697066735822122097be2b55e27cc381643c6e4a7d93b958a8c7a4f9a96a354b4631d7f374292c3764736f6c63430008140033",
  "linkReferences": {},
  "deployedLinkReferences": {}
}