{
  "_format": "hh-sol-artifact-1",
  "contractName": "Eigen",
  "sourceName": "contracts/Eigen.sol",
  "abi": [
    {
      "inputs": [
        {
          "internalType": "address",
          "name": "_lstToken",
          "type": "address"
        },
        {
          "internalType": "address",
          "name": "_operator",
          "type": "address"
        }
      ],
      "stateMutability": "nonpayable",
      "type": "constructor"
    },
    {
      "inputs": [
        {
          "internalType": "address",
          "name": "owner",
          "type": "address"
        }
      ],
      "name": "OwnableInvalidOwner",
      "type": "error"
    },
    {
      "inputs": [
        {
          "internalType": "address",
          "name": "account",
          "type": "address"
        }
      ],
      "name": "OwnableUnauthorizedAccount",
      "type": "error"
    },
    {
      "anonymous": false,
      "inputs": [
        {
          "indexed": true,
          "internalType": "address",
          "name": "restaker",
          "type": "address"
        },
        {
          "indexed": false,
          "internalType": "uint256",
          "name": "amount",
          "type": "uint256"
        }
      ],
      "name": "DelegationAdded",
      "type": "event"
    },
    {
      "anonymous": false,
      "inputs": [
        {
          "indexed": true,
          "internalType": "address",
          "name": "restaker",
          "type": "address"
        },
        {
          "indexed": false,
          "internalType": "uint256",
          "name": "amount",
          "type": "uint256"
        }
      ],
      "name": "DelegationRemoved",
      "type": "event"
    },
    {
      "anonymous": false,
      "inputs": [
        {
          "indexed": true,
          "internalType": "address",
          "name": "previousOwner",
          "type": "address"
        },
        {
          "indexed": true,
          "internalType": "address",
          "name": "newOwner",
          "type": "address"
        }
      ],
      "name": "OwnershipTransferred",
      "type": "event"
    },
    {
      "inputs": [
        {
          "internalType": "address",
          "name": "restaker",
          "type": "address"
        },
        {
          "internalType": "uint256",
          "name": "amount",
          "type": "uint256"
        }
      ],
      "name": "addDelegation",
      "outputs": [],
      "stateMutability": "nonpayable",
      "type": "function"
    },
    {
      "inputs": [
        {
          "internalType": "address",
          "name": "",
          "type": "address"
        }
      ],
      "name": "delegations",
      "outputs": [
        {
          "internalType": "uint256",
          "name": "",
          "type": "uint256"
        }
      ],
      "stateMutability": "view",
      "type": "function"
    },
    {
      "inputs": [
        {
          "internalType": "address",
          "name": "restaker",
          "type": "address"
        }
      ],
      "name": "getDelegatedAmount",
      "outputs": [
        {
          "internalType": "uint256",
          "name": "",
          "type": "uint256"
        }
      ],
      "stateMutability": "view",
      "type": "function"
    },
    {
      "inputs": [
        {
          "internalType": "address[]",
          "name": "restakerAddresses",
          "type": "address[]"
        }
      ],
      "name": "getOperatorDelegations",
      "outputs": [
        {
          "internalType": "address[]",
          "name": "restakers",
          "type": "address[]"
        },
        {
          "internalType": "uint256[]",
          "name": "amounts",
          "type": "uint256[]"
        }
      ],
      "stateMutability": "view",
      "type": "function"
    },
    {
      "inputs": [],
      "name": "getTotalDelegated",
      "outputs": [
        {
          "internalType": "uint256",
          "name": "",
          "type": "uint256"
        }
      ],
      "stateMutability": "view",
      "type": "function"
    },
    {
      "inputs": [
        {
          "internalType": "address",
          "name": "restaker",
          "type": "address"
        }
      ],
      "name": "getTotalDelegatedByRestaker",
      "outputs": [
        {
          "internalType": "uint256",
          "name": "",
          "type": "uint256"
        }
      ],
      "stateMutability": "view",
      "type": "function"
    },
    {
      "inputs": [],
      "name": "lst",
      "outputs": [
        {
          "internalType": "contract LST",
          "name": "",
          "type": "address"
        }
      ],
      "stateMutability": "view",
      "type": "function"
    },
    {
      "inputs": [],
      "name": "operator",
      "outputs": [
        {
          "internalType": "contract IOperator",
          "name": "",
          "type": "address"
        }
      ],
      "stateMutability": "view",
      "type": "function"
    },
    {
      "inputs": [],
      "name": "owner",
      "outputs": [
        {
          "internalType": "address",
          "name": "",
          "type": "address"
        }
      ],
      "stateMutability": "view",
      "type": "function"
    },
    {
      "inputs": [
        {
          "internalType": "address",
          "name": "restaker",
          "type": "address"
        },
        {
          "internalType": "uint256",
          "name": "amount",
          "type": "uint256"
        }
      ],
      "name": "removeDelegation",
      "outputs": [],
      "stateMutability": "nonpayable",
      "type": "function"
    },
    {
      "inputs": [],
      "name": "renounceOwnership",
      "outputs": [],
      "stateMutability": "nonpayable",
      "type": "function"
    },
    {
      "inputs": [],
      "name": "totalDelegatedTokens",
      "outputs": [
        {
          "internalType": "uint256",
          "name": "",
          "type": "uint256"
        }
      ],
      "stateMutability": "view",
      "type": "function"
    },
    {
      "inputs": [
        {
          "internalType": "address",
          "name": "newOwner",
          "type": "address"
        }
      ],
      "name": "transferOwnership",
      "outputs": [],
      "stateMutability": "nonpayable",
      "type": "function"
    }
  ],
  "bytecode": "0x60806040523480156200001157600080fd5b50604051620019653803806200196583398181016040528101906200003791906200035b565b33600073ffffffffffffffffffffffffffffffffffffffff168173ffffffffffffffffffffffffffffffffffffffff1603620000ad5760006040517f1e4fbdf7000000000000000000000000000000000000000000000000000000008152600401620000a49190620003b3565b60405180910390fd5b620000be816200022d60201b60201c565b50600073ffffffffffffffffffffffffffffffffffffffff168273ffffffffffffffffffffffffffffffffffffffff160362000131576040517f08c379a0000000000000000000000000000000000000000000000000000000008152600401620001289062000431565b60405180910390fd5b600073ffffffffffffffffffffffffffffffffffffffff168173ffffffffffffffffffffffffffffffffffffffff1603620001a3576040517f08c379a00000000000000000000000000000000000000000000000000000000081526004016200019a90620004a3565b60405180910390fd5b81600160006101000a81548173ffffffffffffffffffffffffffffffffffffffff021916908373ffffffffffffffffffffffffffffffffffffffff16021790555080600260006101000a81548173ffffffffffffffffffffffffffffffffffffffff021916908373ffffffffffffffffffffffffffffffffffffffff1602179055505050620004c5565b60008060009054906101000a900473ffffffffffffffffffffffffffffffffffffffff169050816000806101000a81548173ffffffffffffffffffffffffffffffffffffffff021916908373ffffffffffffffffffffffffffffffffffffffff1602179055508173ffffffffffffffffffffffffffffffffffffffff168173ffffffffffffffffffffffffffffffffffffffff167f8be0079c531659141344cd1fd0a4f28419497f9722a3daafe3b4186f6b6457e060405160405180910390a35050565b600080fd5b600073ffffffffffffffffffffffffffffffffffffffff82169050919050565b60006200032382620002f6565b9050919050565b620003358162000316565b81146200034157600080fd5b50565b60008151905062000355816200032a565b92915050565b60008060408385031215620003755762000374620002f1565b5b6000620003858582860162000344565b9250506020620003988582860162000344565b9150509250929050565b620003ad8162000316565b82525050565b6000602082019050620003ca6000830184620003a2565b92915050565b600082825260208201905092915050565b7f4c535420746f6b656e20616464726573732063616e6e6f74206265207a65726f600082015250565b600062000419602083620003d0565b91506200042682620003e1565b602082019050919050565b600060208201905081810360008301526200044c816200040a565b9050919050565b7f4f70657261746f7220616464726573732063616e6e6f74206265207a65726f00600082015250565b60006200048b601f83620003d0565b9150620004988262000453565b602082019050919050565b60006020820190508181036000830152620004be816200047c565b9050919050565b61149080620004d56000396000f3fe608060405234801561001057600080fd5b50600436106100cf5760003560e01c80638da5cb5b1161008c578063f297687111610066578063f297687114610217578063f2fde38b14610235578063f3e341b914610251578063fd6c914e1461026d576100cf565b80638da5cb5b14610199578063ab9e5f4c146101b7578063bffe3486146101e7576100cf565b8063073ea6ae146100d457806313960c8c1461010457806318e8cb9614610135578063570ca73514610153578063715018a6146101715780638096d9a21461017b575b600080fd5b6100ee60048036038101906100e99190610d4a565b610289565b6040516100fb9190610d90565b60405180910390f35b61011e60048036038101906101199190610e10565b6102d2565b60405161012c929190610fd9565b60405180910390f35b61013d610551565b60405161014a919061106f565b60405180910390f35b61015b610577565b60405161016891906110ab565b60405180910390f35b61017961059d565b005b6101836105b1565b6040516101909190610d90565b60405180910390f35b6101a16105b7565b6040516101ae91906110d5565b60405180910390f35b6101d160048036038101906101cc9190610d4a565b6105e0565b6040516101de9190610d90565b60405180910390f35b61020160048036038101906101fc9190610d4a565b610629565b60405161020e9190610d90565b60405180910390f35b61021f610641565b60405161022c9190610d90565b60405180910390f35b61024f600480360381019061024a9190610d4a565b61064b565b005b61026b6004803603810190610266919061111c565b6106d1565b005b6102876004803603810190610282919061111c565b6108ef565b005b6000600360008373ffffffffffffffffffffffffffffffffffffffff1673ffffffffffffffffffffffffffffffffffffffff168152602001908152602001600020549050919050565b6060806000805b85859050811015610375576000600360008888858181106102fd576102fc61115c565b5b90506020020160208101906103129190610d4a565b73ffffffffffffffffffffffffffffffffffffffff1673ffffffffffffffffffffffffffffffffffffffff16815260200190815260200160002054111561036257818061035e906111ba565b9250505b808061036d906111ba565b9150506102d9565b508067ffffffffffffffff8111156103905761038f611202565b5b6040519080825280602002602001820160405280156103be5781602001602082028036833780820191505090505b5092508067ffffffffffffffff8111156103db576103da611202565b5b6040519080825280602002602001820160405280156104095781602001602082028036833780820191505090505b5091506000805b86869050811015610547576000600360008989858181106104345761043361115c565b5b90506020020160208101906104499190610d4a565b73ffffffffffffffffffffffffffffffffffffffff1673ffffffffffffffffffffffffffffffffffffffff1681526020019081526020016000205490506000811115610533578787838181106104a2576104a161115c565b5b90506020020160208101906104b79190610d4a565b8684815181106104ca576104c961115c565b5b602002602001019073ffffffffffffffffffffffffffffffffffffffff16908173ffffffffffffffffffffffffffffffffffffffff1681525050808584815181106105185761051761115c565b5b602002602001018181525050828061052f906111ba565b9350505b50808061053f906111ba565b915050610410565b5050509250929050565b600160009054906101000a900473ffffffffffffffffffffffffffffffffffffffff1681565b600260009054906101000a900473ffffffffffffffffffffffffffffffffffffffff1681565b6105a5610b8f565b6105af6000610c16565b565b60045481565b60008060009054906101000a900473ffffffffffffffffffffffffffffffffffffffff16905090565b6000600360008373ffffffffffffffffffffffffffffffffffffffff1673ffffffffffffffffffffffffffffffffffffffff168152602001908152602001600020549050919050565b60036020528060005260406000206000915090505481565b6000600454905090565b610653610b8f565b600073ffffffffffffffffffffffffffffffffffffffff168173ffffffffffffffffffffffffffffffffffffffff16036106c55760006040517f1e4fbdf70000000000000000000000000000000000000000000000000000000081526004016106bc91906110d5565b60405180910390fd5b6106ce81610c16565b50565b6106d96105b7565b73ffffffffffffffffffffffffffffffffffffffff163373ffffffffffffffffffffffffffffffffffffffff16148061073d57503073ffffffffffffffffffffffffffffffffffffffff163373ffffffffffffffffffffffffffffffffffffffff16145b61077c576040517f08c379a00000000000000000000000000000000000000000000000000000000081526004016107739061128e565b60405180910390fd5b600073ffffffffffffffffffffffffffffffffffffffff168273ffffffffffffffffffffffffffffffffffffffff16036107eb576040517f08c379a00000000000000000000000000000000000000000000000000000000081526004016107e2906112fa565b60405180910390fd5b6000811161082e576040517f08c379a000000000000000000000000000000000000000000000000000000000815260040161082590611366565b60405180910390fd5b80600360008473ffffffffffffffffffffffffffffffffffffffff1673ffffffffffffffffffffffffffffffffffffffff168152602001908152602001600020600082825461087d9190611386565b9250508190555080600460008282546108969190611386565b925050819055508173ffffffffffffffffffffffffffffffffffffffff167fb309f5f6c634e921b972bb441eab02c4bc405c6879dc0955aadf180fbe3dc45d826040516108e39190610d90565b60405180910390a25050565b6108f76105b7565b73ffffffffffffffffffffffffffffffffffffffff163373ffffffffffffffffffffffffffffffffffffffff16148061095b57503073ffffffffffffffffffffffffffffffffffffffff163373ffffffffffffffffffffffffffffffffffffffff16145b61099a576040517f08c379a00000000000000000000000000000000000000000000000000000000081526004016109919061128e565b60405180910390fd5b600073ffffffffffffffffffffffffffffffffffffffff168273ffffffffffffffffffffffffffffffffffffffff1603610a09576040517f08c379a0000000000000000000000000000000000000000000000000000000008152600401610a00906112fa565b60405180910390fd5b60008111610a4c576040517f08c379a0000000000000000000000000000000000000000000000000000000008152600401610a4390611366565b60405180910390fd5b80600360008473ffffffffffffffffffffffffffffffffffffffff1673ffffffffffffffffffffffffffffffffffffffff168152602001908152602001600020541015610ace576040517f08c379a0000000000000000000000000000000000000000000000000000000008152600401610ac590611406565b60405180910390fd5b80600360008473ffffffffffffffffffffffffffffffffffffffff1673ffffffffffffffffffffffffffffffffffffffff1681526020019081526020016000206000828254610b1d9190611426565b925050819055508060046000828254610b369190611426565b925050819055508173ffffffffffffffffffffffffffffffffffffffff167fad28378a6f9566422e99a504c7f68e2f3f347a12e173a2103e5bdac5ace86f9982604051610b839190610d90565b60405180910390a25050565b610b97610cda565b73ffffffffffffffffffffffffffffffffffffffff16610bb56105b7565b73ffffffffffffffffffffffffffffffffffffffff1614610c1457610bd8610cda565b6040517f118cdaa7000000000000000000000000000000000000000000000000000000008152600401610c0b91906110d5565b60405180910390fd5b565b60008060009054906101000a900473ffffffffffffffffffffffffffffffffffffffff169050816000806101000a81548173ffffffffffffffffffffffffffffffffffffffff021916908373ffffffffffffffffffffffffffffffffffffffff1602179055508173ffffffffffffffffffffffffffffffffffffffff168173ffffffffffffffffffffffffffffffffffffffff167f8be0079c531659141344cd1fd0a4f28419497f9722a3daafe3b4186f6b6457e060405160405180910390a35050565b600033905090565b600080fd5b600080fd5b600073ffffffffffffffffffffffffffffffffffffffff82169050919050565b6000610d1782610cec565b9050919050565b610d2781610d0c565b8114610d3257600080fd5b50565b600081359050610d4481610d1e565b92915050565b600060208284031215610d6057610d5f610ce2565b5b6000610d6e84828501610d35565b91505092915050565b6000819050919050565b610d8a81610d77565b82525050565b6000602082019050610da56000830184610d81565b92915050565b600080fd5b600080fd5b600080fd5b60008083601f840112610dd057610dcf610dab565b5b8235905067ffffffffffffffff811115610ded57610dec610db0565b5b602083019150836020820283011115610e0957610e08610db5565b5b9250929050565b60008060208385031215610e2757610e26610ce2565b5b600083013567ffffffffffffffff811115610e4557610e44610ce7565b5b610e5185828601610dba565b92509250509250929050565b600081519050919050565b600082825260208201905092915050565b6000819050602082019050919050565b610e9281610d0c565b82525050565b6000610ea48383610e89565b60208301905092915050565b6000602082019050919050565b6000610ec882610e5d565b610ed28185610e68565b9350610edd83610e79565b8060005b83811015610f0e578151610ef58882610e98565b9750610f0083610eb0565b925050600181019050610ee1565b5085935050505092915050565b600081519050919050565b600082825260208201905092915050565b6000819050602082019050919050565b610f5081610d77565b82525050565b6000610f628383610f47565b60208301905092915050565b6000602082019050919050565b6000610f8682610f1b565b610f908185610f26565b9350610f9b83610f37565b8060005b83811015610fcc578151610fb38882610f56565b9750610fbe83610f6e565b925050600181019050610f9f565b5085935050505092915050565b60006040820190508181036000830152610ff38185610ebd565b905081810360208301526110078184610f7b565b90509392505050565b6000819050919050565b600061103561103061102b84610cec565b611010565b610cec565b9050919050565b60006110478261101a565b9050919050565b60006110598261103c565b9050919050565b6110698161104e565b82525050565b60006020820190506110846000830184611060565b92915050565b60006110958261103c565b9050919050565b6110a58161108a565b82525050565b60006020820190506110c0600083018461109c565b92915050565b6110cf81610d0c565b82525050565b60006020820190506110ea60008301846110c6565b92915050565b6110f981610d77565b811461110457600080fd5b50565b600081359050611116816110f0565b92915050565b6000806040838503121561113357611132610ce2565b5b600061114185828601610d35565b925050602061115285828601611107565b9150509250929050565b7f4e487b7100000000000000000000000000000000000000000000000000000000600052603260045260246000fd5b7f4e487b7100000000000000000000000000000000000000000000000000000000600052601160045260246000fd5b60006111c582610d77565b91507fffffffffffffffffffffffffffffffffffffffffffffffffffffffffffffffff82036111f7576111f661118b565b5b600182019050919050565b7f4e487b7100000000000000000000000000000000000000000000000000000000600052604160045260246000fd5b600082825260208201905092915050565b7f4e6f7420617574686f72697a6564000000000000000000000000000000000000600082015250565b6000611278600e83611231565b915061128382611242565b602082019050919050565b600060208201905081810360008301526112a78161126b565b9050919050565b7f52657374616b657220616464726573732063616e6e6f74206265207a65726f00600082015250565b60006112e4601f83611231565b91506112ef826112ae565b602082019050919050565b60006020820190508181036000830152611313816112d7565b9050919050565b7f416d6f756e74206d7573742062652067726561746572207468616e207a65726f600082015250565b6000611350602083611231565b915061135b8261131a565b602082019050919050565b6000602082019050818103600083015261137f81611343565b9050919050565b600061139182610d77565b915061139c83610d77565b92508282019050808211156113b4576113b361118b565b5b92915050565b7f496e73756666696369656e742064656c65676174656420616d6f756e74000000600082015250565b60006113f0601d83611231565b91506113fb826113ba565b602082019050919050565b6000602082019050818103600083015261141f816113e3565b9050919050565b600061143182610d77565b915061143c83610d77565b92508282039050818111156114545761145361118b565b5b9291505056fea26469706673582212206faee21bda759922cd42a0134ea857a9387da2e1cf6607259cfcdbb6e78e901364736f6c63430008140033",
  "linkReferences": {},
  "deployedLinkReferences": {}
}