{
  "_format": "hh-sol-artifact-1",
  "contractName": "Eigen",
  "sourceName": "contracts/Eigen.sol",
  "abi": [
    {
      "inputs": [
        {
          "internalType": "address",
          "name": "_lstToken",
          "type": "address"
        },
        {
          "internalType": "address",
          "name": "_operator",
          "type": "address"
        }
      ],
      "stateMutability": "nonpayable",
      "type": "constructor"
    },
    {
      "inputs": [
        {
          "internalType": "address",
          "name": "owner",
          "type": "address"
        }
      ],
      "name": "OwnableInvalidOwner",
      "type": "error"
    },
    {
      "inputs": [
        {
          "internalType": "address",
          "name": "account",
          "type": "address"
        }
      ],
      "name": "OwnableUnauthorizedAccount",
      "type": "error"
    },
    {
      "anonymous": false,
      "inputs": [
        {
          "indexed": true,
          "internalType": "address",
          "name": "restaker",
          "type": "address"
        },
        {
          "indexed": false,
          "internalType": "uint256",
          "name": "amount",
          "type": "uint256"
        }
      ],
      "name": "DelegationAdded",
      "type": "event"
    },
    {
      "anonymous": false,
      "inputs": [
        {
          "indexed": true,
          "internalType": "address",
          "name": "restaker",
          "type": "address"
        },
        {
          "indexed": false,
          "internalType": "uint256",
          "name": "amount",
          "type": "uint256"
        }
      ],
      "name": "DelegationRemoved",
      "type": "event"
    },
    {
      "anonymous": false,
      "inputs": [
        {
          "indexed": true,
          "internalType": "address",
          "name": "previousOwner",
          "type": "address"
        },
        {
          "indexed": true,
          "internalType": "address",
          "name": "newOwner",
          "type": "address"
        }
      ],
      "name": "OwnershipTransferred",
      "type": "event"
    },
    {
      "inputs": [
        {
          "internalType": "uint256",
          "name": "amount",
          "type": "uint256"
        }
      ],
      "name": "addDelegation",
      "outputs": [],
      "stateMutability": "nonpayable",
      "type": "function"
    },
    {
      "inputs": [
        {
          "internalType": "address",
          "name": "",
          "type": "address"
        }
      ],
      "name": "delegations",
      "outputs": [
        {
          "internalType": "uint256",
          "name": "",
          "type": "uint256"
        }
      ],
      "stateMutability": "view",
      "type": "function"
    },
    {
      "inputs": [
        {
          "internalType": "address",
          "name": "restaker",
          "type": "address"
        }
      ],
      "name": "getDelegatedAmount",
      "outputs": [
        {
          "internalType": "uint256",
          "name": "",
          "type": "uint256"
        }
      ],
      "stateMutability": "view",
      "type": "function"
    },
    {
      "inputs": [
        {
          "internalType": "address[]",
          "name": "restakerAddresses",
          "type": "address[]"
        }
      ],
      "name": "getOperatorDelegations",
      "outputs": [
        {
          "internalType": "address[]",
          "name": "restakers",
          "type": "address[]"
        },
        {
          "internalType": "uint256[]",
          "name": "amounts",
          "type": "uint256[]"
        }
      ],
      "stateMutability": "view",
      "type": "function"
    },
    {
      "inputs": [],
      "name": "getTotalDelegated",
      "outputs": [
        {
          "internalType": "uint256",
          "name": "",
          "type": "uint256"
        }
      ],
      "stateMutability": "view",
      "type": "function"
    },
    {
      "inputs": [
        {
          "internalType": "address",
          "name": "restaker",
          "type": "address"
        }
      ],
      "name": "getTotalDelegatedByRestaker",
      "outputs": [
        {
          "internalType": "uint256",
          "name": "",
          "type": "uint256"
        }
      ],
      "stateMutability": "view",
      "type": "function"
    },
    {
      "inputs": [],
      "name": "lst",
      "outputs": [
        {
          "internalType": "contract LST",
          "name": "",
          "type": "address"
        }
      ],
      "stateMutability": "view",
      "type": "function"
    },
    {
      "inputs": [],
      "name": "operator",
      "outputs": [
        {
          "internalType": "contract IOperator",
          "name": "",
          "type": "address"
        }
      ],
      "stateMutability": "view",
      "type": "function"
    },
    {
      "inputs": [],
      "name": "owner",
      "outputs": [
        {
          "internalType": "address",
          "name": "",
          "type": "address"
        }
      ],
      "stateMutability": "view",
      "type": "function"
    },
    {
      "inputs": [
        {
          "internalType": "uint256",
          "name": "amount",
          "type": "uint256"
        }
      ],
      "name": "removeDelegation",
      "outputs": [],
      "stateMutability": "nonpayable",
      "type": "function"
    },
    {
      "inputs": [],
      "name": "renounceOwnership",
      "outputs": [],
      "stateMutability": "nonpayable",
      "type": "function"
    },
    {
      "inputs": [],
      "name": "totalDelegatedTokens",
      "outputs": [
        {
          "internalType": "uint256",
          "name": "",
          "type": "uint256"
        }
      ],
      "stateMutability": "view",
      "type": "function"
    },
    {
      "inputs": [
        {
          "internalType": "address",
          "name": "newOwner",
          "type": "address"
        }
      ],
      "name": "transferOwnership",
      "outputs": [],
      "stateMutability": "nonpayable",
      "type": "function"
    }
  ],
  "bytecode": "0x60806040523480156200001157600080fd5b506040516200198e3803806200198e83398181016040528101906200003791906200035b565b33600073ffffffffffffffffffffffffffffffffffffffff168173ffffffffffffffffffffffffffffffffffffffff1603620000ad5760006040517f1e4fbdf7000000000000000000000000000000000000000000000000000000008152600401620000a49190620003b3565b60405180910390fd5b620000be816200022d60201b60201c565b50600073ffffffffffffffffffffffffffffffffffffffff168273ffffffffffffffffffffffffffffffffffffffff160362000131576040517f08c379a0000000000000000000000000000000000000000000000000000000008152600401620001289062000431565b60405180910390fd5b600073ffffffffffffffffffffffffffffffffffffffff168173ffffffffffffffffffffffffffffffffffffffff1603620001a3576040517f08c379a00000000000000000000000000000000000000000000000000000000081526004016200019a90620004a3565b60405180910390fd5b81600160006101000a81548173ffffffffffffffffffffffffffffffffffffffff021916908373ffffffffffffffffffffffffffffffffffffffff16021790555080600260006101000a81548173ffffffffffffffffffffffffffffffffffffffff021916908373ffffffffffffffffffffffffffffffffffffffff1602179055505050620004c5565b60008060009054906101000a900473ffffffffffffffffffffffffffffffffffffffff169050816000806101000a81548173ffffffffffffffffffffffffffffffffffffffff021916908373ffffffffffffffffffffffffffffffffffffffff1602179055508173ffffffffffffffffffffffffffffffffffffffff168173ffffffffffffffffffffffffffffffffffffffff167f8be0079c531659141344cd1fd0a4f28419497f9722a3daafe3b4186f6b6457e060405160405180910390a35050565b600080fd5b600073ffffffffffffffffffffffffffffffffffffffff82169050919050565b60006200032382620002f6565b9050919050565b620003358162000316565b81146200034157600080fd5b50565b60008151905062000355816200032a565b92915050565b60008060408385031215620003755762000374620002f1565b5b6000620003858582860162000344565b9250506020620003988582860162000344565b9150509250929050565b620003ad8162000316565b82525050565b6000602082019050620003ca6000830184620003a2565b92915050565b600082825260208201905092915050565b7f4c535420746f6b656e20616464726573732063616e6e6f74206265207a65726f600082015250565b600062000419602083620003d0565b91506200042682620003e1565b602082019050919050565b600060208201905081810360008301526200044c816200040a565b9050919050565b7f4f70657261746f7220616464726573732063616e6e6f74206265207a65726f00600082015250565b60006200048b601f83620003d0565b9150620004988262000453565b602082019050919050565b60006020820190508181036000830152620004be816200047c565b9050919050565b6114b980620004d56000396000f3fe608060405234801561001057600080fd5b50600436106100cf5760003560e01c80638096d9a21161008c578063afdf859d11610066578063afdf859d14610203578063bffe34861461021f578063f29768711461024f578063f2fde38b1461026d576100cf565b80638096d9a2146101975780638da5cb5b146101b5578063ab9e5f4c146101d3576100cf565b8063073ea6ae146100d457806313960c8c1461010457806318e8cb9614610135578063570ca73514610153578063715018a61461017157806378bc9f831461017b575b600080fd5b6100ee60048036038101906100e99190610d22565b610289565b6040516100fb9190610d68565b60405180910390f35b61011e60048036038101906101199190610de8565b6102d2565b60405161012c929190610fb1565b60405180910390f35b61013d610551565b60405161014a9190611047565b60405180910390f35b61015b610577565b6040516101689190611083565b60405180910390f35b61017961059d565b005b610195600480360381019061019091906110ca565b6105b1565b005b61019f6107d7565b6040516101ac9190610d68565b60405180910390f35b6101bd6107dd565b6040516101ca9190611106565b60405180910390f35b6101ed60048036038101906101e89190610d22565b610806565b6040516101fa9190610d68565b60405180910390f35b61021d600480360381019061021891906110ca565b61084f565b005b61023960048036038101906102349190610d22565b610abf565b6040516102469190610d68565b60405180910390f35b610257610ad7565b6040516102649190610d68565b60405180910390f35b61028760048036038101906102829190610d22565b610ae1565b005b6000600360008373ffffffffffffffffffffffffffffffffffffffff1673ffffffffffffffffffffffffffffffffffffffff168152602001908152602001600020549050919050565b6060806000805b85859050811015610375576000600360008888858181106102fd576102fc611121565b5b90506020020160208101906103129190610d22565b73ffffffffffffffffffffffffffffffffffffffff1673ffffffffffffffffffffffffffffffffffffffff16815260200190815260200160002054111561036257818061035e9061117f565b9250505b808061036d9061117f565b9150506102d9565b508067ffffffffffffffff8111156103905761038f6111c7565b5b6040519080825280602002602001820160405280156103be5781602001602082028036833780820191505090505b5092508067ffffffffffffffff8111156103db576103da6111c7565b5b6040519080825280602002602001820160405280156104095781602001602082028036833780820191505090505b5091506000805b868690508110156105475760006003600089898581811061043457610433611121565b5b90506020020160208101906104499190610d22565b73ffffffffffffffffffffffffffffffffffffffff1673ffffffffffffffffffffffffffffffffffffffff1681526020019081526020016000205490506000811115610533578787838181106104a2576104a1611121565b5b90506020020160208101906104b79190610d22565b8684815181106104ca576104c9611121565b5b602002602001019073ffffffffffffffffffffffffffffffffffffffff16908173ffffffffffffffffffffffffffffffffffffffff16815250508085848151811061051857610517611121565b5b602002602001018181525050828061052f9061117f565b9350505b50808061053f9061117f565b915050610410565b5050509250929050565b600160009054906101000a900473ffffffffffffffffffffffffffffffffffffffff1681565b600260009054906101000a900473ffffffffffffffffffffffffffffffffffffffff1681565b6105a5610b67565b6105af6000610bee565b565b600081116105f4576040517f08c379a00000000000000000000000000000000000000000000000000000000081526004016105eb90611253565b60405180910390fd5b80600360003373ffffffffffffffffffffffffffffffffffffffff1673ffffffffffffffffffffffffffffffffffffffff168152602001908152602001600020541015610676576040517f08c379a000000000000000000000000000000000000000000000000000000000815260040161066d906112bf565b60405180910390fd5b600160009054906101000a900473ffffffffffffffffffffffffffffffffffffffff1673ffffffffffffffffffffffffffffffffffffffff1663a9059cbb33836040518363ffffffff1660e01b81526004016106d39291906112df565b6020604051808303816000875af11580156106f2573d6000803e3d6000fd5b505050506040513d601f19601f820116820180604052508101906107169190611340565b5080600360003373ffffffffffffffffffffffffffffffffffffffff1673ffffffffffffffffffffffffffffffffffffffff1681526020019081526020016000206000828254610766919061136d565b92505081905550806004600082825461077f919061136d565b925050819055503373ffffffffffffffffffffffffffffffffffffffff167fad28378a6f9566422e99a504c7f68e2f3f347a12e173a2103e5bdac5ace86f99826040516107cc9190610d68565b60405180910390a250565b60045481565b60008060009054906101000a900473ffffffffffffffffffffffffffffffffffffffff16905090565b6000600360008373ffffffffffffffffffffffffffffffffffffffff1673ffffffffffffffffffffffffffffffffffffffff168152602001908152602001600020549050919050565b60008111610892576040517f08c379a000000000000000000000000000000000000000000000000000000000815260040161088990611253565b60405180910390fd5b80600160009054906101000a900473ffffffffffffffffffffffffffffffffffffffff1673ffffffffffffffffffffffffffffffffffffffff166370a08231336040518263ffffffff1660e01b81526004016108ee9190611106565b602060405180830381865afa15801561090b573d6000803e3d6000fd5b505050506040513d601f19601f8201168201806040525081019061092f91906113b6565b1015610970576040517f08c379a00000000000000000000000000000000000000000000000000000000081526004016109679061142f565b60405180910390fd5b600160009054906101000a900473ffffffffffffffffffffffffffffffffffffffff1673ffffffffffffffffffffffffffffffffffffffff1663661a081e33836040518363ffffffff1660e01b81526004016109cd9291906112df565b600060405180830381600087803b1580156109e757600080fd5b505af11580156109fb573d6000803e3d6000fd5b5050505080600360003373ffffffffffffffffffffffffffffffffffffffff1673ffffffffffffffffffffffffffffffffffffffff1681526020019081526020016000206000828254610a4e919061144f565b925050819055508060046000828254610a67919061144f565b925050819055503373ffffffffffffffffffffffffffffffffffffffff167fb309f5f6c634e921b972bb441eab02c4bc405c6879dc0955aadf180fbe3dc45d82604051610ab49190610d68565b60405180910390a250565b60036020528060005260406000206000915090505481565b6000600454905090565b610ae9610b67565b600073ffffffffffffffffffffffffffffffffffffffff168173ffffffffffffffffffffffffffffffffffffffff1603610b5b5760006040517f1e4fbdf7000000000000000000000000000000000000000000000000000000008152600401610b529190611106565b60405180910390fd5b610b6481610bee565b50565b610b6f610cb2565b73ffffffffffffffffffffffffffffffffffffffff16610b8d6107dd565b73ffffffffffffffffffffffffffffffffffffffff1614610bec57610bb0610cb2565b6040517f118cdaa7000000000000000000000000000000000000000000000000000000008152600401610be39190611106565b60405180910390fd5b565b60008060009054906101000a900473ffffffffffffffffffffffffffffffffffffffff169050816000806101000a81548173ffffffffffffffffffffffffffffffffffffffff021916908373ffffffffffffffffffffffffffffffffffffffff1602179055508173ffffffffffffffffffffffffffffffffffffffff168173ffffffffffffffffffffffffffffffffffffffff167f8be0079c531659141344cd1fd0a4f28419497f9722a3daafe3b4186f6b6457e060405160405180910390a35050565b600033905090565b600080fd5b600080fd5b600073ffffffffffffffffffffffffffffffffffffffff82169050919050565b6000610cef82610cc4565b9050919050565b610cff81610ce4565b8114610d0a57600080fd5b50565b600081359050610d1c81610cf6565b92915050565b600060208284031215610d3857610d37610cba565b5b6000610d4684828501610d0d565b91505092915050565b6000819050919050565b610d6281610d4f565b82525050565b6000602082019050610d7d6000830184610d59565b92915050565b600080fd5b600080fd5b600080fd5b60008083601f840112610da857610da7610d83565b5b8235905067ffffffffffffffff811115610dc557610dc4610d88565b5b602083019150836020820283011115610de157610de0610d8d565b5b9250929050565b60008060208385031215610dff57610dfe610cba565b5b600083013567ffffffffffffffff811115610e1d57610e1c610cbf565b5b610e2985828601610d92565b92509250509250929050565b600081519050919050565b600082825260208201905092915050565b6000819050602082019050919050565b610e6a81610ce4565b82525050565b6000610e7c8383610e61565b60208301905092915050565b6000602082019050919050565b6000610ea082610e35565b610eaa8185610e40565b9350610eb583610e51565b8060005b83811015610ee6578151610ecd8882610e70565b9750610ed883610e88565b925050600181019050610eb9565b5085935050505092915050565b600081519050919050565b600082825260208201905092915050565b6000819050602082019050919050565b610f2881610d4f565b82525050565b6000610f3a8383610f1f565b60208301905092915050565b6000602082019050919050565b6000610f5e82610ef3565b610f688185610efe565b9350610f7383610f0f565b8060005b83811015610fa4578151610f8b8882610f2e565b9750610f9683610f46565b925050600181019050610f77565b5085935050505092915050565b60006040820190508181036000830152610fcb8185610e95565b90508181036020830152610fdf8184610f53565b90509392505050565b6000819050919050565b600061100d61100861100384610cc4565b610fe8565b610cc4565b9050919050565b600061101f82610ff2565b9050919050565b600061103182611014565b9050919050565b61104181611026565b82525050565b600060208201905061105c6000830184611038565b92915050565b600061106d82611014565b9050919050565b61107d81611062565b82525050565b60006020820190506110986000830184611074565b92915050565b6110a781610d4f565b81146110b257600080fd5b50565b6000813590506110c48161109e565b92915050565b6000602082840312156110e0576110df610cba565b5b60006110ee848285016110b5565b91505092915050565b61110081610ce4565b82525050565b600060208201905061111b60008301846110f7565b92915050565b7f4e487b7100000000000000000000000000000000000000000000000000000000600052603260045260246000fd5b7f4e487b7100000000000000000000000000000000000000000000000000000000600052601160045260246000fd5b600061118a82610d4f565b91507fffffffffffffffffffffffffffffffffffffffffffffffffffffffffffffffff82036111bc576111bb611150565b5b600182019050919050565b7f4e487b7100000000000000000000000000000000000000000000000000000000600052604160045260246000fd5b600082825260208201905092915050565b7f416d6f756e74206d7573742062652067726561746572207468616e207a65726f600082015250565b600061123d6020836111f6565b915061124882611207565b602082019050919050565b6000602082019050818103600083015261126c81611230565b9050919050565b7f496e73756666696369656e742064656c65676174656420616d6f756e74000000600082015250565b60006112a9601d836111f6565b91506112b482611273565b602082019050919050565b600060208201905081810360008301526112d88161129c565b9050919050565b60006040820190506112f460008301856110f7565b6113016020830184610d59565b9392505050565b60008115159050919050565b61131d81611308565b811461132857600080fd5b50565b60008151905061133a81611314565b92915050565b60006020828403121561135657611355610cba565b5b60006113648482850161132b565b91505092915050565b600061137882610d4f565b915061138383610d4f565b925082820390508181111561139b5761139a611150565b5b92915050565b6000815190506113b08161109e565b92915050565b6000602082840312156113cc576113cb610cba565b5b60006113da848285016113a1565b91505092915050565b7f496e73756666696369656e742062616c616e6365000000000000000000000000600082015250565b60006114196014836111f6565b9150611424826113e3565b602082019050919050565b600060208201905081810360008301526114488161140c565b9050919050565b600061145a82610d4f565b915061146583610d4f565b925082820190508082111561147d5761147c611150565b5b9291505056fea2646970667358221220ce8c73722485c0982690f9fbebdbbc8da29cc66f5de3be6cb6549725c5ad123564736f6c63430008140033",
  "linkReferences": {},
  "deployedLinkReferences": {}
}