{
  "_format": "hh-sol-artifact-1",
  "contractName": "Eigen",
  "sourceName": "contracts/Eigen.sol",
  "abi": [
    {
      "inputs": [
        {
          "internalType": "address",
          "name": "_lstToken",
          "type": "address"
        },
        {
          "internalType": "address",
          "name": "_operator",
          "type": "address"
        }
      ],
      "stateMutability": "nonpayable",
      "type": "constructor"
    },
    {
      "inputs": [
        {
          "internalType": "address",
          "name": "owner",
          "type": "address"
        }
      ],
      "name": "OwnableInvalidOwner",
      "type": "error"
    },
    {
      "inputs": [
        {
          "internalType": "address",
          "name": "account",
          "type": "address"
        }
      ],
      "name": "OwnableUnauthorizedAccount",
      "type": "error"
    },
    {
      "anonymous": false,
      "inputs": [
        {
          "indexed": true,
          "internalType": "address",
          "name": "restaker",
          "type": "address"
        },
        {
          "indexed": false,
          "internalType": "uint256",
          "name": "amount",
          "type": "uint256"
        }
      ],
      "name": "DelegationAdded",
      "type": "event"
    },
    {
      "anonymous": false,
      "inputs": [
        {
          "indexed": true,
          "internalType": "address",
          "name": "restaker",
          "type": "address"
        },
        {
          "indexed": false,
          "internalType": "uint256",
          "name": "amount",
          "type": "uint256"
        }
      ],
      "name": "DelegationRemoved",
      "type": "event"
    },
    {
      "anonymous": false,
      "inputs": [
        {
          "indexed": true,
          "internalType": "address",
          "name": "previousOwner",
          "type": "address"
        },
        {
          "indexed": true,
          "internalType": "address",
          "name": "newOwner",
          "type": "address"
        }
      ],
      "name": "OwnershipTransferred",
      "type": "event"
    },
    {
      "inputs": [
        {
          "internalType": "uint256",
          "name": "amount",
          "type": "uint256"
        }
      ],
      "name": "addDelegation",
      "outputs": [],
      "stateMutability": "nonpayable",
      "type": "function"
    },
    {
      "inputs": [
        {
          "internalType": "address",
          "name": "",
          "type": "address"
        }
      ],
      "name": "delegations",
      "outputs": [
        {
          "internalType": "uint256",
          "name": "",
          "type": "uint256"
        }
      ],
      "stateMutability": "view",
      "type": "function"
    },
    {
      "inputs": [
        {
          "internalType": "uint256",
          "name": "",
          "type": "uint256"
        }
      ],
      "name": "delegators",
      "outputs": [
        {
          "internalType": "address",
          "name": "",
          "type": "address"
        }
      ],
      "stateMutability": "view",
      "type": "function"
    },
    {
      "inputs": [
        {
          "internalType": "address",
          "name": "restaker",
          "type": "address"
        }
      ],
      "name": "getDelegatedAmount",
      "outputs": [
        {
          "internalType": "uint256",
          "name": "",
          "type": "uint256"
        }
      ],
      "stateMutability": "view",
      "type": "function"
    },
    {
      "inputs": [
        {
          "internalType": "address[]",
          "name": "restakerAddresses",
          "type": "address[]"
        }
      ],
      "name": "getOperatorDelegations",
      "outputs": [
        {
          "internalType": "address[]",
          "name": "restakers",
          "type": "address[]"
        },
        {
          "internalType": "uint256[]",
          "name": "amounts",
          "type": "uint256[]"
        }
      ],
      "stateMutability": "view",
      "type": "function"
    },
    {
      "inputs": [],
      "name": "getTotalDelegated",
      "outputs": [
        {
          "internalType": "uint256",
          "name": "",
          "type": "uint256"
        }
      ],
      "stateMutability": "view",
      "type": "function"
    },
    {
      "inputs": [
        {
          "internalType": "address",
          "name": "restaker",
          "type": "address"
        }
      ],
      "name": "getTotalDelegatedByRestaker",
      "outputs": [
        {
          "internalType": "uint256",
          "name": "",
          "type": "uint256"
        }
      ],
      "stateMutability": "view",
      "type": "function"
    },
    {
      "inputs": [
        {
          "internalType": "address",
          "name": "",
          "type": "address"
        }
      ],
      "name": "isDelegator",
      "outputs": [
        {
          "internalType": "bool",
          "name": "",
          "type": "bool"
        }
      ],
      "stateMutability": "view",
      "type": "function"
    },
    {
      "inputs": [],
      "name": "lst",
      "outputs": [
        {
          "internalType": "contract LST",
          "name": "",
          "type": "address"
        }
      ],
      "stateMutability": "view",
      "type": "function"
    },
    {
      "inputs": [],
      "name": "operator",
      "outputs": [
        {
          "internalType": "contract IOperator",
          "name": "",
          "type": "address"
        }
      ],
      "stateMutability": "view",
      "type": "function"
    },
    {
      "inputs": [],
      "name": "owner",
      "outputs": [
        {
          "internalType": "address",
          "name": "",
          "type": "address"
        }
      ],
      "stateMutability": "view",
      "type": "function"
    },
    {
      "inputs": [
        {
          "internalType": "uint256",
          "name": "amount",
          "type": "uint256"
        }
      ],
      "name": "removeDelegation",
      "outputs": [],
      "stateMutability": "nonpayable",
      "type": "function"
    },
    {
      "inputs": [],
      "name": "renounceOwnership",
      "outputs": [],
      "stateMutability": "nonpayable",
      "type": "function"
    },
    {
      "inputs": [],
      "name": "slash",
      "outputs": [],
      "stateMutability": "nonpayable",
      "type": "function"
    },
    {
      "inputs": [],
      "name": "totalDelegatedTokens",
      "outputs": [
        {
          "internalType": "uint256",
          "name": "",
          "type": "uint256"
        }
      ],
      "stateMutability": "view",
      "type": "function"
    },
    {
      "inputs": [
        {
          "internalType": "address",
          "name": "newOwner",
          "type": "address"
        }
      ],
      "name": "transferOwnership",
      "outputs": [],
      "stateMutability": "nonpayable",
      "type": "function"
    }
  ],
  "bytecode": "0x60806040523480156200001157600080fd5b5060405162001ee038038062001ee083398181016040528101906200003791906200035b565b33600073ffffffffffffffffffffffffffffffffffffffff168173ffffffffffffffffffffffffffffffffffffffff1603620000ad5760006040517f1e4fbdf7000000000000000000000000000000000000000000000000000000008152600401620000a49190620003b3565b60405180910390fd5b620000be816200022d60201b60201c565b50600073ffffffffffffffffffffffffffffffffffffffff168273ffffffffffffffffffffffffffffffffffffffff160362000131576040517f08c379a0000000000000000000000000000000000000000000000000000000008152600401620001289062000431565b60405180910390fd5b600073ffffffffffffffffffffffffffffffffffffffff168173ffffffffffffffffffffffffffffffffffffffff1603620001a3576040517f08c379a00000000000000000000000000000000000000000000000000000000081526004016200019a90620004a3565b60405180910390fd5b81600160006101000a81548173ffffffffffffffffffffffffffffffffffffffff021916908373ffffffffffffffffffffffffffffffffffffffff16021790555080600260006101000a81548173ffffffffffffffffffffffffffffffffffffffff021916908373ffffffffffffffffffffffffffffffffffffffff1602179055505050620004c5565b60008060009054906101000a900473ffffffffffffffffffffffffffffffffffffffff169050816000806101000a81548173ffffffffffffffffffffffffffffffffffffffff021916908373ffffffffffffffffffffffffffffffffffffffff1602179055508173ffffffffffffffffffffffffffffffffffffffff168173ffffffffffffffffffffffffffffffffffffffff167f8be0079c531659141344cd1fd0a4f28419497f9722a3daafe3b4186f6b6457e060405160405180910390a35050565b600080fd5b600073ffffffffffffffffffffffffffffffffffffffff82169050919050565b60006200032382620002f6565b9050919050565b620003358162000316565b81146200034157600080fd5b50565b60008151905062000355816200032a565b92915050565b60008060408385031215620003755762000374620002f1565b5b6000620003858582860162000344565b9250506020620003988582860162000344565b9150509250929050565b620003ad8162000316565b82525050565b6000602082019050620003ca6000830184620003a2565b92915050565b600082825260208201905092915050565b7f4c535420746f6b656e20616464726573732063616e6e6f74206265207a65726f600082015250565b600062000419602083620003d0565b91506200042682620003e1565b602082019050919050565b600060208201905081810360008301526200044c816200040a565b9050919050565b7f4f70657261746f7220616464726573732063616e6e6f74206265207a65726f00600082015250565b60006200048b601f83620003d0565b9150620004988262000453565b602082019050919050565b60006020820190508181036000830152620004be816200047c565b9050919050565b611a0b80620004d56000396000f3fe608060405234801561001057600080fd5b50600436106101005760003560e01c80638096d9a211610097578063bffe348611610066578063bffe34861461028a578063f2976871146102ba578063f2fde38b146102d8578063fd8ab482146102f457610100565b80638096d9a2146102025780638da5cb5b14610220578063ab9e5f4c1461023e578063afdf859d1461026e57610100565b8063570ca735116100d3578063570ca7351461018e5780635be612c7146101ac578063715018a6146101dc57806378bc9f83146101e657610100565b8063073ea6ae1461010557806313960c8c1461013557806318e8cb96146101665780632da25de314610184575b600080fd5b61011f600480360381019061011a919061124a565b610324565b60405161012c9190611290565b60405180910390f35b61014f600480360381019061014a9190611310565b61036d565b60405161015d9291906114d9565b60405180910390f35b61016e6105ec565b60405161017b919061156f565b60405180910390f35b61018c610612565b005b61019661080d565b6040516101a391906115ab565b60405180910390f35b6101c660048036038101906101c191906115f2565b610833565b6040516101d3919061162e565b60405180910390f35b6101e4610872565b005b61020060048036038101906101fb91906115f2565b610886565b005b61020a610b4c565b6040516102179190611290565b60405180910390f35b610228610b52565b604051610235919061162e565b60405180910390f35b6102586004803603810190610253919061124a565b610b7b565b6040516102659190611290565b60405180910390f35b610288600480360381019061028391906115f2565b610bc4565b005b6102a4600480360381019061029f919061124a565b610f89565b6040516102b19190611290565b60405180910390f35b6102c2610fa1565b6040516102cf9190611290565b60405180910390f35b6102f260048036038101906102ed919061124a565b610fab565b005b61030e6004803603810190610309919061124a565b611031565b60405161031b9190611664565b60405180910390f35b6000600360008373ffffffffffffffffffffffffffffffffffffffff1673ffffffffffffffffffffffffffffffffffffffff168152602001908152602001600020549050919050565b6060806000805b85859050811015610410576000600360008888858181106103985761039761167f565b5b90506020020160208101906103ad919061124a565b73ffffffffffffffffffffffffffffffffffffffff1673ffffffffffffffffffffffffffffffffffffffff1681526020019081526020016000205411156103fd5781806103f9906116dd565b9250505b8080610408906116dd565b915050610374565b508067ffffffffffffffff81111561042b5761042a611725565b5b6040519080825280602002602001820160405280156104595781602001602082028036833780820191505090505b5092508067ffffffffffffffff81111561047657610475611725565b5b6040519080825280602002602001820160405280156104a45781602001602082028036833780820191505090505b5091506000805b868690508110156105e2576000600360008989858181106104cf576104ce61167f565b5b90506020020160208101906104e4919061124a565b73ffffffffffffffffffffffffffffffffffffffff1673ffffffffffffffffffffffffffffffffffffffff16815260200190815260200160002054905060008111156105ce5787878381811061053d5761053c61167f565b5b9050602002016020810190610552919061124a565b8684815181106105655761056461167f565b5b602002602001019073ffffffffffffffffffffffffffffffffffffffff16908173ffffffffffffffffffffffffffffffffffffffff1681525050808584815181106105b3576105b261167f565b5b60200260200101818152505082806105ca906116dd565b9350505b5080806105da906116dd565b9150506104ab565b5050509250929050565b600160009054906101000a900473ffffffffffffffffffffffffffffffffffffffff1681565b6000600654905060005b6004805490508110156107665760006004828154811061063f5761063e61167f565b5b9060005260206000200160009054906101000a900473ffffffffffffffffffffffffffffffffffffffff1690506000600360008373ffffffffffffffffffffffffffffffffffffffff1673ffffffffffffffffffffffffffffffffffffffff168152602001908152602001600020541115610752576000600360008373ffffffffffffffffffffffffffffffffffffffff1673ffffffffffffffffffffffffffffffffffffffff168152602001908152602001600020819055506000600560008373ffffffffffffffffffffffffffffffffffffffff1673ffffffffffffffffffffffffffffffffffffffff16815260200190815260200160002060006101000a81548160ff0219169083151502179055505b50808061075e906116dd565b91505061061c565b506004600061077591906111a4565b6000600681905550600160009054906101000a900473ffffffffffffffffffffffffffffffffffffffff1673ffffffffffffffffffffffffffffffffffffffff166324156d22826040518263ffffffff1660e01b81526004016107d89190611290565b600060405180830381600087803b1580156107f257600080fd5b505af1158015610806573d6000803e3d6000fd5b5050505050565b600260009054906101000a900473ffffffffffffffffffffffffffffffffffffffff1681565b6004818154811061084357600080fd5b906000526020600020016000915054906101000a900473ffffffffffffffffffffffffffffffffffffffff1681565b61087a611051565b61088460006110d8565b565b600081116108c9576040517f08c379a00000000000000000000000000000000000000000000000000000000081526004016108c0906117b1565b60405180910390fd5b80600360003373ffffffffffffffffffffffffffffffffffffffff1673ffffffffffffffffffffffffffffffffffffffff16815260200190815260200160002054101561094b576040517f08c379a00000000000000000000000000000000000000000000000000000000081526004016109429061181d565b60405180910390fd5b600160009054906101000a900473ffffffffffffffffffffffffffffffffffffffff1673ffffffffffffffffffffffffffffffffffffffff1663a9059cbb33836040518363ffffffff1660e01b81526004016109a892919061183d565b6020604051808303816000875af11580156109c7573d6000803e3d6000fd5b505050506040513d601f19601f820116820180604052508101906109eb9190611892565b5080600360003373ffffffffffffffffffffffffffffffffffffffff1673ffffffffffffffffffffffffffffffffffffffff1681526020019081526020016000206000828254610a3b91906118bf565b925050819055508060066000828254610a5491906118bf565b925050819055506000600360003373ffffffffffffffffffffffffffffffffffffffff1673ffffffffffffffffffffffffffffffffffffffff1681526020019081526020016000205403610afb576000600560003373ffffffffffffffffffffffffffffffffffffffff1673ffffffffffffffffffffffffffffffffffffffff16815260200190815260200160002060006101000a81548160ff0219169083151502179055505b3373ffffffffffffffffffffffffffffffffffffffff167fad28378a6f9566422e99a504c7f68e2f3f347a12e173a2103e5bdac5ace86f9982604051610b419190611290565b60405180910390a250565b60065481565b60008060009054906101000a900473ffffffffffffffffffffffffffffffffffffffff16905090565b6000600360008373ffffffffffffffffffffffffffffffffffffffff1673ffffffffffffffffffffffffffffffffffffffff168152602001908152602001600020549050919050565b60008111610c07576040517f08c379a0000000000000000000000000000000000000000000000000000000008152600401610bfe906117b1565b60405180910390fd5b80600160009054906101000a900473ffffffffffffffffffffffffffffffffffffffff1673ffffffffffffffffffffffffffffffffffffffff166370a08231336040518263ffffffff1660e01b8152600401610c63919061162e565b602060405180830381865afa158015610c80573d6000803e3d6000fd5b505050506040513d601f19601f82011682018060405250810190610ca49190611908565b1015610ce5576040517f08c379a0000000000000000000000000000000000000000000000000000000008152600401610cdc90611981565b60405180910390fd5b600160009054906101000a900473ffffffffffffffffffffffffffffffffffffffff1673ffffffffffffffffffffffffffffffffffffffff1663661a081e33836040518363ffffffff1660e01b8152600401610d4292919061183d565b600060405180830381600087803b158015610d5c57600080fd5b505af1158015610d70573d6000803e3d6000fd5b505050506000600360003373ffffffffffffffffffffffffffffffffffffffff1673ffffffffffffffffffffffffffffffffffffffff1681526020019081526020016000205403610ec957600560003373ffffffffffffffffffffffffffffffffffffffff1673ffffffffffffffffffffffffffffffffffffffff16815260200190815260200160002060009054906101000a900460ff16610ec8576004339080600181540180825580915050600190039060005260206000200160009091909190916101000a81548173ffffffffffffffffffffffffffffffffffffffff021916908373ffffffffffffffffffffffffffffffffffffffff1602179055506001600560003373ffffffffffffffffffffffffffffffffffffffff1673ffffffffffffffffffffffffffffffffffffffff16815260200190815260200160002060006101000a81548160ff0219169083151502179055505b5b80600360003373ffffffffffffffffffffffffffffffffffffffff1673ffffffffffffffffffffffffffffffffffffffff1681526020019081526020016000206000828254610f1891906119a1565b925050819055508060066000828254610f3191906119a1565b925050819055503373ffffffffffffffffffffffffffffffffffffffff167fb309f5f6c634e921b972bb441eab02c4bc405c6879dc0955aadf180fbe3dc45d82604051610f7e9190611290565b60405180910390a250565b60036020528060005260406000206000915090505481565b6000600654905090565b610fb3611051565b600073ffffffffffffffffffffffffffffffffffffffff168173ffffffffffffffffffffffffffffffffffffffff16036110255760006040517f1e4fbdf700000000000000000000000000000000000000000000000000000000815260040161101c919061162e565b60405180910390fd5b61102e816110d8565b50565b60056020528060005260406000206000915054906101000a900460ff1681565b61105961119c565b73ffffffffffffffffffffffffffffffffffffffff16611077610b52565b73ffffffffffffffffffffffffffffffffffffffff16146110d65761109a61119c565b6040517f118cdaa70000000000000000000000000000000000000000000000000000000081526004016110cd919061162e565b60405180910390fd5b565b60008060009054906101000a900473ffffffffffffffffffffffffffffffffffffffff169050816000806101000a81548173ffffffffffffffffffffffffffffffffffffffff021916908373ffffffffffffffffffffffffffffffffffffffff1602179055508173ffffffffffffffffffffffffffffffffffffffff168173ffffffffffffffffffffffffffffffffffffffff167f8be0079c531659141344cd1fd0a4f28419497f9722a3daafe3b4186f6b6457e060405160405180910390a35050565b600033905090565b50805460008255906000526020600020908101906111c291906111c5565b50565b5b808211156111de5760008160009055506001016111c6565b5090565b600080fd5b600080fd5b600073ffffffffffffffffffffffffffffffffffffffff82169050919050565b6000611217826111ec565b9050919050565b6112278161120c565b811461123257600080fd5b50565b6000813590506112448161121e565b92915050565b6000602082840312156112605761125f6111e2565b5b600061126e84828501611235565b91505092915050565b6000819050919050565b61128a81611277565b82525050565b60006020820190506112a56000830184611281565b92915050565b600080fd5b600080fd5b600080fd5b60008083601f8401126112d0576112cf6112ab565b5b8235905067ffffffffffffffff8111156112ed576112ec6112b0565b5b602083019150836020820283011115611309576113086112b5565b5b9250929050565b60008060208385031215611327576113266111e2565b5b600083013567ffffffffffffffff811115611345576113446111e7565b5b611351858286016112ba565b92509250509250929050565b600081519050919050565b600082825260208201905092915050565b6000819050602082019050919050565b6113928161120c565b82525050565b60006113a48383611389565b60208301905092915050565b6000602082019050919050565b60006113c88261135d565b6113d28185611368565b93506113dd83611379565b8060005b8381101561140e5781516113f58882611398565b9750611400836113b0565b9250506001810190506113e1565b5085935050505092915050565b600081519050919050565b600082825260208201905092915050565b6000819050602082019050919050565b61145081611277565b82525050565b60006114628383611447565b60208301905092915050565b6000602082019050919050565b60006114868261141b565b6114908185611426565b935061149b83611437565b8060005b838110156114cc5781516114b38882611456565b97506114be8361146e565b92505060018101905061149f565b5085935050505092915050565b600060408201905081810360008301526114f381856113bd565b90508181036020830152611507818461147b565b90509392505050565b6000819050919050565b600061153561153061152b846111ec565b611510565b6111ec565b9050919050565b60006115478261151a565b9050919050565b60006115598261153c565b9050919050565b6115698161154e565b82525050565b60006020820190506115846000830184611560565b92915050565b60006115958261153c565b9050919050565b6115a58161158a565b82525050565b60006020820190506115c0600083018461159c565b92915050565b6115cf81611277565b81146115da57600080fd5b50565b6000813590506115ec816115c6565b92915050565b600060208284031215611608576116076111e2565b5b6000611616848285016115dd565b91505092915050565b6116288161120c565b82525050565b6000602082019050611643600083018461161f565b92915050565b60008115159050919050565b61165e81611649565b82525050565b60006020820190506116796000830184611655565b92915050565b7f4e487b7100000000000000000000000000000000000000000000000000000000600052603260045260246000fd5b7f4e487b7100000000000000000000000000000000000000000000000000000000600052601160045260246000fd5b60006116e882611277565b91507fffffffffffffffffffffffffffffffffffffffffffffffffffffffffffffffff820361171a576117196116ae565b5b600182019050919050565b7f4e487b7100000000000000000000000000000000000000000000000000000000600052604160045260246000fd5b600082825260208201905092915050565b7f416d6f756e74206d7573742062652067726561746572207468616e207a65726f600082015250565b600061179b602083611754565b91506117a682611765565b602082019050919050565b600060208201905081810360008301526117ca8161178e565b9050919050565b7f496e73756666696369656e742064656c65676174656420616d6f756e74000000600082015250565b6000611807601d83611754565b9150611812826117d1565b602082019050919050565b60006020820190508181036000830152611836816117fa565b9050919050565b6000604082019050611852600083018561161f565b61185f6020830184611281565b9392505050565b61186f81611649565b811461187a57600080fd5b50565b60008151905061188c81611866565b92915050565b6000602082840312156118a8576118a76111e2565b5b60006118b68482850161187d565b91505092915050565b60006118ca82611277565b91506118d583611277565b92508282039050818111156118ed576118ec6116ae565b5b92915050565b600081519050611902816115c6565b92915050565b60006020828403121561191e5761191d6111e2565b5b600061192c848285016118f3565b91505092915050565b7f496e73756666696369656e742062616c616e6365000000000000000000000000600082015250565b600061196b601483611754565b915061197682611935565b602082019050919050565b6000602082019050818103600083015261199a8161195e565b9050919050565b60006119ac82611277565b91506119b783611277565b92508282019050808211156119cf576119ce6116ae565b5b9291505056fea2646970667358221220e7f172cd9c674fe55d7b0a4608262ffa2ebba29435d3a9a957ad074d62eafb1a64736f6c63430008140033",
  "linkReferences": {},
  "deployedLinkReferences": {}
}