{
  "_format": "hh-sol-artifact-1",
  "contractName": "USDC",
  "sourceName": "contracts/USDC.sol",
  "abi": [
    {
      "inputs": [],
      "stateMutability": "nonpayable",
      "type": "constructor"
    },
    {
      "inputs": [
        {
          "internalType": "address",
          "name": "spender",
          "type": "address"
        },
        {
          "internalType": "uint256",
          "name": "allowance",
          "type": "uint256"
        },
        {
          "internalType": "uint256",
          "name": "needed",
          "type": "uint256"
        }
      ],
      "name": "ERC20InsufficientAllowance",
      "type": "error"
    },
    {
      "inputs": [
        {
          "internalType": "address",
          "name": "sender",
          "type": "address"
        },
        {
          "internalType": "uint256",
          "name": "balance",
          "type": "uint256"
        },
        {
          "internalType": "uint256",
          "name": "needed",
          "type": "uint256"
        }
      ],
      "name": "ERC20InsufficientBalance",
      "type": "error"
    },
    {
      "inputs": [
        {
          "internalType": "address",
          "name": "approver",
          "type": "address"
        }
      ],
      "name": "ERC20InvalidApprover",
      "type": "error"
    },
    {
      "inputs": [
        {
          "internalType": "address",
          "name": "receiver",
          "type": "address"
        }
      ],
      "name": "ERC20InvalidReceiver",
      "type": "error"
    },
    {
      "inputs": [
        {
          "internalType": "address",
          "name": "sender",
          "type": "address"
        }
      ],
      "name": "ERC20InvalidSender",
      "type": "error"
    },
    {
      "inputs": [
        {
          "internalType": "address",
          "name": "spender",
          "type": "address"
        }
      ],
      "name": "ERC20InvalidSpender",
      "type": "error"
    },
    {
      "inputs": [
        {
          "internalType": "address",
          "name": "owner",
          "type": "address"
        }
      ],
      "name": "OwnableInvalidOwner",
      "type": "error"
    },
    {
      "inputs": [
        {
          "internalType": "address",
          "name": "account",
          "type": "address"
        }
      ],
      "name": "OwnableUnauthorizedAccount",
      "type": "error"
    },
    {
      "anonymous": false,
      "inputs": [
        {
          "indexed": true,
          "internalType": "address",
          "name": "owner",
          "type": "address"
        },
        {
          "indexed": true,
          "internalType": "address",
          "name": "spender",
          "type": "address"
        },
        {
          "indexed": false,
          "internalType": "uint256",
          "name": "value",
          "type": "uint256"
        }
      ],
      "name": "Approval",
      "type": "event"
    },
    {
      "anonymous": false,
      "inputs": [
        {
          "indexed": true,
          "internalType": "address",
          "name": "previousOwner",
          "type": "address"
        },
        {
          "indexed": true,
          "internalType": "address",
          "name": "newOwner",
          "type": "address"
        }
      ],
      "name": "OwnershipTransferred",
      "type": "event"
    },
    {
      "anonymous": false,
      "inputs": [
        {
          "indexed": true,
          "internalType": "address",
          "name": "pusdAddress",
          "type": "address"
        }
      ],
      "name": "PUSDAddressSet",
      "type": "event"
    },
    {
      "anonymous": false,
      "inputs": [
        {
          "indexed": true,
          "internalType": "address",
          "name": "to",
          "type": "address"
        },
        {
          "indexed": false,
          "internalType": "uint256",
          "name": "amount",
          "type": "uint256"
        }
      ],
      "name": "TokensMinted",
      "type": "event"
    },
    {
      "anonymous": false,
      "inputs": [
        {
          "indexed": true,
          "internalType": "address",
          "name": "from",
          "type": "address"
        },
        {
          "indexed": true,
          "internalType": "address",
          "name": "to",
          "type": "address"
        },
        {
          "indexed": false,
          "internalType": "uint256",
          "name": "value",
          "type": "uint256"
        }
      ],
      "name": "Transfer",
      "type": "event"
    },
    {
      "anonymous": false,
      "inputs": [
        {
          "indexed": true,
          "internalType": "address",
          "name": "from",
          "type": "address"
        },
        {
          "indexed": false,
          "internalType": "uint256",
          "name": "amount",
          "type": "uint256"
        }
      ],
      "name": "TransferredToPUSD",
      "type": "event"
    },
    {
      "inputs": [
        {
          "internalType": "address",
          "name": "owner",
          "type": "address"
        },
        {
          "internalType": "address",
          "name": "spender",
          "type": "address"
        }
      ],
      "name": "allowance",
      "outputs": [
        {
          "internalType": "uint256",
          "name": "",
          "type": "uint256"
        }
      ],
      "stateMutability": "view",
      "type": "function"
    },
    {
      "inputs": [
        {
          "internalType": "address",
          "name": "spender",
          "type": "address"
        },
        {
          "internalType": "uint256",
          "name": "value",
          "type": "uint256"
        }
      ],
      "name": "approve",
      "outputs": [
        {
          "internalType": "bool",
          "name": "",
          "type": "bool"
        }
      ],
      "stateMutability": "nonpayable",
      "type": "function"
    },
    {
      "inputs": [
        {
          "internalType": "address",
          "name": "account",
          "type": "address"
        }
      ],
      "name": "balanceOf",
      "outputs": [
        {
          "internalType": "uint256",
          "name": "",
          "type": "uint256"
        }
      ],
      "stateMutability": "view",
      "type": "function"
    },
    {
      "inputs": [
        {
          "internalType": "uint256",
          "name": "amount",
          "type": "uint256"
        }
      ],
      "name": "burn",
      "outputs": [],
      "stateMutability": "nonpayable",
      "type": "function"
    },
    {
      "inputs": [],
      "name": "decimals",
      "outputs": [
        {
          "internalType": "uint8",
          "name": "",
          "type": "uint8"
        }
      ],
      "stateMutability": "pure",
      "type": "function"
    },
    {
      "inputs": [
        {
          "internalType": "uint256",
          "name": "amount",
          "type": "uint256"
        }
      ],
      "name": "mint",
      "outputs": [],
      "stateMutability": "nonpayable",
      "type": "function"
    },
    {
      "inputs": [
        {
          "internalType": "uint256",
          "name": "amount",
          "type": "uint256"
        }
      ],
      "name": "mintToOperator",
      "outputs": [],
      "stateMutability": "nonpayable",
      "type": "function"
    },
    {
      "inputs": [],
      "name": "name",
      "outputs": [
        {
          "internalType": "string",
          "name": "",
          "type": "string"
        }
      ],
      "stateMutability": "view",
      "type": "function"
    },
    {
      "inputs": [],
      "name": "operatorAddress",
      "outputs": [
        {
          "internalType": "address",
          "name": "",
          "type": "address"
        }
      ],
      "stateMutability": "view",
      "type": "function"
    },
    {
      "inputs": [],
      "name": "owner",
      "outputs": [
        {
          "internalType": "address",
          "name": "",
          "type": "address"
        }
      ],
      "stateMutability": "view",
      "type": "function"
    },
    {
      "inputs": [],
      "name": "pusdAddress",
      "outputs": [
        {
          "internalType": "address",
          "name": "",
          "type": "address"
        }
      ],
      "stateMutability": "view",
      "type": "function"
    },
    {
      "inputs": [],
      "name": "renounceOwnership",
      "outputs": [],
      "stateMutability": "nonpayable",
      "type": "function"
    },
    {
      "inputs": [
        {
          "internalType": "address",
          "name": "_operatorAddress",
          "type": "address"
        }
      ],
      "name": "setOperatorAddress",
      "outputs": [],
      "stateMutability": "nonpayable",
      "type": "function"
    },
    {
      "inputs": [
        {
          "internalType": "address",
          "name": "_pusdAddress",
          "type": "address"
        }
      ],
      "name": "setPusdAddress",
      "outputs": [],
      "stateMutability": "nonpayable",
      "type": "function"
    },
    {
      "inputs": [],
      "name": "symbol",
      "outputs": [
        {
          "internalType": "string",
          "name": "",
          "type": "string"
        }
      ],
      "stateMutability": "view",
      "type": "function"
    },
    {
      "inputs": [],
      "name": "totalSupply",
      "outputs": [
        {
          "internalType": "uint256",
          "name": "",
          "type": "uint256"
        }
      ],
      "stateMutability": "view",
      "type": "function"
    },
    {
      "inputs": [
        {
          "internalType": "address",
          "name": "to",
          "type": "address"
        },
        {
          "internalType": "uint256",
          "name": "value",
          "type": "uint256"
        }
      ],
      "name": "transfer",
      "outputs": [
        {
          "internalType": "bool",
          "name": "",
          "type": "bool"
        }
      ],
      "stateMutability": "nonpayable",
      "type": "function"
    },
    {
      "inputs": [
        {
          "internalType": "address",
          "name": "from",
          "type": "address"
        },
        {
          "internalType": "address",
          "name": "to",
          "type": "address"
        },
        {
          "internalType": "uint256",
          "name": "value",
          "type": "uint256"
        }
      ],
      "name": "transferFrom",
      "outputs": [
        {
          "internalType": "bool",
          "name": "",
          "type": "bool"
        }
      ],
      "stateMutability": "nonpayable",
      "type": "function"
    },
    {
      "inputs": [
        {
          "internalType": "address",
          "name": "newOwner",
          "type": "address"
        }
      ],
      "name": "transferOwnership",
      "outputs": [],
      "stateMutability": "nonpayable",
      "type": "function"
    },
    {
      "inputs": [
        {
          "internalType": "address",
          "name": "from",
          "type": "address"
        },
        {
          "internalType": "uint256",
          "name": "amount",
          "type": "uint256"
        }
      ],
      "name": "transferToPusd",
      "outputs": [
        {
          "internalType": "bool",
          "name": "",
          "type": "bool"
        }
      ],
      "stateMutability": "nonpayable",
      "type": "function"
    }
  ],
  "bytecode": "0x60806040523480156200001157600080fd5b50336040518060400160405280600881526020017f55534420436f696e0000000000000000000000000000000000000000000000008152506040518060400160405280600481526020017f5553444300000000000000000000000000000000000000000000000000000000815250816003908162000090919062000472565b508060049081620000a2919062000472565b505050600073ffffffffffffffffffffffffffffffffffffffff168173ffffffffffffffffffffffffffffffffffffffff16036200011a5760006040517f1e4fbdf70000000000000000000000000000000000000000000000000000000081526004016200011191906200059e565b60405180910390fd5b6200012b816200013260201b60201c565b50620005bb565b6000600560009054906101000a900473ffffffffffffffffffffffffffffffffffffffff16905081600560006101000a81548173ffffffffffffffffffffffffffffffffffffffff021916908373ffffffffffffffffffffffffffffffffffffffff1602179055508173ffffffffffffffffffffffffffffffffffffffff168173ffffffffffffffffffffffffffffffffffffffff167f8be0079c531659141344cd1fd0a4f28419497f9722a3daafe3b4186f6b6457e060405160405180910390a35050565b600081519050919050565b7f4e487b7100000000000000000000000000000000000000000000000000000000600052604160045260246000fd5b7f4e487b7100000000000000000000000000000000000000000000000000000000600052602260045260246000fd5b600060028204905060018216806200027a57607f821691505b60208210810362000290576200028f62000232565b5b50919050565b60008190508160005260206000209050919050565b60006020601f8301049050919050565b600082821b905092915050565b600060088302620002fa7fffffffffffffffffffffffffffffffffffffffffffffffffffffffffffffffff82620002bb565b620003068683620002bb565b95508019841693508086168417925050509392505050565b6000819050919050565b6000819050919050565b6000620003536200034d62000347846200031e565b62000328565b6200031e565b9050919050565b6000819050919050565b6200036f8362000332565b620003876200037e826200035a565b848454620002c8565b825550505050565b600090565b6200039e6200038f565b620003ab81848462000364565b505050565b5b81811015620003d357620003c760008262000394565b600181019050620003b1565b5050565b601f8211156200042257620003ec8162000296565b620003f784620002ab565b8101602085101562000407578190505b6200041f6200041685620002ab565b830182620003b0565b50505b505050565b600082821c905092915050565b6000620004476000198460080262000427565b1980831691505092915050565b600062000462838362000434565b9150826002028217905092915050565b6200047d82620001f8565b67ffffffffffffffff81111562000499576200049862000203565b5b620004a5825462000261565b620004b2828285620003d7565b600060209050601f831160018114620004ea5760008415620004d5578287015190505b620004e1858262000454565b86555062000551565b601f198416620004fa8662000296565b60005b828110156200052457848901518255600182019150602085019450602081019050620004fd565b8683101562000544578489015162000540601f89168262000434565b8355505b6001600288020188555050505b505050505050565b600073ffffffffffffffffffffffffffffffffffffffff82169050919050565b6000620005868262000559565b9050919050565b620005988162000579565b82525050565b6000602082019050620005b560008301846200058d565b92915050565b611d6e80620005cb6000396000f3fe608060405234801561001057600080fd5b506004361061012c5760003560e01c806347e0e2fa116100ad578063a0712d6811610071578063a0712d681461030d578063a9059cbb14610329578063dd62ed3e14610359578063f2fde38b14610389578063fff3e6d9146103a55761012c565b806347e0e2fa1461027b57806370a0823114610297578063715018a6146102c75780638da5cb5b146102d157806395d89b41146102ef5761012c565b806323b872dd116100f457806323b872dd146101d75780632f1d5a6014610207578063313ce5671461022357806336e2f6171461024157806342966c681461025f5761012c565b806306fdde0314610131578063095ea7b31461014f578063127effb21461017f57806318160ddd1461019d578063208f6225146101bb575b600080fd5b6101396103d5565b60405161014691906115e9565b60405180910390f35b610169600480360381019061016491906116a4565b610467565b60405161017691906116ff565b60405180910390f35b61018761048a565b6040516101949190611729565b60405180910390f35b6101a56104b0565b6040516101b29190611753565b60405180910390f35b6101d560048036038101906101d0919061176e565b6104ba565b005b6101f160048036038101906101ec919061179b565b6105b8565b6040516101fe91906116ff565b60405180910390f35b610221600480360381019061021c919061176e565b6105e7565b005b61022b6106a2565b604051610238919061180a565b60405180910390f35b6102496106ab565b6040516102569190611729565b60405180910390f35b61027960048036038101906102749190611825565b6106d1565b005b61029560048036038101906102909190611825565b61076c565b005b6102b160048036038101906102ac919061176e565b6107de565b6040516102be9190611753565b60405180910390f35b6102cf610826565b005b6102d961083a565b6040516102e69190611729565b60405180910390f35b6102f7610864565b60405161030491906115e9565b60405180910390f35b61032760048036038101906103229190611825565b6108f6565b005b610343600480360381019061033e91906116a4565b610994565b60405161035091906116ff565b60405180910390f35b610373600480360381019061036e9190611852565b6109b7565b6040516103809190611753565b60405180910390f35b6103a3600480360381019061039e919061176e565b610a3e565b005b6103bf60048036038101906103ba91906116a4565b610ac4565b6040516103cc91906116ff565b60405180910390f35b6060600380546103e4906118c1565b80601f0160208091040260200160405190810160405280929190818152602001828054610410906118c1565b801561045d5780601f106104325761010080835404028352916020019161045d565b820191906000526020600020905b81548152906001019060200180831161044057829003601f168201915b5050505050905090565b600080610472610d69565b905061047f818585610d71565b600191505092915050565b600760009054906101000a900473ffffffffffffffffffffffffffffffffffffffff1681565b6000600254905090565b6104c2610d83565b600073ffffffffffffffffffffffffffffffffffffffff168173ffffffffffffffffffffffffffffffffffffffff1603610531576040517f08c379a00000000000000000000000000000000000000000000000000000000081526004016105289061193e565b60405180910390fd5b80600660006101000a81548173ffffffffffffffffffffffffffffffffffffffff021916908373ffffffffffffffffffffffffffffffffffffffff1602179055508073ffffffffffffffffffffffffffffffffffffffff167fb5c56864316fc75e828a68bed69f9adde7d873b0fc0a2e9c0efe0c2988959c5b60405160405180910390a250565b6000806105c3610d69565b90506105d0858285610e0a565b6105db858585610e9f565b60019150509392505050565b6105ef610d83565b600073ffffffffffffffffffffffffffffffffffffffff168173ffffffffffffffffffffffffffffffffffffffff160361065e576040517f08c379a0000000000000000000000000000000000000000000000000000000008152600401610655906119aa565b60405180910390fd5b80600760006101000a81548173ffffffffffffffffffffffffffffffffffffffff021916908373ffffffffffffffffffffffffffffffffffffffff16021790555050565b60006006905090565b600660009054906101000a900473ffffffffffffffffffffffffffffffffffffffff1681565b60008111610714576040517f08c379a000000000000000000000000000000000000000000000000000000000815260040161070b90611a16565b60405180910390fd5b8061071e336107de565b101561075f576040517f08c379a000000000000000000000000000000000000000000000000000000000815260040161075690611a82565b60405180910390fd5b6107693382610f93565b50565b600081116107af576040517f08c379a00000000000000000000000000000000000000000000000000000000081526004016107a690611a16565b60405180910390fd5b6107db600760009054906101000a900473ffffffffffffffffffffffffffffffffffffffff1682611015565b50565b60008060008373ffffffffffffffffffffffffffffffffffffffff1673ffffffffffffffffffffffffffffffffffffffff168152602001908152602001600020549050919050565b61082e610d83565b6108386000611097565b565b6000600560009054906101000a900473ffffffffffffffffffffffffffffffffffffffff16905090565b606060048054610873906118c1565b80601f016020809104026020016040519081016040528092919081815260200182805461089f906118c1565b80156108ec5780601f106108c1576101008083540402835291602001916108ec565b820191906000526020600020905b8154815290600101906020018083116108cf57829003601f168201915b5050505050905090565b60008111610939576040517f08c379a000000000000000000000000000000000000000000000000000000000815260040161093090611a16565b60405180910390fd5b6109433382611015565b3373ffffffffffffffffffffffffffffffffffffffff167f3f2c9d57c068687834f0de942a9babb9e5acab57d516d3480a3c16ee165a4273826040516109899190611753565b60405180910390a250565b60008061099f610d69565b90506109ac818585610e9f565b600191505092915050565b6000600160008473ffffffffffffffffffffffffffffffffffffffff1673ffffffffffffffffffffffffffffffffffffffff16815260200190815260200160002060008373ffffffffffffffffffffffffffffffffffffffff1673ffffffffffffffffffffffffffffffffffffffff16815260200190815260200160002054905092915050565b610a46610d83565b600073ffffffffffffffffffffffffffffffffffffffff168173ffffffffffffffffffffffffffffffffffffffff1603610ab85760006040517f1e4fbdf7000000000000000000000000000000000000000000000000000000008152600401610aaf9190611729565b60405180910390fd5b610ac181611097565b50565b6000600660009054906101000a900473ffffffffffffffffffffffffffffffffffffffff1673ffffffffffffffffffffffffffffffffffffffff163373ffffffffffffffffffffffffffffffffffffffff1614610b56576040517f08c379a0000000000000000000000000000000000000000000000000000000008152600401610b4d90611b14565b60405180910390fd5b600073ffffffffffffffffffffffffffffffffffffffff16600660009054906101000a900473ffffffffffffffffffffffffffffffffffffffff1673ffffffffffffffffffffffffffffffffffffffff1603610be7576040517f08c379a0000000000000000000000000000000000000000000000000000000008152600401610bde90611b80565b60405180910390fd5b600073ffffffffffffffffffffffffffffffffffffffff168373ffffffffffffffffffffffffffffffffffffffff1603610c56576040517f08c379a0000000000000000000000000000000000000000000000000000000008152600401610c4d90611c12565b60405180910390fd5b60008211610c99576040517f08c379a0000000000000000000000000000000000000000000000000000000008152600401610c9090611a16565b60405180910390fd5b81610ca3846107de565b1015610ce4576040517f08c379a0000000000000000000000000000000000000000000000000000000008152600401610cdb90611c7e565b60405180910390fd5b610d1183600660009054906101000a900473ffffffffffffffffffffffffffffffffffffffff1684610e9f565b8273ffffffffffffffffffffffffffffffffffffffff167f3284063c5580491bb9b1d9b7224461c765444b89b2a6ee044960cfb746b2357983604051610d579190611753565b60405180910390a26001905092915050565b600033905090565b610d7e838383600161115d565b505050565b610d8b610d69565b73ffffffffffffffffffffffffffffffffffffffff16610da961083a565b73ffffffffffffffffffffffffffffffffffffffff1614610e0857610dcc610d69565b6040517f118cdaa7000000000000000000000000000000000000000000000000000000008152600401610dff9190611729565b60405180910390fd5b565b6000610e1684846109b7565b90507fffffffffffffffffffffffffffffffffffffffffffffffffffffffffffffffff811015610e995781811015610e89578281836040517ffb8f41b2000000000000000000000000000000000000000000000000000000008152600401610e8093929190611c9e565b60405180910390fd5b610e988484848403600061115d565b5b50505050565b600073ffffffffffffffffffffffffffffffffffffffff168373ffffffffffffffffffffffffffffffffffffffff1603610f115760006040517f96c6fd1e000000000000000000000000000000000000000000000000000000008152600401610f089190611729565b60405180910390fd5b600073ffffffffffffffffffffffffffffffffffffffff168273ffffffffffffffffffffffffffffffffffffffff1603610f835760006040517fec442f05000000000000000000000000000000000000000000000000000000008152600401610f7a9190611729565b60405180910390fd5b610f8e838383611334565b505050565b600073ffffffffffffffffffffffffffffffffffffffff168273ffffffffffffffffffffffffffffffffffffffff16036110055760006040517f96c6fd1e000000000000000000000000000000000000000000000000000000008152600401610ffc9190611729565b60405180910390fd5b61101182600083611334565b5050565b600073ffffffffffffffffffffffffffffffffffffffff168273ffffffffffffffffffffffffffffffffffffffff16036110875760006040517fec442f0500000000000000000000000000000000000000000000000000000000815260040161107e9190611729565b60405180910390fd5b61109360008383611334565b5050565b6000600560009054906101000a900473ffffffffffffffffffffffffffffffffffffffff16905081600560006101000a81548173ffffffffffffffffffffffffffffffffffffffff021916908373ffffffffffffffffffffffffffffffffffffffff1602179055508173ffffffffffffffffffffffffffffffffffffffff168173ffffffffffffffffffffffffffffffffffffffff167f8be0079c531659141344cd1fd0a4f28419497f9722a3daafe3b4186f6b6457e060405160405180910390a35050565b600073ffffffffffffffffffffffffffffffffffffffff168473ffffffffffffffffffffffffffffffffffffffff16036111cf5760006040517fe602df050000000000000000000000000000000000000000000000000000000081526004016111c69190611729565b60405180910390fd5b600073ffffffffffffffffffffffffffffffffffffffff168373ffffffffffffffffffffffffffffffffffffffff16036112415760006040517f94280d620000000000000000000000000000000000000000000000000000000081526004016112389190611729565b60405180910390fd5b81600160008673ffffffffffffffffffffffffffffffffffffffff1673ffffffffffffffffffffffffffffffffffffffff16815260200190815260200160002060008573ffffffffffffffffffffffffffffffffffffffff1673ffffffffffffffffffffffffffffffffffffffff16815260200190815260200160002081905550801561132e578273ffffffffffffffffffffffffffffffffffffffff168473ffffffffffffffffffffffffffffffffffffffff167f8c5be1e5ebec7d5bd14f71427d1e84f3dd0314c0f7b2291e5b200ac8c7c3b925846040516113259190611753565b60405180910390a35b50505050565b600073ffffffffffffffffffffffffffffffffffffffff168373ffffffffffffffffffffffffffffffffffffffff160361138657806002600082825461137a9190611d04565b92505081905550611459565b60008060008573ffffffffffffffffffffffffffffffffffffffff1673ffffffffffffffffffffffffffffffffffffffff16815260200190815260200160002054905081811015611412578381836040517fe450d38c00000000000000000000000000000000000000000000000000000000815260040161140993929190611c9e565b60405180910390fd5b8181036000808673ffffffffffffffffffffffffffffffffffffffff1673ffffffffffffffffffffffffffffffffffffffff16815260200190815260200160002081905550505b600073ffffffffffffffffffffffffffffffffffffffff168273ffffffffffffffffffffffffffffffffffffffff16036114a257806002600082825403925050819055506114ef565b806000808473ffffffffffffffffffffffffffffffffffffffff1673ffffffffffffffffffffffffffffffffffffffff168152602001908152602001600020600082825401925050819055505b8173ffffffffffffffffffffffffffffffffffffffff168373ffffffffffffffffffffffffffffffffffffffff167fddf252ad1be2c89b69c2b068fc378daa952ba7f163c4a11628f55a4df523b3ef8360405161154c9190611753565b60405180910390a3505050565b600081519050919050565b600082825260208201905092915050565b60005b83811015611593578082015181840152602081019050611578565b60008484015250505050565b6000601f19601f8301169050919050565b60006115bb82611559565b6115c58185611564565b93506115d5818560208601611575565b6115de8161159f565b840191505092915050565b6000602082019050818103600083015261160381846115b0565b905092915050565b600080fd5b600073ffffffffffffffffffffffffffffffffffffffff82169050919050565b600061163b82611610565b9050919050565b61164b81611630565b811461165657600080fd5b50565b60008135905061166881611642565b92915050565b6000819050919050565b6116818161166e565b811461168c57600080fd5b50565b60008135905061169e81611678565b92915050565b600080604083850312156116bb576116ba61160b565b5b60006116c985828601611659565b92505060206116da8582860161168f565b9150509250929050565b60008115159050919050565b6116f9816116e4565b82525050565b600060208201905061171460008301846116f0565b92915050565b61172381611630565b82525050565b600060208201905061173e600083018461171a565b92915050565b61174d8161166e565b82525050565b60006020820190506117686000830184611744565b92915050565b6000602082840312156117845761178361160b565b5b600061179284828501611659565b91505092915050565b6000806000606084860312156117b4576117b361160b565b5b60006117c286828701611659565b93505060206117d386828701611659565b92505060406117e48682870161168f565b9150509250925092565b600060ff82169050919050565b611804816117ee565b82525050565b600060208201905061181f60008301846117fb565b92915050565b60006020828403121561183b5761183a61160b565b5b60006118498482850161168f565b91505092915050565b600080604083850312156118695761186861160b565b5b600061187785828601611659565b925050602061188885828601611659565b9150509250929050565b7f4e487b7100000000000000000000000000000000000000000000000000000000600052602260045260246000fd5b600060028204905060018216806118d957607f821691505b6020821081036118ec576118eb611892565b5b50919050565b7f5055534420616464726573732063616e6e6f74206265207a65726f0000000000600082015250565b6000611928601b83611564565b9150611933826118f2565b602082019050919050565b600060208201905081810360008301526119578161191b565b9050919050565b7f4f70657261746f7220616464726573732063616e6e6f74206265207a65726f00600082015250565b6000611994601f83611564565b915061199f8261195e565b602082019050919050565b600060208201905081810360008301526119c381611987565b9050919050565b7f416d6f756e74206d7573742062652067726561746572207468616e207a65726f600082015250565b6000611a00602083611564565b9150611a0b826119ca565b602082019050919050565b60006020820190508181036000830152611a2f816119f3565b9050919050565b7f496e73756666696369656e742062616c616e636520746f206275726e00000000600082015250565b6000611a6c601c83611564565b9150611a7782611a36565b602082019050919050565b60006020820190508181036000830152611a9b81611a5f565b9050919050565b7f4f6e6c79205055534420636f6e74726163742063616e2063616c6c207468697360008201527f2066756e6374696f6e0000000000000000000000000000000000000000000000602082015250565b6000611afe602983611564565b9150611b0982611aa2565b604082019050919050565b60006020820190508181036000830152611b2d81611af1565b9050919050565b7f505553442061646472657373206e6f7420736574000000000000000000000000600082015250565b6000611b6a601483611564565b9150611b7582611b34565b602082019050919050565b60006020820190508181036000830152611b9981611b5d565b9050919050565b7f43616e6e6f74207472616e736665722066726f6d207a65726f2061646472657360008201527f7300000000000000000000000000000000000000000000000000000000000000602082015250565b6000611bfc602183611564565b9150611c0782611ba0565b604082019050919050565b60006020820190508181036000830152611c2b81611bef565b9050919050565b7f496e73756666696369656e742062616c616e6365000000000000000000000000600082015250565b6000611c68601483611564565b9150611c7382611c32565b602082019050919050565b60006020820190508181036000830152611c9781611c5b565b9050919050565b6000606082019050611cb3600083018661171a565b611cc06020830185611744565b611ccd6040830184611744565b949350505050565b7f4e487b7100000000000000000000000000000000000000000000000000000000600052601160045260246000fd5b6000611d0f8261166e565b9150611d1a8361166e565b9250828201905080821115611d3257611d31611cd5565b5b9291505056fea26469706673582212200595317dd7bf9b493d2fa9e9c47654deab8bcf814937264eea681e94e69867eb64736f6c63430008140033",
  "linkReferences": {},
  "deployedLinkReferences": {}
}