{
  "_format": "hh-sol-artifact-1",
  "contractName": "sPUSD",
  "sourceName": "contracts/sPUSD.sol",
  "abi": [
    {
      "inputs": [
        {
          "internalType": "address",
          "name": "_pusdToken",
          "type": "address"
        }
      ],
      "stateMutability": "nonpayable",
      "type": "constructor"
    },
    {
      "inputs": [
        {
          "internalType": "address",
          "name": "spender",
          "type": "address"
        },
        {
          "internalType": "uint256",
          "name": "allowance",
          "type": "uint256"
        },
        {
          "internalType": "uint256",
          "name": "needed",
          "type": "uint256"
        }
      ],
      "name": "ERC20InsufficientAllowance",
      "type": "error"
    },
    {
      "inputs": [
        {
          "internalType": "address",
          "name": "sender",
          "type": "address"
        },
        {
          "internalType": "uint256",
          "name": "balance",
          "type": "uint256"
        },
        {
          "internalType": "uint256",
          "name": "needed",
          "type": "uint256"
        }
      ],
      "name": "ERC20InsufficientBalance",
      "type": "error"
    },
    {
      "inputs": [
        {
          "internalType": "address",
          "name": "approver",
          "type": "address"
        }
      ],
      "name": "ERC20InvalidApprover",
      "type": "error"
    },
    {
      "inputs": [
        {
          "internalType": "address",
          "name": "receiver",
          "type": "address"
        }
      ],
      "name": "ERC20InvalidReceiver",
      "type": "error"
    },
    {
      "inputs": [
        {
          "internalType": "address",
          "name": "sender",
          "type": "address"
        }
      ],
      "name": "ERC20InvalidSender",
      "type": "error"
    },
    {
      "inputs": [
        {
          "internalType": "address",
          "name": "spender",
          "type": "address"
        }
      ],
      "name": "ERC20InvalidSpender",
      "type": "error"
    },
    {
      "inputs": [
        {
          "internalType": "address",
          "name": "receiver",
          "type": "address"
        },
        {
          "internalType": "uint256",
          "name": "assets",
          "type": "uint256"
        },
        {
          "internalType": "uint256",
          "name": "max",
          "type": "uint256"
        }
      ],
      "name": "ERC4626ExceededMaxDeposit",
      "type": "error"
    },
    {
      "inputs": [
        {
          "internalType": "address",
          "name": "receiver",
          "type": "address"
        },
        {
          "internalType": "uint256",
          "name": "shares",
          "type": "uint256"
        },
        {
          "internalType": "uint256",
          "name": "max",
          "type": "uint256"
        }
      ],
      "name": "ERC4626ExceededMaxMint",
      "type": "error"
    },
    {
      "inputs": [
        {
          "internalType": "address",
          "name": "owner",
          "type": "address"
        },
        {
          "internalType": "uint256",
          "name": "shares",
          "type": "uint256"
        },
        {
          "internalType": "uint256",
          "name": "max",
          "type": "uint256"
        }
      ],
      "name": "ERC4626ExceededMaxRedeem",
      "type": "error"
    },
    {
      "inputs": [
        {
          "internalType": "address",
          "name": "owner",
          "type": "address"
        },
        {
          "internalType": "uint256",
          "name": "assets",
          "type": "uint256"
        },
        {
          "internalType": "uint256",
          "name": "max",
          "type": "uint256"
        }
      ],
      "name": "ERC4626ExceededMaxWithdraw",
      "type": "error"
    },
    {
      "inputs": [
        {
          "internalType": "address",
          "name": "owner",
          "type": "address"
        }
      ],
      "name": "OwnableInvalidOwner",
      "type": "error"
    },
    {
      "inputs": [
        {
          "internalType": "address",
          "name": "account",
          "type": "address"
        }
      ],
      "name": "OwnableUnauthorizedAccount",
      "type": "error"
    },
    {
      "anonymous": false,
      "inputs": [
        {
          "indexed": true,
          "internalType": "address",
          "name": "owner",
          "type": "address"
        },
        {
          "indexed": true,
          "internalType": "address",
          "name": "spender",
          "type": "address"
        },
        {
          "indexed": false,
          "internalType": "uint256",
          "name": "value",
          "type": "uint256"
        }
      ],
      "name": "Approval",
      "type": "event"
    },
    {
      "anonymous": false,
      "inputs": [
        {
          "indexed": true,
          "internalType": "address",
          "name": "sender",
          "type": "address"
        },
        {
          "indexed": true,
          "internalType": "address",
          "name": "owner",
          "type": "address"
        },
        {
          "indexed": false,
          "internalType": "uint256",
          "name": "assets",
          "type": "uint256"
        },
        {
          "indexed": false,
          "internalType": "uint256",
          "name": "shares",
          "type": "uint256"
        }
      ],
      "name": "Deposit",
      "type": "event"
    },
    {
      "anonymous": false,
      "inputs": [
        {
          "indexed": true,
          "internalType": "address",
          "name": "previousOwner",
          "type": "address"
        },
        {
          "indexed": true,
          "internalType": "address",
          "name": "newOwner",
          "type": "address"
        }
      ],
      "name": "OwnershipTransferred",
      "type": "event"
    },
    {
      "anonymous": false,
      "inputs": [
        {
          "indexed": true,
          "internalType": "address",
          "name": "pusdAddress",
          "type": "address"
        }
      ],
      "name": "PUSDAddressSet",
      "type": "event"
    },
    {
      "anonymous": false,
      "inputs": [
        {
          "indexed": true,
          "internalType": "address",
          "name": "from",
          "type": "address"
        },
        {
          "indexed": true,
          "internalType": "address",
          "name": "to",
          "type": "address"
        },
        {
          "indexed": false,
          "internalType": "uint256",
          "name": "value",
          "type": "uint256"
        }
      ],
      "name": "Transfer",
      "type": "event"
    },
    {
      "anonymous": false,
      "inputs": [
        {
          "indexed": true,
          "internalType": "address",
          "name": "sender",
          "type": "address"
        },
        {
          "indexed": true,
          "internalType": "address",
          "name": "receiver",
          "type": "address"
        },
        {
          "indexed": true,
          "internalType": "address",
          "name": "owner",
          "type": "address"
        },
        {
          "indexed": false,
          "internalType": "uint256",
          "name": "assets",
          "type": "uint256"
        },
        {
          "indexed": false,
          "internalType": "uint256",
          "name": "shares",
          "type": "uint256"
        }
      ],
      "name": "Withdraw",
      "type": "event"
    },
    {
      "inputs": [
        {
          "internalType": "address",
          "name": "owner",
          "type": "address"
        },
        {
          "internalType": "address",
          "name": "spender",
          "type": "address"
        }
      ],
      "name": "allowance",
      "outputs": [
        {
          "internalType": "uint256",
          "name": "",
          "type": "uint256"
        }
      ],
      "stateMutability": "view",
      "type": "function"
    },
    {
      "inputs": [
        {
          "internalType": "address",
          "name": "spender",
          "type": "address"
        },
        {
          "internalType": "uint256",
          "name": "value",
          "type": "uint256"
        }
      ],
      "name": "approve",
      "outputs": [
        {
          "internalType": "bool",
          "name": "",
          "type": "bool"
        }
      ],
      "stateMutability": "nonpayable",
      "type": "function"
    },
    {
      "inputs": [],
      "name": "asset",
      "outputs": [
        {
          "internalType": "address",
          "name": "",
          "type": "address"
        }
      ],
      "stateMutability": "view",
      "type": "function"
    },
    {
      "inputs": [
        {
          "internalType": "address",
          "name": "account",
          "type": "address"
        }
      ],
      "name": "balanceOf",
      "outputs": [
        {
          "internalType": "uint256",
          "name": "",
          "type": "uint256"
        }
      ],
      "stateMutability": "view",
      "type": "function"
    },
    {
      "inputs": [
        {
          "internalType": "uint256",
          "name": "shares",
          "type": "uint256"
        }
      ],
      "name": "convertToAssets",
      "outputs": [
        {
          "internalType": "uint256",
          "name": "",
          "type": "uint256"
        }
      ],
      "stateMutability": "view",
      "type": "function"
    },
    {
      "inputs": [
        {
          "internalType": "uint256",
          "name": "assets",
          "type": "uint256"
        }
      ],
      "name": "convertToShares",
      "outputs": [
        {
          "internalType": "uint256",
          "name": "",
          "type": "uint256"
        }
      ],
      "stateMutability": "view",
      "type": "function"
    },
    {
      "inputs": [],
      "name": "decimals",
      "outputs": [
        {
          "internalType": "uint8",
          "name": "",
          "type": "uint8"
        }
      ],
      "stateMutability": "pure",
      "type": "function"
    },
    {
      "inputs": [
        {
          "internalType": "uint256",
          "name": "assets",
          "type": "uint256"
        },
        {
          "internalType": "address",
          "name": "receiver",
          "type": "address"
        }
      ],
      "name": "deposit",
      "outputs": [
        {
          "internalType": "uint256",
          "name": "",
          "type": "uint256"
        }
      ],
      "stateMutability": "nonpayable",
      "type": "function"
    },
    {
      "inputs": [],
      "name": "loanManager",
      "outputs": [
        {
          "internalType": "address",
          "name": "",
          "type": "address"
        }
      ],
      "stateMutability": "view",
      "type": "function"
    },
    {
      "inputs": [],
      "name": "loanedPUSDCAmount",
      "outputs": [
        {
          "internalType": "uint256",
          "name": "",
          "type": "uint256"
        }
      ],
      "stateMutability": "view",
      "type": "function"
    },
    {
      "inputs": [
        {
          "internalType": "address",
          "name": "",
          "type": "address"
        }
      ],
      "name": "maxDeposit",
      "outputs": [
        {
          "internalType": "uint256",
          "name": "",
          "type": "uint256"
        }
      ],
      "stateMutability": "view",
      "type": "function"
    },
    {
      "inputs": [
        {
          "internalType": "address",
          "name": "",
          "type": "address"
        }
      ],
      "name": "maxMint",
      "outputs": [
        {
          "internalType": "uint256",
          "name": "",
          "type": "uint256"
        }
      ],
      "stateMutability": "view",
      "type": "function"
    },
    {
      "inputs": [
        {
          "internalType": "address",
          "name": "owner",
          "type": "address"
        }
      ],
      "name": "maxRedeem",
      "outputs": [
        {
          "internalType": "uint256",
          "name": "",
          "type": "uint256"
        }
      ],
      "stateMutability": "view",
      "type": "function"
    },
    {
      "inputs": [
        {
          "internalType": "address",
          "name": "owner",
          "type": "address"
        }
      ],
      "name": "maxWithdraw",
      "outputs": [
        {
          "internalType": "uint256",
          "name": "",
          "type": "uint256"
        }
      ],
      "stateMutability": "view",
      "type": "function"
    },
    {
      "inputs": [
        {
          "internalType": "uint256",
          "name": "shares",
          "type": "uint256"
        },
        {
          "internalType": "address",
          "name": "receiver",
          "type": "address"
        }
      ],
      "name": "mint",
      "outputs": [
        {
          "internalType": "uint256",
          "name": "",
          "type": "uint256"
        }
      ],
      "stateMutability": "nonpayable",
      "type": "function"
    },
    {
      "inputs": [],
      "name": "name",
      "outputs": [
        {
          "internalType": "string",
          "name": "",
          "type": "string"
        }
      ],
      "stateMutability": "view",
      "type": "function"
    },
    {
      "inputs": [],
      "name": "owner",
      "outputs": [
        {
          "internalType": "address",
          "name": "",
          "type": "address"
        }
      ],
      "stateMutability": "view",
      "type": "function"
    },
    {
      "inputs": [
        {
          "internalType": "uint256",
          "name": "assets",
          "type": "uint256"
        }
      ],
      "name": "previewDeposit",
      "outputs": [
        {
          "internalType": "uint256",
          "name": "",
          "type": "uint256"
        }
      ],
      "stateMutability": "view",
      "type": "function"
    },
    {
      "inputs": [
        {
          "internalType": "uint256",
          "name": "shares",
          "type": "uint256"
        }
      ],
      "name": "previewMint",
      "outputs": [
        {
          "internalType": "uint256",
          "name": "",
          "type": "uint256"
        }
      ],
      "stateMutability": "view",
      "type": "function"
    },
    {
      "inputs": [
        {
          "internalType": "uint256",
          "name": "shares",
          "type": "uint256"
        }
      ],
      "name": "previewRedeem",
      "outputs": [
        {
          "internalType": "uint256",
          "name": "",
          "type": "uint256"
        }
      ],
      "stateMutability": "view",
      "type": "function"
    },
    {
      "inputs": [
        {
          "internalType": "uint256",
          "name": "assets",
          "type": "uint256"
        }
      ],
      "name": "previewWithdraw",
      "outputs": [
        {
          "internalType": "uint256",
          "name": "",
          "type": "uint256"
        }
      ],
      "stateMutability": "view",
      "type": "function"
    },
    {
      "inputs": [],
      "name": "pusdToken",
      "outputs": [
        {
          "internalType": "contract PUSD",
          "name": "",
          "type": "address"
        }
      ],
      "stateMutability": "view",
      "type": "function"
    },
    {
      "inputs": [
        {
          "internalType": "uint256",
          "name": "shares",
          "type": "uint256"
        },
        {
          "internalType": "address",
          "name": "receiver",
          "type": "address"
        },
        {
          "internalType": "address",
          "name": "owner",
          "type": "address"
        }
      ],
      "name": "redeem",
      "outputs": [
        {
          "internalType": "uint256",
          "name": "",
          "type": "uint256"
        }
      ],
      "stateMutability": "nonpayable",
      "type": "function"
    },
    {
      "inputs": [],
      "name": "renounceOwnership",
      "outputs": [],
      "stateMutability": "nonpayable",
      "type": "function"
    },
    {
      "inputs": [
        {
          "internalType": "address",
          "name": "_loanManager",
          "type": "address"
        }
      ],
      "name": "setLoanManager",
      "outputs": [],
      "stateMutability": "nonpayable",
      "type": "function"
    },
    {
      "inputs": [],
      "name": "symbol",
      "outputs": [
        {
          "internalType": "string",
          "name": "",
          "type": "string"
        }
      ],
      "stateMutability": "view",
      "type": "function"
    },
    {
      "inputs": [],
      "name": "totalAssets",
      "outputs": [
        {
          "internalType": "uint256",
          "name": "",
          "type": "uint256"
        }
      ],
      "stateMutability": "view",
      "type": "function"
    },
    {
      "inputs": [],
      "name": "totalSupply",
      "outputs": [
        {
          "internalType": "uint256",
          "name": "",
          "type": "uint256"
        }
      ],
      "stateMutability": "view",
      "type": "function"
    },
    {
      "inputs": [
        {
          "internalType": "address",
          "name": "to",
          "type": "address"
        },
        {
          "internalType": "uint256",
          "name": "value",
          "type": "uint256"
        }
      ],
      "name": "transfer",
      "outputs": [
        {
          "internalType": "bool",
          "name": "",
          "type": "bool"
        }
      ],
      "stateMutability": "nonpayable",
      "type": "function"
    },
    {
      "inputs": [
        {
          "internalType": "address",
          "name": "from",
          "type": "address"
        },
        {
          "internalType": "address",
          "name": "to",
          "type": "address"
        },
        {
          "internalType": "uint256",
          "name": "value",
          "type": "uint256"
        }
      ],
      "name": "transferFrom",
      "outputs": [
        {
          "internalType": "bool",
          "name": "",
          "type": "bool"
        }
      ],
      "stateMutability": "nonpayable",
      "type": "function"
    },
    {
      "inputs": [
        {
          "internalType": "uint256",
          "name": "pusdcAmount",
          "type": "uint256"
        },
        {
          "internalType": "address",
          "name": "operator",
          "type": "address"
        }
      ],
      "name": "transferFromOperator",
      "outputs": [
        {
          "internalType": "bool",
          "name": "",
          "type": "bool"
        }
      ],
      "stateMutability": "nonpayable",
      "type": "function"
    },
    {
      "inputs": [
        {
          "internalType": "address",
          "name": "newOwner",
          "type": "address"
        }
      ],
      "name": "transferOwnership",
      "outputs": [],
      "stateMutability": "nonpayable",
      "type": "function"
    },
    {
      "inputs": [
        {
          "internalType": "uint256",
          "name": "pusdcAmount",
          "type": "uint256"
        },
        {
          "internalType": "address",
          "name": "operator",
          "type": "address"
        }
      ],
      "name": "transferToOperator",
      "outputs": [
        {
          "internalType": "bool",
          "name": "",
          "type": "bool"
        }
      ],
      "stateMutability": "nonpayable",
      "type": "function"
    },
    {
      "inputs": [
        {
          "internalType": "uint256",
          "name": "assets",
          "type": "uint256"
        },
        {
          "internalType": "address",
          "name": "receiver",
          "type": "address"
        },
        {
          "internalType": "address",
          "name": "owner",
          "type": "address"
        }
      ],
      "name": "withdraw",
      "outputs": [
        {
          "internalType": "uint256",
          "name": "",
          "type": "uint256"
        }
      ],
      "stateMutability": "nonpayable",
      "type": "function"
    }
  ],
  "bytecode": "0x60c060405260006008553480156200001657600080fd5b506040516200362c3803806200362c83398181016040528101906200003c9190620004c7565b33816040518060400160405280600b81526020017f5374616b656420505553440000000000000000000000000000000000000000008152506040518060400160405280600581526020017f73505553440000000000000000000000000000000000000000000000000000008152508160039081620000bb919062000773565b508060049081620000cd919062000773565b505050600080620000e4836200027d60201b60201c565b9150915081620000f6576012620000f8565b805b60ff1660a08160ff16815250508273ffffffffffffffffffffffffffffffffffffffff1660808173ffffffffffffffffffffffffffffffffffffffff1681525050505050600073ffffffffffffffffffffffffffffffffffffffff168173ffffffffffffffffffffffffffffffffffffffff1603620001b15760006040517f1e4fbdf7000000000000000000000000000000000000000000000000000000008152600401620001a891906200086b565b60405180910390fd5b620001c2816200039760201b60201c565b50600073ffffffffffffffffffffffffffffffffffffffff168173ffffffffffffffffffffffffffffffffffffffff160362000235576040517f08c379a00000000000000000000000000000000000000000000000000000000081526004016200022c90620008e9565b60405180910390fd5b80600660006101000a81548173ffffffffffffffffffffffffffffffffffffffff021916908373ffffffffffffffffffffffffffffffffffffffff1602179055505062000a00565b6000806000808473ffffffffffffffffffffffffffffffffffffffff1660405160240160405160208183030381529060405263313ce56760e01b6020820180517bffffffffffffffffffffffffffffffffffffffffffffffffffffffff8381831617835250505050604051620002f4919062000984565b600060405180830381855afa9150503d806000811462000331576040519150601f19603f3d011682016040523d82523d6000602084013e62000336565b606091505b50915091508180156200034b57506020815110155b156200038857600081806020019051810190620003699190620009ce565b905060ff8016811162000386576001819450945050505062000392565b505b6000809350935050505b915091565b6000600560009054906101000a900473ffffffffffffffffffffffffffffffffffffffff16905081600560006101000a81548173ffffffffffffffffffffffffffffffffffffffff021916908373ffffffffffffffffffffffffffffffffffffffff1602179055508173ffffffffffffffffffffffffffffffffffffffff168173ffffffffffffffffffffffffffffffffffffffff167f8be0079c531659141344cd1fd0a4f28419497f9722a3daafe3b4186f6b6457e060405160405180910390a35050565b600080fd5b600073ffffffffffffffffffffffffffffffffffffffff82169050919050565b60006200048f8262000462565b9050919050565b620004a18162000482565b8114620004ad57600080fd5b50565b600081519050620004c18162000496565b92915050565b600060208284031215620004e057620004df6200045d565b5b6000620004f084828501620004b0565b91505092915050565b600081519050919050565b7f4e487b7100000000000000000000000000000000000000000000000000000000600052604160045260246000fd5b7f4e487b7100000000000000000000000000000000000000000000000000000000600052602260045260246000fd5b600060028204905060018216806200057b57607f821691505b60208210810362000591576200059062000533565b5b50919050565b60008190508160005260206000209050919050565b60006020601f8301049050919050565b600082821b905092915050565b600060088302620005fb7fffffffffffffffffffffffffffffffffffffffffffffffffffffffffffffffff82620005bc565b620006078683620005bc565b95508019841693508086168417925050509392505050565b6000819050919050565b6000819050919050565b6000620006546200064e62000648846200061f565b62000629565b6200061f565b9050919050565b6000819050919050565b620006708362000633565b620006886200067f826200065b565b848454620005c9565b825550505050565b600090565b6200069f62000690565b620006ac81848462000665565b505050565b5b81811015620006d457620006c860008262000695565b600181019050620006b2565b5050565b601f8211156200072357620006ed8162000597565b620006f884620005ac565b8101602085101562000708578190505b620007206200071785620005ac565b830182620006b1565b50505b505050565b600082821c905092915050565b6000620007486000198460080262000728565b1980831691505092915050565b600062000763838362000735565b9150826002028217905092915050565b6200077e82620004f9565b67ffffffffffffffff8111156200079a576200079962000504565b5b620007a6825462000562565b620007b3828285620006d8565b600060209050601f831160018114620007eb5760008415620007d6578287015190505b620007e2858262000755565b86555062000852565b601f198416620007fb8662000597565b60005b828110156200082557848901518255600182019150602085019450602081019050620007fe565b8683101562000845578489015162000841601f89168262000735565b8355505b6001600288020188555050505b505050505050565b620008658162000482565b82525050565b60006020820190506200088260008301846200085a565b92915050565b600082825260208201905092915050565b7f5055534420616464726573732063616e6e6f74206265207a65726f0000000000600082015250565b6000620008d1601b8362000888565b9150620008de8262000899565b602082019050919050565b600060208201905081810360008301526200090481620008c2565b9050919050565b600081519050919050565b600081905092915050565b60005b838110156200094157808201518184015260208101905062000924565b60008484015250505050565b60006200095a826200090b565b62000966818562000916565b93506200097881856020860162000921565b80840191505092915050565b60006200099282846200094d565b915081905092915050565b620009a8816200061f565b8114620009b457600080fd5b50565b600081519050620009c8816200099d565b92915050565b600060208284031215620009e757620009e66200045d565b5b6000620009f784828501620009b7565b91505092915050565b60805160a051612c0962000a23600039600050506000610b8b0152612c096000f3fe608060405234801561001057600080fd5b50600436106102065760003560e01c80638da5cb5b1161011a578063ba087652116100ad578063d905777e1161007c578063d905777e1461068d578063dc57225b146106bd578063dd62ed3e146106ed578063ef8b30f71461071d578063f2fde38b1461074d57610206565b8063ba087652146105cd578063c63d75b6146105fd578063c6e6f5921461062d578063ce96cb771461065d57610206565b8063a9059cbb116100e9578063a9059cbb1461051f578063b3ccbcfe1461054f578063b3d7f6b91461056d578063b460af941461059d57610206565b80638da5cb5b1461049557806394bf804d146104b357806395d89b41146104e3578063a15718db1461050157610206565b8063313ce5671161019d5780635772ae701161016c5780635772ae70146103f15780636e553f651461040d57806370a082311461043d578063715018a61461046d5780637f7614b41461047757610206565b8063313ce5671461035557806338d52e0f14610373578063402d267d146103915780634cdad506146103c157610206565b80630a28a477116101d95780630a28a477146102a75780630f9facbe146102d757806318160ddd1461030757806323b872dd1461032557610206565b806301e1d1141461020b57806306fdde031461022957806307a2d13a14610247578063095ea7b314610277575b600080fd5b610213610769565b604051610220919061215c565b60405180910390f35b6102316107f1565b60405161023e9190612207565b60405180910390f35b610261600480360381019061025c919061225a565b610883565b60405161026e919061215c565b60405180910390f35b610291600480360381019061028c91906122e5565b610897565b60405161029e9190612340565b60405180910390f35b6102c160048036038101906102bc919061225a565b6108ba565b6040516102ce919061215c565b60405180910390f35b6102f160048036038101906102ec919061235b565b6108ce565b6040516102fe9190612340565b60405180910390f35b61030f610b45565b60405161031c919061215c565b60405180910390f35b61033f600480360381019061033a919061239b565b610b4f565b60405161034c9190612340565b60405180910390f35b61035d610b7e565b60405161036a919061240a565b60405180910390f35b61037b610b87565b6040516103889190612434565b60405180910390f35b6103ab60048036038101906103a6919061244f565b610baf565b6040516103b8919061215c565b60405180910390f35b6103db60048036038101906103d6919061225a565b610bd9565b6040516103e8919061215c565b60405180910390f35b61040b6004803603810190610406919061244f565b610bed565b005b6104276004803603810190610422919061235b565b610ca8565b604051610434919061215c565b60405180910390f35b6104576004803603810190610452919061244f565b610d2a565b604051610464919061215c565b60405180910390f35b610475610d72565b005b61047f610d86565b60405161048c91906124db565b60405180910390f35b61049d610dac565b6040516104aa9190612434565b60405180910390f35b6104cd60048036038101906104c8919061235b565b610dd6565b6040516104da919061215c565b60405180910390f35b6104eb610e58565b6040516104f89190612207565b60405180910390f35b610509610eea565b604051610516919061215c565b60405180910390f35b610539600480360381019061053491906122e5565b610ef0565b6040516105469190612340565b60405180910390f35b610557610f13565b6040516105649190612434565b60405180910390f35b6105876004803603810190610582919061225a565b610f39565b604051610594919061215c565b60405180910390f35b6105b760048036038101906105b291906124f6565b610f4d565b6040516105c4919061215c565b60405180910390f35b6105e760048036038101906105e291906124f6565b610fd1565b6040516105f4919061215c565b60405180910390f35b6106176004803603810190610612919061244f565b611055565b604051610624919061215c565b60405180910390f35b6106476004803603810190610642919061225a565b61107f565b604051610654919061215c565b60405180910390f35b6106776004803603810190610672919061244f565b611093565b604051610684919061215c565b60405180910390f35b6106a760048036038101906106a2919061244f565b6110af565b6040516106b4919061215c565b60405180910390f35b6106d760048036038101906106d2919061235b565b6110c1565b6040516106e49190612340565b60405180910390f35b61070760048036038101906107029190612549565b611338565b604051610714919061215c565b60405180910390f35b6107376004803603810190610732919061225a565b6113bf565b604051610744919061215c565b60405180910390f35b6107676004803603810190610762919061244f565b6113d3565b005b6000610773610b87565b73ffffffffffffffffffffffffffffffffffffffff166370a08231306040518263ffffffff1660e01b81526004016107ab9190612434565b602060405180830381865afa1580156107c8573d6000803e3d6000fd5b505050506040513d601f19601f820116820180604052508101906107ec919061259e565b905090565b606060038054610800906125fa565b80601f016020809104026020016040519081016040528092919081815260200182805461082c906125fa565b80156108795780601f1061084e57610100808354040283529160200191610879565b820191906000526020600020905b81548152906001019060200180831161085c57829003601f168201915b5050505050905090565b6000610890826000611459565b9050919050565b6000806108a26114b2565b90506108af8185856114ba565b600191505092915050565b60006108c78260016114cc565b9050919050565b6000600760009054906101000a900473ffffffffffffffffffffffffffffffffffffffff1673ffffffffffffffffffffffffffffffffffffffff163373ffffffffffffffffffffffffffffffffffffffff1614610960576040517f08c379a00000000000000000000000000000000000000000000000000000000081526004016109579061269d565b60405180910390fd5b600083116109a3576040517f08c379a000000000000000000000000000000000000000000000000000000000815260040161099a9061272f565b60405180910390fd5b82600660009054906101000a900473ffffffffffffffffffffffffffffffffffffffff1673ffffffffffffffffffffffffffffffffffffffff166370a08231306040518263ffffffff1660e01b81526004016109ff9190612434565b602060405180830381865afa158015610a1c573d6000803e3d6000fd5b505050506040513d601f19601f82011682018060405250810190610a40919061259e565b1015610a81576040517f08c379a0000000000000000000000000000000000000000000000000000000008152600401610a789061279b565b60405180910390fd5b600660009054906101000a900473ffffffffffffffffffffffffffffffffffffffff1673ffffffffffffffffffffffffffffffffffffffff1663a9059cbb83856040518363ffffffff1660e01b8152600401610ade9291906127bb565b6020604051808303816000875af1158015610afd573d6000803e3d6000fd5b505050506040513d601f19601f82011682018060405250810190610b219190612810565b508260086000828254610b34919061286c565b925050819055506001905092915050565b6000600254905090565b600080610b5a6114b2565b9050610b67858285611525565b610b728585856115ba565b60019150509392505050565b60006012905090565b60007f0000000000000000000000000000000000000000000000000000000000000000905090565b60007fffffffffffffffffffffffffffffffffffffffffffffffffffffffffffffffff9050919050565b6000610be6826000611459565b9050919050565b610bf56116ae565b600073ffffffffffffffffffffffffffffffffffffffff168173ffffffffffffffffffffffffffffffffffffffff1603610c64576040517f08c379a0000000000000000000000000000000000000000000000000000000008152600401610c5b90612912565b60405180910390fd5b80600760006101000a81548173ffffffffffffffffffffffffffffffffffffffff021916908373ffffffffffffffffffffffffffffffffffffffff16021790555050565b600080610cb483610baf565b905080841115610cff578284826040517f79012fb2000000000000000000000000000000000000000000000000000000008152600401610cf693929190612932565b60405180910390fd5b6000610d0a856113bf565b9050610d1f610d176114b2565b858784611735565b809250505092915050565b60008060008373ffffffffffffffffffffffffffffffffffffffff1673ffffffffffffffffffffffffffffffffffffffff168152602001908152602001600020549050919050565b610d7a6116ae565b610d84600061184d565b565b600660009054906101000a900473ffffffffffffffffffffffffffffffffffffffff1681565b6000600560009054906101000a900473ffffffffffffffffffffffffffffffffffffffff16905090565b600080610de283611055565b905080841115610e2d578284826040517f284ff667000000000000000000000000000000000000000000000000000000008152600401610e2493929190612932565b60405180910390fd5b6000610e3885610f39565b9050610e4d610e456114b2565b858388611735565b809250505092915050565b606060048054610e67906125fa565b80601f0160208091040260200160405190810160405280929190818152602001828054610e93906125fa565b8015610ee05780601f10610eb557610100808354040283529160200191610ee0565b820191906000526020600020905b815481529060010190602001808311610ec357829003601f168201915b5050505050905090565b60085481565b600080610efb6114b2565b9050610f088185856115ba565b600191505092915050565b600760009054906101000a900473ffffffffffffffffffffffffffffffffffffffff1681565b6000610f46826001611459565b9050919050565b600080610f5983611093565b905080851115610fa4578285826040517ffe9cceec000000000000000000000000000000000000000000000000000000008152600401610f9b93929190612932565b60405180910390fd5b6000610faf866108ba565b9050610fc5610fbc6114b2565b86868985611913565b80925050509392505050565b600080610fdd836110af565b905080851115611028578285826040517fb94abeec00000000000000000000000000000000000000000000000000000000815260040161101f93929190612932565b60405180910390fd5b600061103386610bd9565b90506110496110406114b2565b8686848a611913565b80925050509392505050565b60007fffffffffffffffffffffffffffffffffffffffffffffffffffffffffffffffff9050919050565b600061108c8260006114cc565b9050919050565b60006110a86110a183610d2a565b6000611459565b9050919050565b60006110ba82610d2a565b9050919050565b6000600760009054906101000a900473ffffffffffffffffffffffffffffffffffffffff1673ffffffffffffffffffffffffffffffffffffffff163373ffffffffffffffffffffffffffffffffffffffff1614611153576040517f08c379a000000000000000000000000000000000000000000000000000000000815260040161114a9061269d565b60405180910390fd5b60008311611196576040517f08c379a000000000000000000000000000000000000000000000000000000000815260040161118d9061272f565b60405180910390fd5b82600660009054906101000a900473ffffffffffffffffffffffffffffffffffffffff1673ffffffffffffffffffffffffffffffffffffffff166370a08231846040518263ffffffff1660e01b81526004016111f29190612434565b602060405180830381865afa15801561120f573d6000803e3d6000fd5b505050506040513d601f19601f82011682018060405250810190611233919061259e565b1015611274576040517f08c379a000000000000000000000000000000000000000000000000000000000815260040161126b9061279b565b60405180910390fd5b600660009054906101000a900473ffffffffffffffffffffffffffffffffffffffff1673ffffffffffffffffffffffffffffffffffffffff1663a9059cbb30856040518363ffffffff1660e01b81526004016112d19291906127bb565b6020604051808303816000875af11580156112f0573d6000803e3d6000fd5b505050506040513d601f19601f820116820180604052508101906113149190612810565b5082600860008282546113279190612969565b925050819055506001905092915050565b6000600160008473ffffffffffffffffffffffffffffffffffffffff1673ffffffffffffffffffffffffffffffffffffffff16815260200190815260200160002060008373ffffffffffffffffffffffffffffffffffffffff1673ffffffffffffffffffffffffffffffffffffffff16815260200190815260200160002054905092915050565b60006113cc8260006114cc565b9050919050565b6113db6116ae565b600073ffffffffffffffffffffffffffffffffffffffff168173ffffffffffffffffffffffffffffffffffffffff160361144d5760006040517f1e4fbdf70000000000000000000000000000000000000000000000000000000081526004016114449190612434565b60405180910390fd5b6114568161184d565b50565b60006114aa6001611468610769565b611472919061286c565b61147a611a82565b600a6114869190612ad0565b61148e610b45565b611498919061286c565b8486611a87909392919063ffffffff16565b905092915050565b600033905090565b6114c78383836001611ad6565b505050565b600061151d6114d9611a82565b600a6114e59190612ad0565b6114ed610b45565b6114f7919061286c565b6001611501610769565b61150b919061286c565b8486611a87909392919063ffffffff16565b905092915050565b60006115318484611338565b90507fffffffffffffffffffffffffffffffffffffffffffffffffffffffffffffffff8110156115b457818110156115a4578281836040517ffb8f41b200000000000000000000000000000000000000000000000000000000815260040161159b93929190612932565b60405180910390fd5b6115b384848484036000611ad6565b5b50505050565b600073ffffffffffffffffffffffffffffffffffffffff168373ffffffffffffffffffffffffffffffffffffffff160361162c5760006040517f96c6fd1e0000000000000000000000000000000000000000000000000000000081526004016116239190612434565b60405180910390fd5b600073ffffffffffffffffffffffffffffffffffffffff168273ffffffffffffffffffffffffffffffffffffffff160361169e5760006040517fec442f050000000000000000000000000000000000000000000000000000000081526004016116959190612434565b60405180910390fd5b6116a9838383611cad565b505050565b6116b66114b2565b73ffffffffffffffffffffffffffffffffffffffff166116d4610dac565b73ffffffffffffffffffffffffffffffffffffffff1614611733576116f76114b2565b6040517f118cdaa700000000000000000000000000000000000000000000000000000000815260040161172a9190612434565b60405180910390fd5b565b600660009054906101000a900473ffffffffffffffffffffffffffffffffffffffff1673ffffffffffffffffffffffffffffffffffffffff166338c077af85846040518363ffffffff1660e01b81526004016117929291906127bb565b6020604051808303816000875af11580156117b1573d6000803e3d6000fd5b505050506040513d601f19601f820116820180604052508101906117d59190612810565b506117e08382611ed2565b8273ffffffffffffffffffffffffffffffffffffffff168473ffffffffffffffffffffffffffffffffffffffff167fdcbc1c05240f31ff3ad067ef1ee35ce4997762752e3a095284754544f4c709d7848460405161183f929190612b1b565b60405180910390a350505050565b6000600560009054906101000a900473ffffffffffffffffffffffffffffffffffffffff16905081600560006101000a81548173ffffffffffffffffffffffffffffffffffffffff021916908373ffffffffffffffffffffffffffffffffffffffff1602179055508173ffffffffffffffffffffffffffffffffffffffff168173ffffffffffffffffffffffffffffffffffffffff167f8be0079c531659141344cd1fd0a4f28419497f9722a3daafe3b4186f6b6457e060405160405180910390a35050565b8273ffffffffffffffffffffffffffffffffffffffff168573ffffffffffffffffffffffffffffffffffffffff161461195257611951838683611525565b5b61195c8382611f54565b600660009054906101000a900473ffffffffffffffffffffffffffffffffffffffff1673ffffffffffffffffffffffffffffffffffffffff1663a9059cbb85846040518363ffffffff1660e01b81526004016119b99291906127bb565b6020604051808303816000875af11580156119d8573d6000803e3d6000fd5b505050506040513d601f19601f820116820180604052508101906119fc9190612810565b508273ffffffffffffffffffffffffffffffffffffffff168473ffffffffffffffffffffffffffffffffffffffff168673ffffffffffffffffffffffffffffffffffffffff167ffbde797d201c681b91056529119e0b02407c7bb96a4a2c75c01fc9667232c8db8585604051611a73929190612b1b565b60405180910390a45050505050565b600090565b6000611ab7611a9583611fd6565b8015611ab2575060008480611aad57611aac612b44565b5b868809115b612004565b611ac2868686612010565b611acc919061286c565b9050949350505050565b600073ffffffffffffffffffffffffffffffffffffffff168473ffffffffffffffffffffffffffffffffffffffff1603611b485760006040517fe602df05000000000000000000000000000000000000000000000000000000008152600401611b3f9190612434565b60405180910390fd5b600073ffffffffffffffffffffffffffffffffffffffff168373ffffffffffffffffffffffffffffffffffffffff1603611bba5760006040517f94280d62000000000000000000000000000000000000000000000000000000008152600401611bb19190612434565b60405180910390fd5b81600160008673ffffffffffffffffffffffffffffffffffffffff1673ffffffffffffffffffffffffffffffffffffffff16815260200190815260200160002060008573ffffffffffffffffffffffffffffffffffffffff1673ffffffffffffffffffffffffffffffffffffffff168152602001908152602001600020819055508015611ca7578273ffffffffffffffffffffffffffffffffffffffff168473ffffffffffffffffffffffffffffffffffffffff167f8c5be1e5ebec7d5bd14f71427d1e84f3dd0314c0f7b2291e5b200ac8c7c3b92584604051611c9e919061215c565b60405180910390a35b50505050565b600073ffffffffffffffffffffffffffffffffffffffff168373ffffffffffffffffffffffffffffffffffffffff1603611cff578060026000828254611cf3919061286c565b92505081905550611dd2565b60008060008573ffffffffffffffffffffffffffffffffffffffff1673ffffffffffffffffffffffffffffffffffffffff16815260200190815260200160002054905081811015611d8b578381836040517fe450d38c000000000000000000000000000000000000000000000000000000008152600401611d8293929190612932565b60405180910390fd5b8181036000808673ffffffffffffffffffffffffffffffffffffffff1673ffffffffffffffffffffffffffffffffffffffff16815260200190815260200160002081905550505b600073ffffffffffffffffffffffffffffffffffffffff168273ffffffffffffffffffffffffffffffffffffffff1603611e1b5780600260008282540392505081905550611e68565b806000808473ffffffffffffffffffffffffffffffffffffffff1673ffffffffffffffffffffffffffffffffffffffff168152602001908152602001600020600082825401925050819055505b8173ffffffffffffffffffffffffffffffffffffffff168373ffffffffffffffffffffffffffffffffffffffff167fddf252ad1be2c89b69c2b068fc378daa952ba7f163c4a11628f55a4df523b3ef83604051611ec5919061215c565b60405180910390a3505050565b600073ffffffffffffffffffffffffffffffffffffffff168273ffffffffffffffffffffffffffffffffffffffff1603611f445760006040517fec442f05000000000000000000000000000000000000000000000000000000008152600401611f3b9190612434565b60405180910390fd5b611f5060008383611cad565b5050565b600073ffffffffffffffffffffffffffffffffffffffff168273ffffffffffffffffffffffffffffffffffffffff1603611fc65760006040517f96c6fd1e000000000000000000000000000000000000000000000000000000008152600401611fbd9190612434565b60405180910390fd5b611fd282600083611cad565b5050565b600060016002836003811115611fef57611fee612b73565b5b611ff99190612ba2565b60ff16149050919050565b60008115159050919050565b600080600061201f86866120f8565b91509150600082036120455783818161203b5761203a612b44565b5b04925050506120f1565b8184116120655761206461205f6000861460126011612117565b612131565b5b600084868809905081811183039250808203915060008560000386169050808604955080830492506001818260000304019050808402831792506000600287600302189050808702600203810290508087026002038102905080870260020381029050808702600203810290508087026002038102905080870260020381029050808402955050505050505b9392505050565b6000806000198385098385029150818110828203039250509250929050565b600061212284612004565b82841802821890509392505050565b634e487b71600052806020526024601cfd5b6000819050919050565b61215681612143565b82525050565b6000602082019050612171600083018461214d565b92915050565b600081519050919050565b600082825260208201905092915050565b60005b838110156121b1578082015181840152602081019050612196565b60008484015250505050565b6000601f19601f8301169050919050565b60006121d982612177565b6121e38185612182565b93506121f3818560208601612193565b6121fc816121bd565b840191505092915050565b6000602082019050818103600083015261222181846121ce565b905092915050565b600080fd5b61223781612143565b811461224257600080fd5b50565b6000813590506122548161222e565b92915050565b6000602082840312156122705761226f612229565b5b600061227e84828501612245565b91505092915050565b600073ffffffffffffffffffffffffffffffffffffffff82169050919050565b60006122b282612287565b9050919050565b6122c2816122a7565b81146122cd57600080fd5b50565b6000813590506122df816122b9565b92915050565b600080604083850312156122fc576122fb612229565b5b600061230a858286016122d0565b925050602061231b85828601612245565b9150509250929050565b60008115159050919050565b61233a81612325565b82525050565b60006020820190506123556000830184612331565b92915050565b6000806040838503121561237257612371612229565b5b600061238085828601612245565b9250506020612391858286016122d0565b9150509250929050565b6000806000606084860312156123b4576123b3612229565b5b60006123c2868287016122d0565b93505060206123d3868287016122d0565b92505060406123e486828701612245565b9150509250925092565b600060ff82169050919050565b612404816123ee565b82525050565b600060208201905061241f60008301846123fb565b92915050565b61242e816122a7565b82525050565b60006020820190506124496000830184612425565b92915050565b60006020828403121561246557612464612229565b5b6000612473848285016122d0565b91505092915050565b6000819050919050565b60006124a161249c61249784612287565b61247c565b612287565b9050919050565b60006124b382612486565b9050919050565b60006124c5826124a8565b9050919050565b6124d5816124ba565b82525050565b60006020820190506124f060008301846124cc565b92915050565b60008060006060848603121561250f5761250e612229565b5b600061251d86828701612245565b935050602061252e868287016122d0565b925050604061253f868287016122d0565b9150509250925092565b600080604083850312156125605761255f612229565b5b600061256e858286016122d0565b925050602061257f858286016122d0565b9150509250929050565b6000815190506125988161222e565b92915050565b6000602082840312156125b4576125b3612229565b5b60006125c284828501612589565b91505092915050565b7f4e487b7100000000000000000000000000000000000000000000000000000000600052602260045260246000fd5b6000600282049050600182168061261257607f821691505b602082108103612625576126246125cb565b5b50919050565b7f4f6e6c79206c6f616e206d616e616765722063616e2063616c6c20746869732060008201527f66756e6374696f6e000000000000000000000000000000000000000000000000602082015250565b6000612687602883612182565b91506126928261262b565b604082019050919050565b600060208201905081810360008301526126b68161267a565b9050919050565b7f5472616e7366657220616d6f756e74206d75737420626520677265617465722060008201527f7468616e207a65726f0000000000000000000000000000000000000000000000602082015250565b6000612719602983612182565b9150612724826126bd565b604082019050919050565b600060208201905081810360008301526127488161270c565b9050919050565b7f496e73756666696369656e742050555344432062616c616e6365000000000000600082015250565b6000612785601a83612182565b91506127908261274f565b602082019050919050565b600060208201905081810360008301526127b481612778565b9050919050565b60006040820190506127d06000830185612425565b6127dd602083018461214d565b9392505050565b6127ed81612325565b81146127f857600080fd5b50565b60008151905061280a816127e4565b92915050565b60006020828403121561282657612825612229565b5b6000612834848285016127fb565b91505092915050565b7f4e487b7100000000000000000000000000000000000000000000000000000000600052601160045260246000fd5b600061287782612143565b915061288283612143565b925082820190508082111561289a5761289961283d565b5b92915050565b7f4c6f616e206d616e6167657220616464726573732063616e6e6f74206265207a60008201527f65726f0000000000000000000000000000000000000000000000000000000000602082015250565b60006128fc602383612182565b9150612907826128a0565b604082019050919050565b6000602082019050818103600083015261292b816128ef565b9050919050565b60006060820190506129476000830186612425565b612954602083018561214d565b612961604083018461214d565b949350505050565b600061297482612143565b915061297f83612143565b92508282039050818111156129975761299661283d565b5b92915050565b60008160011c9050919050565b6000808291508390505b60018511156129f4578086048111156129d0576129cf61283d565b5b60018516156129df5780820291505b80810290506129ed8561299d565b94506129b4565b94509492505050565b600082612a0d5760019050612ac9565b81612a1b5760009050612ac9565b8160018114612a315760028114612a3b57612a6a565b6001915050612ac9565b60ff841115612a4d57612a4c61283d565b5b8360020a915084821115612a6457612a6361283d565b5b50612ac9565b5060208310610133831016604e8410600b8410161715612a9f5782820a905083811115612a9a57612a9961283d565b5b612ac9565b612aac84848460016129aa565b92509050818404811115612ac357612ac261283d565b5b81810290505b9392505050565b6000612adb82612143565b9150612ae6836123ee565b9250612b137fffffffffffffffffffffffffffffffffffffffffffffffffffffffffffffffff84846129fd565b905092915050565b6000604082019050612b30600083018561214d565b612b3d602083018461214d565b9392505050565b7f4e487b7100000000000000000000000000000000000000000000000000000000600052601260045260246000fd5b7f4e487b7100000000000000000000000000000000000000000000000000000000600052602160045260246000fd5b6000612bad826123ee565b9150612bb8836123ee565b925082612bc857612bc7612b44565b5b82820690509291505056fea2646970667358221220875fac54e5fcd547d6b1c45865d6ca50e8f66440dd6162999f8d8de525b4447a64736f6c63430008140033",
  "linkReferences": {},
  "deployedLinkReferences": {}
}