{
  "_format": "hh-sol-artifact-1",
  "contractName": "sPUSD",
  "sourceName": "contracts/sPUSD.sol",
  "abi": [
    {
      "inputs": [
        {
          "internalType": "address",
          "name": "_pusdToken",
          "type": "address"
        }
      ],
      "stateMutability": "nonpayable",
      "type": "constructor"
    },
    {
      "inputs": [
        {
          "internalType": "address",
          "name": "spender",
          "type": "address"
        },
        {
          "internalType": "uint256",
          "name": "allowance",
          "type": "uint256"
        },
        {
          "internalType": "uint256",
          "name": "needed",
          "type": "uint256"
        }
      ],
      "name": "ERC20InsufficientAllowance",
      "type": "error"
    },
    {
      "inputs": [
        {
          "internalType": "address",
          "name": "sender",
          "type": "address"
        },
        {
          "internalType": "uint256",
          "name": "balance",
          "type": "uint256"
        },
        {
          "internalType": "uint256",
          "name": "needed",
          "type": "uint256"
        }
      ],
      "name": "ERC20InsufficientBalance",
      "type": "error"
    },
    {
      "inputs": [
        {
          "internalType": "address",
          "name": "approver",
          "type": "address"
        }
      ],
      "name": "ERC20InvalidApprover",
      "type": "error"
    },
    {
      "inputs": [
        {
          "internalType": "address",
          "name": "receiver",
          "type": "address"
        }
      ],
      "name": "ERC20InvalidReceiver",
      "type": "error"
    },
    {
      "inputs": [
        {
          "internalType": "address",
          "name": "sender",
          "type": "address"
        }
      ],
      "name": "ERC20InvalidSender",
      "type": "error"
    },
    {
      "inputs": [
        {
          "internalType": "address",
          "name": "spender",
          "type": "address"
        }
      ],
      "name": "ERC20InvalidSpender",
      "type": "error"
    },
    {
      "inputs": [
        {
          "internalType": "address",
          "name": "receiver",
          "type": "address"
        },
        {
          "internalType": "uint256",
          "name": "assets",
          "type": "uint256"
        },
        {
          "internalType": "uint256",
          "name": "max",
          "type": "uint256"
        }
      ],
      "name": "ERC4626ExceededMaxDeposit",
      "type": "error"
    },
    {
      "inputs": [
        {
          "internalType": "address",
          "name": "receiver",
          "type": "address"
        },
        {
          "internalType": "uint256",
          "name": "shares",
          "type": "uint256"
        },
        {
          "internalType": "uint256",
          "name": "max",
          "type": "uint256"
        }
      ],
      "name": "ERC4626ExceededMaxMint",
      "type": "error"
    },
    {
      "inputs": [
        {
          "internalType": "address",
          "name": "owner",
          "type": "address"
        },
        {
          "internalType": "uint256",
          "name": "shares",
          "type": "uint256"
        },
        {
          "internalType": "uint256",
          "name": "max",
          "type": "uint256"
        }
      ],
      "name": "ERC4626ExceededMaxRedeem",
      "type": "error"
    },
    {
      "inputs": [
        {
          "internalType": "address",
          "name": "owner",
          "type": "address"
        },
        {
          "internalType": "uint256",
          "name": "assets",
          "type": "uint256"
        },
        {
          "internalType": "uint256",
          "name": "max",
          "type": "uint256"
        }
      ],
      "name": "ERC4626ExceededMaxWithdraw",
      "type": "error"
    },
    {
      "inputs": [
        {
          "internalType": "address",
          "name": "owner",
          "type": "address"
        }
      ],
      "name": "OwnableInvalidOwner",
      "type": "error"
    },
    {
      "inputs": [
        {
          "internalType": "address",
          "name": "account",
          "type": "address"
        }
      ],
      "name": "OwnableUnauthorizedAccount",
      "type": "error"
    },
    {
      "anonymous": false,
      "inputs": [
        {
          "indexed": true,
          "internalType": "address",
          "name": "owner",
          "type": "address"
        },
        {
          "indexed": true,
          "internalType": "address",
          "name": "spender",
          "type": "address"
        },
        {
          "indexed": false,
          "internalType": "uint256",
          "name": "value",
          "type": "uint256"
        }
      ],
      "name": "Approval",
      "type": "event"
    },
    {
      "anonymous": false,
      "inputs": [
        {
          "indexed": true,
          "internalType": "address",
          "name": "sender",
          "type": "address"
        },
        {
          "indexed": true,
          "internalType": "address",
          "name": "owner",
          "type": "address"
        },
        {
          "indexed": false,
          "internalType": "uint256",
          "name": "assets",
          "type": "uint256"
        },
        {
          "indexed": false,
          "internalType": "uint256",
          "name": "shares",
          "type": "uint256"
        }
      ],
      "name": "Deposit",
      "type": "event"
    },
    {
      "anonymous": false,
      "inputs": [
        {
          "indexed": true,
          "internalType": "address",
          "name": "previousOwner",
          "type": "address"
        },
        {
          "indexed": true,
          "internalType": "address",
          "name": "newOwner",
          "type": "address"
        }
      ],
      "name": "OwnershipTransferred",
      "type": "event"
    },
    {
      "anonymous": false,
      "inputs": [
        {
          "indexed": true,
          "internalType": "address",
          "name": "pusdAddress",
          "type": "address"
        }
      ],
      "name": "PUSDAddressSet",
      "type": "event"
    },
    {
      "anonymous": false,
      "inputs": [
        {
          "indexed": true,
          "internalType": "address",
          "name": "from",
          "type": "address"
        },
        {
          "indexed": true,
          "internalType": "address",
          "name": "to",
          "type": "address"
        },
        {
          "indexed": false,
          "internalType": "uint256",
          "name": "value",
          "type": "uint256"
        }
      ],
      "name": "Transfer",
      "type": "event"
    },
    {
      "anonymous": false,
      "inputs": [
        {
          "indexed": true,
          "internalType": "address",
          "name": "sender",
          "type": "address"
        },
        {
          "indexed": true,
          "internalType": "address",
          "name": "receiver",
          "type": "address"
        },
        {
          "indexed": true,
          "internalType": "address",
          "name": "owner",
          "type": "address"
        },
        {
          "indexed": false,
          "internalType": "uint256",
          "name": "assets",
          "type": "uint256"
        },
        {
          "indexed": false,
          "internalType": "uint256",
          "name": "shares",
          "type": "uint256"
        }
      ],
      "name": "Withdraw",
      "type": "event"
    },
    {
      "inputs": [
        {
          "internalType": "address",
          "name": "owner",
          "type": "address"
        },
        {
          "internalType": "address",
          "name": "spender",
          "type": "address"
        }
      ],
      "name": "allowance",
      "outputs": [
        {
          "internalType": "uint256",
          "name": "",
          "type": "uint256"
        }
      ],
      "stateMutability": "view",
      "type": "function"
    },
    {
      "inputs": [
        {
          "internalType": "address",
          "name": "spender",
          "type": "address"
        },
        {
          "internalType": "uint256",
          "name": "value",
          "type": "uint256"
        }
      ],
      "name": "approve",
      "outputs": [
        {
          "internalType": "bool",
          "name": "",
          "type": "bool"
        }
      ],
      "stateMutability": "nonpayable",
      "type": "function"
    },
    {
      "inputs": [],
      "name": "asset",
      "outputs": [
        {
          "internalType": "address",
          "name": "",
          "type": "address"
        }
      ],
      "stateMutability": "view",
      "type": "function"
    },
    {
      "inputs": [
        {
          "internalType": "address",
          "name": "account",
          "type": "address"
        }
      ],
      "name": "balanceOf",
      "outputs": [
        {
          "internalType": "uint256",
          "name": "",
          "type": "uint256"
        }
      ],
      "stateMutability": "view",
      "type": "function"
    },
    {
      "inputs": [
        {
          "internalType": "uint256",
          "name": "shares",
          "type": "uint256"
        }
      ],
      "name": "convertToAssets",
      "outputs": [
        {
          "internalType": "uint256",
          "name": "",
          "type": "uint256"
        }
      ],
      "stateMutability": "view",
      "type": "function"
    },
    {
      "inputs": [
        {
          "internalType": "uint256",
          "name": "assets",
          "type": "uint256"
        }
      ],
      "name": "convertToShares",
      "outputs": [
        {
          "internalType": "uint256",
          "name": "",
          "type": "uint256"
        }
      ],
      "stateMutability": "view",
      "type": "function"
    },
    {
      "inputs": [],
      "name": "decimals",
      "outputs": [
        {
          "internalType": "uint8",
          "name": "",
          "type": "uint8"
        }
      ],
      "stateMutability": "pure",
      "type": "function"
    },
    {
      "inputs": [
        {
          "internalType": "uint256",
          "name": "assets",
          "type": "uint256"
        },
        {
          "internalType": "address",
          "name": "receiver",
          "type": "address"
        }
      ],
      "name": "deposit",
      "outputs": [
        {
          "internalType": "uint256",
          "name": "",
          "type": "uint256"
        }
      ],
      "stateMutability": "nonpayable",
      "type": "function"
    },
    {
      "inputs": [],
      "name": "loanManager",
      "outputs": [
        {
          "internalType": "address",
          "name": "",
          "type": "address"
        }
      ],
      "stateMutability": "view",
      "type": "function"
    },
    {
      "inputs": [],
      "name": "loanedPUSDCAmount",
      "outputs": [
        {
          "internalType": "uint256",
          "name": "",
          "type": "uint256"
        }
      ],
      "stateMutability": "view",
      "type": "function"
    },
    {
      "inputs": [
        {
          "internalType": "address",
          "name": "",
          "type": "address"
        }
      ],
      "name": "maxDeposit",
      "outputs": [
        {
          "internalType": "uint256",
          "name": "",
          "type": "uint256"
        }
      ],
      "stateMutability": "view",
      "type": "function"
    },
    {
      "inputs": [
        {
          "internalType": "address",
          "name": "",
          "type": "address"
        }
      ],
      "name": "maxMint",
      "outputs": [
        {
          "internalType": "uint256",
          "name": "",
          "type": "uint256"
        }
      ],
      "stateMutability": "view",
      "type": "function"
    },
    {
      "inputs": [
        {
          "internalType": "address",
          "name": "owner",
          "type": "address"
        }
      ],
      "name": "maxRedeem",
      "outputs": [
        {
          "internalType": "uint256",
          "name": "",
          "type": "uint256"
        }
      ],
      "stateMutability": "view",
      "type": "function"
    },
    {
      "inputs": [
        {
          "internalType": "address",
          "name": "owner",
          "type": "address"
        }
      ],
      "name": "maxWithdraw",
      "outputs": [
        {
          "internalType": "uint256",
          "name": "",
          "type": "uint256"
        }
      ],
      "stateMutability": "view",
      "type": "function"
    },
    {
      "inputs": [
        {
          "internalType": "uint256",
          "name": "shares",
          "type": "uint256"
        },
        {
          "internalType": "address",
          "name": "receiver",
          "type": "address"
        }
      ],
      "name": "mint",
      "outputs": [
        {
          "internalType": "uint256",
          "name": "",
          "type": "uint256"
        }
      ],
      "stateMutability": "nonpayable",
      "type": "function"
    },
    {
      "inputs": [],
      "name": "name",
      "outputs": [
        {
          "internalType": "string",
          "name": "",
          "type": "string"
        }
      ],
      "stateMutability": "view",
      "type": "function"
    },
    {
      "inputs": [],
      "name": "owner",
      "outputs": [
        {
          "internalType": "address",
          "name": "",
          "type": "address"
        }
      ],
      "stateMutability": "view",
      "type": "function"
    },
    {
      "inputs": [
        {
          "internalType": "uint256",
          "name": "assets",
          "type": "uint256"
        }
      ],
      "name": "previewDeposit",
      "outputs": [
        {
          "internalType": "uint256",
          "name": "",
          "type": "uint256"
        }
      ],
      "stateMutability": "view",
      "type": "function"
    },
    {
      "inputs": [
        {
          "internalType": "uint256",
          "name": "shares",
          "type": "uint256"
        }
      ],
      "name": "previewMint",
      "outputs": [
        {
          "internalType": "uint256",
          "name": "",
          "type": "uint256"
        }
      ],
      "stateMutability": "view",
      "type": "function"
    },
    {
      "inputs": [
        {
          "internalType": "uint256",
          "name": "shares",
          "type": "uint256"
        }
      ],
      "name": "previewRedeem",
      "outputs": [
        {
          "internalType": "uint256",
          "name": "",
          "type": "uint256"
        }
      ],
      "stateMutability": "view",
      "type": "function"
    },
    {
      "inputs": [
        {
          "internalType": "uint256",
          "name": "assets",
          "type": "uint256"
        }
      ],
      "name": "previewWithdraw",
      "outputs": [
        {
          "internalType": "uint256",
          "name": "",
          "type": "uint256"
        }
      ],
      "stateMutability": "view",
      "type": "function"
    },
    {
      "inputs": [],
      "name": "pusdToken",
      "outputs": [
        {
          "internalType": "contract PUSD",
          "name": "",
          "type": "address"
        }
      ],
      "stateMutability": "view",
      "type": "function"
    },
    {
      "inputs": [
        {
          "internalType": "uint256",
          "name": "shares",
          "type": "uint256"
        },
        {
          "internalType": "address",
          "name": "receiver",
          "type": "address"
        },
        {
          "internalType": "address",
          "name": "owner",
          "type": "address"
        }
      ],
      "name": "redeem",
      "outputs": [
        {
          "internalType": "uint256",
          "name": "",
          "type": "uint256"
        }
      ],
      "stateMutability": "nonpayable",
      "type": "function"
    },
    {
      "inputs": [],
      "name": "renounceOwnership",
      "outputs": [],
      "stateMutability": "nonpayable",
      "type": "function"
    },
    {
      "inputs": [
        {
          "internalType": "address",
          "name": "_loanManager",
          "type": "address"
        }
      ],
      "name": "setLoanManager",
      "outputs": [],
      "stateMutability": "nonpayable",
      "type": "function"
    },
    {
      "inputs": [],
      "name": "symbol",
      "outputs": [
        {
          "internalType": "string",
          "name": "",
          "type": "string"
        }
      ],
      "stateMutability": "view",
      "type": "function"
    },
    {
      "inputs": [],
      "name": "totalAssets",
      "outputs": [
        {
          "internalType": "uint256",
          "name": "",
          "type": "uint256"
        }
      ],
      "stateMutability": "view",
      "type": "function"
    },
    {
      "inputs": [],
      "name": "totalSupply",
      "outputs": [
        {
          "internalType": "uint256",
          "name": "",
          "type": "uint256"
        }
      ],
      "stateMutability": "view",
      "type": "function"
    },
    {
      "inputs": [
        {
          "internalType": "address",
          "name": "to",
          "type": "address"
        },
        {
          "internalType": "uint256",
          "name": "value",
          "type": "uint256"
        }
      ],
      "name": "transfer",
      "outputs": [
        {
          "internalType": "bool",
          "name": "",
          "type": "bool"
        }
      ],
      "stateMutability": "nonpayable",
      "type": "function"
    },
    {
      "inputs": [
        {
          "internalType": "address",
          "name": "from",
          "type": "address"
        },
        {
          "internalType": "address",
          "name": "to",
          "type": "address"
        },
        {
          "internalType": "uint256",
          "name": "value",
          "type": "uint256"
        }
      ],
      "name": "transferFrom",
      "outputs": [
        {
          "internalType": "bool",
          "name": "",
          "type": "bool"
        }
      ],
      "stateMutability": "nonpayable",
      "type": "function"
    },
    {
      "inputs": [
        {
          "internalType": "uint256",
          "name": "pusdcAmount",
          "type": "uint256"
        },
        {
          "internalType": "address",
          "name": "operator",
          "type": "address"
        }
      ],
      "name": "transferFromOperator",
      "outputs": [
        {
          "internalType": "bool",
          "name": "",
          "type": "bool"
        }
      ],
      "stateMutability": "nonpayable",
      "type": "function"
    },
    {
      "inputs": [
        {
          "internalType": "address",
          "name": "newOwner",
          "type": "address"
        }
      ],
      "name": "transferOwnership",
      "outputs": [],
      "stateMutability": "nonpayable",
      "type": "function"
    },
    {
      "inputs": [
        {
          "internalType": "uint256",
          "name": "pusdcAmount",
          "type": "uint256"
        },
        {
          "internalType": "address",
          "name": "operator",
          "type": "address"
        }
      ],
      "name": "transferToOperator",
      "outputs": [
        {
          "internalType": "bool",
          "name": "",
          "type": "bool"
        }
      ],
      "stateMutability": "nonpayable",
      "type": "function"
    },
    {
      "inputs": [
        {
          "internalType": "uint256",
          "name": "assets",
          "type": "uint256"
        },
        {
          "internalType": "address",
          "name": "receiver",
          "type": "address"
        },
        {
          "internalType": "address",
          "name": "owner",
          "type": "address"
        }
      ],
      "name": "withdraw",
      "outputs": [
        {
          "internalType": "uint256",
          "name": "",
          "type": "uint256"
        }
      ],
      "stateMutability": "nonpayable",
      "type": "function"
    }
  ],
  "bytecode": "0x60c060405260006008553480156200001657600080fd5b50604051620036533803806200365383398181016040528101906200003c9190620004c7565b33816040518060400160405280600b81526020017f5374616b656420505553440000000000000000000000000000000000000000008152506040518060400160405280600581526020017f73505553440000000000000000000000000000000000000000000000000000008152508160039081620000bb919062000773565b508060049081620000cd919062000773565b505050600080620000e4836200027d60201b60201c565b9150915081620000f6576012620000f8565b805b60ff1660a08160ff16815250508273ffffffffffffffffffffffffffffffffffffffff1660808173ffffffffffffffffffffffffffffffffffffffff1681525050505050600073ffffffffffffffffffffffffffffffffffffffff168173ffffffffffffffffffffffffffffffffffffffff1603620001b15760006040517f1e4fbdf7000000000000000000000000000000000000000000000000000000008152600401620001a891906200086b565b60405180910390fd5b620001c2816200039760201b60201c565b50600073ffffffffffffffffffffffffffffffffffffffff168173ffffffffffffffffffffffffffffffffffffffff160362000235576040517f08c379a00000000000000000000000000000000000000000000000000000000081526004016200022c90620008e9565b60405180910390fd5b80600660006101000a81548173ffffffffffffffffffffffffffffffffffffffff021916908373ffffffffffffffffffffffffffffffffffffffff1602179055505062000a00565b6000806000808473ffffffffffffffffffffffffffffffffffffffff1660405160240160405160208183030381529060405263313ce56760e01b6020820180517bffffffffffffffffffffffffffffffffffffffffffffffffffffffff8381831617835250505050604051620002f4919062000984565b600060405180830381855afa9150503d806000811462000331576040519150601f19603f3d011682016040523d82523d6000602084013e62000336565b606091505b50915091508180156200034b57506020815110155b156200038857600081806020019051810190620003699190620009ce565b905060ff8016811162000386576001819450945050505062000392565b505b6000809350935050505b915091565b6000600560009054906101000a900473ffffffffffffffffffffffffffffffffffffffff16905081600560006101000a81548173ffffffffffffffffffffffffffffffffffffffff021916908373ffffffffffffffffffffffffffffffffffffffff1602179055508173ffffffffffffffffffffffffffffffffffffffff168173ffffffffffffffffffffffffffffffffffffffff167f8be0079c531659141344cd1fd0a4f28419497f9722a3daafe3b4186f6b6457e060405160405180910390a35050565b600080fd5b600073ffffffffffffffffffffffffffffffffffffffff82169050919050565b60006200048f8262000462565b9050919050565b620004a18162000482565b8114620004ad57600080fd5b50565b600081519050620004c18162000496565b92915050565b600060208284031215620004e057620004df6200045d565b5b6000620004f084828501620004b0565b91505092915050565b600081519050919050565b7f4e487b7100000000000000000000000000000000000000000000000000000000600052604160045260246000fd5b7f4e487b7100000000000000000000000000000000000000000000000000000000600052602260045260246000fd5b600060028204905060018216806200057b57607f821691505b60208210810362000591576200059062000533565b5b50919050565b60008190508160005260206000209050919050565b60006020601f8301049050919050565b600082821b905092915050565b600060088302620005fb7fffffffffffffffffffffffffffffffffffffffffffffffffffffffffffffffff82620005bc565b620006078683620005bc565b95508019841693508086168417925050509392505050565b6000819050919050565b6000819050919050565b6000620006546200064e62000648846200061f565b62000629565b6200061f565b9050919050565b6000819050919050565b620006708362000633565b620006886200067f826200065b565b848454620005c9565b825550505050565b600090565b6200069f62000690565b620006ac81848462000665565b505050565b5b81811015620006d457620006c860008262000695565b600181019050620006b2565b5050565b601f8211156200072357620006ed8162000597565b620006f884620005ac565b8101602085101562000708578190505b620007206200071785620005ac565b830182620006b1565b50505b505050565b600082821c905092915050565b6000620007486000198460080262000728565b1980831691505092915050565b600062000763838362000735565b9150826002028217905092915050565b6200077e82620004f9565b67ffffffffffffffff8111156200079a576200079962000504565b5b620007a6825462000562565b620007b3828285620006d8565b600060209050601f831160018114620007eb5760008415620007d6578287015190505b620007e2858262000755565b86555062000852565b601f198416620007fb8662000597565b60005b828110156200082557848901518255600182019150602085019450602081019050620007fe565b8683101562000845578489015162000841601f89168262000735565b8355505b6001600288020188555050505b505050505050565b620008658162000482565b82525050565b60006020820190506200088260008301846200085a565b92915050565b600082825260208201905092915050565b7f5055534420616464726573732063616e6e6f74206265207a65726f0000000000600082015250565b6000620008d1601b8362000888565b9150620008de8262000899565b602082019050919050565b600060208201905081810360008301526200090481620008c2565b9050919050565b600081519050919050565b600081905092915050565b60005b838110156200094157808201518184015260208101905062000924565b60008484015250505050565b60006200095a826200090b565b62000966818562000916565b93506200097881856020860162000921565b80840191505092915050565b60006200099282846200094d565b915081905092915050565b620009a8816200061f565b8114620009b457600080fd5b50565b600081519050620009c8816200099d565b92915050565b600060208284031215620009e757620009e66200045d565b5b6000620009f784828501620009b7565b91505092915050565b60805160a051612c3062000a23600039600050506000610b8b0152612c306000f3fe608060405234801561001057600080fd5b50600436106102065760003560e01c80638da5cb5b1161011a578063ba087652116100ad578063d905777e1161007c578063d905777e1461068d578063dc57225b146106bd578063dd62ed3e146106ed578063ef8b30f71461071d578063f2fde38b1461074d57610206565b8063ba087652146105cd578063c63d75b6146105fd578063c6e6f5921461062d578063ce96cb771461065d57610206565b8063a9059cbb116100e9578063a9059cbb1461051f578063b3ccbcfe1461054f578063b3d7f6b91461056d578063b460af941461059d57610206565b80638da5cb5b1461049557806394bf804d146104b357806395d89b41146104e3578063a15718db1461050157610206565b8063313ce5671161019d5780635772ae701161016c5780635772ae70146103f15780636e553f651461040d57806370a082311461043d578063715018a61461046d5780637f7614b41461047757610206565b8063313ce5671461035557806338d52e0f14610373578063402d267d146103915780634cdad506146103c157610206565b80630a28a477116101d95780630a28a477146102a75780630f9facbe146102d757806318160ddd1461030757806323b872dd1461032557610206565b806301e1d1141461020b57806306fdde031461022957806307a2d13a14610247578063095ea7b314610277575b600080fd5b610213610769565b604051610220919061214c565b60405180910390f35b6102316107f1565b60405161023e91906121f7565b60405180910390f35b610261600480360381019061025c919061224a565b610883565b60405161026e919061214c565b60405180910390f35b610291600480360381019061028c91906122d5565b610897565b60405161029e9190612330565b60405180910390f35b6102c160048036038101906102bc919061224a565b6108ba565b6040516102ce919061214c565b60405180910390f35b6102f160048036038101906102ec919061234b565b6108ce565b6040516102fe9190612330565b60405180910390f35b61030f610b45565b60405161031c919061214c565b60405180910390f35b61033f600480360381019061033a919061238b565b610b4f565b60405161034c9190612330565b60405180910390f35b61035d610b7e565b60405161036a91906123fa565b60405180910390f35b61037b610b87565b6040516103889190612424565b60405180910390f35b6103ab60048036038101906103a6919061243f565b610baf565b6040516103b8919061214c565b60405180910390f35b6103db60048036038101906103d6919061224a565b610bd9565b6040516103e8919061214c565b60405180910390f35b61040b6004803603810190610406919061243f565b610bed565b005b6104276004803603810190610422919061234b565b610ca8565b604051610434919061214c565b60405180910390f35b6104576004803603810190610452919061243f565b610d2a565b604051610464919061214c565b60405180910390f35b610475610d72565b005b61047f610d86565b60405161048c91906124cb565b60405180910390f35b61049d610dac565b6040516104aa9190612424565b60405180910390f35b6104cd60048036038101906104c8919061234b565b610dd6565b6040516104da919061214c565b60405180910390f35b6104eb610e58565b6040516104f891906121f7565b60405180910390f35b610509610eea565b604051610516919061214c565b60405180910390f35b610539600480360381019061053491906122d5565b610ef0565b6040516105469190612330565b60405180910390f35b610557610f13565b6040516105649190612424565b60405180910390f35b6105876004803603810190610582919061224a565b610f39565b604051610594919061214c565b60405180910390f35b6105b760048036038101906105b291906124e6565b610f4d565b6040516105c4919061214c565b60405180910390f35b6105e760048036038101906105e291906124e6565b610fd1565b6040516105f4919061214c565b60405180910390f35b6106176004803603810190610612919061243f565b611055565b604051610624919061214c565b60405180910390f35b6106476004803603810190610642919061224a565b61107f565b604051610654919061214c565b60405180910390f35b6106776004803603810190610672919061243f565b611093565b604051610684919061214c565b60405180910390f35b6106a760048036038101906106a2919061243f565b6110af565b6040516106b4919061214c565b60405180910390f35b6106d760048036038101906106d2919061234b565b6110c1565b6040516106e49190612330565b60405180910390f35b61070760048036038101906107029190612539565b611328565b604051610714919061214c565b60405180910390f35b6107376004803603810190610732919061224a565b6113af565b604051610744919061214c565b60405180910390f35b6107676004803603810190610762919061243f565b6113c3565b005b6000610773610b87565b73ffffffffffffffffffffffffffffffffffffffff166370a08231306040518263ffffffff1660e01b81526004016107ab9190612424565b602060405180830381865afa1580156107c8573d6000803e3d6000fd5b505050506040513d601f19601f820116820180604052508101906107ec919061258e565b905090565b606060038054610800906125ea565b80601f016020809104026020016040519081016040528092919081815260200182805461082c906125ea565b80156108795780601f1061084e57610100808354040283529160200191610879565b820191906000526020600020905b81548152906001019060200180831161085c57829003601f168201915b5050505050905090565b6000610890826000611449565b9050919050565b6000806108a26114a2565b90506108af8185856114aa565b600191505092915050565b60006108c78260016114bc565b9050919050565b6000600760009054906101000a900473ffffffffffffffffffffffffffffffffffffffff1673ffffffffffffffffffffffffffffffffffffffff163373ffffffffffffffffffffffffffffffffffffffff1614610960576040517f08c379a00000000000000000000000000000000000000000000000000000000081526004016109579061268d565b60405180910390fd5b600083116109a3576040517f08c379a000000000000000000000000000000000000000000000000000000000815260040161099a9061271f565b60405180910390fd5b82600660009054906101000a900473ffffffffffffffffffffffffffffffffffffffff1673ffffffffffffffffffffffffffffffffffffffff166370a08231306040518263ffffffff1660e01b81526004016109ff9190612424565b602060405180830381865afa158015610a1c573d6000803e3d6000fd5b505050506040513d601f19601f82011682018060405250810190610a40919061258e565b1015610a81576040517f08c379a0000000000000000000000000000000000000000000000000000000008152600401610a789061278b565b60405180910390fd5b600660009054906101000a900473ffffffffffffffffffffffffffffffffffffffff1673ffffffffffffffffffffffffffffffffffffffff1663a9059cbb83856040518363ffffffff1660e01b8152600401610ade9291906127ab565b6020604051808303816000875af1158015610afd573d6000803e3d6000fd5b505050506040513d601f19601f82011682018060405250810190610b219190612800565b508260086000828254610b34919061285c565b925050819055506001905092915050565b6000600254905090565b600080610b5a6114a2565b9050610b67858285611515565b610b728585856115aa565b60019150509392505050565b60006012905090565b60007f0000000000000000000000000000000000000000000000000000000000000000905090565b60007fffffffffffffffffffffffffffffffffffffffffffffffffffffffffffffffff9050919050565b6000610be6826000611449565b9050919050565b610bf561169e565b600073ffffffffffffffffffffffffffffffffffffffff168173ffffffffffffffffffffffffffffffffffffffff1603610c64576040517f08c379a0000000000000000000000000000000000000000000000000000000008152600401610c5b90612902565b60405180910390fd5b80600760006101000a81548173ffffffffffffffffffffffffffffffffffffffff021916908373ffffffffffffffffffffffffffffffffffffffff16021790555050565b600080610cb483610baf565b905080841115610cff578284826040517f79012fb2000000000000000000000000000000000000000000000000000000008152600401610cf693929190612922565b60405180910390fd5b6000610d0a856113af565b9050610d1f610d176114a2565b858784611725565b809250505092915050565b60008060008373ffffffffffffffffffffffffffffffffffffffff1673ffffffffffffffffffffffffffffffffffffffff168152602001908152602001600020549050919050565b610d7a61169e565b610d84600061183d565b565b600660009054906101000a900473ffffffffffffffffffffffffffffffffffffffff1681565b6000600560009054906101000a900473ffffffffffffffffffffffffffffffffffffffff16905090565b600080610de283611055565b905080841115610e2d578284826040517f284ff667000000000000000000000000000000000000000000000000000000008152600401610e2493929190612922565b60405180910390fd5b6000610e3885610f39565b9050610e4d610e456114a2565b858388611725565b809250505092915050565b606060048054610e67906125ea565b80601f0160208091040260200160405190810160405280929190818152602001828054610e93906125ea565b8015610ee05780601f10610eb557610100808354040283529160200191610ee0565b820191906000526020600020905b815481529060010190602001808311610ec357829003601f168201915b5050505050905090565b60085481565b600080610efb6114a2565b9050610f088185856115aa565b600191505092915050565b600760009054906101000a900473ffffffffffffffffffffffffffffffffffffffff1681565b6000610f46826001611449565b9050919050565b600080610f5983611093565b905080851115610fa4578285826040517ffe9cceec000000000000000000000000000000000000000000000000000000008152600401610f9b93929190612922565b60405180910390fd5b6000610faf866108ba565b9050610fc5610fbc6114a2565b86868985611903565b80925050509392505050565b600080610fdd836110af565b905080851115611028578285826040517fb94abeec00000000000000000000000000000000000000000000000000000000815260040161101f93929190612922565b60405180910390fd5b600061103386610bd9565b90506110496110406114a2565b8686848a611903565b80925050509392505050565b60007fffffffffffffffffffffffffffffffffffffffffffffffffffffffffffffffff9050919050565b600061108c8260006114bc565b9050919050565b60006110a86110a183610d2a565b6000611449565b9050919050565b60006110ba82610d2a565b9050919050565b6000600760009054906101000a900473ffffffffffffffffffffffffffffffffffffffff1673ffffffffffffffffffffffffffffffffffffffff163373ffffffffffffffffffffffffffffffffffffffff1614611153576040517f08c379a000000000000000000000000000000000000000000000000000000000815260040161114a9061268d565b60405180910390fd5b60008311611196576040517f08c379a000000000000000000000000000000000000000000000000000000000815260040161118d9061271f565b60405180910390fd5b82600660009054906101000a900473ffffffffffffffffffffffffffffffffffffffff1673ffffffffffffffffffffffffffffffffffffffff166370a08231846040518263ffffffff1660e01b81526004016111f29190612424565b602060405180830381865afa15801561120f573d6000803e3d6000fd5b505050506040513d601f19601f82011682018060405250810190611233919061258e565b1015611274576040517f08c379a000000000000000000000000000000000000000000000000000000000815260040161126b9061278b565b60405180910390fd5b600660009054906101000a900473ffffffffffffffffffffffffffffffffffffffff1673ffffffffffffffffffffffffffffffffffffffff166303bf63448484306040518463ffffffff1660e01b81526004016112d393929190612959565b600060405180830381600087803b1580156112ed57600080fd5b505af1158015611301573d6000803e3d6000fd5b5050505082600860008282546113179190612990565b925050819055506001905092915050565b6000600160008473ffffffffffffffffffffffffffffffffffffffff1673ffffffffffffffffffffffffffffffffffffffff16815260200190815260200160002060008373ffffffffffffffffffffffffffffffffffffffff1673ffffffffffffffffffffffffffffffffffffffff16815260200190815260200160002054905092915050565b60006113bc8260006114bc565b9050919050565b6113cb61169e565b600073ffffffffffffffffffffffffffffffffffffffff168173ffffffffffffffffffffffffffffffffffffffff160361143d5760006040517f1e4fbdf70000000000000000000000000000000000000000000000000000000081526004016114349190612424565b60405180910390fd5b6114468161183d565b50565b600061149a6001611458610769565b611462919061285c565b61146a611a72565b600a6114769190612af7565b61147e610b45565b611488919061285c565b8486611a77909392919063ffffffff16565b905092915050565b600033905090565b6114b78383836001611ac6565b505050565b600061150d6114c9611a72565b600a6114d59190612af7565b6114dd610b45565b6114e7919061285c565b60016114f1610769565b6114fb919061285c565b8486611a77909392919063ffffffff16565b905092915050565b60006115218484611328565b90507fffffffffffffffffffffffffffffffffffffffffffffffffffffffffffffffff8110156115a45781811015611594578281836040517ffb8f41b200000000000000000000000000000000000000000000000000000000815260040161158b93929190612922565b60405180910390fd5b6115a384848484036000611ac6565b5b50505050565b600073ffffffffffffffffffffffffffffffffffffffff168373ffffffffffffffffffffffffffffffffffffffff160361161c5760006040517f96c6fd1e0000000000000000000000000000000000000000000000000000000081526004016116139190612424565b60405180910390fd5b600073ffffffffffffffffffffffffffffffffffffffff168273ffffffffffffffffffffffffffffffffffffffff160361168e5760006040517fec442f050000000000000000000000000000000000000000000000000000000081526004016116859190612424565b60405180910390fd5b611699838383611c9d565b505050565b6116a66114a2565b73ffffffffffffffffffffffffffffffffffffffff166116c4610dac565b73ffffffffffffffffffffffffffffffffffffffff1614611723576116e76114a2565b6040517f118cdaa700000000000000000000000000000000000000000000000000000000815260040161171a9190612424565b60405180910390fd5b565b600660009054906101000a900473ffffffffffffffffffffffffffffffffffffffff1673ffffffffffffffffffffffffffffffffffffffff166338c077af85846040518363ffffffff1660e01b81526004016117829291906127ab565b6020604051808303816000875af11580156117a1573d6000803e3d6000fd5b505050506040513d601f19601f820116820180604052508101906117c59190612800565b506117d08382611ec2565b8273ffffffffffffffffffffffffffffffffffffffff168473ffffffffffffffffffffffffffffffffffffffff167fdcbc1c05240f31ff3ad067ef1ee35ce4997762752e3a095284754544f4c709d7848460405161182f929190612b42565b60405180910390a350505050565b6000600560009054906101000a900473ffffffffffffffffffffffffffffffffffffffff16905081600560006101000a81548173ffffffffffffffffffffffffffffffffffffffff021916908373ffffffffffffffffffffffffffffffffffffffff1602179055508173ffffffffffffffffffffffffffffffffffffffff168173ffffffffffffffffffffffffffffffffffffffff167f8be0079c531659141344cd1fd0a4f28419497f9722a3daafe3b4186f6b6457e060405160405180910390a35050565b8273ffffffffffffffffffffffffffffffffffffffff168573ffffffffffffffffffffffffffffffffffffffff161461194257611941838683611515565b5b61194c8382611f44565b600660009054906101000a900473ffffffffffffffffffffffffffffffffffffffff1673ffffffffffffffffffffffffffffffffffffffff1663a9059cbb85846040518363ffffffff1660e01b81526004016119a99291906127ab565b6020604051808303816000875af11580156119c8573d6000803e3d6000fd5b505050506040513d601f19601f820116820180604052508101906119ec9190612800565b508273ffffffffffffffffffffffffffffffffffffffff168473ffffffffffffffffffffffffffffffffffffffff168673ffffffffffffffffffffffffffffffffffffffff167ffbde797d201c681b91056529119e0b02407c7bb96a4a2c75c01fc9667232c8db8585604051611a63929190612b42565b60405180910390a45050505050565b600090565b6000611aa7611a8583611fc6565b8015611aa2575060008480611a9d57611a9c612b6b565b5b868809115b611ff4565b611ab2868686612000565b611abc919061285c565b9050949350505050565b600073ffffffffffffffffffffffffffffffffffffffff168473ffffffffffffffffffffffffffffffffffffffff1603611b385760006040517fe602df05000000000000000000000000000000000000000000000000000000008152600401611b2f9190612424565b60405180910390fd5b600073ffffffffffffffffffffffffffffffffffffffff168373ffffffffffffffffffffffffffffffffffffffff1603611baa5760006040517f94280d62000000000000000000000000000000000000000000000000000000008152600401611ba19190612424565b60405180910390fd5b81600160008673ffffffffffffffffffffffffffffffffffffffff1673ffffffffffffffffffffffffffffffffffffffff16815260200190815260200160002060008573ffffffffffffffffffffffffffffffffffffffff1673ffffffffffffffffffffffffffffffffffffffff168152602001908152602001600020819055508015611c97578273ffffffffffffffffffffffffffffffffffffffff168473ffffffffffffffffffffffffffffffffffffffff167f8c5be1e5ebec7d5bd14f71427d1e84f3dd0314c0f7b2291e5b200ac8c7c3b92584604051611c8e919061214c565b60405180910390a35b50505050565b600073ffffffffffffffffffffffffffffffffffffffff168373ffffffffffffffffffffffffffffffffffffffff1603611cef578060026000828254611ce3919061285c565b92505081905550611dc2565b60008060008573ffffffffffffffffffffffffffffffffffffffff1673ffffffffffffffffffffffffffffffffffffffff16815260200190815260200160002054905081811015611d7b578381836040517fe450d38c000000000000000000000000000000000000000000000000000000008152600401611d7293929190612922565b60405180910390fd5b8181036000808673ffffffffffffffffffffffffffffffffffffffff1673ffffffffffffffffffffffffffffffffffffffff16815260200190815260200160002081905550505b600073ffffffffffffffffffffffffffffffffffffffff168273ffffffffffffffffffffffffffffffffffffffff1603611e0b5780600260008282540392505081905550611e58565b806000808473ffffffffffffffffffffffffffffffffffffffff1673ffffffffffffffffffffffffffffffffffffffff168152602001908152602001600020600082825401925050819055505b8173ffffffffffffffffffffffffffffffffffffffff168373ffffffffffffffffffffffffffffffffffffffff167fddf252ad1be2c89b69c2b068fc378daa952ba7f163c4a11628f55a4df523b3ef83604051611eb5919061214c565b60405180910390a3505050565b600073ffffffffffffffffffffffffffffffffffffffff168273ffffffffffffffffffffffffffffffffffffffff1603611f345760006040517fec442f05000000000000000000000000000000000000000000000000000000008152600401611f2b9190612424565b60405180910390fd5b611f4060008383611c9d565b5050565b600073ffffffffffffffffffffffffffffffffffffffff168273ffffffffffffffffffffffffffffffffffffffff1603611fb65760006040517f96c6fd1e000000000000000000000000000000000000000000000000000000008152600401611fad9190612424565b60405180910390fd5b611fc282600083611c9d565b5050565b600060016002836003811115611fdf57611fde612b9a565b5b611fe99190612bc9565b60ff16149050919050565b60008115159050919050565b600080600061200f86866120e8565b91509150600082036120355783818161202b5761202a612b6b565b5b04925050506120e1565b8184116120555761205461204f6000861460126011612107565b612121565b5b600084868809905081811183039250808203915060008560000386169050808604955080830492506001818260000304019050808402831792506000600287600302189050808702600203810290508087026002038102905080870260020381029050808702600203810290508087026002038102905080870260020381029050808402955050505050505b9392505050565b6000806000198385098385029150818110828203039250509250929050565b600061211284611ff4565b82841802821890509392505050565b634e487b71600052806020526024601cfd5b6000819050919050565b61214681612133565b82525050565b6000602082019050612161600083018461213d565b92915050565b600081519050919050565b600082825260208201905092915050565b60005b838110156121a1578082015181840152602081019050612186565b60008484015250505050565b6000601f19601f8301169050919050565b60006121c982612167565b6121d38185612172565b93506121e3818560208601612183565b6121ec816121ad565b840191505092915050565b6000602082019050818103600083015261221181846121be565b905092915050565b600080fd5b61222781612133565b811461223257600080fd5b50565b6000813590506122448161221e565b92915050565b6000602082840312156122605761225f612219565b5b600061226e84828501612235565b91505092915050565b600073ffffffffffffffffffffffffffffffffffffffff82169050919050565b60006122a282612277565b9050919050565b6122b281612297565b81146122bd57600080fd5b50565b6000813590506122cf816122a9565b92915050565b600080604083850312156122ec576122eb612219565b5b60006122fa858286016122c0565b925050602061230b85828601612235565b9150509250929050565b60008115159050919050565b61232a81612315565b82525050565b60006020820190506123456000830184612321565b92915050565b6000806040838503121561236257612361612219565b5b600061237085828601612235565b9250506020612381858286016122c0565b9150509250929050565b6000806000606084860312156123a4576123a3612219565b5b60006123b2868287016122c0565b93505060206123c3868287016122c0565b92505060406123d486828701612235565b9150509250925092565b600060ff82169050919050565b6123f4816123de565b82525050565b600060208201905061240f60008301846123eb565b92915050565b61241e81612297565b82525050565b60006020820190506124396000830184612415565b92915050565b60006020828403121561245557612454612219565b5b6000612463848285016122c0565b91505092915050565b6000819050919050565b600061249161248c61248784612277565b61246c565b612277565b9050919050565b60006124a382612476565b9050919050565b60006124b582612498565b9050919050565b6124c5816124aa565b82525050565b60006020820190506124e060008301846124bc565b92915050565b6000806000606084860312156124ff576124fe612219565b5b600061250d86828701612235565b935050602061251e868287016122c0565b925050604061252f868287016122c0565b9150509250925092565b600080604083850312156125505761254f612219565b5b600061255e858286016122c0565b925050602061256f858286016122c0565b9150509250929050565b6000815190506125888161221e565b92915050565b6000602082840312156125a4576125a3612219565b5b60006125b284828501612579565b91505092915050565b7f4e487b7100000000000000000000000000000000000000000000000000000000600052602260045260246000fd5b6000600282049050600182168061260257607f821691505b602082108103612615576126146125bb565b5b50919050565b7f4f6e6c79206c6f616e206d616e616765722063616e2063616c6c20746869732060008201527f66756e6374696f6e000000000000000000000000000000000000000000000000602082015250565b6000612677602883612172565b91506126828261261b565b604082019050919050565b600060208201905081810360008301526126a68161266a565b9050919050565b7f5472616e7366657220616d6f756e74206d75737420626520677265617465722060008201527f7468616e207a65726f0000000000000000000000000000000000000000000000602082015250565b6000612709602983612172565b9150612714826126ad565b604082019050919050565b60006020820190508181036000830152612738816126fc565b9050919050565b7f496e73756666696369656e742050555344432062616c616e6365000000000000600082015250565b6000612775601a83612172565b91506127808261273f565b602082019050919050565b600060208201905081810360008301526127a481612768565b9050919050565b60006040820190506127c06000830185612415565b6127cd602083018461213d565b9392505050565b6127dd81612315565b81146127e857600080fd5b50565b6000815190506127fa816127d4565b92915050565b60006020828403121561281657612815612219565b5b6000612824848285016127eb565b91505092915050565b7f4e487b7100000000000000000000000000000000000000000000000000000000600052601160045260246000fd5b600061286782612133565b915061287283612133565b925082820190508082111561288a5761288961282d565b5b92915050565b7f4c6f616e206d616e6167657220616464726573732063616e6e6f74206265207a60008201527f65726f0000000000000000000000000000000000000000000000000000000000602082015250565b60006128ec602383612172565b91506128f782612890565b604082019050919050565b6000602082019050818103600083015261291b816128df565b9050919050565b60006060820190506129376000830186612415565b612944602083018561213d565b612951604083018461213d565b949350505050565b600060608201905061296e600083018661213d565b61297b6020830185612415565b6129886040830184612415565b949350505050565b600061299b82612133565b91506129a683612133565b92508282039050818111156129be576129bd61282d565b5b92915050565b60008160011c9050919050565b6000808291508390505b6001851115612a1b578086048111156129f7576129f661282d565b5b6001851615612a065780820291505b8081029050612a14856129c4565b94506129db565b94509492505050565b600082612a345760019050612af0565b81612a425760009050612af0565b8160018114612a585760028114612a6257612a91565b6001915050612af0565b60ff841115612a7457612a7361282d565b5b8360020a915084821115612a8b57612a8a61282d565b5b50612af0565b5060208310610133831016604e8410600b8410161715612ac65782820a905083811115612ac157612ac061282d565b5b612af0565b612ad384848460016129d1565b92509050818404811115612aea57612ae961282d565b5b81810290505b9392505050565b6000612b0282612133565b9150612b0d836123de565b9250612b3a7fffffffffffffffffffffffffffffffffffffffffffffffffffffffffffffffff8484612a24565b905092915050565b6000604082019050612b57600083018561213d565b612b64602083018461213d565b9392505050565b7f4e487b7100000000000000000000000000000000000000000000000000000000600052601260045260246000fd5b7f4e487b7100000000000000000000000000000000000000000000000000000000600052602160045260246000fd5b6000612bd4826123de565b9150612bdf836123de565b925082612bef57612bee612b6b565b5b82820690509291505056fea2646970667358221220a57d2b23c9cb097096f7d5c66aef7be2aab55f787183ba7c474e899d6c274b4a64736f6c63430008140033",
  "linkReferences": {},
  "deployedLinkReferences": {}
}