{
  "_format": "hh-sol-artifact-1",
  "contractName": "Operator",
  "sourceName": "contracts/Operator.sol",
  "abi": [
    {
      "inputs": [],
      "stateMutability": "nonpayable",
      "type": "constructor"
    },
    {
      "inputs": [
        {
          "internalType": "uint256",
          "name": "amount",
          "type": "uint256"
        }
      ],
      "name": "borrowAgainstDelegation",
      "outputs": [],
      "stateMutability": "nonpayable",
      "type": "function"
    },
    {
      "inputs": [],
      "name": "eigen",
      "outputs": [
        {
          "internalType": "contract Eigen",
          "name": "",
          "type": "address"
        }
      ],
      "stateMutability": "view",
      "type": "function"
    },
    {
      "inputs": [],
      "name": "getLoanStatus",
      "outputs": [
        {
          "internalType": "uint256",
          "name": "amount",
          "type": "uint256"
        },
        {
          "internalType": "uint256",
          "name": "dueTime",
          "type": "uint256"
        },
        {
          "internalType": "bool",
          "name": "isRepaid",
          "type": "bool"
        }
      ],
      "stateMutability": "view",
      "type": "function"
    },
    {
      "inputs": [],
      "name": "getRepaymentAmount",
      "outputs": [
        {
          "internalType": "uint256",
          "name": "",
          "type": "uint256"
        }
      ],
      "stateMutability": "view",
      "type": "function"
    },
    {
      "inputs": [],
      "name": "getTotalDelegated",
      "outputs": [
        {
          "internalType": "uint256",
          "name": "",
          "type": "uint256"
        }
      ],
      "stateMutability": "view",
      "type": "function"
    },
    {
      "inputs": [],
      "name": "loanManager",
      "outputs": [
        {
          "internalType": "contract LoanManager",
          "name": "",
          "type": "address"
        }
      ],
      "stateMutability": "view",
      "type": "function"
    },
    {
      "inputs": [],
      "name": "owner",
      "outputs": [
        {
          "internalType": "address",
          "name": "",
          "type": "address"
        }
      ],
      "stateMutability": "view",
      "type": "function"
    },
    {
      "inputs": [],
      "name": "pusdToken",
      "outputs": [
        {
          "internalType": "contract PUSD",
          "name": "",
          "type": "address"
        }
      ],
      "stateMutability": "view",
      "type": "function"
    },
    {
      "inputs": [
        {
          "internalType": "address",
          "name": "token",
          "type": "address"
        },
        {
          "internalType": "address",
          "name": "to",
          "type": "address"
        },
        {
          "internalType": "uint256",
          "name": "amount",
          "type": "uint256"
        }
      ],
      "name": "recoverERC20",
      "outputs": [],
      "stateMutability": "nonpayable",
      "type": "function"
    },
    {
      "inputs": [],
      "name": "repayLoan",
      "outputs": [],
      "stateMutability": "nonpayable",
      "type": "function"
    },
    {
      "inputs": [
        {
          "internalType": "address",
          "name": "_eigen",
          "type": "address"
        }
      ],
      "name": "setEigen",
      "outputs": [],
      "stateMutability": "nonpayable",
      "type": "function"
    },
    {
      "inputs": [
        {
          "internalType": "address",
          "name": "_loanManager",
          "type": "address"
        }
      ],
      "name": "setLoanManager",
      "outputs": [],
      "stateMutability": "nonpayable",
      "type": "function"
    },
    {
      "inputs": [
        {
          "internalType": "address",
          "name": "_pusdToken",
          "type": "address"
        }
      ],
      "name": "setPUSD",
      "outputs": [],
      "stateMutability": "nonpayable",
      "type": "function"
    },
    {
      "inputs": [
        {
          "internalType": "address",
          "name": "to",
          "type": "address"
        },
        {
          "internalType": "uint256",
          "name": "amount",
          "type": "uint256"
        }
      ],
      "name": "transferPUSD",
      "outputs": [],
      "stateMutability": "nonpayable",
      "type": "function"
    }
  ],
  "bytecode": "0x608060405234801561001057600080fd5b5033600360006101000a81548173ffffffffffffffffffffffffffffffffffffffff021916908373ffffffffffffffffffffffffffffffffffffffff160217905550611508806100616000396000f3fe608060405234801561001057600080fd5b50600436106100ea5760003560e01c80637f7614b41161008c578063b3ccbcfe11610066578063b3ccbcfe14610213578063c66a8a6314610231578063f29768711461024d578063f966ade71461026b576100ea565b80637f7614b4146101b75780638da5cb5b146101d5578063acc1ab13146101f3576100ea565b8063361279c7116100c8578063361279c7146101455780635772ae70146101615780635fcd700a1461017d578063677c0c6714610199576100ea565b8063074f2543146100ef5780630c9b528a1461010d5780631171bda914610129575b600080fd5b6100f7610275565b6040516101049190610ea6565b60405180910390f35b61012760048036038101906101229190610ef2565b61030d565b005b610143600480360381019061013e9190610f7d565b61042d565b005b61015f600480360381019061015a9190610fd0565b610541565b005b61017b60048036038101906101769190610fd0565b610684565b005b61019760048036038101906101929190610fd0565b6107c7565b005b6101a1610909565b6040516101ae919061105c565b60405180910390f35b6101bf61092d565b6040516101cc9190611098565b60405180910390f35b6101dd610953565b6040516101ea91906110c2565b60405180910390f35b6101fb610979565b60405161020a939291906110f8565b60405180910390f35b61021b610a2e565b6040516102289190611150565b60405180910390f35b61024b6004803603810190610246919061116b565b610a54565b005b610255610b89565b6040516102629190610ea6565b60405180910390f35b610273610c20565b005b6000600160009054906101000a900473ffffffffffffffffffffffffffffffffffffffff1673ffffffffffffffffffffffffffffffffffffffff16637de614f06040518163ffffffff1660e01b8152600401602060405180830381865afa1580156102e4573d6000803e3d6000fd5b505050506040513d601f19601f8201168201806040525081019061030891906111c0565b905090565b600360009054906101000a900473ffffffffffffffffffffffffffffffffffffffff1673ffffffffffffffffffffffffffffffffffffffff163373ffffffffffffffffffffffffffffffffffffffff161461039d576040517f08c379a00000000000000000000000000000000000000000000000000000000081526004016103949061124a565b60405180910390fd5b600160009054906101000a900473ffffffffffffffffffffffffffffffffffffffff1673ffffffffffffffffffffffffffffffffffffffff16639a4e8ecf826040518263ffffffff1660e01b81526004016103f89190610ea6565b600060405180830381600087803b15801561041257600080fd5b505af1158015610426573d6000803e3d6000fd5b5050505050565b600360009054906101000a900473ffffffffffffffffffffffffffffffffffffffff1673ffffffffffffffffffffffffffffffffffffffff163373ffffffffffffffffffffffffffffffffffffffff16146104bd576040517f08c379a00000000000000000000000000000000000000000000000000000000081526004016104b49061124a565b60405180910390fd5b8273ffffffffffffffffffffffffffffffffffffffff1663a9059cbb83836040518363ffffffff1660e01b81526004016104f892919061126a565b6020604051808303816000875af1158015610517573d6000803e3d6000fd5b505050506040513d601f19601f8201168201806040525081019061053b91906112bf565b50505050565b600360009054906101000a900473ffffffffffffffffffffffffffffffffffffffff1673ffffffffffffffffffffffffffffffffffffffff163373ffffffffffffffffffffffffffffffffffffffff16146105d1576040517f08c379a00000000000000000000000000000000000000000000000000000000081526004016105c89061124a565b60405180910390fd5b600073ffffffffffffffffffffffffffffffffffffffff168173ffffffffffffffffffffffffffffffffffffffff1603610640576040517f08c379a000000000000000000000000000000000000000000000000000000000815260040161063790611338565b60405180910390fd5b80600260006101000a81548173ffffffffffffffffffffffffffffffffffffffff021916908373ffffffffffffffffffffffffffffffffffffffff16021790555050565b600360009054906101000a900473ffffffffffffffffffffffffffffffffffffffff1673ffffffffffffffffffffffffffffffffffffffff163373ffffffffffffffffffffffffffffffffffffffff1614610714576040517f08c379a000000000000000000000000000000000000000000000000000000000815260040161070b9061124a565b60405180910390fd5b600073ffffffffffffffffffffffffffffffffffffffff168173ffffffffffffffffffffffffffffffffffffffff1603610783576040517f08c379a000000000000000000000000000000000000000000000000000000000815260040161077a906113a4565b60405180910390fd5b80600160006101000a81548173ffffffffffffffffffffffffffffffffffffffff021916908373ffffffffffffffffffffffffffffffffffffffff16021790555050565b600360009054906101000a900473ffffffffffffffffffffffffffffffffffffffff1673ffffffffffffffffffffffffffffffffffffffff163373ffffffffffffffffffffffffffffffffffffffff1614610857576040517f08c379a000000000000000000000000000000000000000000000000000000000815260040161084e9061124a565b60405180910390fd5b600073ffffffffffffffffffffffffffffffffffffffff168173ffffffffffffffffffffffffffffffffffffffff16036108c6576040517f08c379a00000000000000000000000000000000000000000000000000000000081526004016108bd90611410565b60405180910390fd5b806000806101000a81548173ffffffffffffffffffffffffffffffffffffffff021916908373ffffffffffffffffffffffffffffffffffffffff16021790555050565b60008054906101000a900473ffffffffffffffffffffffffffffffffffffffff1681565b600260009054906101000a900473ffffffffffffffffffffffffffffffffffffffff1681565b600360009054906101000a900473ffffffffffffffffffffffffffffffffffffffff1681565b6000806000600160009054906101000a900473ffffffffffffffffffffffffffffffffffffffff1673ffffffffffffffffffffffffffffffffffffffff1663a3b9e39d6040518163ffffffff1660e01b815260040160e060405180830381865afa1580156109eb573d6000803e3d6000fd5b505050506040513d601f19601f82011682018060405250810190610a0f9190611430565b9091929394509091929350905050809350819450829550505050909192565b600160009054906101000a900473ffffffffffffffffffffffffffffffffffffffff1681565b600360009054906101000a900473ffffffffffffffffffffffffffffffffffffffff1673ffffffffffffffffffffffffffffffffffffffff163373ffffffffffffffffffffffffffffffffffffffff1614610ae4576040517f08c379a0000000000000000000000000000000000000000000000000000000008152600401610adb9061124a565b60405180910390fd5b600260009054906101000a900473ffffffffffffffffffffffffffffffffffffffff1673ffffffffffffffffffffffffffffffffffffffff1663a9059cbb83836040518363ffffffff1660e01b8152600401610b4192919061126a565b6020604051808303816000875af1158015610b60573d6000803e3d6000fd5b505050506040513d601f19601f82011682018060405250810190610b8491906112bf565b505050565b60008060009054906101000a900473ffffffffffffffffffffffffffffffffffffffff1673ffffffffffffffffffffffffffffffffffffffff1663f29768716040518163ffffffff1660e01b8152600401602060405180830381865afa158015610bf7573d6000803e3d6000fd5b505050506040513d601f19601f82011682018060405250810190610c1b91906111c0565b905090565b600360009054906101000a900473ffffffffffffffffffffffffffffffffffffffff1673ffffffffffffffffffffffffffffffffffffffff163373ffffffffffffffffffffffffffffffffffffffff1614610cb0576040517f08c379a0000000000000000000000000000000000000000000000000000000008152600401610ca79061124a565b60405180910390fd5b6000600160009054906101000a900473ffffffffffffffffffffffffffffffffffffffff1673ffffffffffffffffffffffffffffffffffffffff16637de614f06040518163ffffffff1660e01b8152600401602060405180830381865afa158015610d1f573d6000803e3d6000fd5b505050506040513d601f19601f82011682018060405250810190610d4391906111c0565b9050600260009054906101000a900473ffffffffffffffffffffffffffffffffffffffff1673ffffffffffffffffffffffffffffffffffffffff1663095ea7b3600160009054906101000a900473ffffffffffffffffffffffffffffffffffffffff16836040518363ffffffff1660e01b8152600401610dc492919061126a565b6020604051808303816000875af1158015610de3573d6000803e3d6000fd5b505050506040513d601f19601f82011682018060405250810190610e0791906112bf565b50600160009054906101000a900473ffffffffffffffffffffffffffffffffffffffff1673ffffffffffffffffffffffffffffffffffffffff1663f966ade76040518163ffffffff1660e01b8152600401600060405180830381600087803b158015610e7257600080fd5b505af1158015610e86573d6000803e3d6000fd5b5050505050565b6000819050919050565b610ea081610e8d565b82525050565b6000602082019050610ebb6000830184610e97565b92915050565b600080fd5b610ecf81610e8d565b8114610eda57600080fd5b50565b600081359050610eec81610ec6565b92915050565b600060208284031215610f0857610f07610ec1565b5b6000610f1684828501610edd565b91505092915050565b600073ffffffffffffffffffffffffffffffffffffffff82169050919050565b6000610f4a82610f1f565b9050919050565b610f5a81610f3f565b8114610f6557600080fd5b50565b600081359050610f7781610f51565b92915050565b600080600060608486031215610f9657610f95610ec1565b5b6000610fa486828701610f68565b9350506020610fb586828701610f68565b9250506040610fc686828701610edd565b9150509250925092565b600060208284031215610fe657610fe5610ec1565b5b6000610ff484828501610f68565b91505092915050565b6000819050919050565b600061102261101d61101884610f1f565b610ffd565b610f1f565b9050919050565b600061103482611007565b9050919050565b600061104682611029565b9050919050565b6110568161103b565b82525050565b6000602082019050611071600083018461104d565b92915050565b600061108282611029565b9050919050565b61109281611077565b82525050565b60006020820190506110ad6000830184611089565b92915050565b6110bc81610f3f565b82525050565b60006020820190506110d760008301846110b3565b92915050565b60008115159050919050565b6110f2816110dd565b82525050565b600060608201905061110d6000830186610e97565b61111a6020830185610e97565b61112760408301846110e9565b949350505050565b600061113a82611029565b9050919050565b61114a8161112f565b82525050565b60006020820190506111656000830184611141565b92915050565b6000806040838503121561118257611181610ec1565b5b600061119085828601610f68565b92505060206111a185828601610edd565b9150509250929050565b6000815190506111ba81610ec6565b92915050565b6000602082840312156111d6576111d5610ec1565b5b60006111e4848285016111ab565b91505092915050565b600082825260208201905092915050565b7f4e6f7420617574686f72697a6564000000000000000000000000000000000000600082015250565b6000611234600e836111ed565b915061123f826111fe565b602082019050919050565b6000602082019050818103600083015261126381611227565b9050919050565b600060408201905061127f60008301856110b3565b61128c6020830184610e97565b9392505050565b61129c816110dd565b81146112a757600080fd5b50565b6000815190506112b981611293565b92915050565b6000602082840312156112d5576112d4610ec1565b5b60006112e3848285016112aa565b91505092915050565b7f496e76616c6964205055534420746f6b656e2061646472657373000000000000600082015250565b6000611322601a836111ed565b915061132d826112ec565b602082019050919050565b6000602082019050818103600083015261135181611315565b9050919050565b7f496e76616c6964206c6f616e206d616e61676572206164647265737300000000600082015250565b600061138e601c836111ed565b915061139982611358565b602082019050919050565b600060208201905081810360008301526113bd81611381565b9050919050565b7f496e76616c696420656967656e20616464726573730000000000000000000000600082015250565b60006113fa6015836111ed565b9150611405826113c4565b602082019050919050565b60006020820190508181036000830152611429816113ed565b9050919050565b600080600080600080600060e0888a03121561144f5761144e610ec1565b5b600061145d8a828b016111ab565b975050602061146e8a828b016111ab565b965050604061147f8a828b016111ab565b95505060606114908a828b016111ab565b94505060806114a18a828b016112aa565b93505060a06114b28a828b016111ab565b92505060c06114c38a828b016111ab565b9150509295989194975092955056fea2646970667358221220f88c9e70e59551cbb003cbc5967f3ec2608cbdd8914cb87ebc0afd33738920ee64736f6c63430008140033",
  "linkReferences": {},
  "deployedLinkReferences": {}
}